{
	"contracts/X.sol": {
		"X": {
			"abi": [
				{
					"inputs": [
						{
							"internalType": "address",
							"name": "_profileContract",
							"type": "address"
						}
					],
					"stateMutability": "nonpayable",
					"type": "constructor"
				},
				{
					"anonymous": false,
					"inputs": [
						{
							"indexed": true,
							"internalType": "address",
							"name": "previousOwner",
							"type": "address"
						},
						{
							"indexed": true,
							"internalType": "address",
							"name": "newOwner",
							"type": "address"
						}
					],
					"name": "OwnershipTransferred",
					"type": "event"
				},
				{
					"anonymous": false,
					"inputs": [
						{
							"indexed": false,
							"internalType": "uint256",
							"name": "id",
							"type": "uint256"
						},
						{
							"indexed": false,
							"internalType": "address",
							"name": "author",
							"type": "address"
						},
						{
							"indexed": false,
							"internalType": "string",
							"name": "content",
							"type": "string"
						},
						{
							"indexed": false,
							"internalType": "uint256",
							"name": "timestamp",
							"type": "uint256"
						}
					],
					"name": "TweetCreated",
					"type": "event"
				},
				{
					"anonymous": false,
					"inputs": [
						{
							"indexed": false,
							"internalType": "address",
							"name": "liker",
							"type": "address"
						},
						{
							"indexed": false,
							"internalType": "address",
							"name": "tweetAuthor",
							"type": "address"
						},
						{
							"indexed": false,
							"internalType": "uint256",
							"name": "tweetId",
							"type": "uint256"
						},
						{
							"indexed": false,
							"internalType": "uint256",
							"name": "newLikeCount",
							"type": "uint256"
						}
					],
					"name": "TweetLiked",
					"type": "event"
				},
				{
					"anonymous": false,
					"inputs": [
						{
							"indexed": false,
							"internalType": "address",
							"name": "unliker",
							"type": "address"
						},
						{
							"indexed": false,
							"internalType": "address",
							"name": "tweetAuthor",
							"type": "address"
						},
						{
							"indexed": false,
							"internalType": "uint256",
							"name": "tweetId",
							"type": "uint256"
						},
						{
							"indexed": false,
							"internalType": "uint256",
							"name": "newLikeCount",
							"type": "uint256"
						}
					],
					"name": "TweetUnliked",
					"type": "event"
				},
				{
					"inputs": [],
					"name": "MAX_TWEET_LENGTH",
					"outputs": [
						{
							"internalType": "uint16",
							"name": "",
							"type": "uint16"
						}
					],
					"stateMutability": "view",
					"type": "function"
				},
				{
					"inputs": [
						{
							"internalType": "uint16",
							"name": "newTweetLength",
							"type": "uint16"
						}
					],
					"name": "changeTweetLength",
					"outputs": [],
					"stateMutability": "nonpayable",
					"type": "function"
				},
				{
					"inputs": [
						{
							"internalType": "string",
							"name": "_tweet",
							"type": "string"
						}
					],
					"name": "createTweet",
					"outputs": [],
					"stateMutability": "nonpayable",
					"type": "function"
				},
				{
					"inputs": [
						{
							"internalType": "address",
							"name": "_owner",
							"type": "address"
						}
					],
					"name": "getAllTweets",
					"outputs": [
						{
							"components": [
								{
									"internalType": "uint256",
									"name": "id",
									"type": "uint256"
								},
								{
									"internalType": "address",
									"name": "author",
									"type": "address"
								},
								{
									"internalType": "string",
									"name": "content",
									"type": "string"
								},
								{
									"internalType": "uint256",
									"name": "timestamp",
									"type": "uint256"
								},
								{
									"internalType": "uint256",
									"name": "likes",
									"type": "uint256"
								}
							],
							"internalType": "struct X.Tweet[]",
							"name": "",
							"type": "tuple[]"
						}
					],
					"stateMutability": "view",
					"type": "function"
				},
				{
					"inputs": [
						{
							"internalType": "address",
							"name": "_author",
							"type": "address"
						}
					],
					"name": "getTotalLikes",
					"outputs": [
						{
							"internalType": "uint256",
							"name": "",
							"type": "uint256"
						}
					],
					"stateMutability": "view",
					"type": "function"
				},
				{
					"inputs": [
						{
							"internalType": "address",
							"name": "_owner",
							"type": "address"
						},
						{
							"internalType": "uint256",
							"name": "_i",
							"type": "uint256"
						}
					],
					"name": "getTweet",
					"outputs": [
						{
							"components": [
								{
									"internalType": "uint256",
									"name": "id",
									"type": "uint256"
								},
								{
									"internalType": "address",
									"name": "author",
									"type": "address"
								},
								{
									"internalType": "string",
									"name": "content",
									"type": "string"
								},
								{
									"internalType": "uint256",
									"name": "timestamp",
									"type": "uint256"
								},
								{
									"internalType": "uint256",
									"name": "likes",
									"type": "uint256"
								}
							],
							"internalType": "struct X.Tweet",
							"name": "",
							"type": "tuple"
						}
					],
					"stateMutability": "view",
					"type": "function"
				},
				{
					"inputs": [
						{
							"internalType": "address",
							"name": "_author",
							"type": "address"
						},
						{
							"internalType": "uint256",
							"name": "_id",
							"type": "uint256"
						}
					],
					"name": "likeTweet",
					"outputs": [],
					"stateMutability": "nonpayable",
					"type": "function"
				},
				{
					"inputs": [],
					"name": "owner",
					"outputs": [
						{
							"internalType": "address",
							"name": "",
							"type": "address"
						}
					],
					"stateMutability": "view",
					"type": "function"
				},
				{
					"inputs": [],
					"name": "renounceOwnership",
					"outputs": [],
					"stateMutability": "nonpayable",
					"type": "function"
				},
				{
					"inputs": [
						{
							"internalType": "address",
							"name": "newOwner",
							"type": "address"
						}
					],
					"name": "transferOwnership",
					"outputs": [],
					"stateMutability": "nonpayable",
					"type": "function"
				},
				{
					"inputs": [
						{
							"internalType": "address",
							"name": "",
							"type": "address"
						},
						{
							"internalType": "uint256",
							"name": "",
							"type": "uint256"
						}
					],
					"name": "tweets",
					"outputs": [
						{
							"internalType": "uint256",
							"name": "id",
							"type": "uint256"
						},
						{
							"internalType": "address",
							"name": "author",
							"type": "address"
						},
						{
							"internalType": "string",
							"name": "content",
							"type": "string"
						},
						{
							"internalType": "uint256",
							"name": "timestamp",
							"type": "uint256"
						},
						{
							"internalType": "uint256",
							"name": "likes",
							"type": "uint256"
						}
					],
					"stateMutability": "view",
					"type": "function"
				},
				{
					"inputs": [
						{
							"internalType": "address",
							"name": "_author",
							"type": "address"
						},
						{
							"internalType": "uint256",
							"name": "_id",
							"type": "uint256"
						}
					],
					"name": "unlikeTweet",
					"outputs": [],
					"stateMutability": "nonpayable",
					"type": "function"
				}
			],
			"devdoc": {
				"kind": "dev",
				"methods": {
					"owner()": {
						"details": "Returns the address of the current owner."
					},
					"renounceOwnership()": {
						"details": "Leaves the contract without owner. It will not be possible to call `onlyOwner` functions. Can only be called by the current owner. NOTE: Renouncing ownership will leave the contract without an owner, thereby disabling any functionality that is only available to the owner."
					},
					"transferOwnership(address)": {
						"details": "Transfers ownership of the contract to a new account (`newOwner`). Can only be called by the current owner."
					}
				},
				"version": 1
			},
			"evm": {
				"assembly": "    /* \"contracts/X.sol\":295:3196  contract X is Ownable {... */\n  mstore(0x40, 0x80)\n    /* \"contracts/X.sol\":356:359  280 */\n  0x0118\n    /* \"contracts/X.sol\":323:359  uint16 public MAX_TWEET_LENGTH = 280 */\n  0x00\n  exp(0x0100, 0x14)\n  dup2\n  sload\n  dup2\n  0xffff\n  mul\n  not\n  and\n  swap1\n  dup4\n  0xffff\n  and\n  mul\n  or\n  swap1\n  sstore\n  pop\n    /* \"contracts/X.sol\":1219:1317  constructor(address _profileContract){... */\n  callvalue\n  dup1\n  iszero\n  tag_1\n  jumpi\n  0x00\n  dup1\n  revert\ntag_1:\n  pop\n  mload(0x40)\n  sub(codesize, bytecodeSize)\n  dup1\n  bytecodeSize\n  dup4\n  codecopy\n  dup2\n  dup2\n  add\n  0x40\n  mstore\n  dup2\n  add\n  swap1\n  tag_2\n  swap2\n  swap1\n  tag_3\n  jump\t// in\ntag_2:\n    /* \"@openzeppelin/contracts/access/Ownable.sol\":936:968  _transferOwnership(_msgSender()) */\n  tag_7\n    /* \"@openzeppelin/contracts/access/Ownable.sol\":955:967  _msgSender() */\n  tag_8\n    /* \"@openzeppelin/contracts/access/Ownable.sol\":955:965  _msgSender */\n  shl(0x20, tag_9)\n    /* \"@openzeppelin/contracts/access/Ownable.sol\":955:967  _msgSender() */\n  0x20\n  shr\n  jump\t// in\ntag_8:\n    /* \"@openzeppelin/contracts/access/Ownable.sol\":936:954  _transferOwnership */\n  shl(0x20, tag_10)\n    /* \"@openzeppelin/contracts/access/Ownable.sol\":936:968  _transferOwnership(_msgSender()) */\n  0x20\n  shr\n  jump\t// in\ntag_7:\n    /* \"contracts/X.sol\":1293:1309  _profileContract */\n  dup1\n    /* \"contracts/X.sol\":1266:1281  profileContract */\n  0x02\n  0x00\n    /* \"contracts/X.sol\":1266:1310  profileContract = IProfile(_profileContract) */\n  0x0100\n  exp\n  dup2\n  sload\n  dup2\n  0xffffffffffffffffffffffffffffffffffffffff\n  mul\n  not\n  and\n  swap1\n  dup4\n  0xffffffffffffffffffffffffffffffffffffffff\n  and\n  mul\n  or\n  swap1\n  sstore\n  pop\n    /* \"contracts/X.sol\":1219:1317  constructor(address _profileContract){... */\n  pop\n    /* \"contracts/X.sol\":295:3196  contract X is Ownable {... */\n  jump(tag_12)\n    /* \"@openzeppelin/contracts/utils/Context.sol\":640:736  function _msgSender() internal view virtual returns (address) {... */\ntag_9:\n    /* \"@openzeppelin/contracts/utils/Context.sol\":693:700  address */\n  0x00\n    /* \"@openzeppelin/contracts/utils/Context.sol\":719:729  msg.sender */\n  caller\n    /* \"@openzeppelin/contracts/utils/Context.sol\":712:729  return msg.sender */\n  swap1\n  pop\n    /* \"@openzeppelin/contracts/utils/Context.sol\":640:736  function _msgSender() internal view virtual returns (address) {... */\n  swap1\n  jump\t// out\n    /* \"@openzeppelin/contracts/access/Ownable.sol\":2426:2613  function _transferOwnership(address newOwner) internal virtual {... */\ntag_10:\n    /* \"@openzeppelin/contracts/access/Ownable.sol\":2499:2515  address oldOwner */\n  0x00\n    /* \"@openzeppelin/contracts/access/Ownable.sol\":2518:2524  _owner */\n  dup1\n  0x00\n  swap1\n  sload\n  swap1\n  0x0100\n  exp\n  swap1\n  div\n  0xffffffffffffffffffffffffffffffffffffffff\n  and\n    /* \"@openzeppelin/contracts/access/Ownable.sol\":2499:2524  address oldOwner = _owner */\n  swap1\n  pop\n    /* \"@openzeppelin/contracts/access/Ownable.sol\":2543:2551  newOwner */\n  dup2\n    /* \"@openzeppelin/contracts/access/Ownable.sol\":2534:2540  _owner */\n  0x00\n  dup1\n    /* \"@openzeppelin/contracts/access/Ownable.sol\":2534:2551  _owner = newOwner */\n  0x0100\n  exp\n  dup2\n  sload\n  dup2\n  0xffffffffffffffffffffffffffffffffffffffff\n  mul\n  not\n  and\n  swap1\n  dup4\n  0xffffffffffffffffffffffffffffffffffffffff\n  and\n  mul\n  or\n  swap1\n  sstore\n  pop\n    /* \"@openzeppelin/contracts/access/Ownable.sol\":2597:2605  newOwner */\n  dup2\n    /* \"@openzeppelin/contracts/access/Ownable.sol\":2566:2606  OwnershipTransferred(oldOwner, newOwner) */\n  0xffffffffffffffffffffffffffffffffffffffff\n  and\n    /* \"@openzeppelin/contracts/access/Ownable.sol\":2587:2595  oldOwner */\n  dup2\n    /* \"@openzeppelin/contracts/access/Ownable.sol\":2566:2606  OwnershipTransferred(oldOwner, newOwner) */\n  0xffffffffffffffffffffffffffffffffffffffff\n  and\n  0x8be0079c531659141344cd1fd0a4f28419497f9722a3daafe3b4186f6b6457e0\n  mload(0x40)\n  mload(0x40)\n  dup1\n  swap2\n  sub\n  swap1\n  log3\n    /* \"@openzeppelin/contracts/access/Ownable.sol\":2489:2613  {... */\n  pop\n    /* \"@openzeppelin/contracts/access/Ownable.sol\":2426:2613  function _transferOwnership(address newOwner) internal virtual {... */\n  pop\n  jump\t// out\n    /* \"#utility.yul\":88:205   */\ntag_16:\n    /* \"#utility.yul\":197:198   */\n  0x00\n    /* \"#utility.yul\":194:195   */\n  dup1\n    /* \"#utility.yul\":187:199   */\n  revert\n    /* \"#utility.yul\":334:460   */\ntag_18:\n    /* \"#utility.yul\":371:378   */\n  0x00\n    /* \"#utility.yul\":411:453   */\n  0xffffffffffffffffffffffffffffffffffffffff\n    /* \"#utility.yul\":404:409   */\n  dup3\n    /* \"#utility.yul\":400:454   */\n  and\n    /* \"#utility.yul\":389:454   */\n  swap1\n  pop\n    /* \"#utility.yul\":334:460   */\n  swap2\n  swap1\n  pop\n  jump\t// out\n    /* \"#utility.yul\":466:562   */\ntag_19:\n    /* \"#utility.yul\":503:510   */\n  0x00\n    /* \"#utility.yul\":532:556   */\n  tag_28\n    /* \"#utility.yul\":550:555   */\n  dup3\n    /* \"#utility.yul\":532:556   */\n  tag_18\n  jump\t// in\ntag_28:\n    /* \"#utility.yul\":521:556   */\n  swap1\n  pop\n    /* \"#utility.yul\":466:562   */\n  swap2\n  swap1\n  pop\n  jump\t// out\n    /* \"#utility.yul\":568:690   */\ntag_20:\n    /* \"#utility.yul\":641:665   */\n  tag_30\n    /* \"#utility.yul\":659:664   */\n  dup2\n    /* \"#utility.yul\":641:665   */\n  tag_19\n  jump\t// in\ntag_30:\n    /* \"#utility.yul\":634:639   */\n  dup2\n    /* \"#utility.yul\":631:666   */\n  eq\n    /* \"#utility.yul\":621:684   */\n  tag_31\n  jumpi\n    /* \"#utility.yul\":680:681   */\n  0x00\n    /* \"#utility.yul\":677:678   */\n  dup1\n    /* \"#utility.yul\":670:682   */\n  revert\n    /* \"#utility.yul\":621:684   */\ntag_31:\n    /* \"#utility.yul\":568:690   */\n  pop\n  jump\t// out\n    /* \"#utility.yul\":696:839   */\ntag_21:\n    /* \"#utility.yul\":753:758   */\n  0x00\n    /* \"#utility.yul\":784:790   */\n  dup2\n    /* \"#utility.yul\":778:791   */\n  mload\n    /* \"#utility.yul\":769:791   */\n  swap1\n  pop\n    /* \"#utility.yul\":800:833   */\n  tag_33\n    /* \"#utility.yul\":827:832   */\n  dup2\n    /* \"#utility.yul\":800:833   */\n  tag_20\n  jump\t// in\ntag_33:\n    /* \"#utility.yul\":696:839   */\n  swap3\n  swap2\n  pop\n  pop\n  jump\t// out\n    /* \"#utility.yul\":845:1196   */\ntag_3:\n    /* \"#utility.yul\":915:921   */\n  0x00\n    /* \"#utility.yul\":964:966   */\n  0x20\n    /* \"#utility.yul\":952:961   */\n  dup3\n    /* \"#utility.yul\":943:950   */\n  dup5\n    /* \"#utility.yul\":939:962   */\n  sub\n    /* \"#utility.yul\":935:967   */\n  slt\n    /* \"#utility.yul\":932:1051   */\n  iszero\n  tag_35\n  jumpi\n    /* \"#utility.yul\":970:1049   */\n  tag_36\n  tag_16\n  jump\t// in\ntag_36:\n    /* \"#utility.yul\":932:1051   */\ntag_35:\n    /* \"#utility.yul\":1090:1091   */\n  0x00\n    /* \"#utility.yul\":1115:1179   */\n  tag_37\n    /* \"#utility.yul\":1171:1178   */\n  dup5\n    /* \"#utility.yul\":1162:1168   */\n  dup3\n    /* \"#utility.yul\":1151:1160   */\n  dup6\n    /* \"#utility.yul\":1147:1169   */\n  add\n    /* \"#utility.yul\":1115:1179   */\n  tag_21\n  jump\t// in\ntag_37:\n    /* \"#utility.yul\":1105:1179   */\n  swap2\n  pop\n    /* \"#utility.yul\":1061:1189   */\n  pop\n    /* \"#utility.yul\":845:1196   */\n  swap3\n  swap2\n  pop\n  pop\n  jump\t// out\n    /* \"contracts/X.sol\":295:3196  contract X is Ownable {... */\ntag_12:\n  dataSize(sub_0)\n  dup1\n  dataOffset(sub_0)\n  0x00\n  codecopy\n  0x00\n  return\nstop\n\nsub_0: assembly {\n        /* \"contracts/X.sol\":295:3196  contract X is Ownable {... */\n      mstore(0x40, 0x80)\n      callvalue\n      dup1\n      iszero\n      tag_1\n      jumpi\n      0x00\n      dup1\n      revert\n    tag_1:\n      pop\n      jumpi(tag_2, lt(calldatasize, 0x04))\n      shr(0xe0, calldataload(0x00))\n      dup1\n      0x6eb10797\n      gt\n      tag_15\n      jumpi\n      dup1\n      0x6eb10797\n      eq\n      tag_9\n      jumpi\n      dup1\n      0x715018a6\n      eq\n      tag_10\n      jumpi\n      dup1\n      0x7c9cd2bc\n      eq\n      tag_11\n      jumpi\n      dup1\n      0x820785cc\n      eq\n      tag_12\n      jumpi\n      dup1\n      0x8da5cb5b\n      eq\n      tag_13\n      jumpi\n      dup1\n      0xf2fde38b\n      eq\n      tag_14\n      jumpi\n      jump(tag_2)\n    tag_15:\n      dup1\n      0x05a1b4a9\n      eq\n      tag_3\n      jumpi\n      dup1\n      0x112f54e3\n      eq\n      tag_4\n      jumpi\n      dup1\n      0x12e7ee1c\n      eq\n      tag_5\n      jumpi\n      dup1\n      0x3d9b569f\n      eq\n      tag_6\n      jumpi\n      dup1\n      0x58bfa4ab\n      eq\n      tag_7\n      jumpi\n      dup1\n      0x63378216\n      eq\n      tag_8\n      jumpi\n    tag_2:\n      0x00\n      dup1\n      revert\n        /* \"contracts/X.sol\":510:551  mapping(address => Tweet[]) public tweets */\n    tag_3:\n      tag_16\n      0x04\n      dup1\n      calldatasize\n      sub\n      dup2\n      add\n      swap1\n      tag_17\n      swap2\n      swap1\n      tag_18\n      jump\t// in\n    tag_17:\n      tag_19\n      jump\t// in\n    tag_16:\n      mload(0x40)\n      tag_20\n      swap6\n      swap5\n      swap4\n      swap3\n      swap2\n      swap1\n      tag_21\n      jump\t// in\n    tag_20:\n      mload(0x40)\n      dup1\n      swap2\n      sub\n      swap1\n      return\n        /* \"contracts/X.sol\":2924:3075  function getTweet(address _owner, uint256 _i)... */\n    tag_4:\n      tag_22\n      0x04\n      dup1\n      calldatasize\n      sub\n      dup2\n      add\n      swap1\n      tag_23\n      swap2\n      swap1\n      tag_18\n      jump\t// in\n    tag_23:\n      tag_24\n      jump\t// in\n    tag_22:\n      mload(0x40)\n      tag_25\n      swap2\n      swap1\n      tag_26\n      jump\t// in\n    tag_25:\n      mload(0x40)\n      dup1\n      swap2\n      sub\n      swap1\n      return\n        /* \"contracts/X.sol\":3081:3194  function getAllTweets(address _owner) public view returns (Tweet[] memory) {... */\n    tag_5:\n      tag_27\n      0x04\n      dup1\n      calldatasize\n      sub\n      dup2\n      add\n      swap1\n      tag_28\n      swap2\n      swap1\n      tag_29\n      jump\t// in\n    tag_28:\n      tag_30\n      jump\t// in\n    tag_27:\n      mload(0x40)\n      tag_31\n      swap2\n      swap1\n      tag_32\n      jump\t// in\n    tag_31:\n      mload(0x40)\n      dup1\n      swap2\n      sub\n      swap1\n      return\n        /* \"contracts/X.sol\":2570:2918  function unlikeTweet(address _author, uint256 _id) external onlyRegistered{... */\n    tag_6:\n      tag_33\n      0x04\n      dup1\n      calldatasize\n      sub\n      dup2\n      add\n      swap1\n      tag_34\n      swap2\n      swap1\n      tag_18\n      jump\t// in\n    tag_34:\n      tag_35\n      jump\t// in\n    tag_33:\n      stop\n        /* \"contracts/X.sol\":1323:1440  function changeTweetLength(uint16 newTweetLength) public onlyOwner {... */\n    tag_7:\n      tag_36\n      0x04\n      dup1\n      calldatasize\n      sub\n      dup2\n      add\n      swap1\n      tag_37\n      swap2\n      swap1\n      tag_38\n      jump\t// in\n    tag_37:\n      tag_39\n      jump\t// in\n    tag_36:\n      stop\n        /* \"contracts/X.sol\":2292:2564  function likeTweet(address _author, uint256 _id) external onlyRegistered{... */\n    tag_8:\n      tag_40\n      0x04\n      dup1\n      calldatasize\n      sub\n      dup2\n      add\n      swap1\n      tag_41\n      swap2\n      swap1\n      tag_18\n      jump\t// in\n    tag_41:\n      tag_42\n      jump\t// in\n    tag_40:\n      stop\n        /* \"contracts/X.sol\":323:359  uint16 public MAX_TWEET_LENGTH = 280 */\n    tag_9:\n      tag_43\n      tag_44\n      jump\t// in\n    tag_43:\n      mload(0x40)\n      tag_45\n      swap2\n      swap1\n      tag_46\n      jump\t// in\n    tag_45:\n      mload(0x40)\n      dup1\n      swap2\n      sub\n      swap1\n      return\n        /* \"@openzeppelin/contracts/access/Ownable.sol\":1824:1925  function renounceOwnership() public virtual onlyOwner {... */\n    tag_10:\n      tag_47\n      tag_48\n      jump\t// in\n    tag_47:\n      stop\n        /* \"contracts/X.sol\":1721:2286  function createTweet(string memory _tweet) public onlyRegistered{... */\n    tag_11:\n      tag_49\n      0x04\n      dup1\n      calldatasize\n      sub\n      dup2\n      add\n      swap1\n      tag_50\n      swap2\n      swap1\n      tag_51\n      jump\t// in\n    tag_50:\n      tag_52\n      jump\t// in\n    tag_49:\n      stop\n        /* \"contracts/X.sol\":1446:1715  function getTotalLikes(address _author) external view returns (uint256) {... */\n    tag_12:\n      tag_53\n      0x04\n      dup1\n      calldatasize\n      sub\n      dup2\n      add\n      swap1\n      tag_54\n      swap2\n      swap1\n      tag_29\n      jump\t// in\n    tag_54:\n      tag_55\n      jump\t// in\n    tag_53:\n      mload(0x40)\n      tag_56\n      swap2\n      swap1\n      tag_57\n      jump\t// in\n    tag_56:\n      mload(0x40)\n      dup1\n      swap2\n      sub\n      swap1\n      return\n        /* \"@openzeppelin/contracts/access/Ownable.sol\":1201:1286  function owner() public view virtual returns (address) {... */\n    tag_13:\n      tag_58\n      tag_59\n      jump\t// in\n    tag_58:\n      mload(0x40)\n      tag_60\n      swap2\n      swap1\n      tag_61\n      jump\t// in\n    tag_60:\n      mload(0x40)\n      dup1\n      swap2\n      sub\n      swap1\n      return\n        /* \"@openzeppelin/contracts/access/Ownable.sol\":2074:2272  function transferOwnership(address newOwner) public virtual onlyOwner {... */\n    tag_14:\n      tag_62\n      0x04\n      dup1\n      calldatasize\n      sub\n      dup2\n      add\n      swap1\n      tag_63\n      swap2\n      swap1\n      tag_29\n      jump\t// in\n    tag_63:\n      tag_64\n      jump\t// in\n    tag_62:\n      stop\n        /* \"contracts/X.sol\":510:551  mapping(address => Tweet[]) public tweets */\n    tag_19:\n      mstore(0x20, 0x01)\n      dup2\n      0x00\n      mstore\n      keccak256(0x00, 0x40)\n      dup2\n      dup2\n      sload\n      dup2\n      lt\n      tag_65\n      jumpi\n      0x00\n      dup1\n      revert\n    tag_65:\n      swap1\n      0x00\n      mstore\n      keccak256(0x00, 0x20)\n      swap1\n      0x05\n      mul\n      add\n      0x00\n      swap2\n      pop\n      swap2\n      pop\n      pop\n      dup1\n      0x00\n      add\n      sload\n      swap1\n      dup1\n      0x01\n      add\n      0x00\n      swap1\n      sload\n      swap1\n      0x0100\n      exp\n      swap1\n      div\n      0xffffffffffffffffffffffffffffffffffffffff\n      and\n      swap1\n      dup1\n      0x02\n      add\n      dup1\n      sload\n      tag_67\n      swap1\n      tag_68\n      jump\t// in\n    tag_67:\n      dup1\n      0x1f\n      add\n      0x20\n      dup1\n      swap2\n      div\n      mul\n      0x20\n      add\n      mload(0x40)\n      swap1\n      dup2\n      add\n      0x40\n      mstore\n      dup1\n      swap3\n      swap2\n      swap1\n      dup2\n      dup2\n      mstore\n      0x20\n      add\n      dup3\n      dup1\n      sload\n      tag_69\n      swap1\n      tag_68\n      jump\t// in\n    tag_69:\n      dup1\n      iszero\n      tag_70\n      jumpi\n      dup1\n      0x1f\n      lt\n      tag_71\n      jumpi\n      0x0100\n      dup1\n      dup4\n      sload\n      div\n      mul\n      dup4\n      mstore\n      swap2\n      0x20\n      add\n      swap2\n      jump(tag_70)\n    tag_71:\n      dup3\n      add\n      swap2\n      swap1\n      0x00\n      mstore\n      keccak256(0x00, 0x20)\n      swap1\n    tag_72:\n      dup2\n      sload\n      dup2\n      mstore\n      swap1\n      0x01\n      add\n      swap1\n      0x20\n      add\n      dup1\n      dup4\n      gt\n      tag_72\n      jumpi\n      dup3\n      swap1\n      sub\n      0x1f\n      and\n      dup3\n      add\n      swap2\n    tag_70:\n      pop\n      pop\n      pop\n      pop\n      pop\n      swap1\n      dup1\n      0x03\n      add\n      sload\n      swap1\n      dup1\n      0x04\n      add\n      sload\n      swap1\n      pop\n      dup6\n      jump\t// out\n        /* \"contracts/X.sol\":2924:3075  function getTweet(address _owner, uint256 _i)... */\n    tag_24:\n        /* \"contracts/X.sol\":3015:3027  Tweet memory */\n      tag_73\n      tag_74\n      jump\t// in\n    tag_73:\n        /* \"contracts/X.sol\":3050:3056  tweets */\n      0x01\n        /* \"contracts/X.sol\":3050:3064  tweets[_owner] */\n      0x00\n        /* \"contracts/X.sol\":3057:3063  _owner */\n      dup5\n        /* \"contracts/X.sol\":3050:3064  tweets[_owner] */\n      0xffffffffffffffffffffffffffffffffffffffff\n      and\n      0xffffffffffffffffffffffffffffffffffffffff\n      and\n      dup2\n      mstore\n      0x20\n      add\n      swap1\n      dup2\n      mstore\n      0x20\n      add\n      0x00\n      keccak256\n        /* \"contracts/X.sol\":3065:3067  _i */\n      dup3\n        /* \"contracts/X.sol\":3050:3068  tweets[_owner][_i] */\n      dup2\n      sload\n      dup2\n      lt\n      tag_76\n      jumpi\n      tag_77\n      tag_78\n      jump\t// in\n    tag_77:\n    tag_76:\n      swap1\n      0x00\n      mstore\n      keccak256(0x00, 0x20)\n      swap1\n      0x05\n      mul\n      add\n        /* \"contracts/X.sol\":3043:3068  return tweets[_owner][_i] */\n      mload(0x40)\n      dup1\n      0xa0\n      add\n      0x40\n      mstore\n      swap1\n      dup2\n      0x00\n      dup3\n      add\n      sload\n      dup2\n      mstore\n      0x20\n      add\n      0x01\n      dup3\n      add\n      0x00\n      swap1\n      sload\n      swap1\n      0x0100\n      exp\n      swap1\n      div\n      0xffffffffffffffffffffffffffffffffffffffff\n      and\n      0xffffffffffffffffffffffffffffffffffffffff\n      and\n      0xffffffffffffffffffffffffffffffffffffffff\n      and\n      dup2\n      mstore\n      0x20\n      add\n      0x02\n      dup3\n      add\n      dup1\n      sload\n      tag_80\n      swap1\n      tag_68\n      jump\t// in\n    tag_80:\n      dup1\n      0x1f\n      add\n      0x20\n      dup1\n      swap2\n      div\n      mul\n      0x20\n      add\n      mload(0x40)\n      swap1\n      dup2\n      add\n      0x40\n      mstore\n      dup1\n      swap3\n      swap2\n      swap1\n      dup2\n      dup2\n      mstore\n      0x20\n      add\n      dup3\n      dup1\n      sload\n      tag_81\n      swap1\n      tag_68\n      jump\t// in\n    tag_81:\n      dup1\n      iszero\n      tag_82\n      jumpi\n      dup1\n      0x1f\n      lt\n      tag_83\n      jumpi\n      0x0100\n      dup1\n      dup4\n      sload\n      div\n      mul\n      dup4\n      mstore\n      swap2\n      0x20\n      add\n      swap2\n      jump(tag_82)\n    tag_83:\n      dup3\n      add\n      swap2\n      swap1\n      0x00\n      mstore\n      keccak256(0x00, 0x20)\n      swap1\n    tag_84:\n      dup2\n      sload\n      dup2\n      mstore\n      swap1\n      0x01\n      add\n      swap1\n      0x20\n      add\n      dup1\n      dup4\n      gt\n      tag_84\n      jumpi\n      dup3\n      swap1\n      sub\n      0x1f\n      and\n      dup3\n      add\n      swap2\n    tag_82:\n      pop\n      pop\n      pop\n      pop\n      pop\n      dup2\n      mstore\n      0x20\n      add\n      0x03\n      dup3\n      add\n      sload\n      dup2\n      mstore\n      0x20\n      add\n      0x04\n      dup3\n      add\n      sload\n      dup2\n      mstore\n      pop\n      pop\n      swap1\n      pop\n        /* \"contracts/X.sol\":2924:3075  function getTweet(address _owner, uint256 _i)... */\n      swap3\n      swap2\n      pop\n      pop\n      jump\t// out\n        /* \"contracts/X.sol\":3081:3194  function getAllTweets(address _owner) public view returns (Tweet[] memory) {... */\n    tag_30:\n        /* \"contracts/X.sol\":3140:3154  Tweet[] memory */\n      0x60\n        /* \"contracts/X.sol\":3173:3179  tweets */\n      0x01\n        /* \"contracts/X.sol\":3173:3187  tweets[_owner] */\n      0x00\n        /* \"contracts/X.sol\":3180:3186  _owner */\n      dup4\n        /* \"contracts/X.sol\":3173:3187  tweets[_owner] */\n      0xffffffffffffffffffffffffffffffffffffffff\n      and\n      0xffffffffffffffffffffffffffffffffffffffff\n      and\n      dup2\n      mstore\n      0x20\n      add\n      swap1\n      dup2\n      mstore\n      0x20\n      add\n      0x00\n      keccak256\n        /* \"contracts/X.sol\":3166:3187  return tweets[_owner] */\n      dup1\n      sload\n      dup1\n      0x20\n      mul\n      0x20\n      add\n      mload(0x40)\n      swap1\n      dup2\n      add\n      0x40\n      mstore\n      dup1\n      swap3\n      swap2\n      swap1\n      dup2\n      dup2\n      mstore\n      0x20\n      add\n      0x00\n      swap1\n    tag_86:\n      dup3\n      dup3\n      lt\n      iszero\n      tag_87\n      jumpi\n      dup4\n      dup3\n      swap1\n      0x00\n      mstore\n      keccak256(0x00, 0x20)\n      swap1\n      0x05\n      mul\n      add\n      mload(0x40)\n      dup1\n      0xa0\n      add\n      0x40\n      mstore\n      swap1\n      dup2\n      0x00\n      dup3\n      add\n      sload\n      dup2\n      mstore\n      0x20\n      add\n      0x01\n      dup3\n      add\n      0x00\n      swap1\n      sload\n      swap1\n      0x0100\n      exp\n      swap1\n      div\n      0xffffffffffffffffffffffffffffffffffffffff\n      and\n      0xffffffffffffffffffffffffffffffffffffffff\n      and\n      0xffffffffffffffffffffffffffffffffffffffff\n      and\n      dup2\n      mstore\n      0x20\n      add\n      0x02\n      dup3\n      add\n      dup1\n      sload\n      tag_89\n      swap1\n      tag_68\n      jump\t// in\n    tag_89:\n      dup1\n      0x1f\n      add\n      0x20\n      dup1\n      swap2\n      div\n      mul\n      0x20\n      add\n      mload(0x40)\n      swap1\n      dup2\n      add\n      0x40\n      mstore\n      dup1\n      swap3\n      swap2\n      swap1\n      dup2\n      dup2\n      mstore\n      0x20\n      add\n      dup3\n      dup1\n      sload\n      tag_90\n      swap1\n      tag_68\n      jump\t// in\n    tag_90:\n      dup1\n      iszero\n      tag_91\n      jumpi\n      dup1\n      0x1f\n      lt\n      tag_92\n      jumpi\n      0x0100\n      dup1\n      dup4\n      sload\n      div\n      mul\n      dup4\n      mstore\n      swap2\n      0x20\n      add\n      swap2\n      jump(tag_91)\n    tag_92:\n      dup3\n      add\n      swap2\n      swap1\n      0x00\n      mstore\n      keccak256(0x00, 0x20)\n      swap1\n    tag_93:\n      dup2\n      sload\n      dup2\n      mstore\n      swap1\n      0x01\n      add\n      swap1\n      0x20\n      add\n      dup1\n      dup4\n      gt\n      tag_93\n      jumpi\n      dup3\n      swap1\n      sub\n      0x1f\n      and\n      dup3\n      add\n      swap2\n    tag_91:\n      pop\n      pop\n      pop\n      pop\n      pop\n      dup2\n      mstore\n      0x20\n      add\n      0x03\n      dup3\n      add\n      sload\n      dup2\n      mstore\n      0x20\n      add\n      0x04\n      dup3\n      add\n      sload\n      dup2\n      mstore\n      pop\n      pop\n      dup2\n      mstore\n      0x20\n      add\n      swap1\n      0x01\n      add\n      swap1\n      jump(tag_86)\n    tag_87:\n      pop\n      pop\n      pop\n      pop\n      swap1\n      pop\n        /* \"contracts/X.sol\":3081:3194  function getAllTweets(address _owner) public view returns (Tweet[] memory) {... */\n      swap2\n      swap1\n      pop\n      jump\t// out\n        /* \"contracts/X.sol\":2570:2918  function unlikeTweet(address _author, uint256 _id) external onlyRegistered{... */\n    tag_35:\n        /* \"contracts/X.sol\":1024:1067  IProfile.UserProfile memory userProfileTemp */\n      0x00\n        /* \"contracts/X.sol\":1070:1085  profileContract */\n      0x02\n      0x00\n      swap1\n      sload\n      swap1\n      0x0100\n      exp\n      swap1\n      div\n      0xffffffffffffffffffffffffffffffffffffffff\n      and\n        /* \"contracts/X.sol\":1070:1096  profileContract.getProfile */\n      0xffffffffffffffffffffffffffffffffffffffff\n      and\n      0x0f53a470\n        /* \"contracts/X.sol\":1097:1107  msg.sender */\n      caller\n        /* \"contracts/X.sol\":1070:1108  profileContract.getProfile(msg.sender) */\n      mload(0x40)\n      dup3\n      0xffffffff\n      and\n      0xe0\n      shl\n      dup2\n      mstore\n      0x04\n      add\n      tag_95\n      swap2\n      swap1\n      tag_61\n      jump\t// in\n    tag_95:\n      0x00\n      mload(0x40)\n      dup1\n      dup4\n      sub\n      dup2\n      dup7\n      gas\n      staticcall\n      iszero\n      dup1\n      iszero\n      tag_97\n      jumpi\n      returndatasize\n      0x00\n      dup1\n      returndatacopy\n      revert(0x00, returndatasize)\n    tag_97:\n      pop\n      pop\n      pop\n      pop\n      mload(0x40)\n      returndatasize\n      0x00\n      dup3\n      returndatacopy\n      returndatasize\n      not(0x1f)\n      0x1f\n      dup3\n      add\n      and\n      dup3\n      add\n      dup1\n      0x40\n      mstore\n      pop\n      dup2\n      add\n      swap1\n      tag_98\n      swap2\n      swap1\n      tag_99\n      jump\t// in\n    tag_98:\n        /* \"contracts/X.sol\":1024:1108  IProfile.UserProfile memory userProfileTemp = profileContract.getProfile(msg.sender) */\n      swap1\n      pop\n        /* \"contracts/X.sol\":1170:1171  0 */\n      0x00\n        /* \"contracts/X.sol\":1132:1147  userProfileTemp */\n      dup2\n        /* \"contracts/X.sol\":1132:1159  userProfileTemp.displayName */\n      0x00\n      add\n      mload\n        /* \"contracts/X.sol\":1126:1167  bytes(userProfileTemp.displayName).length */\n      mload\n        /* \"contracts/X.sol\":1126:1171  bytes(userProfileTemp.displayName).length > 0 */\n      gt\n        /* \"contracts/X.sol\":1118:1195  require(bytes(userProfileTemp.displayName).length > 0, \"USER NOT REGISTERED\") */\n      tag_100\n      jumpi\n      mload(0x40)\n      0x08c379a000000000000000000000000000000000000000000000000000000000\n      dup2\n      mstore\n      0x04\n      add\n      tag_101\n      swap1\n      tag_102\n      jump\t// in\n    tag_101:\n      mload(0x40)\n      dup1\n      swap2\n      sub\n      swap1\n      revert\n    tag_100:\n        /* \"contracts/X.sol\":2689:2692  _id */\n      dup2\n        /* \"contracts/X.sol\":2662:2668  tweets */\n      0x01\n        /* \"contracts/X.sol\":2662:2677  tweets[_author] */\n      0x00\n        /* \"contracts/X.sol\":2669:2676  _author */\n      dup6\n        /* \"contracts/X.sol\":2662:2677  tweets[_author] */\n      0xffffffffffffffffffffffffffffffffffffffff\n      and\n      0xffffffffffffffffffffffffffffffffffffffff\n      and\n      dup2\n      mstore\n      0x20\n      add\n      swap1\n      dup2\n      mstore\n      0x20\n      add\n      0x00\n      keccak256\n        /* \"contracts/X.sol\":2678:2681  _id */\n      dup4\n        /* \"contracts/X.sol\":2662:2682  tweets[_author][_id] */\n      dup2\n      sload\n      dup2\n      lt\n      tag_104\n      jumpi\n      tag_105\n      tag_78\n      jump\t// in\n    tag_105:\n    tag_104:\n      swap1\n      0x00\n      mstore\n      keccak256(0x00, 0x20)\n      swap1\n      0x05\n      mul\n      add\n        /* \"contracts/X.sol\":2662:2685  tweets[_author][_id].id */\n      0x00\n      add\n      sload\n        /* \"contracts/X.sol\":2662:2692  tweets[_author][_id].id == _id */\n      eq\n        /* \"contracts/X.sol\":2654:2718  require(tweets[_author][_id].id == _id, \"TWEET DOES NOT EXIST!\") */\n      tag_107\n      jumpi\n      mload(0x40)\n      0x08c379a000000000000000000000000000000000000000000000000000000000\n      dup2\n      mstore\n      0x04\n      add\n      tag_108\n      swap1\n      tag_109\n      jump\t// in\n    tag_108:\n      mload(0x40)\n      dup1\n      swap2\n      sub\n      swap1\n      revert\n    tag_107:\n        /* \"contracts/X.sol\":2765:2766  0 */\n      0x00\n        /* \"contracts/X.sol\":2736:2742  tweets */\n      0x01\n        /* \"contracts/X.sol\":2736:2751  tweets[_author] */\n      0x00\n        /* \"contracts/X.sol\":2743:2750  _author */\n      dup6\n        /* \"contracts/X.sol\":2736:2751  tweets[_author] */\n      0xffffffffffffffffffffffffffffffffffffffff\n      and\n      0xffffffffffffffffffffffffffffffffffffffff\n      and\n      dup2\n      mstore\n      0x20\n      add\n      swap1\n      dup2\n      mstore\n      0x20\n      add\n      0x00\n      keccak256\n        /* \"contracts/X.sol\":2752:2755  _id */\n      dup4\n        /* \"contracts/X.sol\":2736:2756  tweets[_author][_id] */\n      dup2\n      sload\n      dup2\n      lt\n      tag_110\n      jumpi\n      tag_111\n      tag_78\n      jump\t// in\n    tag_111:\n    tag_110:\n      swap1\n      0x00\n      mstore\n      keccak256(0x00, 0x20)\n      swap1\n      0x05\n      mul\n      add\n        /* \"contracts/X.sol\":2736:2762  tweets[_author][_id].likes */\n      0x04\n      add\n      sload\n        /* \"contracts/X.sol\":2736:2766  tweets[_author][_id].likes > 0 */\n      gt\n        /* \"contracts/X.sol\":2728:2790  require(tweets[_author][_id].likes > 0, \"TWEET HAS NO LIKES!\") */\n      tag_113\n      jumpi\n      mload(0x40)\n      0x08c379a000000000000000000000000000000000000000000000000000000000\n      dup2\n      mstore\n      0x04\n      add\n      tag_114\n      swap1\n      tag_115\n      jump\t// in\n    tag_114:\n      mload(0x40)\n      dup1\n      swap2\n      sub\n      swap1\n      revert\n    tag_113:\n        /* \"contracts/X.sol\":2801:2807  tweets */\n      0x01\n        /* \"contracts/X.sol\":2801:2816  tweets[_author] */\n      0x00\n        /* \"contracts/X.sol\":2808:2815  _author */\n      dup5\n        /* \"contracts/X.sol\":2801:2816  tweets[_author] */\n      0xffffffffffffffffffffffffffffffffffffffff\n      and\n      0xffffffffffffffffffffffffffffffffffffffff\n      and\n      dup2\n      mstore\n      0x20\n      add\n      swap1\n      dup2\n      mstore\n      0x20\n      add\n      0x00\n      keccak256\n        /* \"contracts/X.sol\":2817:2820  _id */\n      dup3\n        /* \"contracts/X.sol\":2801:2821  tweets[_author][_id] */\n      dup2\n      sload\n      dup2\n      lt\n      tag_116\n      jumpi\n      tag_117\n      tag_78\n      jump\t// in\n    tag_117:\n    tag_116:\n      swap1\n      0x00\n      mstore\n      keccak256(0x00, 0x20)\n      swap1\n      0x05\n      mul\n      add\n        /* \"contracts/X.sol\":2801:2827  tweets[_author][_id].likes */\n      0x04\n      add\n      0x00\n        /* \"contracts/X.sol\":2801:2829  tweets[_author][_id].likes-- */\n      dup2\n      sload\n      dup1\n      swap3\n      swap2\n      swap1\n      tag_119\n      swap1\n      tag_120\n      jump\t// in\n    tag_119:\n      swap2\n      swap1\n      pop\n      sstore\n      pop\n        /* \"contracts/X.sol\":2845:2911  TweetUnliked(msg.sender, _author, _id, tweets[_author][_id].likes) */\n      0x762c2616349603ac16eba0de8e6141b79129a07ab63bd99e0a80b3a471716943\n        /* \"contracts/X.sol\":2858:2868  msg.sender */\n      caller\n        /* \"contracts/X.sol\":2870:2877  _author */\n      dup5\n        /* \"contracts/X.sol\":2879:2882  _id */\n      dup5\n        /* \"contracts/X.sol\":2884:2890  tweets */\n      0x01\n        /* \"contracts/X.sol\":2884:2899  tweets[_author] */\n      0x00\n        /* \"contracts/X.sol\":2891:2898  _author */\n      dup9\n        /* \"contracts/X.sol\":2884:2899  tweets[_author] */\n      0xffffffffffffffffffffffffffffffffffffffff\n      and\n      0xffffffffffffffffffffffffffffffffffffffff\n      and\n      dup2\n      mstore\n      0x20\n      add\n      swap1\n      dup2\n      mstore\n      0x20\n      add\n      0x00\n      keccak256\n        /* \"contracts/X.sol\":2900:2903  _id */\n      dup7\n        /* \"contracts/X.sol\":2884:2904  tweets[_author][_id] */\n      dup2\n      sload\n      dup2\n      lt\n      tag_121\n      jumpi\n      tag_122\n      tag_78\n      jump\t// in\n    tag_122:\n    tag_121:\n      swap1\n      0x00\n      mstore\n      keccak256(0x00, 0x20)\n      swap1\n      0x05\n      mul\n      add\n        /* \"contracts/X.sol\":2884:2910  tweets[_author][_id].likes */\n      0x04\n      add\n      sload\n        /* \"contracts/X.sol\":2845:2911  TweetUnliked(msg.sender, _author, _id, tweets[_author][_id].likes) */\n      mload(0x40)\n      tag_124\n      swap5\n      swap4\n      swap3\n      swap2\n      swap1\n      tag_125\n      jump\t// in\n    tag_124:\n      mload(0x40)\n      dup1\n      swap2\n      sub\n      swap1\n      log1\n        /* \"contracts/X.sol\":1014:1213  {... */\n      pop\n        /* \"contracts/X.sol\":2570:2918  function unlikeTweet(address _author, uint256 _id) external onlyRegistered{... */\n      pop\n      pop\n      jump\t// out\n        /* \"contracts/X.sol\":1323:1440  function changeTweetLength(uint16 newTweetLength) public onlyOwner {... */\n    tag_39:\n        /* \"@openzeppelin/contracts/access/Ownable.sol\":1094:1107  _checkOwner() */\n      tag_127\n        /* \"@openzeppelin/contracts/access/Ownable.sol\":1094:1105  _checkOwner */\n      tag_128\n        /* \"@openzeppelin/contracts/access/Ownable.sol\":1094:1107  _checkOwner() */\n      jump\t// in\n    tag_127:\n        /* \"contracts/X.sol\":1419:1433  newTweetLength */\n      dup1\n        /* \"contracts/X.sol\":1400:1416  MAX_TWEET_LENGTH */\n      0x00\n      0x14\n        /* \"contracts/X.sol\":1400:1433  MAX_TWEET_LENGTH = newTweetLength */\n      0x0100\n      exp\n      dup2\n      sload\n      dup2\n      0xffff\n      mul\n      not\n      and\n      swap1\n      dup4\n      0xffff\n      and\n      mul\n      or\n      swap1\n      sstore\n      pop\n        /* \"contracts/X.sol\":1323:1440  function changeTweetLength(uint16 newTweetLength) public onlyOwner {... */\n      pop\n      jump\t// out\n        /* \"contracts/X.sol\":2292:2564  function likeTweet(address _author, uint256 _id) external onlyRegistered{... */\n    tag_42:\n        /* \"contracts/X.sol\":1024:1067  IProfile.UserProfile memory userProfileTemp */\n      0x00\n        /* \"contracts/X.sol\":1070:1085  profileContract */\n      0x02\n      0x00\n      swap1\n      sload\n      swap1\n      0x0100\n      exp\n      swap1\n      div\n      0xffffffffffffffffffffffffffffffffffffffff\n      and\n        /* \"contracts/X.sol\":1070:1096  profileContract.getProfile */\n      0xffffffffffffffffffffffffffffffffffffffff\n      and\n      0x0f53a470\n        /* \"contracts/X.sol\":1097:1107  msg.sender */\n      caller\n        /* \"contracts/X.sol\":1070:1108  profileContract.getProfile(msg.sender) */\n      mload(0x40)\n      dup3\n      0xffffffff\n      and\n      0xe0\n      shl\n      dup2\n      mstore\n      0x04\n      add\n      tag_131\n      swap2\n      swap1\n      tag_61\n      jump\t// in\n    tag_131:\n      0x00\n      mload(0x40)\n      dup1\n      dup4\n      sub\n      dup2\n      dup7\n      gas\n      staticcall\n      iszero\n      dup1\n      iszero\n      tag_133\n      jumpi\n      returndatasize\n      0x00\n      dup1\n      returndatacopy\n      revert(0x00, returndatasize)\n    tag_133:\n      pop\n      pop\n      pop\n      pop\n      mload(0x40)\n      returndatasize\n      0x00\n      dup3\n      returndatacopy\n      returndatasize\n      not(0x1f)\n      0x1f\n      dup3\n      add\n      and\n      dup3\n      add\n      dup1\n      0x40\n      mstore\n      pop\n      dup2\n      add\n      swap1\n      tag_134\n      swap2\n      swap1\n      tag_99\n      jump\t// in\n    tag_134:\n        /* \"contracts/X.sol\":1024:1108  IProfile.UserProfile memory userProfileTemp = profileContract.getProfile(msg.sender) */\n      swap1\n      pop\n        /* \"contracts/X.sol\":1170:1171  0 */\n      0x00\n        /* \"contracts/X.sol\":1132:1147  userProfileTemp */\n      dup2\n        /* \"contracts/X.sol\":1132:1159  userProfileTemp.displayName */\n      0x00\n      add\n      mload\n        /* \"contracts/X.sol\":1126:1167  bytes(userProfileTemp.displayName).length */\n      mload\n        /* \"contracts/X.sol\":1126:1171  bytes(userProfileTemp.displayName).length > 0 */\n      gt\n        /* \"contracts/X.sol\":1118:1195  require(bytes(userProfileTemp.displayName).length > 0, \"USER NOT REGISTERED\") */\n      tag_135\n      jumpi\n      mload(0x40)\n      0x08c379a000000000000000000000000000000000000000000000000000000000\n      dup2\n      mstore\n      0x04\n      add\n      tag_136\n      swap1\n      tag_102\n      jump\t// in\n    tag_136:\n      mload(0x40)\n      dup1\n      swap2\n      sub\n      swap1\n      revert\n    tag_135:\n        /* \"contracts/X.sol\":2409:2412  _id */\n      dup2\n        /* \"contracts/X.sol\":2382:2388  tweets */\n      0x01\n        /* \"contracts/X.sol\":2382:2397  tweets[_author] */\n      0x00\n        /* \"contracts/X.sol\":2389:2396  _author */\n      dup6\n        /* \"contracts/X.sol\":2382:2397  tweets[_author] */\n      0xffffffffffffffffffffffffffffffffffffffff\n      and\n      0xffffffffffffffffffffffffffffffffffffffff\n      and\n      dup2\n      mstore\n      0x20\n      add\n      swap1\n      dup2\n      mstore\n      0x20\n      add\n      0x00\n      keccak256\n        /* \"contracts/X.sol\":2398:2401  _id */\n      dup4\n        /* \"contracts/X.sol\":2382:2402  tweets[_author][_id] */\n      dup2\n      sload\n      dup2\n      lt\n      tag_138\n      jumpi\n      tag_139\n      tag_78\n      jump\t// in\n    tag_139:\n    tag_138:\n      swap1\n      0x00\n      mstore\n      keccak256(0x00, 0x20)\n      swap1\n      0x05\n      mul\n      add\n        /* \"contracts/X.sol\":2382:2405  tweets[_author][_id].id */\n      0x00\n      add\n      sload\n        /* \"contracts/X.sol\":2382:2412  tweets[_author][_id].id == _id */\n      eq\n        /* \"contracts/X.sol\":2374:2438  require(tweets[_author][_id].id == _id, \"TWEET DOES NOT EXIST!\") */\n      tag_141\n      jumpi\n      mload(0x40)\n      0x08c379a000000000000000000000000000000000000000000000000000000000\n      dup2\n      mstore\n      0x04\n      add\n      tag_142\n      swap1\n      tag_109\n      jump\t// in\n    tag_142:\n      mload(0x40)\n      dup1\n      swap2\n      sub\n      swap1\n      revert\n    tag_141:\n        /* \"contracts/X.sol\":2449:2455  tweets */\n      0x01\n        /* \"contracts/X.sol\":2449:2464  tweets[_author] */\n      0x00\n        /* \"contracts/X.sol\":2456:2463  _author */\n      dup5\n        /* \"contracts/X.sol\":2449:2464  tweets[_author] */\n      0xffffffffffffffffffffffffffffffffffffffff\n      and\n      0xffffffffffffffffffffffffffffffffffffffff\n      and\n      dup2\n      mstore\n      0x20\n      add\n      swap1\n      dup2\n      mstore\n      0x20\n      add\n      0x00\n      keccak256\n        /* \"contracts/X.sol\":2465:2468  _id */\n      dup3\n        /* \"contracts/X.sol\":2449:2469  tweets[_author][_id] */\n      dup2\n      sload\n      dup2\n      lt\n      tag_143\n      jumpi\n      tag_144\n      tag_78\n      jump\t// in\n    tag_144:\n    tag_143:\n      swap1\n      0x00\n      mstore\n      keccak256(0x00, 0x20)\n      swap1\n      0x05\n      mul\n      add\n        /* \"contracts/X.sol\":2449:2475  tweets[_author][_id].likes */\n      0x04\n      add\n      0x00\n        /* \"contracts/X.sol\":2449:2477  tweets[_author][_id].likes++ */\n      dup2\n      sload\n      dup1\n      swap3\n      swap2\n      swap1\n      tag_146\n      swap1\n      tag_147\n      jump\t// in\n    tag_146:\n      swap2\n      swap1\n      pop\n      sstore\n      pop\n        /* \"contracts/X.sol\":2493:2557  TweetLiked(msg.sender, _author, _id, tweets[_author][_id].likes) */\n      0xe8a76fc0f16d11a00d1e93b689b63d76cf60af914dd3d915375dc41d01a0c3c8\n        /* \"contracts/X.sol\":2504:2514  msg.sender */\n      caller\n        /* \"contracts/X.sol\":2516:2523  _author */\n      dup5\n        /* \"contracts/X.sol\":2525:2528  _id */\n      dup5\n        /* \"contracts/X.sol\":2530:2536  tweets */\n      0x01\n        /* \"contracts/X.sol\":2530:2545  tweets[_author] */\n      0x00\n        /* \"contracts/X.sol\":2537:2544  _author */\n      dup9\n        /* \"contracts/X.sol\":2530:2545  tweets[_author] */\n      0xffffffffffffffffffffffffffffffffffffffff\n      and\n      0xffffffffffffffffffffffffffffffffffffffff\n      and\n      dup2\n      mstore\n      0x20\n      add\n      swap1\n      dup2\n      mstore\n      0x20\n      add\n      0x00\n      keccak256\n        /* \"contracts/X.sol\":2546:2549  _id */\n      dup7\n        /* \"contracts/X.sol\":2530:2550  tweets[_author][_id] */\n      dup2\n      sload\n      dup2\n      lt\n      tag_148\n      jumpi\n      tag_149\n      tag_78\n      jump\t// in\n    tag_149:\n    tag_148:\n      swap1\n      0x00\n      mstore\n      keccak256(0x00, 0x20)\n      swap1\n      0x05\n      mul\n      add\n        /* \"contracts/X.sol\":2530:2556  tweets[_author][_id].likes */\n      0x04\n      add\n      sload\n        /* \"contracts/X.sol\":2493:2557  TweetLiked(msg.sender, _author, _id, tweets[_author][_id].likes) */\n      mload(0x40)\n      tag_151\n      swap5\n      swap4\n      swap3\n      swap2\n      swap1\n      tag_125\n      jump\t// in\n    tag_151:\n      mload(0x40)\n      dup1\n      swap2\n      sub\n      swap1\n      log1\n        /* \"contracts/X.sol\":1014:1213  {... */\n      pop\n        /* \"contracts/X.sol\":2292:2564  function likeTweet(address _author, uint256 _id) external onlyRegistered{... */\n      pop\n      pop\n      jump\t// out\n        /* \"contracts/X.sol\":323:359  uint16 public MAX_TWEET_LENGTH = 280 */\n    tag_44:\n      0x00\n      0x14\n      swap1\n      sload\n      swap1\n      0x0100\n      exp\n      swap1\n      div\n      0xffff\n      and\n      dup2\n      jump\t// out\n        /* \"@openzeppelin/contracts/access/Ownable.sol\":1824:1925  function renounceOwnership() public virtual onlyOwner {... */\n    tag_48:\n        /* \"@openzeppelin/contracts/access/Ownable.sol\":1094:1107  _checkOwner() */\n      tag_153\n        /* \"@openzeppelin/contracts/access/Ownable.sol\":1094:1105  _checkOwner */\n      tag_128\n        /* \"@openzeppelin/contracts/access/Ownable.sol\":1094:1107  _checkOwner() */\n      jump\t// in\n    tag_153:\n        /* \"@openzeppelin/contracts/access/Ownable.sol\":1888:1918  _transferOwnership(address(0)) */\n      tag_155\n        /* \"@openzeppelin/contracts/access/Ownable.sol\":1915:1916  0 */\n      0x00\n        /* \"@openzeppelin/contracts/access/Ownable.sol\":1888:1906  _transferOwnership */\n      tag_156\n        /* \"@openzeppelin/contracts/access/Ownable.sol\":1888:1918  _transferOwnership(address(0)) */\n      jump\t// in\n    tag_155:\n        /* \"@openzeppelin/contracts/access/Ownable.sol\":1824:1925  function renounceOwnership() public virtual onlyOwner {... */\n      jump\t// out\n        /* \"contracts/X.sol\":1721:2286  function createTweet(string memory _tweet) public onlyRegistered{... */\n    tag_52:\n        /* \"contracts/X.sol\":1024:1067  IProfile.UserProfile memory userProfileTemp */\n      0x00\n        /* \"contracts/X.sol\":1070:1085  profileContract */\n      0x02\n      0x00\n      swap1\n      sload\n      swap1\n      0x0100\n      exp\n      swap1\n      div\n      0xffffffffffffffffffffffffffffffffffffffff\n      and\n        /* \"contracts/X.sol\":1070:1096  profileContract.getProfile */\n      0xffffffffffffffffffffffffffffffffffffffff\n      and\n      0x0f53a470\n        /* \"contracts/X.sol\":1097:1107  msg.sender */\n      caller\n        /* \"contracts/X.sol\":1070:1108  profileContract.getProfile(msg.sender) */\n      mload(0x40)\n      dup3\n      0xffffffff\n      and\n      0xe0\n      shl\n      dup2\n      mstore\n      0x04\n      add\n      tag_158\n      swap2\n      swap1\n      tag_61\n      jump\t// in\n    tag_158:\n      0x00\n      mload(0x40)\n      dup1\n      dup4\n      sub\n      dup2\n      dup7\n      gas\n      staticcall\n      iszero\n      dup1\n      iszero\n      tag_160\n      jumpi\n      returndatasize\n      0x00\n      dup1\n      returndatacopy\n      revert(0x00, returndatasize)\n    tag_160:\n      pop\n      pop\n      pop\n      pop\n      mload(0x40)\n      returndatasize\n      0x00\n      dup3\n      returndatacopy\n      returndatasize\n      not(0x1f)\n      0x1f\n      dup3\n      add\n      and\n      dup3\n      add\n      dup1\n      0x40\n      mstore\n      pop\n      dup2\n      add\n      swap1\n      tag_161\n      swap2\n      swap1\n      tag_99\n      jump\t// in\n    tag_161:\n        /* \"contracts/X.sol\":1024:1108  IProfile.UserProfile memory userProfileTemp = profileContract.getProfile(msg.sender) */\n      swap1\n      pop\n        /* \"contracts/X.sol\":1170:1171  0 */\n      0x00\n        /* \"contracts/X.sol\":1132:1147  userProfileTemp */\n      dup2\n        /* \"contracts/X.sol\":1132:1159  userProfileTemp.displayName */\n      0x00\n      add\n      mload\n        /* \"contracts/X.sol\":1126:1167  bytes(userProfileTemp.displayName).length */\n      mload\n        /* \"contracts/X.sol\":1126:1171  bytes(userProfileTemp.displayName).length > 0 */\n      gt\n        /* \"contracts/X.sol\":1118:1195  require(bytes(userProfileTemp.displayName).length > 0, \"USER NOT REGISTERED\") */\n      tag_162\n      jumpi\n      mload(0x40)\n      0x08c379a000000000000000000000000000000000000000000000000000000000\n      dup2\n      mstore\n      0x04\n      add\n      tag_163\n      swap1\n      tag_102\n      jump\t// in\n    tag_163:\n      mload(0x40)\n      dup1\n      swap2\n      sub\n      swap1\n      revert\n    tag_162:\n        /* \"contracts/X.sol\":1827:1843  MAX_TWEET_LENGTH */\n      0x00\n      0x14\n      swap1\n      sload\n      swap1\n      0x0100\n      exp\n      swap1\n      div\n      0xffff\n      and\n        /* \"contracts/X.sol\":1803:1843  bytes(_tweet).length <= MAX_TWEET_LENGTH */\n      0xffff\n      and\n        /* \"contracts/X.sol\":1809:1815  _tweet */\n      dup3\n        /* \"contracts/X.sol\":1803:1823  bytes(_tweet).length */\n      mload\n        /* \"contracts/X.sol\":1803:1843  bytes(_tweet).length <= MAX_TWEET_LENGTH */\n      gt\n      iszero\n        /* \"contracts/X.sol\":1795:1863  require(bytes(_tweet).length <= MAX_TWEET_LENGTH, \"TWEET TOO LONG!\") */\n      tag_165\n      jumpi\n      mload(0x40)\n      0x08c379a000000000000000000000000000000000000000000000000000000000\n      dup2\n      mstore\n      0x04\n      add\n      tag_166\n      swap1\n      tag_167\n      jump\t// in\n    tag_166:\n      mload(0x40)\n      dup1\n      swap2\n      sub\n      swap1\n      revert\n    tag_165:\n        /* \"contracts/X.sol\":1874:1895  Tweet memory newTweet */\n      0x00\n        /* \"contracts/X.sol\":1898:2081  Tweet({... */\n      mload(0x40)\n      dup1\n      0xa0\n      add\n      0x40\n      mstore\n      dup1\n        /* \"contracts/X.sol\":1922:1928  tweets */\n      0x01\n        /* \"contracts/X.sol\":1922:1940  tweets[msg.sender] */\n      0x00\n        /* \"contracts/X.sol\":1929:1939  msg.sender */\n      caller\n        /* \"contracts/X.sol\":1922:1940  tweets[msg.sender] */\n      0xffffffffffffffffffffffffffffffffffffffff\n      and\n      0xffffffffffffffffffffffffffffffffffffffff\n      and\n      dup2\n      mstore\n      0x20\n      add\n      swap1\n      dup2\n      mstore\n      0x20\n      add\n      0x00\n      keccak256\n        /* \"contracts/X.sol\":1922:1947  tweets[msg.sender].length */\n      dup1\n      sload\n      swap1\n      pop\n        /* \"contracts/X.sol\":1898:2081  Tweet({... */\n      dup2\n      mstore\n      0x20\n      add\n        /* \"contracts/X.sol\":1969:1979  msg.sender */\n      caller\n        /* \"contracts/X.sol\":1898:2081  Tweet({... */\n      0xffffffffffffffffffffffffffffffffffffffff\n      and\n      dup2\n      mstore\n      0x20\n      add\n        /* \"contracts/X.sol\":2002:2008  _tweet */\n      dup5\n        /* \"contracts/X.sol\":1898:2081  Tweet({... */\n      dup2\n      mstore\n      0x20\n      add\n        /* \"contracts/X.sol\":2033:2048  block.timestamp */\n      timestamp\n        /* \"contracts/X.sol\":1898:2081  Tweet({... */\n      dup2\n      mstore\n      0x20\n      add\n        /* \"contracts/X.sol\":2069:2070  0 */\n      0x00\n        /* \"contracts/X.sol\":1898:2081  Tweet({... */\n      dup2\n      mstore\n      pop\n        /* \"contracts/X.sol\":1874:2081  Tweet memory newTweet = Tweet({... */\n      swap1\n      pop\n        /* \"contracts/X.sol\":2092:2098  tweets */\n      0x01\n        /* \"contracts/X.sol\":2092:2110  tweets[msg.sender] */\n      0x00\n        /* \"contracts/X.sol\":2099:2109  msg.sender */\n      caller\n        /* \"contracts/X.sol\":2092:2110  tweets[msg.sender] */\n      0xffffffffffffffffffffffffffffffffffffffff\n      and\n      0xffffffffffffffffffffffffffffffffffffffff\n      and\n      dup2\n      mstore\n      0x20\n      add\n      swap1\n      dup2\n      mstore\n      0x20\n      add\n      0x00\n      keccak256\n        /* \"contracts/X.sol\":2116:2124  newTweet */\n      dup2\n        /* \"contracts/X.sol\":2092:2125  tweets[msg.sender].push(newTweet) */\n      swap1\n      dup1\n      0x01\n      dup2\n      sload\n      add\n      dup1\n      dup3\n      sstore\n      dup1\n      swap2\n      pop\n      pop\n      0x01\n      swap1\n      sub\n      swap1\n      0x00\n      mstore\n      keccak256(0x00, 0x20)\n      swap1\n      0x05\n      mul\n      add\n      0x00\n      swap1\n      swap2\n      swap1\n      swap2\n      swap1\n      swap2\n      pop\n      0x00\n      dup3\n      add\n      mload\n      dup2\n      0x00\n      add\n      sstore\n      0x20\n      dup3\n      add\n      mload\n      dup2\n      0x01\n      add\n      exp(0x0100, 0x00)\n      dup2\n      sload\n      dup2\n      0xffffffffffffffffffffffffffffffffffffffff\n      mul\n      not\n      and\n      swap1\n      dup4\n      0xffffffffffffffffffffffffffffffffffffffff\n      and\n      mul\n      or\n      swap1\n      sstore\n      pop\n      0x40\n      dup3\n      add\n      mload\n      dup2\n      0x02\n      add\n      swap1\n      dup2\n      tag_169\n      swap2\n      swap1\n      tag_170\n      jump\t// in\n    tag_169:\n      pop\n      0x60\n      dup3\n      add\n      mload\n      dup2\n      0x03\n      add\n      sstore\n      0x80\n      dup3\n      add\n      mload\n      dup2\n      0x04\n      add\n      sstore\n      pop\n      pop\n        /* \"contracts/X.sol\":2141:2279  TweetCreated(... */\n      0x16fd3c13e9d46923e0a8bce11c7b473ec508a72e6c96cd2404b29ce972afc29e\n        /* \"contracts/X.sol\":2167:2175  newTweet */\n      dup2\n        /* \"contracts/X.sol\":2167:2178  newTweet.id */\n      0x00\n      add\n      mload\n        /* \"contracts/X.sol\":2192:2200  newTweet */\n      dup3\n        /* \"contracts/X.sol\":2192:2207  newTweet.author */\n      0x20\n      add\n      mload\n        /* \"contracts/X.sol\":2221:2229  newTweet */\n      dup4\n        /* \"contracts/X.sol\":2221:2237  newTweet.content */\n      0x40\n      add\n      mload\n        /* \"contracts/X.sol\":2251:2259  newTweet */\n      dup5\n        /* \"contracts/X.sol\":2251:2269  newTweet.timestamp */\n      0x60\n      add\n      mload\n        /* \"contracts/X.sol\":2141:2279  TweetCreated(... */\n      mload(0x40)\n      tag_171\n      swap5\n      swap4\n      swap3\n      swap2\n      swap1\n      tag_172\n      jump\t// in\n    tag_171:\n      mload(0x40)\n      dup1\n      swap2\n      sub\n      swap1\n      log1\n        /* \"contracts/X.sol\":1785:2286  {... */\n      pop\n        /* \"contracts/X.sol\":1014:1213  {... */\n      pop\n        /* \"contracts/X.sol\":1721:2286  function createTweet(string memory _tweet) public onlyRegistered{... */\n      pop\n      jump\t// out\n        /* \"contracts/X.sol\":1446:1715  function getTotalLikes(address _author) external view returns (uint256) {... */\n    tag_55:\n        /* \"contracts/X.sol\":1509:1516  uint256 */\n      0x00\n        /* \"contracts/X.sol\":1528:1546  uint256 totalLikes */\n      dup1\n        /* \"contracts/X.sol\":1562:1571  uint256 i */\n      0x00\n        /* \"contracts/X.sol\":1557:1673  for (uint256 i = 0; i < tweets[_author].length; i++) {... */\n    tag_174:\n        /* \"contracts/X.sol\":1581:1587  tweets */\n      0x01\n        /* \"contracts/X.sol\":1581:1596  tweets[_author] */\n      0x00\n        /* \"contracts/X.sol\":1588:1595  _author */\n      dup6\n        /* \"contracts/X.sol\":1581:1596  tweets[_author] */\n      0xffffffffffffffffffffffffffffffffffffffff\n      and\n      0xffffffffffffffffffffffffffffffffffffffff\n      and\n      dup2\n      mstore\n      0x20\n      add\n      swap1\n      dup2\n      mstore\n      0x20\n      add\n      0x00\n      keccak256\n        /* \"contracts/X.sol\":1581:1603  tweets[_author].length */\n      dup1\n      sload\n      swap1\n      pop\n        /* \"contracts/X.sol\":1577:1578  i */\n      dup2\n        /* \"contracts/X.sol\":1577:1603  i < tweets[_author].length */\n      lt\n        /* \"contracts/X.sol\":1557:1673  for (uint256 i = 0; i < tweets[_author].length; i++) {... */\n      iszero\n      tag_175\n      jumpi\n        /* \"contracts/X.sol\":1638:1644  tweets */\n      0x01\n        /* \"contracts/X.sol\":1638:1653  tweets[_author] */\n      0x00\n        /* \"contracts/X.sol\":1645:1652  _author */\n      dup6\n        /* \"contracts/X.sol\":1638:1653  tweets[_author] */\n      0xffffffffffffffffffffffffffffffffffffffff\n      and\n      0xffffffffffffffffffffffffffffffffffffffff\n      and\n      dup2\n      mstore\n      0x20\n      add\n      swap1\n      dup2\n      mstore\n      0x20\n      add\n      0x00\n      keccak256\n        /* \"contracts/X.sol\":1654:1655  i */\n      dup2\n        /* \"contracts/X.sol\":1638:1656  tweets[_author][i] */\n      dup2\n      sload\n      dup2\n      lt\n      tag_177\n      jumpi\n      tag_178\n      tag_78\n      jump\t// in\n    tag_178:\n    tag_177:\n      swap1\n      0x00\n      mstore\n      keccak256(0x00, 0x20)\n      swap1\n      0x05\n      mul\n      add\n        /* \"contracts/X.sol\":1638:1662  tweets[_author][i].likes */\n      0x04\n      add\n      sload\n        /* \"contracts/X.sol\":1624:1662  totalLikes += tweets[_author][i].likes */\n      dup3\n      tag_180\n      swap2\n      swap1\n      tag_181\n      jump\t// in\n    tag_180:\n      swap2\n      pop\n        /* \"contracts/X.sol\":1605:1608  i++ */\n      dup1\n      dup1\n      tag_182\n      swap1\n      tag_147\n      jump\t// in\n    tag_182:\n      swap2\n      pop\n      pop\n        /* \"contracts/X.sol\":1557:1673  for (uint256 i = 0; i < tweets[_author].length; i++) {... */\n      jump(tag_174)\n    tag_175:\n      pop\n        /* \"contracts/X.sol\":1698:1708  totalLikes */\n      dup1\n        /* \"contracts/X.sol\":1691:1708  return totalLikes */\n      swap2\n      pop\n      pop\n        /* \"contracts/X.sol\":1446:1715  function getTotalLikes(address _author) external view returns (uint256) {... */\n      swap2\n      swap1\n      pop\n      jump\t// out\n        /* \"@openzeppelin/contracts/access/Ownable.sol\":1201:1286  function owner() public view virtual returns (address) {... */\n    tag_59:\n        /* \"@openzeppelin/contracts/access/Ownable.sol\":1247:1254  address */\n      0x00\n        /* \"@openzeppelin/contracts/access/Ownable.sol\":1273:1279  _owner */\n      dup1\n      0x00\n      swap1\n      sload\n      swap1\n      0x0100\n      exp\n      swap1\n      div\n      0xffffffffffffffffffffffffffffffffffffffff\n      and\n        /* \"@openzeppelin/contracts/access/Ownable.sol\":1266:1279  return _owner */\n      swap1\n      pop\n        /* \"@openzeppelin/contracts/access/Ownable.sol\":1201:1286  function owner() public view virtual returns (address) {... */\n      swap1\n      jump\t// out\n        /* \"@openzeppelin/contracts/access/Ownable.sol\":2074:2272  function transferOwnership(address newOwner) public virtual onlyOwner {... */\n    tag_64:\n        /* \"@openzeppelin/contracts/access/Ownable.sol\":1094:1107  _checkOwner() */\n      tag_185\n        /* \"@openzeppelin/contracts/access/Ownable.sol\":1094:1105  _checkOwner */\n      tag_128\n        /* \"@openzeppelin/contracts/access/Ownable.sol\":1094:1107  _checkOwner() */\n      jump\t// in\n    tag_185:\n        /* \"@openzeppelin/contracts/access/Ownable.sol\":2182:2183  0 */\n      0x00\n        /* \"@openzeppelin/contracts/access/Ownable.sol\":2162:2184  newOwner != address(0) */\n      0xffffffffffffffffffffffffffffffffffffffff\n      and\n        /* \"@openzeppelin/contracts/access/Ownable.sol\":2162:2170  newOwner */\n      dup2\n        /* \"@openzeppelin/contracts/access/Ownable.sol\":2162:2184  newOwner != address(0) */\n      0xffffffffffffffffffffffffffffffffffffffff\n      and\n      sub\n        /* \"@openzeppelin/contracts/access/Ownable.sol\":2154:2227  require(newOwner != address(0), \"Ownable: new owner is the zero address\") */\n      tag_187\n      jumpi\n      mload(0x40)\n      0x08c379a000000000000000000000000000000000000000000000000000000000\n      dup2\n      mstore\n      0x04\n      add\n      tag_188\n      swap1\n      tag_189\n      jump\t// in\n    tag_188:\n      mload(0x40)\n      dup1\n      swap2\n      sub\n      swap1\n      revert\n    tag_187:\n        /* \"@openzeppelin/contracts/access/Ownable.sol\":2237:2265  _transferOwnership(newOwner) */\n      tag_190\n        /* \"@openzeppelin/contracts/access/Ownable.sol\":2256:2264  newOwner */\n      dup2\n        /* \"@openzeppelin/contracts/access/Ownable.sol\":2237:2255  _transferOwnership */\n      tag_156\n        /* \"@openzeppelin/contracts/access/Ownable.sol\":2237:2265  _transferOwnership(newOwner) */\n      jump\t// in\n    tag_190:\n        /* \"@openzeppelin/contracts/access/Ownable.sol\":2074:2272  function transferOwnership(address newOwner) public virtual onlyOwner {... */\n      pop\n      jump\t// out\n        /* \"@openzeppelin/contracts/access/Ownable.sol\":1359:1489  function _checkOwner() internal view virtual {... */\n    tag_128:\n        /* \"@openzeppelin/contracts/access/Ownable.sol\":1433:1445  _msgSender() */\n      tag_192\n        /* \"@openzeppelin/contracts/access/Ownable.sol\":1433:1443  _msgSender */\n      tag_193\n        /* \"@openzeppelin/contracts/access/Ownable.sol\":1433:1445  _msgSender() */\n      jump\t// in\n    tag_192:\n        /* \"@openzeppelin/contracts/access/Ownable.sol\":1422:1445  owner() == _msgSender() */\n      0xffffffffffffffffffffffffffffffffffffffff\n      and\n        /* \"@openzeppelin/contracts/access/Ownable.sol\":1422:1429  owner() */\n      tag_194\n        /* \"@openzeppelin/contracts/access/Ownable.sol\":1422:1427  owner */\n      tag_59\n        /* \"@openzeppelin/contracts/access/Ownable.sol\":1422:1429  owner() */\n      jump\t// in\n    tag_194:\n        /* \"@openzeppelin/contracts/access/Ownable.sol\":1422:1445  owner() == _msgSender() */\n      0xffffffffffffffffffffffffffffffffffffffff\n      and\n      eq\n        /* \"@openzeppelin/contracts/access/Ownable.sol\":1414:1482  require(owner() == _msgSender(), \"Ownable: caller is not the owner\") */\n      tag_195\n      jumpi\n      mload(0x40)\n      0x08c379a000000000000000000000000000000000000000000000000000000000\n      dup2\n      mstore\n      0x04\n      add\n      tag_196\n      swap1\n      tag_197\n      jump\t// in\n    tag_196:\n      mload(0x40)\n      dup1\n      swap2\n      sub\n      swap1\n      revert\n    tag_195:\n        /* \"@openzeppelin/contracts/access/Ownable.sol\":1359:1489  function _checkOwner() internal view virtual {... */\n      jump\t// out\n        /* \"@openzeppelin/contracts/access/Ownable.sol\":2426:2613  function _transferOwnership(address newOwner) internal virtual {... */\n    tag_156:\n        /* \"@openzeppelin/contracts/access/Ownable.sol\":2499:2515  address oldOwner */\n      0x00\n        /* \"@openzeppelin/contracts/access/Ownable.sol\":2518:2524  _owner */\n      dup1\n      0x00\n      swap1\n      sload\n      swap1\n      0x0100\n      exp\n      swap1\n      div\n      0xffffffffffffffffffffffffffffffffffffffff\n      and\n        /* \"@openzeppelin/contracts/access/Ownable.sol\":2499:2524  address oldOwner = _owner */\n      swap1\n      pop\n        /* \"@openzeppelin/contracts/access/Ownable.sol\":2543:2551  newOwner */\n      dup2\n        /* \"@openzeppelin/contracts/access/Ownable.sol\":2534:2540  _owner */\n      0x00\n      dup1\n        /* \"@openzeppelin/contracts/access/Ownable.sol\":2534:2551  _owner = newOwner */\n      0x0100\n      exp\n      dup2\n      sload\n      dup2\n      0xffffffffffffffffffffffffffffffffffffffff\n      mul\n      not\n      and\n      swap1\n      dup4\n      0xffffffffffffffffffffffffffffffffffffffff\n      and\n      mul\n      or\n      swap1\n      sstore\n      pop\n        /* \"@openzeppelin/contracts/access/Ownable.sol\":2597:2605  newOwner */\n      dup2\n        /* \"@openzeppelin/contracts/access/Ownable.sol\":2566:2606  OwnershipTransferred(oldOwner, newOwner) */\n      0xffffffffffffffffffffffffffffffffffffffff\n      and\n        /* \"@openzeppelin/contracts/access/Ownable.sol\":2587:2595  oldOwner */\n      dup2\n        /* \"@openzeppelin/contracts/access/Ownable.sol\":2566:2606  OwnershipTransferred(oldOwner, newOwner) */\n      0xffffffffffffffffffffffffffffffffffffffff\n      and\n      0x8be0079c531659141344cd1fd0a4f28419497f9722a3daafe3b4186f6b6457e0\n      mload(0x40)\n      mload(0x40)\n      dup1\n      swap2\n      sub\n      swap1\n      log3\n        /* \"@openzeppelin/contracts/access/Ownable.sol\":2489:2613  {... */\n      pop\n        /* \"@openzeppelin/contracts/access/Ownable.sol\":2426:2613  function _transferOwnership(address newOwner) internal virtual {... */\n      pop\n      jump\t// out\n        /* \"@openzeppelin/contracts/utils/Context.sol\":640:736  function _msgSender() internal view virtual returns (address) {... */\n    tag_193:\n        /* \"@openzeppelin/contracts/utils/Context.sol\":693:700  address */\n      0x00\n        /* \"@openzeppelin/contracts/utils/Context.sol\":719:729  msg.sender */\n      caller\n        /* \"@openzeppelin/contracts/utils/Context.sol\":712:729  return msg.sender */\n      swap1\n      pop\n        /* \"@openzeppelin/contracts/utils/Context.sol\":640:736  function _msgSender() internal view virtual returns (address) {... */\n      swap1\n      jump\t// out\n    tag_74:\n      mload(0x40)\n      dup1\n      0xa0\n      add\n      0x40\n      mstore\n      dup1\n      0x00\n      dup2\n      mstore\n      0x20\n      add\n      and(0xffffffffffffffffffffffffffffffffffffffff, 0x00)\n      dup2\n      mstore\n      0x20\n      add\n      0x60\n      dup2\n      mstore\n      0x20\n      add\n      0x00\n      dup2\n      mstore\n      0x20\n      add\n      0x00\n      dup2\n      mstore\n      pop\n      swap1\n      jump\t// out\n        /* \"#utility.yul\":7:82   */\n    tag_200:\n        /* \"#utility.yul\":40:46   */\n      0x00\n        /* \"#utility.yul\":73:75   */\n      0x40\n        /* \"#utility.yul\":67:76   */\n      mload\n        /* \"#utility.yul\":57:76   */\n      swap1\n      pop\n        /* \"#utility.yul\":7:82   */\n      swap1\n      jump\t// out\n        /* \"#utility.yul\":88:205   */\n    tag_201:\n        /* \"#utility.yul\":197:198   */\n      0x00\n        /* \"#utility.yul\":194:195   */\n      dup1\n        /* \"#utility.yul\":187:199   */\n      revert\n        /* \"#utility.yul\":211:328   */\n    tag_202:\n        /* \"#utility.yul\":320:321   */\n      0x00\n        /* \"#utility.yul\":317:318   */\n      dup1\n        /* \"#utility.yul\":310:322   */\n      revert\n        /* \"#utility.yul\":334:460   */\n    tag_203:\n        /* \"#utility.yul\":371:378   */\n      0x00\n        /* \"#utility.yul\":411:453   */\n      0xffffffffffffffffffffffffffffffffffffffff\n        /* \"#utility.yul\":404:409   */\n      dup3\n        /* \"#utility.yul\":400:454   */\n      and\n        /* \"#utility.yul\":389:454   */\n      swap1\n      pop\n        /* \"#utility.yul\":334:460   */\n      swap2\n      swap1\n      pop\n      jump\t// out\n        /* \"#utility.yul\":466:562   */\n    tag_204:\n        /* \"#utility.yul\":503:510   */\n      0x00\n        /* \"#utility.yul\":532:556   */\n      tag_282\n        /* \"#utility.yul\":550:555   */\n      dup3\n        /* \"#utility.yul\":532:556   */\n      tag_203\n      jump\t// in\n    tag_282:\n        /* \"#utility.yul\":521:556   */\n      swap1\n      pop\n        /* \"#utility.yul\":466:562   */\n      swap2\n      swap1\n      pop\n      jump\t// out\n        /* \"#utility.yul\":568:690   */\n    tag_205:\n        /* \"#utility.yul\":641:665   */\n      tag_284\n        /* \"#utility.yul\":659:664   */\n      dup2\n        /* \"#utility.yul\":641:665   */\n      tag_204\n      jump\t// in\n    tag_284:\n        /* \"#utility.yul\":634:639   */\n      dup2\n        /* \"#utility.yul\":631:666   */\n      eq\n        /* \"#utility.yul\":621:684   */\n      tag_285\n      jumpi\n        /* \"#utility.yul\":680:681   */\n      0x00\n        /* \"#utility.yul\":677:678   */\n      dup1\n        /* \"#utility.yul\":670:682   */\n      revert\n        /* \"#utility.yul\":621:684   */\n    tag_285:\n        /* \"#utility.yul\":568:690   */\n      pop\n      jump\t// out\n        /* \"#utility.yul\":696:835   */\n    tag_206:\n        /* \"#utility.yul\":742:747   */\n      0x00\n        /* \"#utility.yul\":780:786   */\n      dup2\n        /* \"#utility.yul\":767:787   */\n      calldataload\n        /* \"#utility.yul\":758:787   */\n      swap1\n      pop\n        /* \"#utility.yul\":796:829   */\n      tag_287\n        /* \"#utility.yul\":823:828   */\n      dup2\n        /* \"#utility.yul\":796:829   */\n      tag_205\n      jump\t// in\n    tag_287:\n        /* \"#utility.yul\":696:835   */\n      swap3\n      swap2\n      pop\n      pop\n      jump\t// out\n        /* \"#utility.yul\":841:918   */\n    tag_207:\n        /* \"#utility.yul\":878:885   */\n      0x00\n        /* \"#utility.yul\":907:912   */\n      dup2\n        /* \"#utility.yul\":896:912   */\n      swap1\n      pop\n        /* \"#utility.yul\":841:918   */\n      swap2\n      swap1\n      pop\n      jump\t// out\n        /* \"#utility.yul\":924:1046   */\n    tag_208:\n        /* \"#utility.yul\":997:1021   */\n      tag_290\n        /* \"#utility.yul\":1015:1020   */\n      dup2\n        /* \"#utility.yul\":997:1021   */\n      tag_207\n      jump\t// in\n    tag_290:\n        /* \"#utility.yul\":990:995   */\n      dup2\n        /* \"#utility.yul\":987:1022   */\n      eq\n        /* \"#utility.yul\":977:1040   */\n      tag_291\n      jumpi\n        /* \"#utility.yul\":1036:1037   */\n      0x00\n        /* \"#utility.yul\":1033:1034   */\n      dup1\n        /* \"#utility.yul\":1026:1038   */\n      revert\n        /* \"#utility.yul\":977:1040   */\n    tag_291:\n        /* \"#utility.yul\":924:1046   */\n      pop\n      jump\t// out\n        /* \"#utility.yul\":1052:1191   */\n    tag_209:\n        /* \"#utility.yul\":1098:1103   */\n      0x00\n        /* \"#utility.yul\":1136:1142   */\n      dup2\n        /* \"#utility.yul\":1123:1143   */\n      calldataload\n        /* \"#utility.yul\":1114:1143   */\n      swap1\n      pop\n        /* \"#utility.yul\":1152:1185   */\n      tag_293\n        /* \"#utility.yul\":1179:1184   */\n      dup2\n        /* \"#utility.yul\":1152:1185   */\n      tag_208\n      jump\t// in\n    tag_293:\n        /* \"#utility.yul\":1052:1191   */\n      swap3\n      swap2\n      pop\n      pop\n      jump\t// out\n        /* \"#utility.yul\":1197:1671   */\n    tag_18:\n        /* \"#utility.yul\":1265:1271   */\n      0x00\n        /* \"#utility.yul\":1273:1279   */\n      dup1\n        /* \"#utility.yul\":1322:1324   */\n      0x40\n        /* \"#utility.yul\":1310:1319   */\n      dup4\n        /* \"#utility.yul\":1301:1308   */\n      dup6\n        /* \"#utility.yul\":1297:1320   */\n      sub\n        /* \"#utility.yul\":1293:1325   */\n      slt\n        /* \"#utility.yul\":1290:1409   */\n      iszero\n      tag_295\n      jumpi\n        /* \"#utility.yul\":1328:1407   */\n      tag_296\n      tag_201\n      jump\t// in\n    tag_296:\n        /* \"#utility.yul\":1290:1409   */\n    tag_295:\n        /* \"#utility.yul\":1448:1449   */\n      0x00\n        /* \"#utility.yul\":1473:1526   */\n      tag_297\n        /* \"#utility.yul\":1518:1525   */\n      dup6\n        /* \"#utility.yul\":1509:1515   */\n      dup3\n        /* \"#utility.yul\":1498:1507   */\n      dup7\n        /* \"#utility.yul\":1494:1516   */\n      add\n        /* \"#utility.yul\":1473:1526   */\n      tag_206\n      jump\t// in\n    tag_297:\n        /* \"#utility.yul\":1463:1526   */\n      swap3\n      pop\n        /* \"#utility.yul\":1419:1536   */\n      pop\n        /* \"#utility.yul\":1575:1577   */\n      0x20\n        /* \"#utility.yul\":1601:1654   */\n      tag_298\n        /* \"#utility.yul\":1646:1653   */\n      dup6\n        /* \"#utility.yul\":1637:1643   */\n      dup3\n        /* \"#utility.yul\":1626:1635   */\n      dup7\n        /* \"#utility.yul\":1622:1644   */\n      add\n        /* \"#utility.yul\":1601:1654   */\n      tag_209\n      jump\t// in\n    tag_298:\n        /* \"#utility.yul\":1591:1654   */\n      swap2\n      pop\n        /* \"#utility.yul\":1546:1664   */\n      pop\n        /* \"#utility.yul\":1197:1671   */\n      swap3\n      pop\n      swap3\n      swap1\n      pop\n      jump\t// out\n        /* \"#utility.yul\":1677:1795   */\n    tag_210:\n        /* \"#utility.yul\":1764:1788   */\n      tag_300\n        /* \"#utility.yul\":1782:1787   */\n      dup2\n        /* \"#utility.yul\":1764:1788   */\n      tag_207\n      jump\t// in\n    tag_300:\n        /* \"#utility.yul\":1759:1762   */\n      dup3\n        /* \"#utility.yul\":1752:1789   */\n      mstore\n        /* \"#utility.yul\":1677:1795   */\n      pop\n      pop\n      jump\t// out\n        /* \"#utility.yul\":1801:1919   */\n    tag_211:\n        /* \"#utility.yul\":1888:1912   */\n      tag_302\n        /* \"#utility.yul\":1906:1911   */\n      dup2\n        /* \"#utility.yul\":1888:1912   */\n      tag_204\n      jump\t// in\n    tag_302:\n        /* \"#utility.yul\":1883:1886   */\n      dup3\n        /* \"#utility.yul\":1876:1913   */\n      mstore\n        /* \"#utility.yul\":1801:1919   */\n      pop\n      pop\n      jump\t// out\n        /* \"#utility.yul\":1925:2024   */\n    tag_212:\n        /* \"#utility.yul\":1977:1983   */\n      0x00\n        /* \"#utility.yul\":2011:2016   */\n      dup2\n        /* \"#utility.yul\":2005:2017   */\n      mload\n        /* \"#utility.yul\":1995:2017   */\n      swap1\n      pop\n        /* \"#utility.yul\":1925:2024   */\n      swap2\n      swap1\n      pop\n      jump\t// out\n        /* \"#utility.yul\":2030:2199   */\n    tag_213:\n        /* \"#utility.yul\":2114:2125   */\n      0x00\n        /* \"#utility.yul\":2148:2154   */\n      dup3\n        /* \"#utility.yul\":2143:2146   */\n      dup3\n        /* \"#utility.yul\":2136:2155   */\n      mstore\n        /* \"#utility.yul\":2188:2192   */\n      0x20\n        /* \"#utility.yul\":2183:2186   */\n      dup3\n        /* \"#utility.yul\":2179:2193   */\n      add\n        /* \"#utility.yul\":2164:2193   */\n      swap1\n      pop\n        /* \"#utility.yul\":2030:2199   */\n      swap3\n      swap2\n      pop\n      pop\n      jump\t// out\n        /* \"#utility.yul\":2205:2451   */\n    tag_214:\n        /* \"#utility.yul\":2286:2287   */\n      0x00\n        /* \"#utility.yul\":2296:2409   */\n    tag_306:\n        /* \"#utility.yul\":2310:2316   */\n      dup4\n        /* \"#utility.yul\":2307:2308   */\n      dup2\n        /* \"#utility.yul\":2304:2317   */\n      lt\n        /* \"#utility.yul\":2296:2409   */\n      iszero\n      tag_308\n      jumpi\n        /* \"#utility.yul\":2395:2396   */\n      dup1\n        /* \"#utility.yul\":2390:2393   */\n      dup3\n        /* \"#utility.yul\":2386:2397   */\n      add\n        /* \"#utility.yul\":2380:2398   */\n      mload\n        /* \"#utility.yul\":2376:2377   */\n      dup2\n        /* \"#utility.yul\":2371:2374   */\n      dup5\n        /* \"#utility.yul\":2367:2378   */\n      add\n        /* \"#utility.yul\":2360:2399   */\n      mstore\n        /* \"#utility.yul\":2332:2334   */\n      0x20\n        /* \"#utility.yul\":2329:2330   */\n      dup2\n        /* \"#utility.yul\":2325:2335   */\n      add\n        /* \"#utility.yul\":2320:2335   */\n      swap1\n      pop\n        /* \"#utility.yul\":2296:2409   */\n      jump(tag_306)\n    tag_308:\n        /* \"#utility.yul\":2443:2444   */\n      0x00\n        /* \"#utility.yul\":2434:2440   */\n      dup5\n        /* \"#utility.yul\":2429:2432   */\n      dup5\n        /* \"#utility.yul\":2425:2441   */\n      add\n        /* \"#utility.yul\":2418:2445   */\n      mstore\n        /* \"#utility.yul\":2267:2451   */\n      pop\n        /* \"#utility.yul\":2205:2451   */\n      pop\n      pop\n      pop\n      jump\t// out\n        /* \"#utility.yul\":2457:2559   */\n    tag_215:\n        /* \"#utility.yul\":2498:2504   */\n      0x00\n        /* \"#utility.yul\":2549:2551   */\n      0x1f\n        /* \"#utility.yul\":2545:2552   */\n      not\n        /* \"#utility.yul\":2540:2542   */\n      0x1f\n        /* \"#utility.yul\":2533:2538   */\n      dup4\n        /* \"#utility.yul\":2529:2543   */\n      add\n        /* \"#utility.yul\":2525:2553   */\n      and\n        /* \"#utility.yul\":2515:2553   */\n      swap1\n      pop\n        /* \"#utility.yul\":2457:2559   */\n      swap2\n      swap1\n      pop\n      jump\t// out\n        /* \"#utility.yul\":2565:2942   */\n    tag_216:\n        /* \"#utility.yul\":2653:2656   */\n      0x00\n        /* \"#utility.yul\":2681:2720   */\n      tag_311\n        /* \"#utility.yul\":2714:2719   */\n      dup3\n        /* \"#utility.yul\":2681:2720   */\n      tag_212\n      jump\t// in\n    tag_311:\n        /* \"#utility.yul\":2736:2807   */\n      tag_312\n        /* \"#utility.yul\":2800:2806   */\n      dup2\n        /* \"#utility.yul\":2795:2798   */\n      dup6\n        /* \"#utility.yul\":2736:2807   */\n      tag_213\n      jump\t// in\n    tag_312:\n        /* \"#utility.yul\":2729:2807   */\n      swap4\n      pop\n        /* \"#utility.yul\":2816:2881   */\n      tag_313\n        /* \"#utility.yul\":2874:2880   */\n      dup2\n        /* \"#utility.yul\":2869:2872   */\n      dup6\n        /* \"#utility.yul\":2862:2866   */\n      0x20\n        /* \"#utility.yul\":2855:2860   */\n      dup7\n        /* \"#utility.yul\":2851:2867   */\n      add\n        /* \"#utility.yul\":2816:2881   */\n      tag_214\n      jump\t// in\n    tag_313:\n        /* \"#utility.yul\":2906:2935   */\n      tag_314\n        /* \"#utility.yul\":2928:2934   */\n      dup2\n        /* \"#utility.yul\":2906:2935   */\n      tag_215\n      jump\t// in\n    tag_314:\n        /* \"#utility.yul\":2901:2904   */\n      dup5\n        /* \"#utility.yul\":2897:2936   */\n      add\n        /* \"#utility.yul\":2890:2936   */\n      swap2\n      pop\n        /* \"#utility.yul\":2657:2942   */\n      pop\n        /* \"#utility.yul\":2565:2942   */\n      swap3\n      swap2\n      pop\n      pop\n      jump\t// out\n        /* \"#utility.yul\":2948:3703   */\n    tag_21:\n        /* \"#utility.yul\":3173:3177   */\n      0x00\n        /* \"#utility.yul\":3211:3214   */\n      0xa0\n        /* \"#utility.yul\":3200:3209   */\n      dup3\n        /* \"#utility.yul\":3196:3215   */\n      add\n        /* \"#utility.yul\":3188:3215   */\n      swap1\n      pop\n        /* \"#utility.yul\":3225:3296   */\n      tag_316\n        /* \"#utility.yul\":3293:3294   */\n      0x00\n        /* \"#utility.yul\":3282:3291   */\n      dup4\n        /* \"#utility.yul\":3278:3295   */\n      add\n        /* \"#utility.yul\":3269:3275   */\n      dup9\n        /* \"#utility.yul\":3225:3296   */\n      tag_210\n      jump\t// in\n    tag_316:\n        /* \"#utility.yul\":3306:3378   */\n      tag_317\n        /* \"#utility.yul\":3374:3376   */\n      0x20\n        /* \"#utility.yul\":3363:3372   */\n      dup4\n        /* \"#utility.yul\":3359:3377   */\n      add\n        /* \"#utility.yul\":3350:3356   */\n      dup8\n        /* \"#utility.yul\":3306:3378   */\n      tag_211\n      jump\t// in\n    tag_317:\n        /* \"#utility.yul\":3425:3434   */\n      dup2\n        /* \"#utility.yul\":3419:3423   */\n      dup2\n        /* \"#utility.yul\":3415:3435   */\n      sub\n        /* \"#utility.yul\":3410:3412   */\n      0x40\n        /* \"#utility.yul\":3399:3408   */\n      dup4\n        /* \"#utility.yul\":3395:3413   */\n      add\n        /* \"#utility.yul\":3388:3436   */\n      mstore\n        /* \"#utility.yul\":3453:3531   */\n      tag_318\n        /* \"#utility.yul\":3526:3530   */\n      dup2\n        /* \"#utility.yul\":3517:3523   */\n      dup7\n        /* \"#utility.yul\":3453:3531   */\n      tag_216\n      jump\t// in\n    tag_318:\n        /* \"#utility.yul\":3445:3531   */\n      swap1\n      pop\n        /* \"#utility.yul\":3541:3613   */\n      tag_319\n        /* \"#utility.yul\":3609:3611   */\n      0x60\n        /* \"#utility.yul\":3598:3607   */\n      dup4\n        /* \"#utility.yul\":3594:3612   */\n      add\n        /* \"#utility.yul\":3585:3591   */\n      dup6\n        /* \"#utility.yul\":3541:3613   */\n      tag_210\n      jump\t// in\n    tag_319:\n        /* \"#utility.yul\":3623:3696   */\n      tag_320\n        /* \"#utility.yul\":3691:3694   */\n      0x80\n        /* \"#utility.yul\":3680:3689   */\n      dup4\n        /* \"#utility.yul\":3676:3695   */\n      add\n        /* \"#utility.yul\":3667:3673   */\n      dup5\n        /* \"#utility.yul\":3623:3696   */\n      tag_210\n      jump\t// in\n    tag_320:\n        /* \"#utility.yul\":2948:3703   */\n      swap7\n      swap6\n      pop\n      pop\n      pop\n      pop\n      pop\n      pop\n      jump\t// out\n        /* \"#utility.yul\":3709:3817   */\n    tag_217:\n        /* \"#utility.yul\":3786:3810   */\n      tag_322\n        /* \"#utility.yul\":3804:3809   */\n      dup2\n        /* \"#utility.yul\":3786:3810   */\n      tag_207\n      jump\t// in\n    tag_322:\n        /* \"#utility.yul\":3781:3784   */\n      dup3\n        /* \"#utility.yul\":3774:3811   */\n      mstore\n        /* \"#utility.yul\":3709:3817   */\n      pop\n      pop\n      jump\t// out\n        /* \"#utility.yul\":3823:3931   */\n    tag_218:\n        /* \"#utility.yul\":3900:3924   */\n      tag_324\n        /* \"#utility.yul\":3918:3923   */\n      dup2\n        /* \"#utility.yul\":3900:3924   */\n      tag_204\n      jump\t// in\n    tag_324:\n        /* \"#utility.yul\":3895:3898   */\n      dup3\n        /* \"#utility.yul\":3888:3925   */\n      mstore\n        /* \"#utility.yul\":3823:3931   */\n      pop\n      pop\n      jump\t// out\n        /* \"#utility.yul\":3937:4096   */\n    tag_219:\n        /* \"#utility.yul\":4011:4022   */\n      0x00\n        /* \"#utility.yul\":4045:4051   */\n      dup3\n        /* \"#utility.yul\":4040:4043   */\n      dup3\n        /* \"#utility.yul\":4033:4052   */\n      mstore\n        /* \"#utility.yul\":4085:4089   */\n      0x20\n        /* \"#utility.yul\":4080:4083   */\n      dup3\n        /* \"#utility.yul\":4076:4090   */\n      add\n        /* \"#utility.yul\":4061:4090   */\n      swap1\n      pop\n        /* \"#utility.yul\":3937:4096   */\n      swap3\n      swap2\n      pop\n      pop\n      jump\t// out\n        /* \"#utility.yul\":4102:4459   */\n    tag_220:\n        /* \"#utility.yul\":4180:4183   */\n      0x00\n        /* \"#utility.yul\":4208:4247   */\n      tag_327\n        /* \"#utility.yul\":4241:4246   */\n      dup3\n        /* \"#utility.yul\":4208:4247   */\n      tag_212\n      jump\t// in\n    tag_327:\n        /* \"#utility.yul\":4263:4324   */\n      tag_328\n        /* \"#utility.yul\":4317:4323   */\n      dup2\n        /* \"#utility.yul\":4312:4315   */\n      dup6\n        /* \"#utility.yul\":4263:4324   */\n      tag_219\n      jump\t// in\n    tag_328:\n        /* \"#utility.yul\":4256:4324   */\n      swap4\n      pop\n        /* \"#utility.yul\":4333:4398   */\n      tag_329\n        /* \"#utility.yul\":4391:4397   */\n      dup2\n        /* \"#utility.yul\":4386:4389   */\n      dup6\n        /* \"#utility.yul\":4379:4383   */\n      0x20\n        /* \"#utility.yul\":4372:4377   */\n      dup7\n        /* \"#utility.yul\":4368:4384   */\n      add\n        /* \"#utility.yul\":4333:4398   */\n      tag_214\n      jump\t// in\n    tag_329:\n        /* \"#utility.yul\":4423:4452   */\n      tag_330\n        /* \"#utility.yul\":4445:4451   */\n      dup2\n        /* \"#utility.yul\":4423:4452   */\n      tag_215\n      jump\t// in\n    tag_330:\n        /* \"#utility.yul\":4418:4421   */\n      dup5\n        /* \"#utility.yul\":4414:4453   */\n      add\n        /* \"#utility.yul\":4407:4453   */\n      swap2\n      pop\n        /* \"#utility.yul\":4184:4459   */\n      pop\n        /* \"#utility.yul\":4102:4459   */\n      swap3\n      swap2\n      pop\n      pop\n      jump\t// out\n        /* \"#utility.yul\":4505:5636   */\n    tag_221:\n        /* \"#utility.yul\":4618:4621   */\n      0x00\n        /* \"#utility.yul\":4654:4658   */\n      0xa0\n        /* \"#utility.yul\":4649:4652   */\n      dup4\n        /* \"#utility.yul\":4645:4659   */\n      add\n        /* \"#utility.yul\":4739:4743   */\n      0x00\n        /* \"#utility.yul\":4732:4737   */\n      dup4\n        /* \"#utility.yul\":4728:4744   */\n      add\n        /* \"#utility.yul\":4722:4745   */\n      mload\n        /* \"#utility.yul\":4758:4821   */\n      tag_332\n        /* \"#utility.yul\":4815:4819   */\n      0x00\n        /* \"#utility.yul\":4810:4813   */\n      dup7\n        /* \"#utility.yul\":4806:4820   */\n      add\n        /* \"#utility.yul\":4792:4804   */\n      dup3\n        /* \"#utility.yul\":4758:4821   */\n      tag_217\n      jump\t// in\n    tag_332:\n        /* \"#utility.yul\":4669:4831   */\n      pop\n        /* \"#utility.yul\":4915:4919   */\n      0x20\n        /* \"#utility.yul\":4908:4913   */\n      dup4\n        /* \"#utility.yul\":4904:4920   */\n      add\n        /* \"#utility.yul\":4898:4921   */\n      mload\n        /* \"#utility.yul\":4934:4997   */\n      tag_333\n        /* \"#utility.yul\":4991:4995   */\n      0x20\n        /* \"#utility.yul\":4986:4989   */\n      dup7\n        /* \"#utility.yul\":4982:4996   */\n      add\n        /* \"#utility.yul\":4968:4980   */\n      dup3\n        /* \"#utility.yul\":4934:4997   */\n      tag_218\n      jump\t// in\n    tag_333:\n        /* \"#utility.yul\":4841:5007   */\n      pop\n        /* \"#utility.yul\":5092:5096   */\n      0x40\n        /* \"#utility.yul\":5085:5090   */\n      dup4\n        /* \"#utility.yul\":5081:5097   */\n      add\n        /* \"#utility.yul\":5075:5098   */\n      mload\n        /* \"#utility.yul\":5145:5148   */\n      dup5\n        /* \"#utility.yul\":5139:5143   */\n      dup3\n        /* \"#utility.yul\":5135:5149   */\n      sub\n        /* \"#utility.yul\":5128:5132   */\n      0x40\n        /* \"#utility.yul\":5123:5126   */\n      dup7\n        /* \"#utility.yul\":5119:5133   */\n      add\n        /* \"#utility.yul\":5112:5150   */\n      mstore\n        /* \"#utility.yul\":5171:5244   */\n      tag_334\n        /* \"#utility.yul\":5239:5243   */\n      dup3\n        /* \"#utility.yul\":5225:5237   */\n      dup3\n        /* \"#utility.yul\":5171:5244   */\n      tag_220\n      jump\t// in\n    tag_334:\n        /* \"#utility.yul\":5163:5244   */\n      swap2\n      pop\n        /* \"#utility.yul\":5017:5255   */\n      pop\n        /* \"#utility.yul\":5342:5346   */\n      0x60\n        /* \"#utility.yul\":5335:5340   */\n      dup4\n        /* \"#utility.yul\":5331:5347   */\n      add\n        /* \"#utility.yul\":5325:5348   */\n      mload\n        /* \"#utility.yul\":5361:5424   */\n      tag_335\n        /* \"#utility.yul\":5418:5422   */\n      0x60\n        /* \"#utility.yul\":5413:5416   */\n      dup7\n        /* \"#utility.yul\":5409:5423   */\n      add\n        /* \"#utility.yul\":5395:5407   */\n      dup3\n        /* \"#utility.yul\":5361:5424   */\n      tag_217\n      jump\t// in\n    tag_335:\n        /* \"#utility.yul\":5265:5434   */\n      pop\n        /* \"#utility.yul\":5517:5521   */\n      0x80\n        /* \"#utility.yul\":5510:5515   */\n      dup4\n        /* \"#utility.yul\":5506:5522   */\n      add\n        /* \"#utility.yul\":5500:5523   */\n      mload\n        /* \"#utility.yul\":5536:5599   */\n      tag_336\n        /* \"#utility.yul\":5593:5597   */\n      0x80\n        /* \"#utility.yul\":5588:5591   */\n      dup7\n        /* \"#utility.yul\":5584:5598   */\n      add\n        /* \"#utility.yul\":5570:5582   */\n      dup3\n        /* \"#utility.yul\":5536:5599   */\n      tag_217\n      jump\t// in\n    tag_336:\n        /* \"#utility.yul\":5444:5609   */\n      pop\n        /* \"#utility.yul\":5626:5630   */\n      dup1\n        /* \"#utility.yul\":5619:5630   */\n      swap2\n      pop\n        /* \"#utility.yul\":4623:5636   */\n      pop\n        /* \"#utility.yul\":4505:5636   */\n      swap3\n      swap2\n      pop\n      pop\n      jump\t// out\n        /* \"#utility.yul\":5642:6003   */\n    tag_26:\n        /* \"#utility.yul\":5779:5783   */\n      0x00\n        /* \"#utility.yul\":5817:5819   */\n      0x20\n        /* \"#utility.yul\":5806:5815   */\n      dup3\n        /* \"#utility.yul\":5802:5820   */\n      add\n        /* \"#utility.yul\":5794:5820   */\n      swap1\n      pop\n        /* \"#utility.yul\":5866:5875   */\n      dup2\n        /* \"#utility.yul\":5860:5864   */\n      dup2\n        /* \"#utility.yul\":5856:5876   */\n      sub\n        /* \"#utility.yul\":5852:5853   */\n      0x00\n        /* \"#utility.yul\":5841:5850   */\n      dup4\n        /* \"#utility.yul\":5837:5854   */\n      add\n        /* \"#utility.yul\":5830:5877   */\n      mstore\n        /* \"#utility.yul\":5894:5996   */\n      tag_338\n        /* \"#utility.yul\":5991:5995   */\n      dup2\n        /* \"#utility.yul\":5982:5988   */\n      dup5\n        /* \"#utility.yul\":5894:5996   */\n      tag_221\n      jump\t// in\n    tag_338:\n        /* \"#utility.yul\":5886:5996   */\n      swap1\n      pop\n        /* \"#utility.yul\":5642:6003   */\n      swap3\n      swap2\n      pop\n      pop\n      jump\t// out\n        /* \"#utility.yul\":6009:6338   */\n    tag_29:\n        /* \"#utility.yul\":6068:6074   */\n      0x00\n        /* \"#utility.yul\":6117:6119   */\n      0x20\n        /* \"#utility.yul\":6105:6114   */\n      dup3\n        /* \"#utility.yul\":6096:6103   */\n      dup5\n        /* \"#utility.yul\":6092:6115   */\n      sub\n        /* \"#utility.yul\":6088:6120   */\n      slt\n        /* \"#utility.yul\":6085:6204   */\n      iszero\n      tag_340\n      jumpi\n        /* \"#utility.yul\":6123:6202   */\n      tag_341\n      tag_201\n      jump\t// in\n    tag_341:\n        /* \"#utility.yul\":6085:6204   */\n    tag_340:\n        /* \"#utility.yul\":6243:6244   */\n      0x00\n        /* \"#utility.yul\":6268:6321   */\n      tag_342\n        /* \"#utility.yul\":6313:6320   */\n      dup5\n        /* \"#utility.yul\":6304:6310   */\n      dup3\n        /* \"#utility.yul\":6293:6302   */\n      dup6\n        /* \"#utility.yul\":6289:6311   */\n      add\n        /* \"#utility.yul\":6268:6321   */\n      tag_206\n      jump\t// in\n    tag_342:\n        /* \"#utility.yul\":6258:6321   */\n      swap2\n      pop\n        /* \"#utility.yul\":6214:6331   */\n      pop\n        /* \"#utility.yul\":6009:6338   */\n      swap3\n      swap2\n      pop\n      pop\n      jump\t// out\n        /* \"#utility.yul\":6344:6480   */\n    tag_222:\n        /* \"#utility.yul\":6433:6439   */\n      0x00\n        /* \"#utility.yul\":6467:6472   */\n      dup2\n        /* \"#utility.yul\":6461:6473   */\n      mload\n        /* \"#utility.yul\":6451:6473   */\n      swap1\n      pop\n        /* \"#utility.yul\":6344:6480   */\n      swap2\n      swap1\n      pop\n      jump\t// out\n        /* \"#utility.yul\":6486:6692   */\n    tag_223:\n        /* \"#utility.yul\":6607:6618   */\n      0x00\n        /* \"#utility.yul\":6641:6647   */\n      dup3\n        /* \"#utility.yul\":6636:6639   */\n      dup3\n        /* \"#utility.yul\":6629:6648   */\n      mstore\n        /* \"#utility.yul\":6681:6685   */\n      0x20\n        /* \"#utility.yul\":6676:6679   */\n      dup3\n        /* \"#utility.yul\":6672:6686   */\n      add\n        /* \"#utility.yul\":6657:6686   */\n      swap1\n      pop\n        /* \"#utility.yul\":6486:6692   */\n      swap3\n      swap2\n      pop\n      pop\n      jump\t// out\n        /* \"#utility.yul\":6698:6852   */\n    tag_224:\n        /* \"#utility.yul\":6787:6791   */\n      0x00\n        /* \"#utility.yul\":6810:6813   */\n      dup2\n        /* \"#utility.yul\":6802:6813   */\n      swap1\n      pop\n        /* \"#utility.yul\":6840:6844   */\n      0x20\n        /* \"#utility.yul\":6835:6838   */\n      dup3\n        /* \"#utility.yul\":6831:6845   */\n      add\n        /* \"#utility.yul\":6823:6845   */\n      swap1\n      pop\n        /* \"#utility.yul\":6698:6852   */\n      swap2\n      swap1\n      pop\n      jump\t// out\n        /* \"#utility.yul\":6898:8019   */\n    tag_225:\n        /* \"#utility.yul\":7001:7004   */\n      0x00\n        /* \"#utility.yul\":7037:7041   */\n      0xa0\n        /* \"#utility.yul\":7032:7035   */\n      dup4\n        /* \"#utility.yul\":7028:7042   */\n      add\n        /* \"#utility.yul\":7122:7126   */\n      0x00\n        /* \"#utility.yul\":7115:7120   */\n      dup4\n        /* \"#utility.yul\":7111:7127   */\n      add\n        /* \"#utility.yul\":7105:7128   */\n      mload\n        /* \"#utility.yul\":7141:7204   */\n      tag_347\n        /* \"#utility.yul\":7198:7202   */\n      0x00\n        /* \"#utility.yul\":7193:7196   */\n      dup7\n        /* \"#utility.yul\":7189:7203   */\n      add\n        /* \"#utility.yul\":7175:7187   */\n      dup3\n        /* \"#utility.yul\":7141:7204   */\n      tag_217\n      jump\t// in\n    tag_347:\n        /* \"#utility.yul\":7052:7214   */\n      pop\n        /* \"#utility.yul\":7298:7302   */\n      0x20\n        /* \"#utility.yul\":7291:7296   */\n      dup4\n        /* \"#utility.yul\":7287:7303   */\n      add\n        /* \"#utility.yul\":7281:7304   */\n      mload\n        /* \"#utility.yul\":7317:7380   */\n      tag_348\n        /* \"#utility.yul\":7374:7378   */\n      0x20\n        /* \"#utility.yul\":7369:7372   */\n      dup7\n        /* \"#utility.yul\":7365:7379   */\n      add\n        /* \"#utility.yul\":7351:7363   */\n      dup3\n        /* \"#utility.yul\":7317:7380   */\n      tag_218\n      jump\t// in\n    tag_348:\n        /* \"#utility.yul\":7224:7390   */\n      pop\n        /* \"#utility.yul\":7475:7479   */\n      0x40\n        /* \"#utility.yul\":7468:7473   */\n      dup4\n        /* \"#utility.yul\":7464:7480   */\n      add\n        /* \"#utility.yul\":7458:7481   */\n      mload\n        /* \"#utility.yul\":7528:7531   */\n      dup5\n        /* \"#utility.yul\":7522:7526   */\n      dup3\n        /* \"#utility.yul\":7518:7532   */\n      sub\n        /* \"#utility.yul\":7511:7515   */\n      0x40\n        /* \"#utility.yul\":7506:7509   */\n      dup7\n        /* \"#utility.yul\":7502:7516   */\n      add\n        /* \"#utility.yul\":7495:7533   */\n      mstore\n        /* \"#utility.yul\":7554:7627   */\n      tag_349\n        /* \"#utility.yul\":7622:7626   */\n      dup3\n        /* \"#utility.yul\":7608:7620   */\n      dup3\n        /* \"#utility.yul\":7554:7627   */\n      tag_220\n      jump\t// in\n    tag_349:\n        /* \"#utility.yul\":7546:7627   */\n      swap2\n      pop\n        /* \"#utility.yul\":7400:7638   */\n      pop\n        /* \"#utility.yul\":7725:7729   */\n      0x60\n        /* \"#utility.yul\":7718:7723   */\n      dup4\n        /* \"#utility.yul\":7714:7730   */\n      add\n        /* \"#utility.yul\":7708:7731   */\n      mload\n        /* \"#utility.yul\":7744:7807   */\n      tag_350\n        /* \"#utility.yul\":7801:7805   */\n      0x60\n        /* \"#utility.yul\":7796:7799   */\n      dup7\n        /* \"#utility.yul\":7792:7806   */\n      add\n        /* \"#utility.yul\":7778:7790   */\n      dup3\n        /* \"#utility.yul\":7744:7807   */\n      tag_217\n      jump\t// in\n    tag_350:\n        /* \"#utility.yul\":7648:7817   */\n      pop\n        /* \"#utility.yul\":7900:7904   */\n      0x80\n        /* \"#utility.yul\":7893:7898   */\n      dup4\n        /* \"#utility.yul\":7889:7905   */\n      add\n        /* \"#utility.yul\":7883:7906   */\n      mload\n        /* \"#utility.yul\":7919:7982   */\n      tag_351\n        /* \"#utility.yul\":7976:7980   */\n      0x80\n        /* \"#utility.yul\":7971:7974   */\n      dup7\n        /* \"#utility.yul\":7967:7981   */\n      add\n        /* \"#utility.yul\":7953:7965   */\n      dup3\n        /* \"#utility.yul\":7919:7982   */\n      tag_217\n      jump\t// in\n    tag_351:\n        /* \"#utility.yul\":7827:7992   */\n      pop\n        /* \"#utility.yul\":8009:8013   */\n      dup1\n        /* \"#utility.yul\":8002:8013   */\n      swap2\n      pop\n        /* \"#utility.yul\":7006:8019   */\n      pop\n        /* \"#utility.yul\":6898:8019   */\n      swap3\n      swap2\n      pop\n      pop\n      jump\t// out\n        /* \"#utility.yul\":8025:8269   */\n    tag_226:\n        /* \"#utility.yul\":8138:8148   */\n      0x00\n        /* \"#utility.yul\":8173:8263   */\n      tag_353\n        /* \"#utility.yul\":8259:8262   */\n      dup4\n        /* \"#utility.yul\":8251:8257   */\n      dup4\n        /* \"#utility.yul\":8173:8263   */\n      tag_225\n      jump\t// in\n    tag_353:\n        /* \"#utility.yul\":8159:8263   */\n      swap1\n      pop\n        /* \"#utility.yul\":8025:8269   */\n      swap3\n      swap2\n      pop\n      pop\n      jump\t// out\n        /* \"#utility.yul\":8275:8410   */\n    tag_227:\n        /* \"#utility.yul\":8367:8371   */\n      0x00\n        /* \"#utility.yul\":8399:8403   */\n      0x20\n        /* \"#utility.yul\":8394:8397   */\n      dup3\n        /* \"#utility.yul\":8390:8404   */\n      add\n        /* \"#utility.yul\":8382:8404   */\n      swap1\n      pop\n        /* \"#utility.yul\":8275:8410   */\n      swap2\n      swap1\n      pop\n      jump\t// out\n        /* \"#utility.yul\":8460:9547   */\n    tag_228:\n        /* \"#utility.yul\":8623:8626   */\n      0x00\n        /* \"#utility.yul\":8652:8728   */\n      tag_356\n        /* \"#utility.yul\":8722:8727   */\n      dup3\n        /* \"#utility.yul\":8652:8728   */\n      tag_222\n      jump\t// in\n    tag_356:\n        /* \"#utility.yul\":8744:8852   */\n      tag_357\n        /* \"#utility.yul\":8845:8851   */\n      dup2\n        /* \"#utility.yul\":8840:8843   */\n      dup6\n        /* \"#utility.yul\":8744:8852   */\n      tag_223\n      jump\t// in\n    tag_357:\n        /* \"#utility.yul\":8737:8852   */\n      swap4\n      pop\n        /* \"#utility.yul\":8878:8881   */\n      dup4\n        /* \"#utility.yul\":8923:8927   */\n      0x20\n        /* \"#utility.yul\":8915:8921   */\n      dup3\n        /* \"#utility.yul\":8911:8928   */\n      mul\n        /* \"#utility.yul\":8906:8909   */\n      dup6\n        /* \"#utility.yul\":8902:8929   */\n      add\n        /* \"#utility.yul\":8953:9031   */\n      tag_358\n        /* \"#utility.yul\":9025:9030   */\n      dup6\n        /* \"#utility.yul\":8953:9031   */\n      tag_224\n      jump\t// in\n    tag_358:\n        /* \"#utility.yul\":9054:9061   */\n      dup1\n        /* \"#utility.yul\":9085:9086   */\n      0x00\n        /* \"#utility.yul\":9070:9502   */\n    tag_359:\n        /* \"#utility.yul\":9095:9101   */\n      dup6\n        /* \"#utility.yul\":9092:9093   */\n      dup2\n        /* \"#utility.yul\":9089:9102   */\n      lt\n        /* \"#utility.yul\":9070:9502   */\n      iszero\n      tag_361\n      jumpi\n        /* \"#utility.yul\":9166:9175   */\n      dup5\n        /* \"#utility.yul\":9160:9164   */\n      dup5\n        /* \"#utility.yul\":9156:9176   */\n      sub\n        /* \"#utility.yul\":9151:9154   */\n      dup10\n        /* \"#utility.yul\":9144:9177   */\n      mstore\n        /* \"#utility.yul\":9217:9223   */\n      dup2\n        /* \"#utility.yul\":9211:9224   */\n      mload\n        /* \"#utility.yul\":9245:9353   */\n      tag_362\n        /* \"#utility.yul\":9348:9352   */\n      dup6\n        /* \"#utility.yul\":9333:9346   */\n      dup3\n        /* \"#utility.yul\":9245:9353   */\n      tag_226\n      jump\t// in\n    tag_362:\n        /* \"#utility.yul\":9237:9353   */\n      swap5\n      pop\n        /* \"#utility.yul\":9376:9458   */\n      tag_363\n        /* \"#utility.yul\":9451:9457   */\n      dup4\n        /* \"#utility.yul\":9376:9458   */\n      tag_227\n      jump\t// in\n    tag_363:\n        /* \"#utility.yul\":9366:9458   */\n      swap3\n      pop\n        /* \"#utility.yul\":9487:9491   */\n      0x20\n        /* \"#utility.yul\":9482:9485   */\n      dup11\n        /* \"#utility.yul\":9478:9492   */\n      add\n        /* \"#utility.yul\":9471:9492   */\n      swap10\n      pop\n        /* \"#utility.yul\":9130:9502   */\n      pop\n        /* \"#utility.yul\":9117:9118   */\n      0x01\n        /* \"#utility.yul\":9114:9115   */\n      dup2\n        /* \"#utility.yul\":9110:9119   */\n      add\n        /* \"#utility.yul\":9105:9119   */\n      swap1\n      pop\n        /* \"#utility.yul\":9070:9502   */\n      jump(tag_359)\n    tag_361:\n        /* \"#utility.yul\":9074:9088   */\n      pop\n        /* \"#utility.yul\":9518:9522   */\n      dup3\n        /* \"#utility.yul\":9511:9522   */\n      swap8\n      pop\n        /* \"#utility.yul\":9538:9541   */\n      dup8\n        /* \"#utility.yul\":9531:9541   */\n      swap6\n      pop\n        /* \"#utility.yul\":8628:9547   */\n      pop\n      pop\n      pop\n      pop\n      pop\n        /* \"#utility.yul\":8460:9547   */\n      swap3\n      swap2\n      pop\n      pop\n      jump\t// out\n        /* \"#utility.yul\":9553:10014   */\n    tag_32:\n        /* \"#utility.yul\":9740:9744   */\n      0x00\n        /* \"#utility.yul\":9778:9780   */\n      0x20\n        /* \"#utility.yul\":9767:9776   */\n      dup3\n        /* \"#utility.yul\":9763:9781   */\n      add\n        /* \"#utility.yul\":9755:9781   */\n      swap1\n      pop\n        /* \"#utility.yul\":9827:9836   */\n      dup2\n        /* \"#utility.yul\":9821:9825   */\n      dup2\n        /* \"#utility.yul\":9817:9837   */\n      sub\n        /* \"#utility.yul\":9813:9814   */\n      0x00\n        /* \"#utility.yul\":9802:9811   */\n      dup4\n        /* \"#utility.yul\":9798:9815   */\n      add\n        /* \"#utility.yul\":9791:9838   */\n      mstore\n        /* \"#utility.yul\":9855:10007   */\n      tag_365\n        /* \"#utility.yul\":10002:10006   */\n      dup2\n        /* \"#utility.yul\":9993:9999   */\n      dup5\n        /* \"#utility.yul\":9855:10007   */\n      tag_228\n      jump\t// in\n    tag_365:\n        /* \"#utility.yul\":9847:10007   */\n      swap1\n      pop\n        /* \"#utility.yul\":9553:10014   */\n      swap3\n      swap2\n      pop\n      pop\n      jump\t// out\n        /* \"#utility.yul\":10020:10109   */\n    tag_229:\n        /* \"#utility.yul\":10056:10063   */\n      0x00\n        /* \"#utility.yul\":10096:10102   */\n      0xffff\n        /* \"#utility.yul\":10089:10094   */\n      dup3\n        /* \"#utility.yul\":10085:10103   */\n      and\n        /* \"#utility.yul\":10074:10103   */\n      swap1\n      pop\n        /* \"#utility.yul\":10020:10109   */\n      swap2\n      swap1\n      pop\n      jump\t// out\n        /* \"#utility.yul\":10115:10235   */\n    tag_230:\n        /* \"#utility.yul\":10187:10210   */\n      tag_368\n        /* \"#utility.yul\":10204:10209   */\n      dup2\n        /* \"#utility.yul\":10187:10210   */\n      tag_229\n      jump\t// in\n    tag_368:\n        /* \"#utility.yul\":10180:10185   */\n      dup2\n        /* \"#utility.yul\":10177:10211   */\n      eq\n        /* \"#utility.yul\":10167:10229   */\n      tag_369\n      jumpi\n        /* \"#utility.yul\":10225:10226   */\n      0x00\n        /* \"#utility.yul\":10222:10223   */\n      dup1\n        /* \"#utility.yul\":10215:10227   */\n      revert\n        /* \"#utility.yul\":10167:10229   */\n    tag_369:\n        /* \"#utility.yul\":10115:10235   */\n      pop\n      jump\t// out\n        /* \"#utility.yul\":10241:10378   */\n    tag_231:\n        /* \"#utility.yul\":10286:10291   */\n      0x00\n        /* \"#utility.yul\":10324:10330   */\n      dup2\n        /* \"#utility.yul\":10311:10331   */\n      calldataload\n        /* \"#utility.yul\":10302:10331   */\n      swap1\n      pop\n        /* \"#utility.yul\":10340:10372   */\n      tag_371\n        /* \"#utility.yul\":10366:10371   */\n      dup2\n        /* \"#utility.yul\":10340:10372   */\n      tag_230\n      jump\t// in\n    tag_371:\n        /* \"#utility.yul\":10241:10378   */\n      swap3\n      swap2\n      pop\n      pop\n      jump\t// out\n        /* \"#utility.yul\":10384:10711   */\n    tag_38:\n        /* \"#utility.yul\":10442:10448   */\n      0x00\n        /* \"#utility.yul\":10491:10493   */\n      0x20\n        /* \"#utility.yul\":10479:10488   */\n      dup3\n        /* \"#utility.yul\":10470:10477   */\n      dup5\n        /* \"#utility.yul\":10466:10489   */\n      sub\n        /* \"#utility.yul\":10462:10494   */\n      slt\n        /* \"#utility.yul\":10459:10578   */\n      iszero\n      tag_373\n      jumpi\n        /* \"#utility.yul\":10497:10576   */\n      tag_374\n      tag_201\n      jump\t// in\n    tag_374:\n        /* \"#utility.yul\":10459:10578   */\n    tag_373:\n        /* \"#utility.yul\":10617:10618   */\n      0x00\n        /* \"#utility.yul\":10642:10694   */\n      tag_375\n        /* \"#utility.yul\":10686:10693   */\n      dup5\n        /* \"#utility.yul\":10677:10683   */\n      dup3\n        /* \"#utility.yul\":10666:10675   */\n      dup6\n        /* \"#utility.yul\":10662:10684   */\n      add\n        /* \"#utility.yul\":10642:10694   */\n      tag_231\n      jump\t// in\n    tag_375:\n        /* \"#utility.yul\":10632:10694   */\n      swap2\n      pop\n        /* \"#utility.yul\":10588:10704   */\n      pop\n        /* \"#utility.yul\":10384:10711   */\n      swap3\n      swap2\n      pop\n      pop\n      jump\t// out\n        /* \"#utility.yul\":10717:10832   */\n    tag_232:\n        /* \"#utility.yul\":10802:10825   */\n      tag_377\n        /* \"#utility.yul\":10819:10824   */\n      dup2\n        /* \"#utility.yul\":10802:10825   */\n      tag_229\n      jump\t// in\n    tag_377:\n        /* \"#utility.yul\":10797:10800   */\n      dup3\n        /* \"#utility.yul\":10790:10826   */\n      mstore\n        /* \"#utility.yul\":10717:10832   */\n      pop\n      pop\n      jump\t// out\n        /* \"#utility.yul\":10838:11056   */\n    tag_46:\n        /* \"#utility.yul\":10929:10933   */\n      0x00\n        /* \"#utility.yul\":10967:10969   */\n      0x20\n        /* \"#utility.yul\":10956:10965   */\n      dup3\n        /* \"#utility.yul\":10952:10970   */\n      add\n        /* \"#utility.yul\":10944:10970   */\n      swap1\n      pop\n        /* \"#utility.yul\":10980:11049   */\n      tag_379\n        /* \"#utility.yul\":11046:11047   */\n      0x00\n        /* \"#utility.yul\":11035:11044   */\n      dup4\n        /* \"#utility.yul\":11031:11048   */\n      add\n        /* \"#utility.yul\":11022:11028   */\n      dup5\n        /* \"#utility.yul\":10980:11049   */\n      tag_232\n      jump\t// in\n    tag_379:\n        /* \"#utility.yul\":10838:11056   */\n      swap3\n      swap2\n      pop\n      pop\n      jump\t// out\n        /* \"#utility.yul\":11062:11179   */\n    tag_233:\n        /* \"#utility.yul\":11171:11172   */\n      0x00\n        /* \"#utility.yul\":11168:11169   */\n      dup1\n        /* \"#utility.yul\":11161:11173   */\n      revert\n        /* \"#utility.yul\":11185:11302   */\n    tag_234:\n        /* \"#utility.yul\":11294:11295   */\n      0x00\n        /* \"#utility.yul\":11291:11292   */\n      dup1\n        /* \"#utility.yul\":11284:11296   */\n      revert\n        /* \"#utility.yul\":11308:11488   */\n    tag_235:\n        /* \"#utility.yul\":11356:11433   */\n      0x4e487b7100000000000000000000000000000000000000000000000000000000\n        /* \"#utility.yul\":11353:11354   */\n      0x00\n        /* \"#utility.yul\":11346:11434   */\n      mstore\n        /* \"#utility.yul\":11453:11457   */\n      0x41\n        /* \"#utility.yul\":11450:11451   */\n      0x04\n        /* \"#utility.yul\":11443:11458   */\n      mstore\n        /* \"#utility.yul\":11477:11481   */\n      0x24\n        /* \"#utility.yul\":11474:11475   */\n      0x00\n        /* \"#utility.yul\":11467:11482   */\n      revert\n        /* \"#utility.yul\":11494:11775   */\n    tag_236:\n        /* \"#utility.yul\":11577:11604   */\n      tag_384\n        /* \"#utility.yul\":11599:11603   */\n      dup3\n        /* \"#utility.yul\":11577:11604   */\n      tag_215\n      jump\t// in\n    tag_384:\n        /* \"#utility.yul\":11569:11575   */\n      dup2\n        /* \"#utility.yul\":11565:11605   */\n      add\n        /* \"#utility.yul\":11707:11713   */\n      dup2\n        /* \"#utility.yul\":11695:11705   */\n      dup2\n        /* \"#utility.yul\":11692:11714   */\n      lt\n        /* \"#utility.yul\":11671:11689   */\n      0xffffffffffffffff\n        /* \"#utility.yul\":11659:11669   */\n      dup3\n        /* \"#utility.yul\":11656:11690   */\n      gt\n        /* \"#utility.yul\":11653:11715   */\n      or\n        /* \"#utility.yul\":11650:11738   */\n      iszero\n      tag_385\n      jumpi\n        /* \"#utility.yul\":11718:11736   */\n      tag_386\n      tag_235\n      jump\t// in\n    tag_386:\n        /* \"#utility.yul\":11650:11738   */\n    tag_385:\n        /* \"#utility.yul\":11758:11768   */\n      dup1\n        /* \"#utility.yul\":11754:11756   */\n      0x40\n        /* \"#utility.yul\":11747:11769   */\n      mstore\n        /* \"#utility.yul\":11537:11775   */\n      pop\n        /* \"#utility.yul\":11494:11775   */\n      pop\n      pop\n      jump\t// out\n        /* \"#utility.yul\":11781:11910   */\n    tag_237:\n        /* \"#utility.yul\":11815:11821   */\n      0x00\n        /* \"#utility.yul\":11842:11862   */\n      tag_388\n      tag_200\n      jump\t// in\n    tag_388:\n        /* \"#utility.yul\":11832:11862   */\n      swap1\n      pop\n        /* \"#utility.yul\":11871:11904   */\n      tag_389\n        /* \"#utility.yul\":11899:11903   */\n      dup3\n        /* \"#utility.yul\":11891:11897   */\n      dup3\n        /* \"#utility.yul\":11871:11904   */\n      tag_236\n      jump\t// in\n    tag_389:\n        /* \"#utility.yul\":11781:11910   */\n      swap2\n      swap1\n      pop\n      jump\t// out\n        /* \"#utility.yul\":11916:12224   */\n    tag_238:\n        /* \"#utility.yul\":11978:11982   */\n      0x00\n        /* \"#utility.yul\":12068:12086   */\n      0xffffffffffffffff\n        /* \"#utility.yul\":12060:12066   */\n      dup3\n        /* \"#utility.yul\":12057:12087   */\n      gt\n        /* \"#utility.yul\":12054:12110   */\n      iszero\n      tag_391\n      jumpi\n        /* \"#utility.yul\":12090:12108   */\n      tag_392\n      tag_235\n      jump\t// in\n    tag_392:\n        /* \"#utility.yul\":12054:12110   */\n    tag_391:\n        /* \"#utility.yul\":12128:12157   */\n      tag_393\n        /* \"#utility.yul\":12150:12156   */\n      dup3\n        /* \"#utility.yul\":12128:12157   */\n      tag_215\n      jump\t// in\n    tag_393:\n        /* \"#utility.yul\":12120:12157   */\n      swap1\n      pop\n        /* \"#utility.yul\":12212:12216   */\n      0x20\n        /* \"#utility.yul\":12206:12210   */\n      dup2\n        /* \"#utility.yul\":12202:12217   */\n      add\n        /* \"#utility.yul\":12194:12217   */\n      swap1\n      pop\n        /* \"#utility.yul\":11916:12224   */\n      swap2\n      swap1\n      pop\n      jump\t// out\n        /* \"#utility.yul\":12230:12376   */\n    tag_239:\n        /* \"#utility.yul\":12327:12333   */\n      dup3\n        /* \"#utility.yul\":12322:12325   */\n      dup2\n        /* \"#utility.yul\":12317:12320   */\n      dup4\n        /* \"#utility.yul\":12304:12334   */\n      calldatacopy\n        /* \"#utility.yul\":12368:12369   */\n      0x00\n        /* \"#utility.yul\":12359:12365   */\n      dup4\n        /* \"#utility.yul\":12354:12357   */\n      dup4\n        /* \"#utility.yul\":12350:12366   */\n      add\n        /* \"#utility.yul\":12343:12370   */\n      mstore\n        /* \"#utility.yul\":12230:12376   */\n      pop\n      pop\n      pop\n      jump\t// out\n        /* \"#utility.yul\":12382:12807   */\n    tag_240:\n        /* \"#utility.yul\":12460:12465   */\n      0x00\n        /* \"#utility.yul\":12485:12551   */\n      tag_396\n        /* \"#utility.yul\":12501:12550   */\n      tag_397\n        /* \"#utility.yul\":12543:12549   */\n      dup5\n        /* \"#utility.yul\":12501:12550   */\n      tag_238\n      jump\t// in\n    tag_397:\n        /* \"#utility.yul\":12485:12551   */\n      tag_237\n      jump\t// in\n    tag_396:\n        /* \"#utility.yul\":12476:12551   */\n      swap1\n      pop\n        /* \"#utility.yul\":12574:12580   */\n      dup3\n        /* \"#utility.yul\":12567:12572   */\n      dup2\n        /* \"#utility.yul\":12560:12581   */\n      mstore\n        /* \"#utility.yul\":12612:12616   */\n      0x20\n        /* \"#utility.yul\":12605:12610   */\n      dup2\n        /* \"#utility.yul\":12601:12617   */\n      add\n        /* \"#utility.yul\":12650:12653   */\n      dup5\n        /* \"#utility.yul\":12641:12647   */\n      dup5\n        /* \"#utility.yul\":12636:12639   */\n      dup5\n        /* \"#utility.yul\":12632:12648   */\n      add\n        /* \"#utility.yul\":12629:12654   */\n      gt\n        /* \"#utility.yul\":12626:12738   */\n      iszero\n      tag_398\n      jumpi\n        /* \"#utility.yul\":12657:12736   */\n      tag_399\n      tag_234\n      jump\t// in\n    tag_399:\n        /* \"#utility.yul\":12626:12738   */\n    tag_398:\n        /* \"#utility.yul\":12747:12801   */\n      tag_400\n        /* \"#utility.yul\":12794:12800   */\n      dup5\n        /* \"#utility.yul\":12789:12792   */\n      dup3\n        /* \"#utility.yul\":12784:12787   */\n      dup6\n        /* \"#utility.yul\":12747:12801   */\n      tag_239\n      jump\t// in\n    tag_400:\n        /* \"#utility.yul\":12466:12807   */\n      pop\n        /* \"#utility.yul\":12382:12807   */\n      swap4\n      swap3\n      pop\n      pop\n      pop\n      jump\t// out\n        /* \"#utility.yul\":12827:13167   */\n    tag_241:\n        /* \"#utility.yul\":12883:12888   */\n      0x00\n        /* \"#utility.yul\":12932:12935   */\n      dup3\n        /* \"#utility.yul\":12925:12929   */\n      0x1f\n        /* \"#utility.yul\":12917:12923   */\n      dup4\n        /* \"#utility.yul\":12913:12930   */\n      add\n        /* \"#utility.yul\":12909:12936   */\n      slt\n        /* \"#utility.yul\":12899:13021   */\n      tag_402\n      jumpi\n        /* \"#utility.yul\":12940:13019   */\n      tag_403\n      tag_233\n      jump\t// in\n    tag_403:\n        /* \"#utility.yul\":12899:13021   */\n    tag_402:\n        /* \"#utility.yul\":13057:13063   */\n      dup2\n        /* \"#utility.yul\":13044:13064   */\n      calldataload\n        /* \"#utility.yul\":13082:13161   */\n      tag_404\n        /* \"#utility.yul\":13157:13160   */\n      dup5\n        /* \"#utility.yul\":13149:13155   */\n      dup3\n        /* \"#utility.yul\":13142:13146   */\n      0x20\n        /* \"#utility.yul\":13134:13140   */\n      dup7\n        /* \"#utility.yul\":13130:13147   */\n      add\n        /* \"#utility.yul\":13082:13161   */\n      tag_240\n      jump\t// in\n    tag_404:\n        /* \"#utility.yul\":13073:13161   */\n      swap2\n      pop\n        /* \"#utility.yul\":12889:13167   */\n      pop\n        /* \"#utility.yul\":12827:13167   */\n      swap3\n      swap2\n      pop\n      pop\n      jump\t// out\n        /* \"#utility.yul\":13173:13682   */\n    tag_51:\n        /* \"#utility.yul\":13242:13248   */\n      0x00\n        /* \"#utility.yul\":13291:13293   */\n      0x20\n        /* \"#utility.yul\":13279:13288   */\n      dup3\n        /* \"#utility.yul\":13270:13277   */\n      dup5\n        /* \"#utility.yul\":13266:13289   */\n      sub\n        /* \"#utility.yul\":13262:13294   */\n      slt\n        /* \"#utility.yul\":13259:13378   */\n      iszero\n      tag_406\n      jumpi\n        /* \"#utility.yul\":13297:13376   */\n      tag_407\n      tag_201\n      jump\t// in\n    tag_407:\n        /* \"#utility.yul\":13259:13378   */\n    tag_406:\n        /* \"#utility.yul\":13445:13446   */\n      0x00\n        /* \"#utility.yul\":13434:13443   */\n      dup3\n        /* \"#utility.yul\":13430:13447   */\n      add\n        /* \"#utility.yul\":13417:13448   */\n      calldataload\n        /* \"#utility.yul\":13475:13493   */\n      0xffffffffffffffff\n        /* \"#utility.yul\":13467:13473   */\n      dup2\n        /* \"#utility.yul\":13464:13494   */\n      gt\n        /* \"#utility.yul\":13461:13578   */\n      iszero\n      tag_408\n      jumpi\n        /* \"#utility.yul\":13497:13576   */\n      tag_409\n      tag_202\n      jump\t// in\n    tag_409:\n        /* \"#utility.yul\":13461:13578   */\n    tag_408:\n        /* \"#utility.yul\":13602:13665   */\n      tag_410\n        /* \"#utility.yul\":13657:13664   */\n      dup5\n        /* \"#utility.yul\":13648:13654   */\n      dup3\n        /* \"#utility.yul\":13637:13646   */\n      dup6\n        /* \"#utility.yul\":13633:13655   */\n      add\n        /* \"#utility.yul\":13602:13665   */\n      tag_241\n      jump\t// in\n    tag_410:\n        /* \"#utility.yul\":13592:13665   */\n      swap2\n      pop\n        /* \"#utility.yul\":13388:13675   */\n      pop\n        /* \"#utility.yul\":13173:13682   */\n      swap3\n      swap2\n      pop\n      pop\n      jump\t// out\n        /* \"#utility.yul\":13688:13910   */\n    tag_57:\n        /* \"#utility.yul\":13781:13785   */\n      0x00\n        /* \"#utility.yul\":13819:13821   */\n      0x20\n        /* \"#utility.yul\":13808:13817   */\n      dup3\n        /* \"#utility.yul\":13804:13822   */\n      add\n        /* \"#utility.yul\":13796:13822   */\n      swap1\n      pop\n        /* \"#utility.yul\":13832:13903   */\n      tag_412\n        /* \"#utility.yul\":13900:13901   */\n      0x00\n        /* \"#utility.yul\":13889:13898   */\n      dup4\n        /* \"#utility.yul\":13885:13902   */\n      add\n        /* \"#utility.yul\":13876:13882   */\n      dup5\n        /* \"#utility.yul\":13832:13903   */\n      tag_210\n      jump\t// in\n    tag_412:\n        /* \"#utility.yul\":13688:13910   */\n      swap3\n      swap2\n      pop\n      pop\n      jump\t// out\n        /* \"#utility.yul\":13916:14138   */\n    tag_61:\n        /* \"#utility.yul\":14009:14013   */\n      0x00\n        /* \"#utility.yul\":14047:14049   */\n      0x20\n        /* \"#utility.yul\":14036:14045   */\n      dup3\n        /* \"#utility.yul\":14032:14050   */\n      add\n        /* \"#utility.yul\":14024:14050   */\n      swap1\n      pop\n        /* \"#utility.yul\":14060:14131   */\n      tag_414\n        /* \"#utility.yul\":14128:14129   */\n      0x00\n        /* \"#utility.yul\":14117:14126   */\n      dup4\n        /* \"#utility.yul\":14113:14130   */\n      add\n        /* \"#utility.yul\":14104:14110   */\n      dup5\n        /* \"#utility.yul\":14060:14131   */\n      tag_211\n      jump\t// in\n    tag_414:\n        /* \"#utility.yul\":13916:14138   */\n      swap3\n      swap2\n      pop\n      pop\n      jump\t// out\n        /* \"#utility.yul\":14144:14324   */\n    tag_242:\n        /* \"#utility.yul\":14192:14269   */\n      0x4e487b7100000000000000000000000000000000000000000000000000000000\n        /* \"#utility.yul\":14189:14190   */\n      0x00\n        /* \"#utility.yul\":14182:14270   */\n      mstore\n        /* \"#utility.yul\":14289:14293   */\n      0x22\n        /* \"#utility.yul\":14286:14287   */\n      0x04\n        /* \"#utility.yul\":14279:14294   */\n      mstore\n        /* \"#utility.yul\":14313:14317   */\n      0x24\n        /* \"#utility.yul\":14310:14311   */\n      0x00\n        /* \"#utility.yul\":14303:14318   */\n      revert\n        /* \"#utility.yul\":14330:14650   */\n    tag_68:\n        /* \"#utility.yul\":14374:14380   */\n      0x00\n        /* \"#utility.yul\":14411:14412   */\n      0x02\n        /* \"#utility.yul\":14405:14409   */\n      dup3\n        /* \"#utility.yul\":14401:14413   */\n      div\n        /* \"#utility.yul\":14391:14413   */\n      swap1\n      pop\n        /* \"#utility.yul\":14458:14459   */\n      0x01\n        /* \"#utility.yul\":14452:14456   */\n      dup3\n        /* \"#utility.yul\":14448:14460   */\n      and\n        /* \"#utility.yul\":14479:14497   */\n      dup1\n        /* \"#utility.yul\":14469:14550   */\n      tag_417\n      jumpi\n        /* \"#utility.yul\":14535:14539   */\n      0x7f\n        /* \"#utility.yul\":14527:14533   */\n      dup3\n        /* \"#utility.yul\":14523:14540   */\n      and\n        /* \"#utility.yul\":14513:14540   */\n      swap2\n      pop\n        /* \"#utility.yul\":14469:14550   */\n    tag_417:\n        /* \"#utility.yul\":14597:14599   */\n      0x20\n        /* \"#utility.yul\":14589:14595   */\n      dup3\n        /* \"#utility.yul\":14586:14600   */\n      lt\n        /* \"#utility.yul\":14566:14584   */\n      dup2\n        /* \"#utility.yul\":14563:14601   */\n      sub\n        /* \"#utility.yul\":14560:14644   */\n      tag_418\n      jumpi\n        /* \"#utility.yul\":14616:14634   */\n      tag_419\n      tag_242\n      jump\t// in\n    tag_419:\n        /* \"#utility.yul\":14560:14644   */\n    tag_418:\n        /* \"#utility.yul\":14381:14650   */\n      pop\n        /* \"#utility.yul\":14330:14650   */\n      swap2\n      swap1\n      pop\n      jump\t// out\n        /* \"#utility.yul\":14656:14836   */\n    tag_78:\n        /* \"#utility.yul\":14704:14781   */\n      0x4e487b7100000000000000000000000000000000000000000000000000000000\n        /* \"#utility.yul\":14701:14702   */\n      0x00\n        /* \"#utility.yul\":14694:14782   */\n      mstore\n        /* \"#utility.yul\":14801:14805   */\n      0x32\n        /* \"#utility.yul\":14798:14799   */\n      0x04\n        /* \"#utility.yul\":14791:14806   */\n      mstore\n        /* \"#utility.yul\":14825:14829   */\n      0x24\n        /* \"#utility.yul\":14822:14823   */\n      0x00\n        /* \"#utility.yul\":14815:14830   */\n      revert\n        /* \"#utility.yul\":14842:14959   */\n    tag_243:\n        /* \"#utility.yul\":14951:14952   */\n      0x00\n        /* \"#utility.yul\":14948:14949   */\n      dup1\n        /* \"#utility.yul\":14941:14953   */\n      revert\n        /* \"#utility.yul\":14965:15082   */\n    tag_244:\n        /* \"#utility.yul\":15074:15075   */\n      0x00\n        /* \"#utility.yul\":15071:15072   */\n      dup1\n        /* \"#utility.yul\":15064:15076   */\n      revert\n        /* \"#utility.yul\":15088:15522   */\n    tag_245:\n        /* \"#utility.yul\":15177:15182   */\n      0x00\n        /* \"#utility.yul\":15202:15268   */\n      tag_424\n        /* \"#utility.yul\":15218:15267   */\n      tag_425\n        /* \"#utility.yul\":15260:15266   */\n      dup5\n        /* \"#utility.yul\":15218:15267   */\n      tag_238\n      jump\t// in\n    tag_425:\n        /* \"#utility.yul\":15202:15268   */\n      tag_237\n      jump\t// in\n    tag_424:\n        /* \"#utility.yul\":15193:15268   */\n      swap1\n      pop\n        /* \"#utility.yul\":15291:15297   */\n      dup3\n        /* \"#utility.yul\":15284:15289   */\n      dup2\n        /* \"#utility.yul\":15277:15298   */\n      mstore\n        /* \"#utility.yul\":15329:15333   */\n      0x20\n        /* \"#utility.yul\":15322:15327   */\n      dup2\n        /* \"#utility.yul\":15318:15334   */\n      add\n        /* \"#utility.yul\":15367:15370   */\n      dup5\n        /* \"#utility.yul\":15358:15364   */\n      dup5\n        /* \"#utility.yul\":15353:15356   */\n      dup5\n        /* \"#utility.yul\":15349:15365   */\n      add\n        /* \"#utility.yul\":15346:15371   */\n      gt\n        /* \"#utility.yul\":15343:15455   */\n      iszero\n      tag_426\n      jumpi\n        /* \"#utility.yul\":15374:15453   */\n      tag_427\n      tag_234\n      jump\t// in\n    tag_427:\n        /* \"#utility.yul\":15343:15455   */\n    tag_426:\n        /* \"#utility.yul\":15464:15516   */\n      tag_428\n        /* \"#utility.yul\":15509:15515   */\n      dup5\n        /* \"#utility.yul\":15504:15507   */\n      dup3\n        /* \"#utility.yul\":15499:15502   */\n      dup6\n        /* \"#utility.yul\":15464:15516   */\n      tag_214\n      jump\t// in\n    tag_428:\n        /* \"#utility.yul\":15183:15522   */\n      pop\n        /* \"#utility.yul\":15088:15522   */\n      swap4\n      swap3\n      pop\n      pop\n      pop\n      jump\t// out\n        /* \"#utility.yul\":15542:15897   */\n    tag_246:\n        /* \"#utility.yul\":15609:15614   */\n      0x00\n        /* \"#utility.yul\":15658:15661   */\n      dup3\n        /* \"#utility.yul\":15651:15655   */\n      0x1f\n        /* \"#utility.yul\":15643:15649   */\n      dup4\n        /* \"#utility.yul\":15639:15656   */\n      add\n        /* \"#utility.yul\":15635:15662   */\n      slt\n        /* \"#utility.yul\":15625:15747   */\n      tag_430\n      jumpi\n        /* \"#utility.yul\":15666:15745   */\n      tag_431\n      tag_233\n      jump\t// in\n    tag_431:\n        /* \"#utility.yul\":15625:15747   */\n    tag_430:\n        /* \"#utility.yul\":15776:15782   */\n      dup2\n        /* \"#utility.yul\":15770:15783   */\n      mload\n        /* \"#utility.yul\":15801:15891   */\n      tag_432\n        /* \"#utility.yul\":15887:15890   */\n      dup5\n        /* \"#utility.yul\":15879:15885   */\n      dup3\n        /* \"#utility.yul\":15872:15876   */\n      0x20\n        /* \"#utility.yul\":15864:15870   */\n      dup7\n        /* \"#utility.yul\":15860:15877   */\n      add\n        /* \"#utility.yul\":15801:15891   */\n      tag_245\n      jump\t// in\n    tag_432:\n        /* \"#utility.yul\":15792:15891   */\n      swap2\n      pop\n        /* \"#utility.yul\":15615:15897   */\n      pop\n        /* \"#utility.yul\":15542:15897   */\n      swap3\n      swap2\n      pop\n      pop\n      jump\t// out\n        /* \"#utility.yul\":15938:16880   */\n    tag_247:\n        /* \"#utility.yul\":16026:16031   */\n      0x00\n        /* \"#utility.yul\":16070:16074   */\n      0x40\n        /* \"#utility.yul\":16058:16067   */\n      dup3\n        /* \"#utility.yul\":16053:16056   */\n      dup5\n        /* \"#utility.yul\":16049:16068   */\n      sub\n        /* \"#utility.yul\":16045:16075   */\n      slt\n        /* \"#utility.yul\":16042:16159   */\n      iszero\n      tag_434\n      jumpi\n        /* \"#utility.yul\":16078:16157   */\n      tag_435\n      tag_243\n      jump\t// in\n    tag_435:\n        /* \"#utility.yul\":16042:16159   */\n    tag_434:\n        /* \"#utility.yul\":16177:16198   */\n      tag_436\n        /* \"#utility.yul\":16193:16197   */\n      0x40\n        /* \"#utility.yul\":16177:16198   */\n      tag_237\n      jump\t// in\n    tag_436:\n        /* \"#utility.yul\":16168:16198   */\n      swap1\n      pop\n        /* \"#utility.yul\":16285:16286   */\n      0x00\n        /* \"#utility.yul\":16274:16283   */\n      dup3\n        /* \"#utility.yul\":16270:16287   */\n      add\n        /* \"#utility.yul\":16264:16288   */\n      mload\n        /* \"#utility.yul\":16315:16333   */\n      0xffffffffffffffff\n        /* \"#utility.yul\":16307:16313   */\n      dup2\n        /* \"#utility.yul\":16304:16334   */\n      gt\n        /* \"#utility.yul\":16301:16418   */\n      iszero\n      tag_437\n      jumpi\n        /* \"#utility.yul\":16337:16416   */\n      tag_438\n      tag_244\n      jump\t// in\n    tag_438:\n        /* \"#utility.yul\":16301:16418   */\n    tag_437:\n        /* \"#utility.yul\":16457:16527   */\n      tag_439\n        /* \"#utility.yul\":16523:16526   */\n      dup5\n        /* \"#utility.yul\":16514:16520   */\n      dup3\n        /* \"#utility.yul\":16503:16512   */\n      dup6\n        /* \"#utility.yul\":16499:16521   */\n      add\n        /* \"#utility.yul\":16457:16527   */\n      tag_246\n      jump\t// in\n    tag_439:\n        /* \"#utility.yul\":16450:16454   */\n      0x00\n        /* \"#utility.yul\":16443:16448   */\n      dup4\n        /* \"#utility.yul\":16439:16455   */\n      add\n        /* \"#utility.yul\":16432:16528   */\n      mstore\n        /* \"#utility.yul\":16208:16539   */\n      pop\n        /* \"#utility.yul\":16618:16620   */\n      0x20\n        /* \"#utility.yul\":16607:16616   */\n      dup3\n        /* \"#utility.yul\":16603:16621   */\n      add\n        /* \"#utility.yul\":16597:16622   */\n      mload\n        /* \"#utility.yul\":16649:16667   */\n      0xffffffffffffffff\n        /* \"#utility.yul\":16641:16647   */\n      dup2\n        /* \"#utility.yul\":16638:16668   */\n      gt\n        /* \"#utility.yul\":16635:16752   */\n      iszero\n      tag_440\n      jumpi\n        /* \"#utility.yul\":16671:16750   */\n      tag_441\n      tag_244\n      jump\t// in\n    tag_441:\n        /* \"#utility.yul\":16635:16752   */\n    tag_440:\n        /* \"#utility.yul\":16791:16861   */\n      tag_442\n        /* \"#utility.yul\":16857:16860   */\n      dup5\n        /* \"#utility.yul\":16848:16854   */\n      dup3\n        /* \"#utility.yul\":16837:16846   */\n      dup6\n        /* \"#utility.yul\":16833:16855   */\n      add\n        /* \"#utility.yul\":16791:16861   */\n      tag_246\n      jump\t// in\n    tag_442:\n        /* \"#utility.yul\":16784:16788   */\n      0x20\n        /* \"#utility.yul\":16777:16782   */\n      dup4\n        /* \"#utility.yul\":16773:16789   */\n      add\n        /* \"#utility.yul\":16766:16862   */\n      mstore\n        /* \"#utility.yul\":16549:16873   */\n      pop\n        /* \"#utility.yul\":15938:16880   */\n      swap3\n      swap2\n      pop\n      pop\n      jump\t// out\n        /* \"#utility.yul\":16886:17446   */\n    tag_99:\n        /* \"#utility.yul\":16984:16990   */\n      0x00\n        /* \"#utility.yul\":17033:17035   */\n      0x20\n        /* \"#utility.yul\":17021:17030   */\n      dup3\n        /* \"#utility.yul\":17012:17019   */\n      dup5\n        /* \"#utility.yul\":17008:17031   */\n      sub\n        /* \"#utility.yul\":17004:17036   */\n      slt\n        /* \"#utility.yul\":17001:17120   */\n      iszero\n      tag_444\n      jumpi\n        /* \"#utility.yul\":17039:17118   */\n      tag_445\n      tag_201\n      jump\t// in\n    tag_445:\n        /* \"#utility.yul\":17001:17120   */\n    tag_444:\n        /* \"#utility.yul\":17180:17181   */\n      0x00\n        /* \"#utility.yul\":17169:17178   */\n      dup3\n        /* \"#utility.yul\":17165:17182   */\n      add\n        /* \"#utility.yul\":17159:17183   */\n      mload\n        /* \"#utility.yul\":17210:17228   */\n      0xffffffffffffffff\n        /* \"#utility.yul\":17202:17208   */\n      dup2\n        /* \"#utility.yul\":17199:17229   */\n      gt\n        /* \"#utility.yul\":17196:17313   */\n      iszero\n      tag_446\n      jumpi\n        /* \"#utility.yul\":17232:17311   */\n      tag_447\n      tag_202\n      jump\t// in\n    tag_447:\n        /* \"#utility.yul\":17196:17313   */\n    tag_446:\n        /* \"#utility.yul\":17337:17429   */\n      tag_448\n        /* \"#utility.yul\":17421:17428   */\n      dup5\n        /* \"#utility.yul\":17412:17418   */\n      dup3\n        /* \"#utility.yul\":17401:17410   */\n      dup6\n        /* \"#utility.yul\":17397:17419   */\n      add\n        /* \"#utility.yul\":17337:17429   */\n      tag_247\n      jump\t// in\n    tag_448:\n        /* \"#utility.yul\":17327:17429   */\n      swap2\n      pop\n        /* \"#utility.yul\":17130:17439   */\n      pop\n        /* \"#utility.yul\":16886:17446   */\n      swap3\n      swap2\n      pop\n      pop\n      jump\t// out\n        /* \"#utility.yul\":17452:17621   */\n    tag_248:\n        /* \"#utility.yul\":17592:17613   */\n      0x55534552204e4f54205245474953544552454400000000000000000000000000\n        /* \"#utility.yul\":17588:17589   */\n      0x00\n        /* \"#utility.yul\":17580:17586   */\n      dup3\n        /* \"#utility.yul\":17576:17590   */\n      add\n        /* \"#utility.yul\":17569:17614   */\n      mstore\n        /* \"#utility.yul\":17452:17621   */\n      pop\n      jump\t// out\n        /* \"#utility.yul\":17627:17993   */\n    tag_249:\n        /* \"#utility.yul\":17769:17772   */\n      0x00\n        /* \"#utility.yul\":17790:17857   */\n      tag_451\n        /* \"#utility.yul\":17854:17856   */\n      0x13\n        /* \"#utility.yul\":17849:17852   */\n      dup4\n        /* \"#utility.yul\":17790:17857   */\n      tag_213\n      jump\t// in\n    tag_451:\n        /* \"#utility.yul\":17783:17857   */\n      swap2\n      pop\n        /* \"#utility.yul\":17866:17959   */\n      tag_452\n        /* \"#utility.yul\":17955:17958   */\n      dup3\n        /* \"#utility.yul\":17866:17959   */\n      tag_248\n      jump\t// in\n    tag_452:\n        /* \"#utility.yul\":17984:17986   */\n      0x20\n        /* \"#utility.yul\":17979:17982   */\n      dup3\n        /* \"#utility.yul\":17975:17987   */\n      add\n        /* \"#utility.yul\":17968:17987   */\n      swap1\n      pop\n        /* \"#utility.yul\":17627:17993   */\n      swap2\n      swap1\n      pop\n      jump\t// out\n        /* \"#utility.yul\":17999:18418   */\n    tag_102:\n        /* \"#utility.yul\":18165:18169   */\n      0x00\n        /* \"#utility.yul\":18203:18205   */\n      0x20\n        /* \"#utility.yul\":18192:18201   */\n      dup3\n        /* \"#utility.yul\":18188:18206   */\n      add\n        /* \"#utility.yul\":18180:18206   */\n      swap1\n      pop\n        /* \"#utility.yul\":18252:18261   */\n      dup2\n        /* \"#utility.yul\":18246:18250   */\n      dup2\n        /* \"#utility.yul\":18242:18262   */\n      sub\n        /* \"#utility.yul\":18238:18239   */\n      0x00\n        /* \"#utility.yul\":18227:18236   */\n      dup4\n        /* \"#utility.yul\":18223:18240   */\n      add\n        /* \"#utility.yul\":18216:18263   */\n      mstore\n        /* \"#utility.yul\":18280:18411   */\n      tag_454\n        /* \"#utility.yul\":18406:18410   */\n      dup2\n        /* \"#utility.yul\":18280:18411   */\n      tag_249\n      jump\t// in\n    tag_454:\n        /* \"#utility.yul\":18272:18411   */\n      swap1\n      pop\n        /* \"#utility.yul\":17999:18418   */\n      swap2\n      swap1\n      pop\n      jump\t// out\n        /* \"#utility.yul\":18424:18595   */\n    tag_250:\n        /* \"#utility.yul\":18564:18587   */\n      0x545745455420444f4553204e4f54204558495354210000000000000000000000\n        /* \"#utility.yul\":18560:18561   */\n      0x00\n        /* \"#utility.yul\":18552:18558   */\n      dup3\n        /* \"#utility.yul\":18548:18562   */\n      add\n        /* \"#utility.yul\":18541:18588   */\n      mstore\n        /* \"#utility.yul\":18424:18595   */\n      pop\n      jump\t// out\n        /* \"#utility.yul\":18601:18967   */\n    tag_251:\n        /* \"#utility.yul\":18743:18746   */\n      0x00\n        /* \"#utility.yul\":18764:18831   */\n      tag_457\n        /* \"#utility.yul\":18828:18830   */\n      0x15\n        /* \"#utility.yul\":18823:18826   */\n      dup4\n        /* \"#utility.yul\":18764:18831   */\n      tag_213\n      jump\t// in\n    tag_457:\n        /* \"#utility.yul\":18757:18831   */\n      swap2\n      pop\n        /* \"#utility.yul\":18840:18933   */\n      tag_458\n        /* \"#utility.yul\":18929:18932   */\n      dup3\n        /* \"#utility.yul\":18840:18933   */\n      tag_250\n      jump\t// in\n    tag_458:\n        /* \"#utility.yul\":18958:18960   */\n      0x20\n        /* \"#utility.yul\":18953:18956   */\n      dup3\n        /* \"#utility.yul\":18949:18961   */\n      add\n        /* \"#utility.yul\":18942:18961   */\n      swap1\n      pop\n        /* \"#utility.yul\":18601:18967   */\n      swap2\n      swap1\n      pop\n      jump\t// out\n        /* \"#utility.yul\":18973:19392   */\n    tag_109:\n        /* \"#utility.yul\":19139:19143   */\n      0x00\n        /* \"#utility.yul\":19177:19179   */\n      0x20\n        /* \"#utility.yul\":19166:19175   */\n      dup3\n        /* \"#utility.yul\":19162:19180   */\n      add\n        /* \"#utility.yul\":19154:19180   */\n      swap1\n      pop\n        /* \"#utility.yul\":19226:19235   */\n      dup2\n        /* \"#utility.yul\":19220:19224   */\n      dup2\n        /* \"#utility.yul\":19216:19236   */\n      sub\n        /* \"#utility.yul\":19212:19213   */\n      0x00\n        /* \"#utility.yul\":19201:19210   */\n      dup4\n        /* \"#utility.yul\":19197:19214   */\n      add\n        /* \"#utility.yul\":19190:19237   */\n      mstore\n        /* \"#utility.yul\":19254:19385   */\n      tag_460\n        /* \"#utility.yul\":19380:19384   */\n      dup2\n        /* \"#utility.yul\":19254:19385   */\n      tag_251\n      jump\t// in\n    tag_460:\n        /* \"#utility.yul\":19246:19385   */\n      swap1\n      pop\n        /* \"#utility.yul\":18973:19392   */\n      swap2\n      swap1\n      pop\n      jump\t// out\n        /* \"#utility.yul\":19398:19567   */\n    tag_252:\n        /* \"#utility.yul\":19538:19559   */\n      0x545745455420484153204e4f204c494b45532100000000000000000000000000\n        /* \"#utility.yul\":19534:19535   */\n      0x00\n        /* \"#utility.yul\":19526:19532   */\n      dup3\n        /* \"#utility.yul\":19522:19536   */\n      add\n        /* \"#utility.yul\":19515:19560   */\n      mstore\n        /* \"#utility.yul\":19398:19567   */\n      pop\n      jump\t// out\n        /* \"#utility.yul\":19573:19939   */\n    tag_253:\n        /* \"#utility.yul\":19715:19718   */\n      0x00\n        /* \"#utility.yul\":19736:19803   */\n      tag_463\n        /* \"#utility.yul\":19800:19802   */\n      0x13\n        /* \"#utility.yul\":19795:19798   */\n      dup4\n        /* \"#utility.yul\":19736:19803   */\n      tag_213\n      jump\t// in\n    tag_463:\n        /* \"#utility.yul\":19729:19803   */\n      swap2\n      pop\n        /* \"#utility.yul\":19812:19905   */\n      tag_464\n        /* \"#utility.yul\":19901:19904   */\n      dup3\n        /* \"#utility.yul\":19812:19905   */\n      tag_252\n      jump\t// in\n    tag_464:\n        /* \"#utility.yul\":19930:19932   */\n      0x20\n        /* \"#utility.yul\":19925:19928   */\n      dup3\n        /* \"#utility.yul\":19921:19933   */\n      add\n        /* \"#utility.yul\":19914:19933   */\n      swap1\n      pop\n        /* \"#utility.yul\":19573:19939   */\n      swap2\n      swap1\n      pop\n      jump\t// out\n        /* \"#utility.yul\":19945:20364   */\n    tag_115:\n        /* \"#utility.yul\":20111:20115   */\n      0x00\n        /* \"#utility.yul\":20149:20151   */\n      0x20\n        /* \"#utility.yul\":20138:20147   */\n      dup3\n        /* \"#utility.yul\":20134:20152   */\n      add\n        /* \"#utility.yul\":20126:20152   */\n      swap1\n      pop\n        /* \"#utility.yul\":20198:20207   */\n      dup2\n        /* \"#utility.yul\":20192:20196   */\n      dup2\n        /* \"#utility.yul\":20188:20208   */\n      sub\n        /* \"#utility.yul\":20184:20185   */\n      0x00\n        /* \"#utility.yul\":20173:20182   */\n      dup4\n        /* \"#utility.yul\":20169:20186   */\n      add\n        /* \"#utility.yul\":20162:20209   */\n      mstore\n        /* \"#utility.yul\":20226:20357   */\n      tag_466\n        /* \"#utility.yul\":20352:20356   */\n      dup2\n        /* \"#utility.yul\":20226:20357   */\n      tag_253\n      jump\t// in\n    tag_466:\n        /* \"#utility.yul\":20218:20357   */\n      swap1\n      pop\n        /* \"#utility.yul\":19945:20364   */\n      swap2\n      swap1\n      pop\n      jump\t// out\n        /* \"#utility.yul\":20370:20550   */\n    tag_254:\n        /* \"#utility.yul\":20418:20495   */\n      0x4e487b7100000000000000000000000000000000000000000000000000000000\n        /* \"#utility.yul\":20415:20416   */\n      0x00\n        /* \"#utility.yul\":20408:20496   */\n      mstore\n        /* \"#utility.yul\":20515:20519   */\n      0x11\n        /* \"#utility.yul\":20512:20513   */\n      0x04\n        /* \"#utility.yul\":20505:20520   */\n      mstore\n        /* \"#utility.yul\":20539:20543   */\n      0x24\n        /* \"#utility.yul\":20536:20537   */\n      0x00\n        /* \"#utility.yul\":20529:20544   */\n      revert\n        /* \"#utility.yul\":20556:20727   */\n    tag_120:\n        /* \"#utility.yul\":20595:20598   */\n      0x00\n        /* \"#utility.yul\":20618:20642   */\n      tag_469\n        /* \"#utility.yul\":20636:20641   */\n      dup3\n        /* \"#utility.yul\":20618:20642   */\n      tag_207\n      jump\t// in\n    tag_469:\n        /* \"#utility.yul\":20609:20642   */\n      swap2\n      pop\n        /* \"#utility.yul\":20664:20668   */\n      0x00\n        /* \"#utility.yul\":20657:20662   */\n      dup3\n        /* \"#utility.yul\":20654:20669   */\n      sub\n        /* \"#utility.yul\":20651:20692   */\n      tag_470\n      jumpi\n        /* \"#utility.yul\":20672:20690   */\n      tag_471\n      tag_254\n      jump\t// in\n    tag_471:\n        /* \"#utility.yul\":20651:20692   */\n    tag_470:\n        /* \"#utility.yul\":20719:20720   */\n      0x01\n        /* \"#utility.yul\":20712:20717   */\n      dup3\n        /* \"#utility.yul\":20708:20721   */\n      sub\n        /* \"#utility.yul\":20701:20721   */\n      swap1\n      pop\n        /* \"#utility.yul\":20556:20727   */\n      swap2\n      swap1\n      pop\n      jump\t// out\n        /* \"#utility.yul\":20733:21286   */\n    tag_125:\n        /* \"#utility.yul\":20910:20914   */\n      0x00\n        /* \"#utility.yul\":20948:20951   */\n      0x80\n        /* \"#utility.yul\":20937:20946   */\n      dup3\n        /* \"#utility.yul\":20933:20952   */\n      add\n        /* \"#utility.yul\":20925:20952   */\n      swap1\n      pop\n        /* \"#utility.yul\":20962:21033   */\n      tag_473\n        /* \"#utility.yul\":21030:21031   */\n      0x00\n        /* \"#utility.yul\":21019:21028   */\n      dup4\n        /* \"#utility.yul\":21015:21032   */\n      add\n        /* \"#utility.yul\":21006:21012   */\n      dup8\n        /* \"#utility.yul\":20962:21033   */\n      tag_211\n      jump\t// in\n    tag_473:\n        /* \"#utility.yul\":21043:21115   */\n      tag_474\n        /* \"#utility.yul\":21111:21113   */\n      0x20\n        /* \"#utility.yul\":21100:21109   */\n      dup4\n        /* \"#utility.yul\":21096:21114   */\n      add\n        /* \"#utility.yul\":21087:21093   */\n      dup7\n        /* \"#utility.yul\":21043:21115   */\n      tag_211\n      jump\t// in\n    tag_474:\n        /* \"#utility.yul\":21125:21197   */\n      tag_475\n        /* \"#utility.yul\":21193:21195   */\n      0x40\n        /* \"#utility.yul\":21182:21191   */\n      dup4\n        /* \"#utility.yul\":21178:21196   */\n      add\n        /* \"#utility.yul\":21169:21175   */\n      dup6\n        /* \"#utility.yul\":21125:21197   */\n      tag_210\n      jump\t// in\n    tag_475:\n        /* \"#utility.yul\":21207:21279   */\n      tag_476\n        /* \"#utility.yul\":21275:21277   */\n      0x60\n        /* \"#utility.yul\":21264:21273   */\n      dup4\n        /* \"#utility.yul\":21260:21278   */\n      add\n        /* \"#utility.yul\":21251:21257   */\n      dup5\n        /* \"#utility.yul\":21207:21279   */\n      tag_210\n      jump\t// in\n    tag_476:\n        /* \"#utility.yul\":20733:21286   */\n      swap6\n      swap5\n      pop\n      pop\n      pop\n      pop\n      pop\n      jump\t// out\n        /* \"#utility.yul\":21292:21525   */\n    tag_147:\n        /* \"#utility.yul\":21331:21334   */\n      0x00\n        /* \"#utility.yul\":21354:21378   */\n      tag_478\n        /* \"#utility.yul\":21372:21377   */\n      dup3\n        /* \"#utility.yul\":21354:21378   */\n      tag_207\n      jump\t// in\n    tag_478:\n        /* \"#utility.yul\":21345:21378   */\n      swap2\n      pop\n        /* \"#utility.yul\":21400:21466   */\n      0xffffffffffffffffffffffffffffffffffffffffffffffffffffffffffffffff\n        /* \"#utility.yul\":21393:21398   */\n      dup3\n        /* \"#utility.yul\":21390:21467   */\n      sub\n        /* \"#utility.yul\":21387:21490   */\n      tag_479\n      jumpi\n        /* \"#utility.yul\":21470:21488   */\n      tag_480\n      tag_254\n      jump\t// in\n    tag_480:\n        /* \"#utility.yul\":21387:21490   */\n    tag_479:\n        /* \"#utility.yul\":21517:21518   */\n      0x01\n        /* \"#utility.yul\":21510:21515   */\n      dup3\n        /* \"#utility.yul\":21506:21519   */\n      add\n        /* \"#utility.yul\":21499:21519   */\n      swap1\n      pop\n        /* \"#utility.yul\":21292:21525   */\n      swap2\n      swap1\n      pop\n      jump\t// out\n        /* \"#utility.yul\":21531:21696   */\n    tag_255:\n        /* \"#utility.yul\":21671:21688   */\n      0x545745455420544f4f204c4f4e47210000000000000000000000000000000000\n        /* \"#utility.yul\":21667:21668   */\n      0x00\n        /* \"#utility.yul\":21659:21665   */\n      dup3\n        /* \"#utility.yul\":21655:21669   */\n      add\n        /* \"#utility.yul\":21648:21689   */\n      mstore\n        /* \"#utility.yul\":21531:21696   */\n      pop\n      jump\t// out\n        /* \"#utility.yul\":21702:22068   */\n    tag_256:\n        /* \"#utility.yul\":21844:21847   */\n      0x00\n        /* \"#utility.yul\":21865:21932   */\n      tag_483\n        /* \"#utility.yul\":21929:21931   */\n      0x0f\n        /* \"#utility.yul\":21924:21927   */\n      dup4\n        /* \"#utility.yul\":21865:21932   */\n      tag_213\n      jump\t// in\n    tag_483:\n        /* \"#utility.yul\":21858:21932   */\n      swap2\n      pop\n        /* \"#utility.yul\":21941:22034   */\n      tag_484\n        /* \"#utility.yul\":22030:22033   */\n      dup3\n        /* \"#utility.yul\":21941:22034   */\n      tag_255\n      jump\t// in\n    tag_484:\n        /* \"#utility.yul\":22059:22061   */\n      0x20\n        /* \"#utility.yul\":22054:22057   */\n      dup3\n        /* \"#utility.yul\":22050:22062   */\n      add\n        /* \"#utility.yul\":22043:22062   */\n      swap1\n      pop\n        /* \"#utility.yul\":21702:22068   */\n      swap2\n      swap1\n      pop\n      jump\t// out\n        /* \"#utility.yul\":22074:22493   */\n    tag_167:\n        /* \"#utility.yul\":22240:22244   */\n      0x00\n        /* \"#utility.yul\":22278:22280   */\n      0x20\n        /* \"#utility.yul\":22267:22276   */\n      dup3\n        /* \"#utility.yul\":22263:22281   */\n      add\n        /* \"#utility.yul\":22255:22281   */\n      swap1\n      pop\n        /* \"#utility.yul\":22327:22336   */\n      dup2\n        /* \"#utility.yul\":22321:22325   */\n      dup2\n        /* \"#utility.yul\":22317:22337   */\n      sub\n        /* \"#utility.yul\":22313:22314   */\n      0x00\n        /* \"#utility.yul\":22302:22311   */\n      dup4\n        /* \"#utility.yul\":22298:22315   */\n      add\n        /* \"#utility.yul\":22291:22338   */\n      mstore\n        /* \"#utility.yul\":22355:22486   */\n      tag_486\n        /* \"#utility.yul\":22481:22485   */\n      dup2\n        /* \"#utility.yul\":22355:22486   */\n      tag_256\n      jump\t// in\n    tag_486:\n        /* \"#utility.yul\":22347:22486   */\n      swap1\n      pop\n        /* \"#utility.yul\":22074:22493   */\n      swap2\n      swap1\n      pop\n      jump\t// out\n        /* \"#utility.yul\":22499:22640   */\n    tag_257:\n        /* \"#utility.yul\":22548:22552   */\n      0x00\n        /* \"#utility.yul\":22571:22574   */\n      dup2\n        /* \"#utility.yul\":22563:22574   */\n      swap1\n      pop\n        /* \"#utility.yul\":22594:22597   */\n      dup2\n        /* \"#utility.yul\":22591:22592   */\n      0x00\n        /* \"#utility.yul\":22584:22598   */\n      mstore\n        /* \"#utility.yul\":22628:22632   */\n      0x20\n        /* \"#utility.yul\":22625:22626   */\n      0x00\n        /* \"#utility.yul\":22615:22633   */\n      keccak256\n        /* \"#utility.yul\":22607:22633   */\n      swap1\n      pop\n        /* \"#utility.yul\":22499:22640   */\n      swap2\n      swap1\n      pop\n      jump\t// out\n        /* \"#utility.yul\":22646:22739   */\n    tag_258:\n        /* \"#utility.yul\":22683:22689   */\n      0x00\n        /* \"#utility.yul\":22730:22732   */\n      0x20\n        /* \"#utility.yul\":22725:22727   */\n      0x1f\n        /* \"#utility.yul\":22718:22723   */\n      dup4\n        /* \"#utility.yul\":22714:22728   */\n      add\n        /* \"#utility.yul\":22710:22733   */\n      div\n        /* \"#utility.yul\":22700:22733   */\n      swap1\n      pop\n        /* \"#utility.yul\":22646:22739   */\n      swap2\n      swap1\n      pop\n      jump\t// out\n        /* \"#utility.yul\":22745:22852   */\n    tag_259:\n        /* \"#utility.yul\":22789:22797   */\n      0x00\n        /* \"#utility.yul\":22839:22844   */\n      dup3\n        /* \"#utility.yul\":22833:22837   */\n      dup3\n        /* \"#utility.yul\":22829:22845   */\n      shl\n        /* \"#utility.yul\":22808:22845   */\n      swap1\n      pop\n        /* \"#utility.yul\":22745:22852   */\n      swap3\n      swap2\n      pop\n      pop\n      jump\t// out\n        /* \"#utility.yul\":22858:23251   */\n    tag_260:\n        /* \"#utility.yul\":22927:22933   */\n      0x00\n        /* \"#utility.yul\":22977:22978   */\n      0x08\n        /* \"#utility.yul\":22965:22975   */\n      dup4\n        /* \"#utility.yul\":22961:22979   */\n      mul\n        /* \"#utility.yul\":23000:23097   */\n      tag_491\n        /* \"#utility.yul\":23030:23096   */\n      0xffffffffffffffffffffffffffffffffffffffffffffffffffffffffffffffff\n        /* \"#utility.yul\":23019:23028   */\n      dup3\n        /* \"#utility.yul\":23000:23097   */\n      tag_259\n      jump\t// in\n    tag_491:\n        /* \"#utility.yul\":23118:23157   */\n      tag_492\n        /* \"#utility.yul\":23148:23156   */\n      dup7\n        /* \"#utility.yul\":23137:23146   */\n      dup4\n        /* \"#utility.yul\":23118:23157   */\n      tag_259\n      jump\t// in\n    tag_492:\n        /* \"#utility.yul\":23106:23157   */\n      swap6\n      pop\n        /* \"#utility.yul\":23190:23194   */\n      dup1\n        /* \"#utility.yul\":23186:23195   */\n      not\n        /* \"#utility.yul\":23179:23184   */\n      dup5\n        /* \"#utility.yul\":23175:23196   */\n      and\n        /* \"#utility.yul\":23166:23196   */\n      swap4\n      pop\n        /* \"#utility.yul\":23239:23243   */\n      dup1\n        /* \"#utility.yul\":23229:23237   */\n      dup7\n        /* \"#utility.yul\":23225:23244   */\n      and\n        /* \"#utility.yul\":23218:23223   */\n      dup5\n        /* \"#utility.yul\":23215:23245   */\n      or\n        /* \"#utility.yul\":23205:23245   */\n      swap3\n      pop\n        /* \"#utility.yul\":22934:23251   */\n      pop\n      pop\n        /* \"#utility.yul\":22858:23251   */\n      swap4\n      swap3\n      pop\n      pop\n      pop\n      jump\t// out\n        /* \"#utility.yul\":23257:23317   */\n    tag_261:\n        /* \"#utility.yul\":23285:23288   */\n      0x00\n        /* \"#utility.yul\":23306:23311   */\n      dup2\n        /* \"#utility.yul\":23299:23311   */\n      swap1\n      pop\n        /* \"#utility.yul\":23257:23317   */\n      swap2\n      swap1\n      pop\n      jump\t// out\n        /* \"#utility.yul\":23323:23465   */\n    tag_262:\n        /* \"#utility.yul\":23373:23382   */\n      0x00\n        /* \"#utility.yul\":23406:23459   */\n      tag_495\n        /* \"#utility.yul\":23424:23458   */\n      tag_496\n        /* \"#utility.yul\":23433:23457   */\n      tag_497\n        /* \"#utility.yul\":23451:23456   */\n      dup5\n        /* \"#utility.yul\":23433:23457   */\n      tag_207\n      jump\t// in\n    tag_497:\n        /* \"#utility.yul\":23424:23458   */\n      tag_261\n      jump\t// in\n    tag_496:\n        /* \"#utility.yul\":23406:23459   */\n      tag_207\n      jump\t// in\n    tag_495:\n        /* \"#utility.yul\":23393:23459   */\n      swap1\n      pop\n        /* \"#utility.yul\":23323:23465   */\n      swap2\n      swap1\n      pop\n      jump\t// out\n        /* \"#utility.yul\":23471:23546   */\n    tag_263:\n        /* \"#utility.yul\":23514:23517   */\n      0x00\n        /* \"#utility.yul\":23535:23540   */\n      dup2\n        /* \"#utility.yul\":23528:23540   */\n      swap1\n      pop\n        /* \"#utility.yul\":23471:23546   */\n      swap2\n      swap1\n      pop\n      jump\t// out\n        /* \"#utility.yul\":23552:23821   */\n    tag_264:\n        /* \"#utility.yul\":23662:23701   */\n      tag_500\n        /* \"#utility.yul\":23693:23700   */\n      dup4\n        /* \"#utility.yul\":23662:23701   */\n      tag_262\n      jump\t// in\n    tag_500:\n        /* \"#utility.yul\":23723:23814   */\n      tag_501\n        /* \"#utility.yul\":23772:23813   */\n      tag_502\n        /* \"#utility.yul\":23796:23812   */\n      dup3\n        /* \"#utility.yul\":23772:23813   */\n      tag_263\n      jump\t// in\n    tag_502:\n        /* \"#utility.yul\":23764:23770   */\n      dup5\n        /* \"#utility.yul\":23757:23761   */\n      dup5\n        /* \"#utility.yul\":23751:23762   */\n      sload\n        /* \"#utility.yul\":23723:23814   */\n      tag_260\n      jump\t// in\n    tag_501:\n        /* \"#utility.yul\":23717:23721   */\n      dup3\n        /* \"#utility.yul\":23710:23815   */\n      sstore\n        /* \"#utility.yul\":23628:23821   */\n      pop\n        /* \"#utility.yul\":23552:23821   */\n      pop\n      pop\n      pop\n      jump\t// out\n        /* \"#utility.yul\":23827:23900   */\n    tag_265:\n        /* \"#utility.yul\":23872:23875   */\n      0x00\n        /* \"#utility.yul\":23827:23900   */\n      swap1\n      jump\t// out\n        /* \"#utility.yul\":23906:24095   */\n    tag_266:\n        /* \"#utility.yul\":23983:24015   */\n      tag_505\n      tag_265\n      jump\t// in\n    tag_505:\n        /* \"#utility.yul\":24024:24089   */\n      tag_506\n        /* \"#utility.yul\":24082:24088   */\n      dup2\n        /* \"#utility.yul\":24074:24080   */\n      dup5\n        /* \"#utility.yul\":24068:24072   */\n      dup5\n        /* \"#utility.yul\":24024:24089   */\n      tag_264\n      jump\t// in\n    tag_506:\n        /* \"#utility.yul\":23959:24095   */\n      pop\n        /* \"#utility.yul\":23906:24095   */\n      pop\n      pop\n      jump\t// out\n        /* \"#utility.yul\":24101:24287   */\n    tag_267:\n        /* \"#utility.yul\":24161:24281   */\n    tag_508:\n        /* \"#utility.yul\":24178:24181   */\n      dup2\n        /* \"#utility.yul\":24171:24176   */\n      dup2\n        /* \"#utility.yul\":24168:24182   */\n      lt\n        /* \"#utility.yul\":24161:24281   */\n      iszero\n      tag_510\n      jumpi\n        /* \"#utility.yul\":24232:24271   */\n      tag_511\n        /* \"#utility.yul\":24269:24270   */\n      0x00\n        /* \"#utility.yul\":24262:24267   */\n      dup3\n        /* \"#utility.yul\":24232:24271   */\n      tag_266\n      jump\t// in\n    tag_511:\n        /* \"#utility.yul\":24205:24206   */\n      0x01\n        /* \"#utility.yul\":24198:24203   */\n      dup2\n        /* \"#utility.yul\":24194:24207   */\n      add\n        /* \"#utility.yul\":24185:24207   */\n      swap1\n      pop\n        /* \"#utility.yul\":24161:24281   */\n      jump(tag_508)\n    tag_510:\n        /* \"#utility.yul\":24101:24287   */\n      pop\n      pop\n      jump\t// out\n        /* \"#utility.yul\":24293:24836   */\n    tag_268:\n        /* \"#utility.yul\":24394:24396   */\n      0x1f\n        /* \"#utility.yul\":24389:24392   */\n      dup3\n        /* \"#utility.yul\":24386:24397   */\n      gt\n        /* \"#utility.yul\":24383:24829   */\n      iszero\n      tag_513\n      jumpi\n        /* \"#utility.yul\":24428:24466   */\n      tag_514\n        /* \"#utility.yul\":24460:24465   */\n      dup2\n        /* \"#utility.yul\":24428:24466   */\n      tag_257\n      jump\t// in\n    tag_514:\n        /* \"#utility.yul\":24512:24541   */\n      tag_515\n        /* \"#utility.yul\":24530:24540   */\n      dup5\n        /* \"#utility.yul\":24512:24541   */\n      tag_258\n      jump\t// in\n    tag_515:\n        /* \"#utility.yul\":24502:24510   */\n      dup2\n        /* \"#utility.yul\":24498:24542   */\n      add\n        /* \"#utility.yul\":24695:24697   */\n      0x20\n        /* \"#utility.yul\":24683:24693   */\n      dup6\n        /* \"#utility.yul\":24680:24698   */\n      lt\n        /* \"#utility.yul\":24677:24726   */\n      iszero\n      tag_516\n      jumpi\n        /* \"#utility.yul\":24716:24724   */\n      dup2\n        /* \"#utility.yul\":24701:24724   */\n      swap1\n      pop\n        /* \"#utility.yul\":24677:24726   */\n    tag_516:\n        /* \"#utility.yul\":24739:24819   */\n      tag_517\n        /* \"#utility.yul\":24795:24817   */\n      tag_518\n        /* \"#utility.yul\":24813:24816   */\n      dup6\n        /* \"#utility.yul\":24795:24817   */\n      tag_258\n      jump\t// in\n    tag_518:\n        /* \"#utility.yul\":24785:24793   */\n      dup4\n        /* \"#utility.yul\":24781:24818   */\n      add\n        /* \"#utility.yul\":24768:24779   */\n      dup3\n        /* \"#utility.yul\":24739:24819   */\n      tag_267\n      jump\t// in\n    tag_517:\n        /* \"#utility.yul\":24398:24829   */\n      pop\n      pop\n        /* \"#utility.yul\":24383:24829   */\n    tag_513:\n        /* \"#utility.yul\":24293:24836   */\n      pop\n      pop\n      pop\n      jump\t// out\n        /* \"#utility.yul\":24842:24959   */\n    tag_269:\n        /* \"#utility.yul\":24896:24904   */\n      0x00\n        /* \"#utility.yul\":24946:24951   */\n      dup3\n        /* \"#utility.yul\":24940:24944   */\n      dup3\n        /* \"#utility.yul\":24936:24952   */\n      shr\n        /* \"#utility.yul\":24915:24952   */\n      swap1\n      pop\n        /* \"#utility.yul\":24842:24959   */\n      swap3\n      swap2\n      pop\n      pop\n      jump\t// out\n        /* \"#utility.yul\":24965:25134   */\n    tag_270:\n        /* \"#utility.yul\":25009:25015   */\n      0x00\n        /* \"#utility.yul\":25042:25093   */\n      tag_521\n        /* \"#utility.yul\":25090:25091   */\n      0x00\n        /* \"#utility.yul\":25086:25092   */\n      not\n        /* \"#utility.yul\":25078:25083   */\n      dup5\n        /* \"#utility.yul\":25075:25076   */\n      0x08\n        /* \"#utility.yul\":25071:25084   */\n      mul\n        /* \"#utility.yul\":25042:25093   */\n      tag_269\n      jump\t// in\n    tag_521:\n        /* \"#utility.yul\":25038:25094   */\n      not\n        /* \"#utility.yul\":25123:25127   */\n      dup1\n        /* \"#utility.yul\":25117:25121   */\n      dup4\n        /* \"#utility.yul\":25113:25128   */\n      and\n        /* \"#utility.yul\":25103:25128   */\n      swap2\n      pop\n        /* \"#utility.yul\":25016:25134   */\n      pop\n        /* \"#utility.yul\":24965:25134   */\n      swap3\n      swap2\n      pop\n      pop\n      jump\t// out\n        /* \"#utility.yul\":25139:25434   */\n    tag_271:\n        /* \"#utility.yul\":25215:25219   */\n      0x00\n        /* \"#utility.yul\":25361:25390   */\n      tag_523\n        /* \"#utility.yul\":25386:25389   */\n      dup4\n        /* \"#utility.yul\":25380:25384   */\n      dup4\n        /* \"#utility.yul\":25361:25390   */\n      tag_270\n      jump\t// in\n    tag_523:\n        /* \"#utility.yul\":25353:25390   */\n      swap2\n      pop\n        /* \"#utility.yul\":25423:25426   */\n      dup3\n        /* \"#utility.yul\":25420:25421   */\n      0x02\n        /* \"#utility.yul\":25416:25427   */\n      mul\n        /* \"#utility.yul\":25410:25414   */\n      dup3\n        /* \"#utility.yul\":25407:25428   */\n      or\n        /* \"#utility.yul\":25399:25428   */\n      swap1\n      pop\n        /* \"#utility.yul\":25139:25434   */\n      swap3\n      swap2\n      pop\n      pop\n      jump\t// out\n        /* \"#utility.yul\":25439:26834   */\n    tag_170:\n        /* \"#utility.yul\":25556:25593   */\n      tag_525\n        /* \"#utility.yul\":25589:25592   */\n      dup3\n        /* \"#utility.yul\":25556:25593   */\n      tag_212\n      jump\t// in\n    tag_525:\n        /* \"#utility.yul\":25658:25676   */\n      0xffffffffffffffff\n        /* \"#utility.yul\":25650:25656   */\n      dup2\n        /* \"#utility.yul\":25647:25677   */\n      gt\n        /* \"#utility.yul\":25644:25700   */\n      iszero\n      tag_526\n      jumpi\n        /* \"#utility.yul\":25680:25698   */\n      tag_527\n      tag_235\n      jump\t// in\n    tag_527:\n        /* \"#utility.yul\":25644:25700   */\n    tag_526:\n        /* \"#utility.yul\":25724:25762   */\n      tag_528\n        /* \"#utility.yul\":25756:25760   */\n      dup3\n        /* \"#utility.yul\":25750:25761   */\n      sload\n        /* \"#utility.yul\":25724:25762   */\n      tag_68\n      jump\t// in\n    tag_528:\n        /* \"#utility.yul\":25809:25876   */\n      tag_529\n        /* \"#utility.yul\":25869:25875   */\n      dup3\n        /* \"#utility.yul\":25861:25867   */\n      dup3\n        /* \"#utility.yul\":25855:25859   */\n      dup6\n        /* \"#utility.yul\":25809:25876   */\n      tag_268\n      jump\t// in\n    tag_529:\n        /* \"#utility.yul\":25903:25904   */\n      0x00\n        /* \"#utility.yul\":25927:25931   */\n      0x20\n        /* \"#utility.yul\":25914:25931   */\n      swap1\n      pop\n        /* \"#utility.yul\":25959:25961   */\n      0x1f\n        /* \"#utility.yul\":25951:25957   */\n      dup4\n        /* \"#utility.yul\":25948:25962   */\n      gt\n        /* \"#utility.yul\":25976:25977   */\n      0x01\n        /* \"#utility.yul\":25971:26589   */\n      dup2\n      eq\n      tag_531\n      jumpi\n        /* \"#utility.yul\":26633:26634   */\n      0x00\n        /* \"#utility.yul\":26650:26656   */\n      dup5\n        /* \"#utility.yul\":26647:26724   */\n      iszero\n      tag_532\n      jumpi\n        /* \"#utility.yul\":26699:26708   */\n      dup3\n        /* \"#utility.yul\":26694:26697   */\n      dup8\n        /* \"#utility.yul\":26690:26709   */\n      add\n        /* \"#utility.yul\":26684:26710   */\n      mload\n        /* \"#utility.yul\":26675:26710   */\n      swap1\n      pop\n        /* \"#utility.yul\":26647:26724   */\n    tag_532:\n        /* \"#utility.yul\":26750:26817   */\n      tag_533\n        /* \"#utility.yul\":26810:26816   */\n      dup6\n        /* \"#utility.yul\":26803:26808   */\n      dup3\n        /* \"#utility.yul\":26750:26817   */\n      tag_271\n      jump\t// in\n    tag_533:\n        /* \"#utility.yul\":26744:26748   */\n      dup7\n        /* \"#utility.yul\":26737:26818   */\n      sstore\n        /* \"#utility.yul\":26606:26828   */\n      pop\n        /* \"#utility.yul\":25941:26828   */\n      jump(tag_530)\n        /* \"#utility.yul\":25971:26589   */\n    tag_531:\n        /* \"#utility.yul\":26023:26027   */\n      0x1f\n        /* \"#utility.yul\":26019:26028   */\n      not\n        /* \"#utility.yul\":26011:26017   */\n      dup5\n        /* \"#utility.yul\":26007:26029   */\n      and\n        /* \"#utility.yul\":26057:26094   */\n      tag_534\n        /* \"#utility.yul\":26089:26093   */\n      dup7\n        /* \"#utility.yul\":26057:26094   */\n      tag_257\n      jump\t// in\n    tag_534:\n        /* \"#utility.yul\":26116:26117   */\n      0x00\n        /* \"#utility.yul\":26130:26338   */\n    tag_535:\n        /* \"#utility.yul\":26144:26151   */\n      dup3\n        /* \"#utility.yul\":26141:26142   */\n      dup2\n        /* \"#utility.yul\":26138:26152   */\n      lt\n        /* \"#utility.yul\":26130:26338   */\n      iszero\n      tag_537\n      jumpi\n        /* \"#utility.yul\":26223:26232   */\n      dup5\n        /* \"#utility.yul\":26218:26221   */\n      dup10\n        /* \"#utility.yul\":26214:26233   */\n      add\n        /* \"#utility.yul\":26208:26234   */\n      mload\n        /* \"#utility.yul\":26200:26206   */\n      dup3\n        /* \"#utility.yul\":26193:26235   */\n      sstore\n        /* \"#utility.yul\":26274:26275   */\n      0x01\n        /* \"#utility.yul\":26266:26272   */\n      dup3\n        /* \"#utility.yul\":26262:26276   */\n      add\n        /* \"#utility.yul\":26252:26276   */\n      swap2\n      pop\n        /* \"#utility.yul\":26321:26323   */\n      0x20\n        /* \"#utility.yul\":26310:26319   */\n      dup6\n        /* \"#utility.yul\":26306:26324   */\n      add\n        /* \"#utility.yul\":26293:26324   */\n      swap5\n      pop\n        /* \"#utility.yul\":26167:26171   */\n      0x20\n        /* \"#utility.yul\":26164:26165   */\n      dup2\n        /* \"#utility.yul\":26160:26172   */\n      add\n        /* \"#utility.yul\":26155:26172   */\n      swap1\n      pop\n        /* \"#utility.yul\":26130:26338   */\n      jump(tag_535)\n    tag_537:\n        /* \"#utility.yul\":26366:26372   */\n      dup7\n        /* \"#utility.yul\":26357:26364   */\n      dup4\n        /* \"#utility.yul\":26354:26373   */\n      lt\n        /* \"#utility.yul\":26351:26530   */\n      iszero\n      tag_538\n      jumpi\n        /* \"#utility.yul\":26424:26433   */\n      dup5\n        /* \"#utility.yul\":26419:26422   */\n      dup10\n        /* \"#utility.yul\":26415:26434   */\n      add\n        /* \"#utility.yul\":26409:26435   */\n      mload\n        /* \"#utility.yul\":26467:26515   */\n      tag_539\n        /* \"#utility.yul\":26509:26513   */\n      0x1f\n        /* \"#utility.yul\":26501:26507   */\n      dup10\n        /* \"#utility.yul\":26497:26514   */\n      and\n        /* \"#utility.yul\":26486:26495   */\n      dup3\n        /* \"#utility.yul\":26467:26515   */\n      tag_270\n      jump\t// in\n    tag_539:\n        /* \"#utility.yul\":26459:26465   */\n      dup4\n        /* \"#utility.yul\":26452:26516   */\n      sstore\n        /* \"#utility.yul\":26374:26530   */\n      pop\n        /* \"#utility.yul\":26351:26530   */\n    tag_538:\n        /* \"#utility.yul\":26576:26577   */\n      0x01\n        /* \"#utility.yul\":26572:26573   */\n      0x02\n        /* \"#utility.yul\":26564:26570   */\n      dup9\n        /* \"#utility.yul\":26560:26574   */\n      mul\n        /* \"#utility.yul\":26556:26578   */\n      add\n        /* \"#utility.yul\":26550:26554   */\n      dup9\n        /* \"#utility.yul\":26543:26579   */\n      sstore\n        /* \"#utility.yul\":25978:26589   */\n      pop\n      pop\n      pop\n        /* \"#utility.yul\":25941:26828   */\n    tag_530:\n      pop\n        /* \"#utility.yul\":25531:26834   */\n      pop\n      pop\n      pop\n        /* \"#utility.yul\":25439:26834   */\n      pop\n      pop\n      jump\t// out\n        /* \"#utility.yul\":26840:27484   */\n    tag_172:\n        /* \"#utility.yul\":27037:27041   */\n      0x00\n        /* \"#utility.yul\":27075:27078   */\n      0x80\n        /* \"#utility.yul\":27064:27073   */\n      dup3\n        /* \"#utility.yul\":27060:27079   */\n      add\n        /* \"#utility.yul\":27052:27079   */\n      swap1\n      pop\n        /* \"#utility.yul\":27089:27160   */\n      tag_541\n        /* \"#utility.yul\":27157:27158   */\n      0x00\n        /* \"#utility.yul\":27146:27155   */\n      dup4\n        /* \"#utility.yul\":27142:27159   */\n      add\n        /* \"#utility.yul\":27133:27139   */\n      dup8\n        /* \"#utility.yul\":27089:27160   */\n      tag_210\n      jump\t// in\n    tag_541:\n        /* \"#utility.yul\":27170:27242   */\n      tag_542\n        /* \"#utility.yul\":27238:27240   */\n      0x20\n        /* \"#utility.yul\":27227:27236   */\n      dup4\n        /* \"#utility.yul\":27223:27241   */\n      add\n        /* \"#utility.yul\":27214:27220   */\n      dup7\n        /* \"#utility.yul\":27170:27242   */\n      tag_211\n      jump\t// in\n    tag_542:\n        /* \"#utility.yul\":27289:27298   */\n      dup2\n        /* \"#utility.yul\":27283:27287   */\n      dup2\n        /* \"#utility.yul\":27279:27299   */\n      sub\n        /* \"#utility.yul\":27274:27276   */\n      0x40\n        /* \"#utility.yul\":27263:27272   */\n      dup4\n        /* \"#utility.yul\":27259:27277   */\n      add\n        /* \"#utility.yul\":27252:27300   */\n      mstore\n        /* \"#utility.yul\":27317:27395   */\n      tag_543\n        /* \"#utility.yul\":27390:27394   */\n      dup2\n        /* \"#utility.yul\":27381:27387   */\n      dup6\n        /* \"#utility.yul\":27317:27395   */\n      tag_216\n      jump\t// in\n    tag_543:\n        /* \"#utility.yul\":27309:27395   */\n      swap1\n      pop\n        /* \"#utility.yul\":27405:27477   */\n      tag_544\n        /* \"#utility.yul\":27473:27475   */\n      0x60\n        /* \"#utility.yul\":27462:27471   */\n      dup4\n        /* \"#utility.yul\":27458:27476   */\n      add\n        /* \"#utility.yul\":27449:27455   */\n      dup5\n        /* \"#utility.yul\":27405:27477   */\n      tag_210\n      jump\t// in\n    tag_544:\n        /* \"#utility.yul\":26840:27484   */\n      swap6\n      swap5\n      pop\n      pop\n      pop\n      pop\n      pop\n      jump\t// out\n        /* \"#utility.yul\":27490:27681   */\n    tag_181:\n        /* \"#utility.yul\":27530:27533   */\n      0x00\n        /* \"#utility.yul\":27549:27569   */\n      tag_546\n        /* \"#utility.yul\":27567:27568   */\n      dup3\n        /* \"#utility.yul\":27549:27569   */\n      tag_207\n      jump\t// in\n    tag_546:\n        /* \"#utility.yul\":27544:27569   */\n      swap2\n      pop\n        /* \"#utility.yul\":27583:27603   */\n      tag_547\n        /* \"#utility.yul\":27601:27602   */\n      dup4\n        /* \"#utility.yul\":27583:27603   */\n      tag_207\n      jump\t// in\n    tag_547:\n        /* \"#utility.yul\":27578:27603   */\n      swap3\n      pop\n        /* \"#utility.yul\":27626:27627   */\n      dup3\n        /* \"#utility.yul\":27623:27624   */\n      dup3\n        /* \"#utility.yul\":27619:27628   */\n      add\n        /* \"#utility.yul\":27612:27628   */\n      swap1\n      pop\n        /* \"#utility.yul\":27647:27650   */\n      dup1\n        /* \"#utility.yul\":27644:27645   */\n      dup3\n        /* \"#utility.yul\":27641:27651   */\n      gt\n        /* \"#utility.yul\":27638:27674   */\n      iszero\n      tag_548\n      jumpi\n        /* \"#utility.yul\":27654:27672   */\n      tag_549\n      tag_254\n      jump\t// in\n    tag_549:\n        /* \"#utility.yul\":27638:27674   */\n    tag_548:\n        /* \"#utility.yul\":27490:27681   */\n      swap3\n      swap2\n      pop\n      pop\n      jump\t// out\n        /* \"#utility.yul\":27687:27912   */\n    tag_272:\n        /* \"#utility.yul\":27827:27861   */\n      0x4f776e61626c653a206e6577206f776e657220697320746865207a65726f2061\n        /* \"#utility.yul\":27823:27824   */\n      0x00\n        /* \"#utility.yul\":27815:27821   */\n      dup3\n        /* \"#utility.yul\":27811:27825   */\n      add\n        /* \"#utility.yul\":27804:27862   */\n      mstore\n        /* \"#utility.yul\":27896:27904   */\n      0x6464726573730000000000000000000000000000000000000000000000000000\n        /* \"#utility.yul\":27891:27893   */\n      0x20\n        /* \"#utility.yul\":27883:27889   */\n      dup3\n        /* \"#utility.yul\":27879:27894   */\n      add\n        /* \"#utility.yul\":27872:27905   */\n      mstore\n        /* \"#utility.yul\":27687:27912   */\n      pop\n      jump\t// out\n        /* \"#utility.yul\":27918:28284   */\n    tag_273:\n        /* \"#utility.yul\":28060:28063   */\n      0x00\n        /* \"#utility.yul\":28081:28148   */\n      tag_552\n        /* \"#utility.yul\":28145:28147   */\n      0x26\n        /* \"#utility.yul\":28140:28143   */\n      dup4\n        /* \"#utility.yul\":28081:28148   */\n      tag_213\n      jump\t// in\n    tag_552:\n        /* \"#utility.yul\":28074:28148   */\n      swap2\n      pop\n        /* \"#utility.yul\":28157:28250   */\n      tag_553\n        /* \"#utility.yul\":28246:28249   */\n      dup3\n        /* \"#utility.yul\":28157:28250   */\n      tag_272\n      jump\t// in\n    tag_553:\n        /* \"#utility.yul\":28275:28277   */\n      0x40\n        /* \"#utility.yul\":28270:28273   */\n      dup3\n        /* \"#utility.yul\":28266:28278   */\n      add\n        /* \"#utility.yul\":28259:28278   */\n      swap1\n      pop\n        /* \"#utility.yul\":27918:28284   */\n      swap2\n      swap1\n      pop\n      jump\t// out\n        /* \"#utility.yul\":28290:28709   */\n    tag_189:\n        /* \"#utility.yul\":28456:28460   */\n      0x00\n        /* \"#utility.yul\":28494:28496   */\n      0x20\n        /* \"#utility.yul\":28483:28492   */\n      dup3\n        /* \"#utility.yul\":28479:28497   */\n      add\n        /* \"#utility.yul\":28471:28497   */\n      swap1\n      pop\n        /* \"#utility.yul\":28543:28552   */\n      dup2\n        /* \"#utility.yul\":28537:28541   */\n      dup2\n        /* \"#utility.yul\":28533:28553   */\n      sub\n        /* \"#utility.yul\":28529:28530   */\n      0x00\n        /* \"#utility.yul\":28518:28527   */\n      dup4\n        /* \"#utility.yul\":28514:28531   */\n      add\n        /* \"#utility.yul\":28507:28554   */\n      mstore\n        /* \"#utility.yul\":28571:28702   */\n      tag_555\n        /* \"#utility.yul\":28697:28701   */\n      dup2\n        /* \"#utility.yul\":28571:28702   */\n      tag_273\n      jump\t// in\n    tag_555:\n        /* \"#utility.yul\":28563:28702   */\n      swap1\n      pop\n        /* \"#utility.yul\":28290:28709   */\n      swap2\n      swap1\n      pop\n      jump\t// out\n        /* \"#utility.yul\":28715:28897   */\n    tag_274:\n        /* \"#utility.yul\":28855:28889   */\n      0x4f776e61626c653a2063616c6c6572206973206e6f7420746865206f776e6572\n        /* \"#utility.yul\":28851:28852   */\n      0x00\n        /* \"#utility.yul\":28843:28849   */\n      dup3\n        /* \"#utility.yul\":28839:28853   */\n      add\n        /* \"#utility.yul\":28832:28890   */\n      mstore\n        /* \"#utility.yul\":28715:28897   */\n      pop\n      jump\t// out\n        /* \"#utility.yul\":28903:29269   */\n    tag_275:\n        /* \"#utility.yul\":29045:29048   */\n      0x00\n        /* \"#utility.yul\":29066:29133   */\n      tag_558\n        /* \"#utility.yul\":29130:29132   */\n      0x20\n        /* \"#utility.yul\":29125:29128   */\n      dup4\n        /* \"#utility.yul\":29066:29133   */\n      tag_213\n      jump\t// in\n    tag_558:\n        /* \"#utility.yul\":29059:29133   */\n      swap2\n      pop\n        /* \"#utility.yul\":29142:29235   */\n      tag_559\n        /* \"#utility.yul\":29231:29234   */\n      dup3\n        /* \"#utility.yul\":29142:29235   */\n      tag_274\n      jump\t// in\n    tag_559:\n        /* \"#utility.yul\":29260:29262   */\n      0x20\n        /* \"#utility.yul\":29255:29258   */\n      dup3\n        /* \"#utility.yul\":29251:29263   */\n      add\n        /* \"#utility.yul\":29244:29263   */\n      swap1\n      pop\n        /* \"#utility.yul\":28903:29269   */\n      swap2\n      swap1\n      pop\n      jump\t// out\n        /* \"#utility.yul\":29275:29694   */\n    tag_197:\n        /* \"#utility.yul\":29441:29445   */\n      0x00\n        /* \"#utility.yul\":29479:29481   */\n      0x20\n        /* \"#utility.yul\":29468:29477   */\n      dup3\n        /* \"#utility.yul\":29464:29482   */\n      add\n        /* \"#utility.yul\":29456:29482   */\n      swap1\n      pop\n        /* \"#utility.yul\":29528:29537   */\n      dup2\n        /* \"#utility.yul\":29522:29526   */\n      dup2\n        /* \"#utility.yul\":29518:29538   */\n      sub\n        /* \"#utility.yul\":29514:29515   */\n      0x00\n        /* \"#utility.yul\":29503:29512   */\n      dup4\n        /* \"#utility.yul\":29499:29516   */\n      add\n        /* \"#utility.yul\":29492:29539   */\n      mstore\n        /* \"#utility.yul\":29556:29687   */\n      tag_561\n        /* \"#utility.yul\":29682:29686   */\n      dup2\n        /* \"#utility.yul\":29556:29687   */\n      tag_275\n      jump\t// in\n    tag_561:\n        /* \"#utility.yul\":29548:29687   */\n      swap1\n      pop\n        /* \"#utility.yul\":29275:29694   */\n      swap2\n      swap1\n      pop\n      jump\t// out\n\n    auxdata: 0xa2646970667358221220c9890244d4be7b4cdc0f2dd14427e050ff71289c2c28f46572a596bb71be2e3164736f6c63430008120033\n}\n",
				"bytecode": {
					"linkReferences": {},
					"object": "6080604052610118600060146101000a81548161ffff021916908361ffff1602179055503480156200003057600080fd5b5060405162002469380380620024698339818101604052810190620000569190620001f4565b620000766200006a620000be60201b60201c565b620000c660201b60201c565b80600260006101000a81548173ffffffffffffffffffffffffffffffffffffffff021916908373ffffffffffffffffffffffffffffffffffffffff1602179055505062000226565b600033905090565b60008060009054906101000a900473ffffffffffffffffffffffffffffffffffffffff169050816000806101000a81548173ffffffffffffffffffffffffffffffffffffffff021916908373ffffffffffffffffffffffffffffffffffffffff1602179055508173ffffffffffffffffffffffffffffffffffffffff168173ffffffffffffffffffffffffffffffffffffffff167f8be0079c531659141344cd1fd0a4f28419497f9722a3daafe3b4186f6b6457e060405160405180910390a35050565b600080fd5b600073ffffffffffffffffffffffffffffffffffffffff82169050919050565b6000620001bc826200018f565b9050919050565b620001ce81620001af565b8114620001da57600080fd5b50565b600081519050620001ee81620001c3565b92915050565b6000602082840312156200020d576200020c6200018a565b5b60006200021d84828501620001dd565b91505092915050565b61223380620002366000396000f3fe608060405234801561001057600080fd5b50600436106100b45760003560e01c80636eb10797116100715780636eb10797146101a1578063715018a6146101bf5780637c9cd2bc146101c9578063820785cc146101e55780638da5cb5b14610215578063f2fde38b14610233576100b4565b806305a1b4a9146100b9578063112f54e3146100ed57806312e7ee1c1461011d5780633d9b569f1461014d57806358bfa4ab146101695780636337821614610185575b600080fd5b6100d360048036038101906100ce919061137e565b61024f565b6040516100e495949392919061146c565b60405180910390f35b6101076004803603810190610102919061137e565b61034a565b60405161011491906115a4565b60405180910390f35b610137600480360381019061013291906115c6565b6104ca565b604051610144919061172b565b60405180910390f35b6101676004803603810190610162919061137e565b61066e565b005b610183600480360381019061017e9190611787565b6109c0565b005b61019f600480360381019061019a919061137e565b6109e8565b005b6101a9610c95565b6040516101b691906117c3565b60405180910390f35b6101c7610ca9565b005b6101e360048036038101906101de9190611913565b610cbd565b005b6101ff60048036038101906101fa91906115c6565b610fbe565b60405161020c919061195c565b60405180910390f35b61021d61109b565b60405161022a9190611977565b60405180910390f35b61024d600480360381019061024891906115c6565b6110c4565b005b6001602052816000526040600020818154811061026b57600080fd5b9060005260206000209060050201600091509150508060000154908060010160009054906101000a900473ffffffffffffffffffffffffffffffffffffffff16908060020180546102bb906119c1565b80601f01602080910402602001604051908101604052809291908181526020018280546102e7906119c1565b80156103345780601f1061030957610100808354040283529160200191610334565b820191906000526020600020905b81548152906001019060200180831161031757829003601f168201915b5050505050908060030154908060040154905085565b610352611291565b600160008473ffffffffffffffffffffffffffffffffffffffff1673ffffffffffffffffffffffffffffffffffffffff16815260200190815260200160002082815481106103a3576103a26119f2565b5b90600052602060002090600502016040518060a0016040529081600082015481526020016001820160009054906101000a900473ffffffffffffffffffffffffffffffffffffffff1673ffffffffffffffffffffffffffffffffffffffff1673ffffffffffffffffffffffffffffffffffffffff16815260200160028201805461042c906119c1565b80601f0160208091040260200160405190810160405280929190818152602001828054610458906119c1565b80156104a55780601f1061047a576101008083540402835291602001916104a5565b820191906000526020600020905b81548152906001019060200180831161048857829003601f168201915b5050505050815260200160038201548152602001600482015481525050905092915050565b6060600160008373ffffffffffffffffffffffffffffffffffffffff1673ffffffffffffffffffffffffffffffffffffffff168152602001908152602001600020805480602002602001604051908101604052809291908181526020016000905b8282101561066357838290600052602060002090600502016040518060a0016040529081600082015481526020016001820160009054906101000a900473ffffffffffffffffffffffffffffffffffffffff1673ffffffffffffffffffffffffffffffffffffffff1673ffffffffffffffffffffffffffffffffffffffff1681526020016002820180546105be906119c1565b80601f01602080910402602001604051908101604052809291908181526020018280546105ea906119c1565b80156106375780601f1061060c57610100808354040283529160200191610637565b820191906000526020600020905b81548152906001019060200180831161061a57829003601f168201915b50505050508152602001600382015481526020016004820154815250508152602001906001019061052b565b505050509050919050565b6000600260009054906101000a900473ffffffffffffffffffffffffffffffffffffffff1673ffffffffffffffffffffffffffffffffffffffff16630f53a470336040518263ffffffff1660e01b81526004016106cb9190611977565b600060405180830381865afa1580156106e8573d6000803e3d6000fd5b505050506040513d6000823e3d601f19601f820116820180604052508101906107119190611b23565b905060008160000151511161075b576040517f08c379a000000000000000000000000000000000000000000000000000000000815260040161075290611bb8565b60405180910390fd5b81600160008573ffffffffffffffffffffffffffffffffffffffff1673ffffffffffffffffffffffffffffffffffffffff16815260200190815260200160002083815481106107ad576107ac6119f2565b5b906000526020600020906005020160000154146107ff576040517f08c379a00000000000000000000000000000000000000000000000000000000081526004016107f690611c24565b60405180910390fd5b6000600160008573ffffffffffffffffffffffffffffffffffffffff1673ffffffffffffffffffffffffffffffffffffffff1681526020019081526020016000208381548110610852576108516119f2565b5b906000526020600020906005020160040154116108a4576040517f08c379a000000000000000000000000000000000000000000000000000000000815260040161089b90611c90565b60405180910390fd5b600160008473ffffffffffffffffffffffffffffffffffffffff1673ffffffffffffffffffffffffffffffffffffffff16815260200190815260200160002082815481106108f5576108f46119f2565b5b9060005260206000209060050201600401600081548092919061091790611cdf565b91905055507f762c2616349603ac16eba0de8e6141b79129a07ab63bd99e0a80b3a471716943338484600160008873ffffffffffffffffffffffffffffffffffffffff1673ffffffffffffffffffffffffffffffffffffffff1681526020019081526020016000208681548110610991576109906119f2565b5b9060005260206000209060050201600401546040516109b39493929190611d08565b60405180910390a1505050565b6109c8611147565b80600060146101000a81548161ffff021916908361ffff16021790555050565b6000600260009054906101000a900473ffffffffffffffffffffffffffffffffffffffff1673ffffffffffffffffffffffffffffffffffffffff16630f53a470336040518263ffffffff1660e01b8152600401610a459190611977565b600060405180830381865afa158015610a62573d6000803e3d6000fd5b505050506040513d6000823e3d601f19601f82011682018060405250810190610a8b9190611b23565b9050600081600001515111610ad5576040517f08c379a0000000000000000000000000000000000000000000000000000000008152600401610acc90611bb8565b60405180910390fd5b81600160008573ffffffffffffffffffffffffffffffffffffffff1673ffffffffffffffffffffffffffffffffffffffff1681526020019081526020016000208381548110610b2757610b266119f2565b5b90600052602060002090600502016000015414610b79576040517f08c379a0000000000000000000000000000000000000000000000000000000008152600401610b7090611c24565b60405180910390fd5b600160008473ffffffffffffffffffffffffffffffffffffffff1673ffffffffffffffffffffffffffffffffffffffff1681526020019081526020016000208281548110610bca57610bc96119f2565b5b90600052602060002090600502016004016000815480929190610bec90611d4d565b91905055507fe8a76fc0f16d11a00d1e93b689b63d76cf60af914dd3d915375dc41d01a0c3c8338484600160008873ffffffffffffffffffffffffffffffffffffffff1673ffffffffffffffffffffffffffffffffffffffff1681526020019081526020016000208681548110610c6657610c656119f2565b5b906000526020600020906005020160040154604051610c889493929190611d08565b60405180910390a1505050565b600060149054906101000a900461ffff1681565b610cb1611147565b610cbb60006111c5565b565b6000600260009054906101000a900473ffffffffffffffffffffffffffffffffffffffff1673ffffffffffffffffffffffffffffffffffffffff16630f53a470336040518263ffffffff1660e01b8152600401610d1a9190611977565b600060405180830381865afa158015610d37573d6000803e3d6000fd5b505050506040513d6000823e3d601f19601f82011682018060405250810190610d609190611b23565b9050600081600001515111610daa576040517f08c379a0000000000000000000000000000000000000000000000000000000008152600401610da190611bb8565b60405180910390fd5b600060149054906101000a900461ffff1661ffff1682511115610e02576040517f08c379a0000000000000000000000000000000000000000000000000000000008152600401610df990611de1565b60405180910390fd5b60006040518060a00160405280600160003373ffffffffffffffffffffffffffffffffffffffff1673ffffffffffffffffffffffffffffffffffffffff1681526020019081526020016000208054905081526020013373ffffffffffffffffffffffffffffffffffffffff16815260200184815260200142815260200160008152509050600160003373ffffffffffffffffffffffffffffffffffffffff1673ffffffffffffffffffffffffffffffffffffffff1681526020019081526020016000208190806001815401808255809150506001900390600052602060002090600502016000909190919091506000820151816000015560208201518160010160006101000a81548173ffffffffffffffffffffffffffffffffffffffff021916908373ffffffffffffffffffffffffffffffffffffffff1602179055506040820151816002019081610f559190611fad565b50606082015181600301556080820151816004015550507f16fd3c13e9d46923e0a8bce11c7b473ec508a72e6c96cd2404b29ce972afc29e8160000151826020015183604001518460600151604051610fb1949392919061207f565b60405180910390a1505050565b60008060005b600160008573ffffffffffffffffffffffffffffffffffffffff1673ffffffffffffffffffffffffffffffffffffffff1681526020019081526020016000208054905081101561109157600160008573ffffffffffffffffffffffffffffffffffffffff1673ffffffffffffffffffffffffffffffffffffffff168152602001908152602001600020818154811061105f5761105e6119f2565b5b9060005260206000209060050201600401548261107c91906120cb565b9150808061108990611d4d565b915050610fc4565b5080915050919050565b60008060009054906101000a900473ffffffffffffffffffffffffffffffffffffffff16905090565b6110cc611147565b600073ffffffffffffffffffffffffffffffffffffffff168173ffffffffffffffffffffffffffffffffffffffff160361113b576040517f08c379a000000000000000000000000000000000000000000000000000000000815260040161113290612171565b60405180910390fd5b611144816111c5565b50565b61114f611289565b73ffffffffffffffffffffffffffffffffffffffff1661116d61109b565b73ffffffffffffffffffffffffffffffffffffffff16146111c3576040517f08c379a00000000000000000000000000000000000000000000000000000000081526004016111ba906121dd565b60405180910390fd5b565b60008060009054906101000a900473ffffffffffffffffffffffffffffffffffffffff169050816000806101000a81548173ffffffffffffffffffffffffffffffffffffffff021916908373ffffffffffffffffffffffffffffffffffffffff1602179055508173ffffffffffffffffffffffffffffffffffffffff168173ffffffffffffffffffffffffffffffffffffffff167f8be0079c531659141344cd1fd0a4f28419497f9722a3daafe3b4186f6b6457e060405160405180910390a35050565b600033905090565b6040518060a0016040528060008152602001600073ffffffffffffffffffffffffffffffffffffffff1681526020016060815260200160008152602001600081525090565b6000604051905090565b600080fd5b600080fd5b600073ffffffffffffffffffffffffffffffffffffffff82169050919050565b6000611315826112ea565b9050919050565b6113258161130a565b811461133057600080fd5b50565b6000813590506113428161131c565b92915050565b6000819050919050565b61135b81611348565b811461136657600080fd5b50565b60008135905061137881611352565b92915050565b60008060408385031215611395576113946112e0565b5b60006113a385828601611333565b92505060206113b485828601611369565b9150509250929050565b6113c781611348565b82525050565b6113d68161130a565b82525050565b600081519050919050565b600082825260208201905092915050565b60005b838110156114165780820151818401526020810190506113fb565b60008484015250505050565b6000601f19601f8301169050919050565b600061143e826113dc565b61144881856113e7565b93506114588185602086016113f8565b61146181611422565b840191505092915050565b600060a08201905061148160008301886113be565b61148e60208301876113cd565b81810360408301526114a08186611433565b90506114af60608301856113be565b6114bc60808301846113be565b9695505050505050565b6114cf81611348565b82525050565b6114de8161130a565b82525050565b600082825260208201905092915050565b6000611500826113dc565b61150a81856114e4565b935061151a8185602086016113f8565b61152381611422565b840191505092915050565b600060a08301600083015161154660008601826114c6565b50602083015161155960208601826114d5565b506040830151848203604086015261157182826114f5565b915050606083015161158660608601826114c6565b50608083015161159960808601826114c6565b508091505092915050565b600060208201905081810360008301526115be818461152e565b905092915050565b6000602082840312156115dc576115db6112e0565b5b60006115ea84828501611333565b91505092915050565b600081519050919050565b600082825260208201905092915050565b6000819050602082019050919050565b600060a08301600083015161163760008601826114c6565b50602083015161164a60208601826114d5565b506040830151848203604086015261166282826114f5565b915050606083015161167760608601826114c6565b50608083015161168a60808601826114c6565b508091505092915050565b60006116a1838361161f565b905092915050565b6000602082019050919050565b60006116c1826115f3565b6116cb81856115fe565b9350836020820285016116dd8561160f565b8060005b8581101561171957848403895281516116fa8582611695565b9450611705836116a9565b925060208a019950506001810190506116e1565b50829750879550505050505092915050565b6000602082019050818103600083015261174581846116b6565b905092915050565b600061ffff82169050919050565b6117648161174d565b811461176f57600080fd5b50565b6000813590506117818161175b565b92915050565b60006020828403121561179d5761179c6112e0565b5b60006117ab84828501611772565b91505092915050565b6117bd8161174d565b82525050565b60006020820190506117d860008301846117b4565b92915050565b600080fd5b600080fd5b7f4e487b7100000000000000000000000000000000000000000000000000000000600052604160045260246000fd5b61182082611422565b810181811067ffffffffffffffff8211171561183f5761183e6117e8565b5b80604052505050565b60006118526112d6565b905061185e8282611817565b919050565b600067ffffffffffffffff82111561187e5761187d6117e8565b5b61188782611422565b9050602081019050919050565b82818337600083830152505050565b60006118b66118b184611863565b611848565b9050828152602081018484840111156118d2576118d16117e3565b5b6118dd848285611894565b509392505050565b600082601f8301126118fa576118f96117de565b5b813561190a8482602086016118a3565b91505092915050565b600060208284031215611929576119286112e0565b5b600082013567ffffffffffffffff811115611947576119466112e5565b5b611953848285016118e5565b91505092915050565b600060208201905061197160008301846113be565b92915050565b600060208201905061198c60008301846113cd565b92915050565b7f4e487b7100000000000000000000000000000000000000000000000000000000600052602260045260246000fd5b600060028204905060018216806119d957607f821691505b6020821081036119ec576119eb611992565b5b50919050565b7f4e487b7100000000000000000000000000000000000000000000000000000000600052603260045260246000fd5b600080fd5b600080fd5b6000611a3e611a3984611863565b611848565b905082815260208101848484011115611a5a57611a596117e3565b5b611a658482856113f8565b509392505050565b600082601f830112611a8257611a816117de565b5b8151611a92848260208601611a2b565b91505092915050565b600060408284031215611ab157611ab0611a21565b5b611abb6040611848565b9050600082015167ffffffffffffffff811115611adb57611ada611a26565b5b611ae784828501611a6d565b600083015250602082015167ffffffffffffffff811115611b0b57611b0a611a26565b5b611b1784828501611a6d565b60208301525092915050565b600060208284031215611b3957611b386112e0565b5b600082015167ffffffffffffffff811115611b5757611b566112e5565b5b611b6384828501611a9b565b91505092915050565b7f55534552204e4f54205245474953544552454400000000000000000000000000600082015250565b6000611ba26013836113e7565b9150611bad82611b6c565b602082019050919050565b60006020820190508181036000830152611bd181611b95565b9050919050565b7f545745455420444f4553204e4f54204558495354210000000000000000000000600082015250565b6000611c0e6015836113e7565b9150611c1982611bd8565b602082019050919050565b60006020820190508181036000830152611c3d81611c01565b9050919050565b7f545745455420484153204e4f204c494b45532100000000000000000000000000600082015250565b6000611c7a6013836113e7565b9150611c8582611c44565b602082019050919050565b60006020820190508181036000830152611ca981611c6d565b9050919050565b7f4e487b7100000000000000000000000000000000000000000000000000000000600052601160045260246000fd5b6000611cea82611348565b915060008203611cfd57611cfc611cb0565b5b600182039050919050565b6000608082019050611d1d60008301876113cd565b611d2a60208301866113cd565b611d3760408301856113be565b611d4460608301846113be565b95945050505050565b6000611d5882611348565b91507fffffffffffffffffffffffffffffffffffffffffffffffffffffffffffffffff8203611d8a57611d89611cb0565b5b600182019050919050565b7f545745455420544f4f204c4f4e47210000000000000000000000000000000000600082015250565b6000611dcb600f836113e7565b9150611dd682611d95565b602082019050919050565b60006020820190508181036000830152611dfa81611dbe565b9050919050565b60008190508160005260206000209050919050565b60006020601f8301049050919050565b600082821b905092915050565b600060088302611e637fffffffffffffffffffffffffffffffffffffffffffffffffffffffffffffffff82611e26565b611e6d8683611e26565b95508019841693508086168417925050509392505050565b6000819050919050565b6000611eaa611ea5611ea084611348565b611e85565b611348565b9050919050565b6000819050919050565b611ec483611e8f565b611ed8611ed082611eb1565b848454611e33565b825550505050565b600090565b611eed611ee0565b611ef8818484611ebb565b505050565b5b81811015611f1c57611f11600082611ee5565b600181019050611efe565b5050565b601f821115611f6157611f3281611e01565b611f3b84611e16565b81016020851015611f4a578190505b611f5e611f5685611e16565b830182611efd565b50505b505050565b600082821c905092915050565b6000611f8460001984600802611f66565b1980831691505092915050565b6000611f9d8383611f73565b9150826002028217905092915050565b611fb6826113dc565b67ffffffffffffffff811115611fcf57611fce6117e8565b5b611fd982546119c1565b611fe4828285611f20565b600060209050601f8311600181146120175760008415612005578287015190505b61200f8582611f91565b865550612077565b601f19841661202586611e01565b60005b8281101561204d57848901518255600182019150602085019450602081019050612028565b8683101561206a5784890151612066601f891682611f73565b8355505b6001600288020188555050505b505050505050565b600060808201905061209460008301876113be565b6120a160208301866113cd565b81810360408301526120b38185611433565b90506120c260608301846113be565b95945050505050565b60006120d682611348565b91506120e183611348565b92508282019050808211156120f9576120f8611cb0565b5b92915050565b7f4f776e61626c653a206e6577206f776e657220697320746865207a65726f206160008201527f6464726573730000000000000000000000000000000000000000000000000000602082015250565b600061215b6026836113e7565b9150612166826120ff565b604082019050919050565b6000602082019050818103600083015261218a8161214e565b9050919050565b7f4f776e61626c653a2063616c6c6572206973206e6f7420746865206f776e6572600082015250565b60006121c76020836113e7565b91506121d282612191565b602082019050919050565b600060208201905081810360008301526121f6816121ba565b905091905056fea2646970667358221220c9890244d4be7b4cdc0f2dd14427e050ff71289c2c28f46572a596bb71be2e3164736f6c63430008120033",
					"opcodes": "PUSH1 0x80 PUSH1 0x40 MSTORE PUSH2 0x118 PUSH1 0x0 PUSH1 0x14 PUSH2 0x100 EXP DUP2 SLOAD DUP2 PUSH2 0xFFFF MUL NOT AND SWAP1 DUP4 PUSH2 0xFFFF AND MUL OR SWAP1 SSTORE POP CALLVALUE DUP1 ISZERO PUSH3 0x30 JUMPI PUSH1 0x0 DUP1 REVERT JUMPDEST POP PUSH1 0x40 MLOAD PUSH3 0x2469 CODESIZE SUB DUP1 PUSH3 0x2469 DUP4 CODECOPY DUP2 DUP2 ADD PUSH1 0x40 MSTORE DUP2 ADD SWAP1 PUSH3 0x56 SWAP2 SWAP1 PUSH3 0x1F4 JUMP JUMPDEST PUSH3 0x76 PUSH3 0x6A PUSH3 0xBE PUSH1 0x20 SHL PUSH1 0x20 SHR JUMP JUMPDEST PUSH3 0xC6 PUSH1 0x20 SHL PUSH1 0x20 SHR JUMP JUMPDEST DUP1 PUSH1 0x2 PUSH1 0x0 PUSH2 0x100 EXP DUP2 SLOAD DUP2 PUSH20 0xFFFFFFFFFFFFFFFFFFFFFFFFFFFFFFFFFFFFFFFF MUL NOT AND SWAP1 DUP4 PUSH20 0xFFFFFFFFFFFFFFFFFFFFFFFFFFFFFFFFFFFFFFFF AND MUL OR SWAP1 SSTORE POP POP PUSH3 0x226 JUMP JUMPDEST PUSH1 0x0 CALLER SWAP1 POP SWAP1 JUMP JUMPDEST PUSH1 0x0 DUP1 PUSH1 0x0 SWAP1 SLOAD SWAP1 PUSH2 0x100 EXP SWAP1 DIV PUSH20 0xFFFFFFFFFFFFFFFFFFFFFFFFFFFFFFFFFFFFFFFF AND SWAP1 POP DUP2 PUSH1 0x0 DUP1 PUSH2 0x100 EXP DUP2 SLOAD DUP2 PUSH20 0xFFFFFFFFFFFFFFFFFFFFFFFFFFFFFFFFFFFFFFFF MUL NOT AND SWAP1 DUP4 PUSH20 0xFFFFFFFFFFFFFFFFFFFFFFFFFFFFFFFFFFFFFFFF AND MUL OR SWAP1 SSTORE POP DUP2 PUSH20 0xFFFFFFFFFFFFFFFFFFFFFFFFFFFFFFFFFFFFFFFF AND DUP2 PUSH20 0xFFFFFFFFFFFFFFFFFFFFFFFFFFFFFFFFFFFFFFFF AND PUSH32 0x8BE0079C531659141344CD1FD0A4F28419497F9722A3DAAFE3B4186F6B6457E0 PUSH1 0x40 MLOAD PUSH1 0x40 MLOAD DUP1 SWAP2 SUB SWAP1 LOG3 POP POP JUMP JUMPDEST PUSH1 0x0 DUP1 REVERT JUMPDEST PUSH1 0x0 PUSH20 0xFFFFFFFFFFFFFFFFFFFFFFFFFFFFFFFFFFFFFFFF DUP3 AND SWAP1 POP SWAP2 SWAP1 POP JUMP JUMPDEST PUSH1 0x0 PUSH3 0x1BC DUP3 PUSH3 0x18F JUMP JUMPDEST SWAP1 POP SWAP2 SWAP1 POP JUMP JUMPDEST PUSH3 0x1CE DUP2 PUSH3 0x1AF JUMP JUMPDEST DUP2 EQ PUSH3 0x1DA JUMPI PUSH1 0x0 DUP1 REVERT JUMPDEST POP JUMP JUMPDEST PUSH1 0x0 DUP2 MLOAD SWAP1 POP PUSH3 0x1EE DUP2 PUSH3 0x1C3 JUMP JUMPDEST SWAP3 SWAP2 POP POP JUMP JUMPDEST PUSH1 0x0 PUSH1 0x20 DUP3 DUP5 SUB SLT ISZERO PUSH3 0x20D JUMPI PUSH3 0x20C PUSH3 0x18A JUMP JUMPDEST JUMPDEST PUSH1 0x0 PUSH3 0x21D DUP5 DUP3 DUP6 ADD PUSH3 0x1DD JUMP JUMPDEST SWAP2 POP POP SWAP3 SWAP2 POP POP JUMP JUMPDEST PUSH2 0x2233 DUP1 PUSH3 0x236 PUSH1 0x0 CODECOPY PUSH1 0x0 RETURN INVALID PUSH1 0x80 PUSH1 0x40 MSTORE CALLVALUE DUP1 ISZERO PUSH2 0x10 JUMPI PUSH1 0x0 DUP1 REVERT JUMPDEST POP PUSH1 0x4 CALLDATASIZE LT PUSH2 0xB4 JUMPI PUSH1 0x0 CALLDATALOAD PUSH1 0xE0 SHR DUP1 PUSH4 0x6EB10797 GT PUSH2 0x71 JUMPI DUP1 PUSH4 0x6EB10797 EQ PUSH2 0x1A1 JUMPI DUP1 PUSH4 0x715018A6 EQ PUSH2 0x1BF JUMPI DUP1 PUSH4 0x7C9CD2BC EQ PUSH2 0x1C9 JUMPI DUP1 PUSH4 0x820785CC EQ PUSH2 0x1E5 JUMPI DUP1 PUSH4 0x8DA5CB5B EQ PUSH2 0x215 JUMPI DUP1 PUSH4 0xF2FDE38B EQ PUSH2 0x233 JUMPI PUSH2 0xB4 JUMP JUMPDEST DUP1 PUSH4 0x5A1B4A9 EQ PUSH2 0xB9 JUMPI DUP1 PUSH4 0x112F54E3 EQ PUSH2 0xED JUMPI DUP1 PUSH4 0x12E7EE1C EQ PUSH2 0x11D JUMPI DUP1 PUSH4 0x3D9B569F EQ PUSH2 0x14D JUMPI DUP1 PUSH4 0x58BFA4AB EQ PUSH2 0x169 JUMPI DUP1 PUSH4 0x63378216 EQ PUSH2 0x185 JUMPI JUMPDEST PUSH1 0x0 DUP1 REVERT JUMPDEST PUSH2 0xD3 PUSH1 0x4 DUP1 CALLDATASIZE SUB DUP2 ADD SWAP1 PUSH2 0xCE SWAP2 SWAP1 PUSH2 0x137E JUMP JUMPDEST PUSH2 0x24F JUMP JUMPDEST PUSH1 0x40 MLOAD PUSH2 0xE4 SWAP6 SWAP5 SWAP4 SWAP3 SWAP2 SWAP1 PUSH2 0x146C JUMP JUMPDEST PUSH1 0x40 MLOAD DUP1 SWAP2 SUB SWAP1 RETURN JUMPDEST PUSH2 0x107 PUSH1 0x4 DUP1 CALLDATASIZE SUB DUP2 ADD SWAP1 PUSH2 0x102 SWAP2 SWAP1 PUSH2 0x137E JUMP JUMPDEST PUSH2 0x34A JUMP JUMPDEST PUSH1 0x40 MLOAD PUSH2 0x114 SWAP2 SWAP1 PUSH2 0x15A4 JUMP JUMPDEST PUSH1 0x40 MLOAD DUP1 SWAP2 SUB SWAP1 RETURN JUMPDEST PUSH2 0x137 PUSH1 0x4 DUP1 CALLDATASIZE SUB DUP2 ADD SWAP1 PUSH2 0x132 SWAP2 SWAP1 PUSH2 0x15C6 JUMP JUMPDEST PUSH2 0x4CA JUMP JUMPDEST PUSH1 0x40 MLOAD PUSH2 0x144 SWAP2 SWAP1 PUSH2 0x172B JUMP JUMPDEST PUSH1 0x40 MLOAD DUP1 SWAP2 SUB SWAP1 RETURN JUMPDEST PUSH2 0x167 PUSH1 0x4 DUP1 CALLDATASIZE SUB DUP2 ADD SWAP1 PUSH2 0x162 SWAP2 SWAP1 PUSH2 0x137E JUMP JUMPDEST PUSH2 0x66E JUMP JUMPDEST STOP JUMPDEST PUSH2 0x183 PUSH1 0x4 DUP1 CALLDATASIZE SUB DUP2 ADD SWAP1 PUSH2 0x17E SWAP2 SWAP1 PUSH2 0x1787 JUMP JUMPDEST PUSH2 0x9C0 JUMP JUMPDEST STOP JUMPDEST PUSH2 0x19F PUSH1 0x4 DUP1 CALLDATASIZE SUB DUP2 ADD SWAP1 PUSH2 0x19A SWAP2 SWAP1 PUSH2 0x137E JUMP JUMPDEST PUSH2 0x9E8 JUMP JUMPDEST STOP JUMPDEST PUSH2 0x1A9 PUSH2 0xC95 JUMP JUMPDEST PUSH1 0x40 MLOAD PUSH2 0x1B6 SWAP2 SWAP1 PUSH2 0x17C3 JUMP JUMPDEST PUSH1 0x40 MLOAD DUP1 SWAP2 SUB SWAP1 RETURN JUMPDEST PUSH2 0x1C7 PUSH2 0xCA9 JUMP JUMPDEST STOP JUMPDEST PUSH2 0x1E3 PUSH1 0x4 DUP1 CALLDATASIZE SUB DUP2 ADD SWAP1 PUSH2 0x1DE SWAP2 SWAP1 PUSH2 0x1913 JUMP JUMPDEST PUSH2 0xCBD JUMP JUMPDEST STOP JUMPDEST PUSH2 0x1FF PUSH1 0x4 DUP1 CALLDATASIZE SUB DUP2 ADD SWAP1 PUSH2 0x1FA SWAP2 SWAP1 PUSH2 0x15C6 JUMP JUMPDEST PUSH2 0xFBE JUMP JUMPDEST PUSH1 0x40 MLOAD PUSH2 0x20C SWAP2 SWAP1 PUSH2 0x195C JUMP JUMPDEST PUSH1 0x40 MLOAD DUP1 SWAP2 SUB SWAP1 RETURN JUMPDEST PUSH2 0x21D PUSH2 0x109B JUMP JUMPDEST PUSH1 0x40 MLOAD PUSH2 0x22A SWAP2 SWAP1 PUSH2 0x1977 JUMP JUMPDEST PUSH1 0x40 MLOAD DUP1 SWAP2 SUB SWAP1 RETURN JUMPDEST PUSH2 0x24D PUSH1 0x4 DUP1 CALLDATASIZE SUB DUP2 ADD SWAP1 PUSH2 0x248 SWAP2 SWAP1 PUSH2 0x15C6 JUMP JUMPDEST PUSH2 0x10C4 JUMP JUMPDEST STOP JUMPDEST PUSH1 0x1 PUSH1 0x20 MSTORE DUP2 PUSH1 0x0 MSTORE PUSH1 0x40 PUSH1 0x0 KECCAK256 DUP2 DUP2 SLOAD DUP2 LT PUSH2 0x26B JUMPI PUSH1 0x0 DUP1 REVERT JUMPDEST SWAP1 PUSH1 0x0 MSTORE PUSH1 0x20 PUSH1 0x0 KECCAK256 SWAP1 PUSH1 0x5 MUL ADD PUSH1 0x0 SWAP2 POP SWAP2 POP POP DUP1 PUSH1 0x0 ADD SLOAD SWAP1 DUP1 PUSH1 0x1 ADD PUSH1 0x0 SWAP1 SLOAD SWAP1 PUSH2 0x100 EXP SWAP1 DIV PUSH20 0xFFFFFFFFFFFFFFFFFFFFFFFFFFFFFFFFFFFFFFFF AND SWAP1 DUP1 PUSH1 0x2 ADD DUP1 SLOAD PUSH2 0x2BB SWAP1 PUSH2 0x19C1 JUMP JUMPDEST DUP1 PUSH1 0x1F ADD PUSH1 0x20 DUP1 SWAP2 DIV MUL PUSH1 0x20 ADD PUSH1 0x40 MLOAD SWAP1 DUP2 ADD PUSH1 0x40 MSTORE DUP1 SWAP3 SWAP2 SWAP1 DUP2 DUP2 MSTORE PUSH1 0x20 ADD DUP3 DUP1 SLOAD PUSH2 0x2E7 SWAP1 PUSH2 0x19C1 JUMP JUMPDEST DUP1 ISZERO PUSH2 0x334 JUMPI DUP1 PUSH1 0x1F LT PUSH2 0x309 JUMPI PUSH2 0x100 DUP1 DUP4 SLOAD DIV MUL DUP4 MSTORE SWAP2 PUSH1 0x20 ADD SWAP2 PUSH2 0x334 JUMP JUMPDEST DUP3 ADD SWAP2 SWAP1 PUSH1 0x0 MSTORE PUSH1 0x20 PUSH1 0x0 KECCAK256 SWAP1 JUMPDEST DUP2 SLOAD DUP2 MSTORE SWAP1 PUSH1 0x1 ADD SWAP1 PUSH1 0x20 ADD DUP1 DUP4 GT PUSH2 0x317 JUMPI DUP3 SWAP1 SUB PUSH1 0x1F AND DUP3 ADD SWAP2 JUMPDEST POP POP POP POP POP SWAP1 DUP1 PUSH1 0x3 ADD SLOAD SWAP1 DUP1 PUSH1 0x4 ADD SLOAD SWAP1 POP DUP6 JUMP JUMPDEST PUSH2 0x352 PUSH2 0x1291 JUMP JUMPDEST PUSH1 0x1 PUSH1 0x0 DUP5 PUSH20 0xFFFFFFFFFFFFFFFFFFFFFFFFFFFFFFFFFFFFFFFF AND PUSH20 0xFFFFFFFFFFFFFFFFFFFFFFFFFFFFFFFFFFFFFFFF AND DUP2 MSTORE PUSH1 0x20 ADD SWAP1 DUP2 MSTORE PUSH1 0x20 ADD PUSH1 0x0 KECCAK256 DUP3 DUP2 SLOAD DUP2 LT PUSH2 0x3A3 JUMPI PUSH2 0x3A2 PUSH2 0x19F2 JUMP JUMPDEST JUMPDEST SWAP1 PUSH1 0x0 MSTORE PUSH1 0x20 PUSH1 0x0 KECCAK256 SWAP1 PUSH1 0x5 MUL ADD PUSH1 0x40 MLOAD DUP1 PUSH1 0xA0 ADD PUSH1 0x40 MSTORE SWAP1 DUP2 PUSH1 0x0 DUP3 ADD SLOAD DUP2 MSTORE PUSH1 0x20 ADD PUSH1 0x1 DUP3 ADD PUSH1 0x0 SWAP1 SLOAD SWAP1 PUSH2 0x100 EXP SWAP1 DIV PUSH20 0xFFFFFFFFFFFFFFFFFFFFFFFFFFFFFFFFFFFFFFFF AND PUSH20 0xFFFFFFFFFFFFFFFFFFFFFFFFFFFFFFFFFFFFFFFF AND PUSH20 0xFFFFFFFFFFFFFFFFFFFFFFFFFFFFFFFFFFFFFFFF AND DUP2 MSTORE PUSH1 0x20 ADD PUSH1 0x2 DUP3 ADD DUP1 SLOAD PUSH2 0x42C SWAP1 PUSH2 0x19C1 JUMP JUMPDEST DUP1 PUSH1 0x1F ADD PUSH1 0x20 DUP1 SWAP2 DIV MUL PUSH1 0x20 ADD PUSH1 0x40 MLOAD SWAP1 DUP2 ADD PUSH1 0x40 MSTORE DUP1 SWAP3 SWAP2 SWAP1 DUP2 DUP2 MSTORE PUSH1 0x20 ADD DUP3 DUP1 SLOAD PUSH2 0x458 SWAP1 PUSH2 0x19C1 JUMP JUMPDEST DUP1 ISZERO PUSH2 0x4A5 JUMPI DUP1 PUSH1 0x1F LT PUSH2 0x47A JUMPI PUSH2 0x100 DUP1 DUP4 SLOAD DIV MUL DUP4 MSTORE SWAP2 PUSH1 0x20 ADD SWAP2 PUSH2 0x4A5 JUMP JUMPDEST DUP3 ADD SWAP2 SWAP1 PUSH1 0x0 MSTORE PUSH1 0x20 PUSH1 0x0 KECCAK256 SWAP1 JUMPDEST DUP2 SLOAD DUP2 MSTORE SWAP1 PUSH1 0x1 ADD SWAP1 PUSH1 0x20 ADD DUP1 DUP4 GT PUSH2 0x488 JUMPI DUP3 SWAP1 SUB PUSH1 0x1F AND DUP3 ADD SWAP2 JUMPDEST POP POP POP POP POP DUP2 MSTORE PUSH1 0x20 ADD PUSH1 0x3 DUP3 ADD SLOAD DUP2 MSTORE PUSH1 0x20 ADD PUSH1 0x4 DUP3 ADD SLOAD DUP2 MSTORE POP POP SWAP1 POP SWAP3 SWAP2 POP POP JUMP JUMPDEST PUSH1 0x60 PUSH1 0x1 PUSH1 0x0 DUP4 PUSH20 0xFFFFFFFFFFFFFFFFFFFFFFFFFFFFFFFFFFFFFFFF AND PUSH20 0xFFFFFFFFFFFFFFFFFFFFFFFFFFFFFFFFFFFFFFFF AND DUP2 MSTORE PUSH1 0x20 ADD SWAP1 DUP2 MSTORE PUSH1 0x20 ADD PUSH1 0x0 KECCAK256 DUP1 SLOAD DUP1 PUSH1 0x20 MUL PUSH1 0x20 ADD PUSH1 0x40 MLOAD SWAP1 DUP2 ADD PUSH1 0x40 MSTORE DUP1 SWAP3 SWAP2 SWAP1 DUP2 DUP2 MSTORE PUSH1 0x20 ADD PUSH1 0x0 SWAP1 JUMPDEST DUP3 DUP3 LT ISZERO PUSH2 0x663 JUMPI DUP4 DUP3 SWAP1 PUSH1 0x0 MSTORE PUSH1 0x20 PUSH1 0x0 KECCAK256 SWAP1 PUSH1 0x5 MUL ADD PUSH1 0x40 MLOAD DUP1 PUSH1 0xA0 ADD PUSH1 0x40 MSTORE SWAP1 DUP2 PUSH1 0x0 DUP3 ADD SLOAD DUP2 MSTORE PUSH1 0x20 ADD PUSH1 0x1 DUP3 ADD PUSH1 0x0 SWAP1 SLOAD SWAP1 PUSH2 0x100 EXP SWAP1 DIV PUSH20 0xFFFFFFFFFFFFFFFFFFFFFFFFFFFFFFFFFFFFFFFF AND PUSH20 0xFFFFFFFFFFFFFFFFFFFFFFFFFFFFFFFFFFFFFFFF AND PUSH20 0xFFFFFFFFFFFFFFFFFFFFFFFFFFFFFFFFFFFFFFFF AND DUP2 MSTORE PUSH1 0x20 ADD PUSH1 0x2 DUP3 ADD DUP1 SLOAD PUSH2 0x5BE SWAP1 PUSH2 0x19C1 JUMP JUMPDEST DUP1 PUSH1 0x1F ADD PUSH1 0x20 DUP1 SWAP2 DIV MUL PUSH1 0x20 ADD PUSH1 0x40 MLOAD SWAP1 DUP2 ADD PUSH1 0x40 MSTORE DUP1 SWAP3 SWAP2 SWAP1 DUP2 DUP2 MSTORE PUSH1 0x20 ADD DUP3 DUP1 SLOAD PUSH2 0x5EA SWAP1 PUSH2 0x19C1 JUMP JUMPDEST DUP1 ISZERO PUSH2 0x637 JUMPI DUP1 PUSH1 0x1F LT PUSH2 0x60C JUMPI PUSH2 0x100 DUP1 DUP4 SLOAD DIV MUL DUP4 MSTORE SWAP2 PUSH1 0x20 ADD SWAP2 PUSH2 0x637 JUMP JUMPDEST DUP3 ADD SWAP2 SWAP1 PUSH1 0x0 MSTORE PUSH1 0x20 PUSH1 0x0 KECCAK256 SWAP1 JUMPDEST DUP2 SLOAD DUP2 MSTORE SWAP1 PUSH1 0x1 ADD SWAP1 PUSH1 0x20 ADD DUP1 DUP4 GT PUSH2 0x61A JUMPI DUP3 SWAP1 SUB PUSH1 0x1F AND DUP3 ADD SWAP2 JUMPDEST POP POP POP POP POP DUP2 MSTORE PUSH1 0x20 ADD PUSH1 0x3 DUP3 ADD SLOAD DUP2 MSTORE PUSH1 0x20 ADD PUSH1 0x4 DUP3 ADD SLOAD DUP2 MSTORE POP POP DUP2 MSTORE PUSH1 0x20 ADD SWAP1 PUSH1 0x1 ADD SWAP1 PUSH2 0x52B JUMP JUMPDEST POP POP POP POP SWAP1 POP SWAP2 SWAP1 POP JUMP JUMPDEST PUSH1 0x0 PUSH1 0x2 PUSH1 0x0 SWAP1 SLOAD SWAP1 PUSH2 0x100 EXP SWAP1 DIV PUSH20 0xFFFFFFFFFFFFFFFFFFFFFFFFFFFFFFFFFFFFFFFF AND PUSH20 0xFFFFFFFFFFFFFFFFFFFFFFFFFFFFFFFFFFFFFFFF AND PUSH4 0xF53A470 CALLER PUSH1 0x40 MLOAD DUP3 PUSH4 0xFFFFFFFF AND PUSH1 0xE0 SHL DUP2 MSTORE PUSH1 0x4 ADD PUSH2 0x6CB SWAP2 SWAP1 PUSH2 0x1977 JUMP JUMPDEST PUSH1 0x0 PUSH1 0x40 MLOAD DUP1 DUP4 SUB DUP2 DUP7 GAS STATICCALL ISZERO DUP1 ISZERO PUSH2 0x6E8 JUMPI RETURNDATASIZE PUSH1 0x0 DUP1 RETURNDATACOPY RETURNDATASIZE PUSH1 0x0 REVERT JUMPDEST POP POP POP POP PUSH1 0x40 MLOAD RETURNDATASIZE PUSH1 0x0 DUP3 RETURNDATACOPY RETURNDATASIZE PUSH1 0x1F NOT PUSH1 0x1F DUP3 ADD AND DUP3 ADD DUP1 PUSH1 0x40 MSTORE POP DUP2 ADD SWAP1 PUSH2 0x711 SWAP2 SWAP1 PUSH2 0x1B23 JUMP JUMPDEST SWAP1 POP PUSH1 0x0 DUP2 PUSH1 0x0 ADD MLOAD MLOAD GT PUSH2 0x75B JUMPI PUSH1 0x40 MLOAD PUSH32 0x8C379A000000000000000000000000000000000000000000000000000000000 DUP2 MSTORE PUSH1 0x4 ADD PUSH2 0x752 SWAP1 PUSH2 0x1BB8 JUMP JUMPDEST PUSH1 0x40 MLOAD DUP1 SWAP2 SUB SWAP1 REVERT JUMPDEST DUP2 PUSH1 0x1 PUSH1 0x0 DUP6 PUSH20 0xFFFFFFFFFFFFFFFFFFFFFFFFFFFFFFFFFFFFFFFF AND PUSH20 0xFFFFFFFFFFFFFFFFFFFFFFFFFFFFFFFFFFFFFFFF AND DUP2 MSTORE PUSH1 0x20 ADD SWAP1 DUP2 MSTORE PUSH1 0x20 ADD PUSH1 0x0 KECCAK256 DUP4 DUP2 SLOAD DUP2 LT PUSH2 0x7AD JUMPI PUSH2 0x7AC PUSH2 0x19F2 JUMP JUMPDEST JUMPDEST SWAP1 PUSH1 0x0 MSTORE PUSH1 0x20 PUSH1 0x0 KECCAK256 SWAP1 PUSH1 0x5 MUL ADD PUSH1 0x0 ADD SLOAD EQ PUSH2 0x7FF JUMPI PUSH1 0x40 MLOAD PUSH32 0x8C379A000000000000000000000000000000000000000000000000000000000 DUP2 MSTORE PUSH1 0x4 ADD PUSH2 0x7F6 SWAP1 PUSH2 0x1C24 JUMP JUMPDEST PUSH1 0x40 MLOAD DUP1 SWAP2 SUB SWAP1 REVERT JUMPDEST PUSH1 0x0 PUSH1 0x1 PUSH1 0x0 DUP6 PUSH20 0xFFFFFFFFFFFFFFFFFFFFFFFFFFFFFFFFFFFFFFFF AND PUSH20 0xFFFFFFFFFFFFFFFFFFFFFFFFFFFFFFFFFFFFFFFF AND DUP2 MSTORE PUSH1 0x20 ADD SWAP1 DUP2 MSTORE PUSH1 0x20 ADD PUSH1 0x0 KECCAK256 DUP4 DUP2 SLOAD DUP2 LT PUSH2 0x852 JUMPI PUSH2 0x851 PUSH2 0x19F2 JUMP JUMPDEST JUMPDEST SWAP1 PUSH1 0x0 MSTORE PUSH1 0x20 PUSH1 0x0 KECCAK256 SWAP1 PUSH1 0x5 MUL ADD PUSH1 0x4 ADD SLOAD GT PUSH2 0x8A4 JUMPI PUSH1 0x40 MLOAD PUSH32 0x8C379A000000000000000000000000000000000000000000000000000000000 DUP2 MSTORE PUSH1 0x4 ADD PUSH2 0x89B SWAP1 PUSH2 0x1C90 JUMP JUMPDEST PUSH1 0x40 MLOAD DUP1 SWAP2 SUB SWAP1 REVERT JUMPDEST PUSH1 0x1 PUSH1 0x0 DUP5 PUSH20 0xFFFFFFFFFFFFFFFFFFFFFFFFFFFFFFFFFFFFFFFF AND PUSH20 0xFFFFFFFFFFFFFFFFFFFFFFFFFFFFFFFFFFFFFFFF AND DUP2 MSTORE PUSH1 0x20 ADD SWAP1 DUP2 MSTORE PUSH1 0x20 ADD PUSH1 0x0 KECCAK256 DUP3 DUP2 SLOAD DUP2 LT PUSH2 0x8F5 JUMPI PUSH2 0x8F4 PUSH2 0x19F2 JUMP JUMPDEST JUMPDEST SWAP1 PUSH1 0x0 MSTORE PUSH1 0x20 PUSH1 0x0 KECCAK256 SWAP1 PUSH1 0x5 MUL ADD PUSH1 0x4 ADD PUSH1 0x0 DUP2 SLOAD DUP1 SWAP3 SWAP2 SWAP1 PUSH2 0x917 SWAP1 PUSH2 0x1CDF JUMP JUMPDEST SWAP2 SWAP1 POP SSTORE POP PUSH32 0x762C2616349603AC16EBA0DE8E6141B79129A07AB63BD99E0A80B3A471716943 CALLER DUP5 DUP5 PUSH1 0x1 PUSH1 0x0 DUP9 PUSH20 0xFFFFFFFFFFFFFFFFFFFFFFFFFFFFFFFFFFFFFFFF AND PUSH20 0xFFFFFFFFFFFFFFFFFFFFFFFFFFFFFFFFFFFFFFFF AND DUP2 MSTORE PUSH1 0x20 ADD SWAP1 DUP2 MSTORE PUSH1 0x20 ADD PUSH1 0x0 KECCAK256 DUP7 DUP2 SLOAD DUP2 LT PUSH2 0x991 JUMPI PUSH2 0x990 PUSH2 0x19F2 JUMP JUMPDEST JUMPDEST SWAP1 PUSH1 0x0 MSTORE PUSH1 0x20 PUSH1 0x0 KECCAK256 SWAP1 PUSH1 0x5 MUL ADD PUSH1 0x4 ADD SLOAD PUSH1 0x40 MLOAD PUSH2 0x9B3 SWAP5 SWAP4 SWAP3 SWAP2 SWAP1 PUSH2 0x1D08 JUMP JUMPDEST PUSH1 0x40 MLOAD DUP1 SWAP2 SUB SWAP1 LOG1 POP POP POP JUMP JUMPDEST PUSH2 0x9C8 PUSH2 0x1147 JUMP JUMPDEST DUP1 PUSH1 0x0 PUSH1 0x14 PUSH2 0x100 EXP DUP2 SLOAD DUP2 PUSH2 0xFFFF MUL NOT AND SWAP1 DUP4 PUSH2 0xFFFF AND MUL OR SWAP1 SSTORE POP POP JUMP JUMPDEST PUSH1 0x0 PUSH1 0x2 PUSH1 0x0 SWAP1 SLOAD SWAP1 PUSH2 0x100 EXP SWAP1 DIV PUSH20 0xFFFFFFFFFFFFFFFFFFFFFFFFFFFFFFFFFFFFFFFF AND PUSH20 0xFFFFFFFFFFFFFFFFFFFFFFFFFFFFFFFFFFFFFFFF AND PUSH4 0xF53A470 CALLER PUSH1 0x40 MLOAD DUP3 PUSH4 0xFFFFFFFF AND PUSH1 0xE0 SHL DUP2 MSTORE PUSH1 0x4 ADD PUSH2 0xA45 SWAP2 SWAP1 PUSH2 0x1977 JUMP JUMPDEST PUSH1 0x0 PUSH1 0x40 MLOAD DUP1 DUP4 SUB DUP2 DUP7 GAS STATICCALL ISZERO DUP1 ISZERO PUSH2 0xA62 JUMPI RETURNDATASIZE PUSH1 0x0 DUP1 RETURNDATACOPY RETURNDATASIZE PUSH1 0x0 REVERT JUMPDEST POP POP POP POP PUSH1 0x40 MLOAD RETURNDATASIZE PUSH1 0x0 DUP3 RETURNDATACOPY RETURNDATASIZE PUSH1 0x1F NOT PUSH1 0x1F DUP3 ADD AND DUP3 ADD DUP1 PUSH1 0x40 MSTORE POP DUP2 ADD SWAP1 PUSH2 0xA8B SWAP2 SWAP1 PUSH2 0x1B23 JUMP JUMPDEST SWAP1 POP PUSH1 0x0 DUP2 PUSH1 0x0 ADD MLOAD MLOAD GT PUSH2 0xAD5 JUMPI PUSH1 0x40 MLOAD PUSH32 0x8C379A000000000000000000000000000000000000000000000000000000000 DUP2 MSTORE PUSH1 0x4 ADD PUSH2 0xACC SWAP1 PUSH2 0x1BB8 JUMP JUMPDEST PUSH1 0x40 MLOAD DUP1 SWAP2 SUB SWAP1 REVERT JUMPDEST DUP2 PUSH1 0x1 PUSH1 0x0 DUP6 PUSH20 0xFFFFFFFFFFFFFFFFFFFFFFFFFFFFFFFFFFFFFFFF AND PUSH20 0xFFFFFFFFFFFFFFFFFFFFFFFFFFFFFFFFFFFFFFFF AND DUP2 MSTORE PUSH1 0x20 ADD SWAP1 DUP2 MSTORE PUSH1 0x20 ADD PUSH1 0x0 KECCAK256 DUP4 DUP2 SLOAD DUP2 LT PUSH2 0xB27 JUMPI PUSH2 0xB26 PUSH2 0x19F2 JUMP JUMPDEST JUMPDEST SWAP1 PUSH1 0x0 MSTORE PUSH1 0x20 PUSH1 0x0 KECCAK256 SWAP1 PUSH1 0x5 MUL ADD PUSH1 0x0 ADD SLOAD EQ PUSH2 0xB79 JUMPI PUSH1 0x40 MLOAD PUSH32 0x8C379A000000000000000000000000000000000000000000000000000000000 DUP2 MSTORE PUSH1 0x4 ADD PUSH2 0xB70 SWAP1 PUSH2 0x1C24 JUMP JUMPDEST PUSH1 0x40 MLOAD DUP1 SWAP2 SUB SWAP1 REVERT JUMPDEST PUSH1 0x1 PUSH1 0x0 DUP5 PUSH20 0xFFFFFFFFFFFFFFFFFFFFFFFFFFFFFFFFFFFFFFFF AND PUSH20 0xFFFFFFFFFFFFFFFFFFFFFFFFFFFFFFFFFFFFFFFF AND DUP2 MSTORE PUSH1 0x20 ADD SWAP1 DUP2 MSTORE PUSH1 0x20 ADD PUSH1 0x0 KECCAK256 DUP3 DUP2 SLOAD DUP2 LT PUSH2 0xBCA JUMPI PUSH2 0xBC9 PUSH2 0x19F2 JUMP JUMPDEST JUMPDEST SWAP1 PUSH1 0x0 MSTORE PUSH1 0x20 PUSH1 0x0 KECCAK256 SWAP1 PUSH1 0x5 MUL ADD PUSH1 0x4 ADD PUSH1 0x0 DUP2 SLOAD DUP1 SWAP3 SWAP2 SWAP1 PUSH2 0xBEC SWAP1 PUSH2 0x1D4D JUMP JUMPDEST SWAP2 SWAP1 POP SSTORE POP PUSH32 0xE8A76FC0F16D11A00D1E93B689B63D76CF60AF914DD3D915375DC41D01A0C3C8 CALLER DUP5 DUP5 PUSH1 0x1 PUSH1 0x0 DUP9 PUSH20 0xFFFFFFFFFFFFFFFFFFFFFFFFFFFFFFFFFFFFFFFF AND PUSH20 0xFFFFFFFFFFFFFFFFFFFFFFFFFFFFFFFFFFFFFFFF AND DUP2 MSTORE PUSH1 0x20 ADD SWAP1 DUP2 MSTORE PUSH1 0x20 ADD PUSH1 0x0 KECCAK256 DUP7 DUP2 SLOAD DUP2 LT PUSH2 0xC66 JUMPI PUSH2 0xC65 PUSH2 0x19F2 JUMP JUMPDEST JUMPDEST SWAP1 PUSH1 0x0 MSTORE PUSH1 0x20 PUSH1 0x0 KECCAK256 SWAP1 PUSH1 0x5 MUL ADD PUSH1 0x4 ADD SLOAD PUSH1 0x40 MLOAD PUSH2 0xC88 SWAP5 SWAP4 SWAP3 SWAP2 SWAP1 PUSH2 0x1D08 JUMP JUMPDEST PUSH1 0x40 MLOAD DUP1 SWAP2 SUB SWAP1 LOG1 POP POP POP JUMP JUMPDEST PUSH1 0x0 PUSH1 0x14 SWAP1 SLOAD SWAP1 PUSH2 0x100 EXP SWAP1 DIV PUSH2 0xFFFF AND DUP2 JUMP JUMPDEST PUSH2 0xCB1 PUSH2 0x1147 JUMP JUMPDEST PUSH2 0xCBB PUSH1 0x0 PUSH2 0x11C5 JUMP JUMPDEST JUMP JUMPDEST PUSH1 0x0 PUSH1 0x2 PUSH1 0x0 SWAP1 SLOAD SWAP1 PUSH2 0x100 EXP SWAP1 DIV PUSH20 0xFFFFFFFFFFFFFFFFFFFFFFFFFFFFFFFFFFFFFFFF AND PUSH20 0xFFFFFFFFFFFFFFFFFFFFFFFFFFFFFFFFFFFFFFFF AND PUSH4 0xF53A470 CALLER PUSH1 0x40 MLOAD DUP3 PUSH4 0xFFFFFFFF AND PUSH1 0xE0 SHL DUP2 MSTORE PUSH1 0x4 ADD PUSH2 0xD1A SWAP2 SWAP1 PUSH2 0x1977 JUMP JUMPDEST PUSH1 0x0 PUSH1 0x40 MLOAD DUP1 DUP4 SUB DUP2 DUP7 GAS STATICCALL ISZERO DUP1 ISZERO PUSH2 0xD37 JUMPI RETURNDATASIZE PUSH1 0x0 DUP1 RETURNDATACOPY RETURNDATASIZE PUSH1 0x0 REVERT JUMPDEST POP POP POP POP PUSH1 0x40 MLOAD RETURNDATASIZE PUSH1 0x0 DUP3 RETURNDATACOPY RETURNDATASIZE PUSH1 0x1F NOT PUSH1 0x1F DUP3 ADD AND DUP3 ADD DUP1 PUSH1 0x40 MSTORE POP DUP2 ADD SWAP1 PUSH2 0xD60 SWAP2 SWAP1 PUSH2 0x1B23 JUMP JUMPDEST SWAP1 POP PUSH1 0x0 DUP2 PUSH1 0x0 ADD MLOAD MLOAD GT PUSH2 0xDAA JUMPI PUSH1 0x40 MLOAD PUSH32 0x8C379A000000000000000000000000000000000000000000000000000000000 DUP2 MSTORE PUSH1 0x4 ADD PUSH2 0xDA1 SWAP1 PUSH2 0x1BB8 JUMP JUMPDEST PUSH1 0x40 MLOAD DUP1 SWAP2 SUB SWAP1 REVERT JUMPDEST PUSH1 0x0 PUSH1 0x14 SWAP1 SLOAD SWAP1 PUSH2 0x100 EXP SWAP1 DIV PUSH2 0xFFFF AND PUSH2 0xFFFF AND DUP3 MLOAD GT ISZERO PUSH2 0xE02 JUMPI PUSH1 0x40 MLOAD PUSH32 0x8C379A000000000000000000000000000000000000000000000000000000000 DUP2 MSTORE PUSH1 0x4 ADD PUSH2 0xDF9 SWAP1 PUSH2 0x1DE1 JUMP JUMPDEST PUSH1 0x40 MLOAD DUP1 SWAP2 SUB SWAP1 REVERT JUMPDEST PUSH1 0x0 PUSH1 0x40 MLOAD DUP1 PUSH1 0xA0 ADD PUSH1 0x40 MSTORE DUP1 PUSH1 0x1 PUSH1 0x0 CALLER PUSH20 0xFFFFFFFFFFFFFFFFFFFFFFFFFFFFFFFFFFFFFFFF AND PUSH20 0xFFFFFFFFFFFFFFFFFFFFFFFFFFFFFFFFFFFFFFFF AND DUP2 MSTORE PUSH1 0x20 ADD SWAP1 DUP2 MSTORE PUSH1 0x20 ADD PUSH1 0x0 KECCAK256 DUP1 SLOAD SWAP1 POP DUP2 MSTORE PUSH1 0x20 ADD CALLER PUSH20 0xFFFFFFFFFFFFFFFFFFFFFFFFFFFFFFFFFFFFFFFF AND DUP2 MSTORE PUSH1 0x20 ADD DUP5 DUP2 MSTORE PUSH1 0x20 ADD TIMESTAMP DUP2 MSTORE PUSH1 0x20 ADD PUSH1 0x0 DUP2 MSTORE POP SWAP1 POP PUSH1 0x1 PUSH1 0x0 CALLER PUSH20 0xFFFFFFFFFFFFFFFFFFFFFFFFFFFFFFFFFFFFFFFF AND PUSH20 0xFFFFFFFFFFFFFFFFFFFFFFFFFFFFFFFFFFFFFFFF AND DUP2 MSTORE PUSH1 0x20 ADD SWAP1 DUP2 MSTORE PUSH1 0x20 ADD PUSH1 0x0 KECCAK256 DUP2 SWAP1 DUP1 PUSH1 0x1 DUP2 SLOAD ADD DUP1 DUP3 SSTORE DUP1 SWAP2 POP POP PUSH1 0x1 SWAP1 SUB SWAP1 PUSH1 0x0 MSTORE PUSH1 0x20 PUSH1 0x0 KECCAK256 SWAP1 PUSH1 0x5 MUL ADD PUSH1 0x0 SWAP1 SWAP2 SWAP1 SWAP2 SWAP1 SWAP2 POP PUSH1 0x0 DUP3 ADD MLOAD DUP2 PUSH1 0x0 ADD SSTORE PUSH1 0x20 DUP3 ADD MLOAD DUP2 PUSH1 0x1 ADD PUSH1 0x0 PUSH2 0x100 EXP DUP2 SLOAD DUP2 PUSH20 0xFFFFFFFFFFFFFFFFFFFFFFFFFFFFFFFFFFFFFFFF MUL NOT AND SWAP1 DUP4 PUSH20 0xFFFFFFFFFFFFFFFFFFFFFFFFFFFFFFFFFFFFFFFF AND MUL OR SWAP1 SSTORE POP PUSH1 0x40 DUP3 ADD MLOAD DUP2 PUSH1 0x2 ADD SWAP1 DUP2 PUSH2 0xF55 SWAP2 SWAP1 PUSH2 0x1FAD JUMP JUMPDEST POP PUSH1 0x60 DUP3 ADD MLOAD DUP2 PUSH1 0x3 ADD SSTORE PUSH1 0x80 DUP3 ADD MLOAD DUP2 PUSH1 0x4 ADD SSTORE POP POP PUSH32 0x16FD3C13E9D46923E0A8BCE11C7B473EC508A72E6C96CD2404B29CE972AFC29E DUP2 PUSH1 0x0 ADD MLOAD DUP3 PUSH1 0x20 ADD MLOAD DUP4 PUSH1 0x40 ADD MLOAD DUP5 PUSH1 0x60 ADD MLOAD PUSH1 0x40 MLOAD PUSH2 0xFB1 SWAP5 SWAP4 SWAP3 SWAP2 SWAP1 PUSH2 0x207F JUMP JUMPDEST PUSH1 0x40 MLOAD DUP1 SWAP2 SUB SWAP1 LOG1 POP POP POP JUMP JUMPDEST PUSH1 0x0 DUP1 PUSH1 0x0 JUMPDEST PUSH1 0x1 PUSH1 0x0 DUP6 PUSH20 0xFFFFFFFFFFFFFFFFFFFFFFFFFFFFFFFFFFFFFFFF AND PUSH20 0xFFFFFFFFFFFFFFFFFFFFFFFFFFFFFFFFFFFFFFFF AND DUP2 MSTORE PUSH1 0x20 ADD SWAP1 DUP2 MSTORE PUSH1 0x20 ADD PUSH1 0x0 KECCAK256 DUP1 SLOAD SWAP1 POP DUP2 LT ISZERO PUSH2 0x1091 JUMPI PUSH1 0x1 PUSH1 0x0 DUP6 PUSH20 0xFFFFFFFFFFFFFFFFFFFFFFFFFFFFFFFFFFFFFFFF AND PUSH20 0xFFFFFFFFFFFFFFFFFFFFFFFFFFFFFFFFFFFFFFFF AND DUP2 MSTORE PUSH1 0x20 ADD SWAP1 DUP2 MSTORE PUSH1 0x20 ADD PUSH1 0x0 KECCAK256 DUP2 DUP2 SLOAD DUP2 LT PUSH2 0x105F JUMPI PUSH2 0x105E PUSH2 0x19F2 JUMP JUMPDEST JUMPDEST SWAP1 PUSH1 0x0 MSTORE PUSH1 0x20 PUSH1 0x0 KECCAK256 SWAP1 PUSH1 0x5 MUL ADD PUSH1 0x4 ADD SLOAD DUP3 PUSH2 0x107C SWAP2 SWAP1 PUSH2 0x20CB JUMP JUMPDEST SWAP2 POP DUP1 DUP1 PUSH2 0x1089 SWAP1 PUSH2 0x1D4D JUMP JUMPDEST SWAP2 POP POP PUSH2 0xFC4 JUMP JUMPDEST POP DUP1 SWAP2 POP POP SWAP2 SWAP1 POP JUMP JUMPDEST PUSH1 0x0 DUP1 PUSH1 0x0 SWAP1 SLOAD SWAP1 PUSH2 0x100 EXP SWAP1 DIV PUSH20 0xFFFFFFFFFFFFFFFFFFFFFFFFFFFFFFFFFFFFFFFF AND SWAP1 POP SWAP1 JUMP JUMPDEST PUSH2 0x10CC PUSH2 0x1147 JUMP JUMPDEST PUSH1 0x0 PUSH20 0xFFFFFFFFFFFFFFFFFFFFFFFFFFFFFFFFFFFFFFFF AND DUP2 PUSH20 0xFFFFFFFFFFFFFFFFFFFFFFFFFFFFFFFFFFFFFFFF AND SUB PUSH2 0x113B JUMPI PUSH1 0x40 MLOAD PUSH32 0x8C379A000000000000000000000000000000000000000000000000000000000 DUP2 MSTORE PUSH1 0x4 ADD PUSH2 0x1132 SWAP1 PUSH2 0x2171 JUMP JUMPDEST PUSH1 0x40 MLOAD DUP1 SWAP2 SUB SWAP1 REVERT JUMPDEST PUSH2 0x1144 DUP2 PUSH2 0x11C5 JUMP JUMPDEST POP JUMP JUMPDEST PUSH2 0x114F PUSH2 0x1289 JUMP JUMPDEST PUSH20 0xFFFFFFFFFFFFFFFFFFFFFFFFFFFFFFFFFFFFFFFF AND PUSH2 0x116D PUSH2 0x109B JUMP JUMPDEST PUSH20 0xFFFFFFFFFFFFFFFFFFFFFFFFFFFFFFFFFFFFFFFF AND EQ PUSH2 0x11C3 JUMPI PUSH1 0x40 MLOAD PUSH32 0x8C379A000000000000000000000000000000000000000000000000000000000 DUP2 MSTORE PUSH1 0x4 ADD PUSH2 0x11BA SWAP1 PUSH2 0x21DD JUMP JUMPDEST PUSH1 0x40 MLOAD DUP1 SWAP2 SUB SWAP1 REVERT JUMPDEST JUMP JUMPDEST PUSH1 0x0 DUP1 PUSH1 0x0 SWAP1 SLOAD SWAP1 PUSH2 0x100 EXP SWAP1 DIV PUSH20 0xFFFFFFFFFFFFFFFFFFFFFFFFFFFFFFFFFFFFFFFF AND SWAP1 POP DUP2 PUSH1 0x0 DUP1 PUSH2 0x100 EXP DUP2 SLOAD DUP2 PUSH20 0xFFFFFFFFFFFFFFFFFFFFFFFFFFFFFFFFFFFFFFFF MUL NOT AND SWAP1 DUP4 PUSH20 0xFFFFFFFFFFFFFFFFFFFFFFFFFFFFFFFFFFFFFFFF AND MUL OR SWAP1 SSTORE POP DUP2 PUSH20 0xFFFFFFFFFFFFFFFFFFFFFFFFFFFFFFFFFFFFFFFF AND DUP2 PUSH20 0xFFFFFFFFFFFFFFFFFFFFFFFFFFFFFFFFFFFFFFFF AND PUSH32 0x8BE0079C531659141344CD1FD0A4F28419497F9722A3DAAFE3B4186F6B6457E0 PUSH1 0x40 MLOAD PUSH1 0x40 MLOAD DUP1 SWAP2 SUB SWAP1 LOG3 POP POP JUMP JUMPDEST PUSH1 0x0 CALLER SWAP1 POP SWAP1 JUMP JUMPDEST PUSH1 0x40 MLOAD DUP1 PUSH1 0xA0 ADD PUSH1 0x40 MSTORE DUP1 PUSH1 0x0 DUP2 MSTORE PUSH1 0x20 ADD PUSH1 0x0 PUSH20 0xFFFFFFFFFFFFFFFFFFFFFFFFFFFFFFFFFFFFFFFF AND DUP2 MSTORE PUSH1 0x20 ADD PUSH1 0x60 DUP2 MSTORE PUSH1 0x20 ADD PUSH1 0x0 DUP2 MSTORE PUSH1 0x20 ADD PUSH1 0x0 DUP2 MSTORE POP SWAP1 JUMP JUMPDEST PUSH1 0x0 PUSH1 0x40 MLOAD SWAP1 POP SWAP1 JUMP JUMPDEST PUSH1 0x0 DUP1 REVERT JUMPDEST PUSH1 0x0 DUP1 REVERT JUMPDEST PUSH1 0x0 PUSH20 0xFFFFFFFFFFFFFFFFFFFFFFFFFFFFFFFFFFFFFFFF DUP3 AND SWAP1 POP SWAP2 SWAP1 POP JUMP JUMPDEST PUSH1 0x0 PUSH2 0x1315 DUP3 PUSH2 0x12EA JUMP JUMPDEST SWAP1 POP SWAP2 SWAP1 POP JUMP JUMPDEST PUSH2 0x1325 DUP2 PUSH2 0x130A JUMP JUMPDEST DUP2 EQ PUSH2 0x1330 JUMPI PUSH1 0x0 DUP1 REVERT JUMPDEST POP JUMP JUMPDEST PUSH1 0x0 DUP2 CALLDATALOAD SWAP1 POP PUSH2 0x1342 DUP2 PUSH2 0x131C JUMP JUMPDEST SWAP3 SWAP2 POP POP JUMP JUMPDEST PUSH1 0x0 DUP2 SWAP1 POP SWAP2 SWAP1 POP JUMP JUMPDEST PUSH2 0x135B DUP2 PUSH2 0x1348 JUMP JUMPDEST DUP2 EQ PUSH2 0x1366 JUMPI PUSH1 0x0 DUP1 REVERT JUMPDEST POP JUMP JUMPDEST PUSH1 0x0 DUP2 CALLDATALOAD SWAP1 POP PUSH2 0x1378 DUP2 PUSH2 0x1352 JUMP JUMPDEST SWAP3 SWAP2 POP POP JUMP JUMPDEST PUSH1 0x0 DUP1 PUSH1 0x40 DUP4 DUP6 SUB SLT ISZERO PUSH2 0x1395 JUMPI PUSH2 0x1394 PUSH2 0x12E0 JUMP JUMPDEST JUMPDEST PUSH1 0x0 PUSH2 0x13A3 DUP6 DUP3 DUP7 ADD PUSH2 0x1333 JUMP JUMPDEST SWAP3 POP POP PUSH1 0x20 PUSH2 0x13B4 DUP6 DUP3 DUP7 ADD PUSH2 0x1369 JUMP JUMPDEST SWAP2 POP POP SWAP3 POP SWAP3 SWAP1 POP JUMP JUMPDEST PUSH2 0x13C7 DUP2 PUSH2 0x1348 JUMP JUMPDEST DUP3 MSTORE POP POP JUMP JUMPDEST PUSH2 0x13D6 DUP2 PUSH2 0x130A JUMP JUMPDEST DUP3 MSTORE POP POP JUMP JUMPDEST PUSH1 0x0 DUP2 MLOAD SWAP1 POP SWAP2 SWAP1 POP JUMP JUMPDEST PUSH1 0x0 DUP3 DUP3 MSTORE PUSH1 0x20 DUP3 ADD SWAP1 POP SWAP3 SWAP2 POP POP JUMP JUMPDEST PUSH1 0x0 JUMPDEST DUP4 DUP2 LT ISZERO PUSH2 0x1416 JUMPI DUP1 DUP3 ADD MLOAD DUP2 DUP5 ADD MSTORE PUSH1 0x20 DUP2 ADD SWAP1 POP PUSH2 0x13FB JUMP JUMPDEST PUSH1 0x0 DUP5 DUP5 ADD MSTORE POP POP POP POP JUMP JUMPDEST PUSH1 0x0 PUSH1 0x1F NOT PUSH1 0x1F DUP4 ADD AND SWAP1 POP SWAP2 SWAP1 POP JUMP JUMPDEST PUSH1 0x0 PUSH2 0x143E DUP3 PUSH2 0x13DC JUMP JUMPDEST PUSH2 0x1448 DUP2 DUP6 PUSH2 0x13E7 JUMP JUMPDEST SWAP4 POP PUSH2 0x1458 DUP2 DUP6 PUSH1 0x20 DUP7 ADD PUSH2 0x13F8 JUMP JUMPDEST PUSH2 0x1461 DUP2 PUSH2 0x1422 JUMP JUMPDEST DUP5 ADD SWAP2 POP POP SWAP3 SWAP2 POP POP JUMP JUMPDEST PUSH1 0x0 PUSH1 0xA0 DUP3 ADD SWAP1 POP PUSH2 0x1481 PUSH1 0x0 DUP4 ADD DUP9 PUSH2 0x13BE JUMP JUMPDEST PUSH2 0x148E PUSH1 0x20 DUP4 ADD DUP8 PUSH2 0x13CD JUMP JUMPDEST DUP2 DUP2 SUB PUSH1 0x40 DUP4 ADD MSTORE PUSH2 0x14A0 DUP2 DUP7 PUSH2 0x1433 JUMP JUMPDEST SWAP1 POP PUSH2 0x14AF PUSH1 0x60 DUP4 ADD DUP6 PUSH2 0x13BE JUMP JUMPDEST PUSH2 0x14BC PUSH1 0x80 DUP4 ADD DUP5 PUSH2 0x13BE JUMP JUMPDEST SWAP7 SWAP6 POP POP POP POP POP POP JUMP JUMPDEST PUSH2 0x14CF DUP2 PUSH2 0x1348 JUMP JUMPDEST DUP3 MSTORE POP POP JUMP JUMPDEST PUSH2 0x14DE DUP2 PUSH2 0x130A JUMP JUMPDEST DUP3 MSTORE POP POP JUMP JUMPDEST PUSH1 0x0 DUP3 DUP3 MSTORE PUSH1 0x20 DUP3 ADD SWAP1 POP SWAP3 SWAP2 POP POP JUMP JUMPDEST PUSH1 0x0 PUSH2 0x1500 DUP3 PUSH2 0x13DC JUMP JUMPDEST PUSH2 0x150A DUP2 DUP6 PUSH2 0x14E4 JUMP JUMPDEST SWAP4 POP PUSH2 0x151A DUP2 DUP6 PUSH1 0x20 DUP7 ADD PUSH2 0x13F8 JUMP JUMPDEST PUSH2 0x1523 DUP2 PUSH2 0x1422 JUMP JUMPDEST DUP5 ADD SWAP2 POP POP SWAP3 SWAP2 POP POP JUMP JUMPDEST PUSH1 0x0 PUSH1 0xA0 DUP4 ADD PUSH1 0x0 DUP4 ADD MLOAD PUSH2 0x1546 PUSH1 0x0 DUP7 ADD DUP3 PUSH2 0x14C6 JUMP JUMPDEST POP PUSH1 0x20 DUP4 ADD MLOAD PUSH2 0x1559 PUSH1 0x20 DUP7 ADD DUP3 PUSH2 0x14D5 JUMP JUMPDEST POP PUSH1 0x40 DUP4 ADD MLOAD DUP5 DUP3 SUB PUSH1 0x40 DUP7 ADD MSTORE PUSH2 0x1571 DUP3 DUP3 PUSH2 0x14F5 JUMP JUMPDEST SWAP2 POP POP PUSH1 0x60 DUP4 ADD MLOAD PUSH2 0x1586 PUSH1 0x60 DUP7 ADD DUP3 PUSH2 0x14C6 JUMP JUMPDEST POP PUSH1 0x80 DUP4 ADD MLOAD PUSH2 0x1599 PUSH1 0x80 DUP7 ADD DUP3 PUSH2 0x14C6 JUMP JUMPDEST POP DUP1 SWAP2 POP POP SWAP3 SWAP2 POP POP JUMP JUMPDEST PUSH1 0x0 PUSH1 0x20 DUP3 ADD SWAP1 POP DUP2 DUP2 SUB PUSH1 0x0 DUP4 ADD MSTORE PUSH2 0x15BE DUP2 DUP5 PUSH2 0x152E JUMP JUMPDEST SWAP1 POP SWAP3 SWAP2 POP POP JUMP JUMPDEST PUSH1 0x0 PUSH1 0x20 DUP3 DUP5 SUB SLT ISZERO PUSH2 0x15DC JUMPI PUSH2 0x15DB PUSH2 0x12E0 JUMP JUMPDEST JUMPDEST PUSH1 0x0 PUSH2 0x15EA DUP5 DUP3 DUP6 ADD PUSH2 0x1333 JUMP JUMPDEST SWAP2 POP POP SWAP3 SWAP2 POP POP JUMP JUMPDEST PUSH1 0x0 DUP2 MLOAD SWAP1 POP SWAP2 SWAP1 POP JUMP JUMPDEST PUSH1 0x0 DUP3 DUP3 MSTORE PUSH1 0x20 DUP3 ADD SWAP1 POP SWAP3 SWAP2 POP POP JUMP JUMPDEST PUSH1 0x0 DUP2 SWAP1 POP PUSH1 0x20 DUP3 ADD SWAP1 POP SWAP2 SWAP1 POP JUMP JUMPDEST PUSH1 0x0 PUSH1 0xA0 DUP4 ADD PUSH1 0x0 DUP4 ADD MLOAD PUSH2 0x1637 PUSH1 0x0 DUP7 ADD DUP3 PUSH2 0x14C6 JUMP JUMPDEST POP PUSH1 0x20 DUP4 ADD MLOAD PUSH2 0x164A PUSH1 0x20 DUP7 ADD DUP3 PUSH2 0x14D5 JUMP JUMPDEST POP PUSH1 0x40 DUP4 ADD MLOAD DUP5 DUP3 SUB PUSH1 0x40 DUP7 ADD MSTORE PUSH2 0x1662 DUP3 DUP3 PUSH2 0x14F5 JUMP JUMPDEST SWAP2 POP POP PUSH1 0x60 DUP4 ADD MLOAD PUSH2 0x1677 PUSH1 0x60 DUP7 ADD DUP3 PUSH2 0x14C6 JUMP JUMPDEST POP PUSH1 0x80 DUP4 ADD MLOAD PUSH2 0x168A PUSH1 0x80 DUP7 ADD DUP3 PUSH2 0x14C6 JUMP JUMPDEST POP DUP1 SWAP2 POP POP SWAP3 SWAP2 POP POP JUMP JUMPDEST PUSH1 0x0 PUSH2 0x16A1 DUP4 DUP4 PUSH2 0x161F JUMP JUMPDEST SWAP1 POP SWAP3 SWAP2 POP POP JUMP JUMPDEST PUSH1 0x0 PUSH1 0x20 DUP3 ADD SWAP1 POP SWAP2 SWAP1 POP JUMP JUMPDEST PUSH1 0x0 PUSH2 0x16C1 DUP3 PUSH2 0x15F3 JUMP JUMPDEST PUSH2 0x16CB DUP2 DUP6 PUSH2 0x15FE JUMP JUMPDEST SWAP4 POP DUP4 PUSH1 0x20 DUP3 MUL DUP6 ADD PUSH2 0x16DD DUP6 PUSH2 0x160F JUMP JUMPDEST DUP1 PUSH1 0x0 JUMPDEST DUP6 DUP2 LT ISZERO PUSH2 0x1719 JUMPI DUP5 DUP5 SUB DUP10 MSTORE DUP2 MLOAD PUSH2 0x16FA DUP6 DUP3 PUSH2 0x1695 JUMP JUMPDEST SWAP5 POP PUSH2 0x1705 DUP4 PUSH2 0x16A9 JUMP JUMPDEST SWAP3 POP PUSH1 0x20 DUP11 ADD SWAP10 POP POP PUSH1 0x1 DUP2 ADD SWAP1 POP PUSH2 0x16E1 JUMP JUMPDEST POP DUP3 SWAP8 POP DUP8 SWAP6 POP POP POP POP POP POP SWAP3 SWAP2 POP POP JUMP JUMPDEST PUSH1 0x0 PUSH1 0x20 DUP3 ADD SWAP1 POP DUP2 DUP2 SUB PUSH1 0x0 DUP4 ADD MSTORE PUSH2 0x1745 DUP2 DUP5 PUSH2 0x16B6 JUMP JUMPDEST SWAP1 POP SWAP3 SWAP2 POP POP JUMP JUMPDEST PUSH1 0x0 PUSH2 0xFFFF DUP3 AND SWAP1 POP SWAP2 SWAP1 POP JUMP JUMPDEST PUSH2 0x1764 DUP2 PUSH2 0x174D JUMP JUMPDEST DUP2 EQ PUSH2 0x176F JUMPI PUSH1 0x0 DUP1 REVERT JUMPDEST POP JUMP JUMPDEST PUSH1 0x0 DUP2 CALLDATALOAD SWAP1 POP PUSH2 0x1781 DUP2 PUSH2 0x175B JUMP JUMPDEST SWAP3 SWAP2 POP POP JUMP JUMPDEST PUSH1 0x0 PUSH1 0x20 DUP3 DUP5 SUB SLT ISZERO PUSH2 0x179D JUMPI PUSH2 0x179C PUSH2 0x12E0 JUMP JUMPDEST JUMPDEST PUSH1 0x0 PUSH2 0x17AB DUP5 DUP3 DUP6 ADD PUSH2 0x1772 JUMP JUMPDEST SWAP2 POP POP SWAP3 SWAP2 POP POP JUMP JUMPDEST PUSH2 0x17BD DUP2 PUSH2 0x174D JUMP JUMPDEST DUP3 MSTORE POP POP JUMP JUMPDEST PUSH1 0x0 PUSH1 0x20 DUP3 ADD SWAP1 POP PUSH2 0x17D8 PUSH1 0x0 DUP4 ADD DUP5 PUSH2 0x17B4 JUMP JUMPDEST SWAP3 SWAP2 POP POP JUMP JUMPDEST PUSH1 0x0 DUP1 REVERT JUMPDEST PUSH1 0x0 DUP1 REVERT JUMPDEST PUSH32 0x4E487B7100000000000000000000000000000000000000000000000000000000 PUSH1 0x0 MSTORE PUSH1 0x41 PUSH1 0x4 MSTORE PUSH1 0x24 PUSH1 0x0 REVERT JUMPDEST PUSH2 0x1820 DUP3 PUSH2 0x1422 JUMP JUMPDEST DUP2 ADD DUP2 DUP2 LT PUSH8 0xFFFFFFFFFFFFFFFF DUP3 GT OR ISZERO PUSH2 0x183F JUMPI PUSH2 0x183E PUSH2 0x17E8 JUMP JUMPDEST JUMPDEST DUP1 PUSH1 0x40 MSTORE POP POP POP JUMP JUMPDEST PUSH1 0x0 PUSH2 0x1852 PUSH2 0x12D6 JUMP JUMPDEST SWAP1 POP PUSH2 0x185E DUP3 DUP3 PUSH2 0x1817 JUMP JUMPDEST SWAP2 SWAP1 POP JUMP JUMPDEST PUSH1 0x0 PUSH8 0xFFFFFFFFFFFFFFFF DUP3 GT ISZERO PUSH2 0x187E JUMPI PUSH2 0x187D PUSH2 0x17E8 JUMP JUMPDEST JUMPDEST PUSH2 0x1887 DUP3 PUSH2 0x1422 JUMP JUMPDEST SWAP1 POP PUSH1 0x20 DUP2 ADD SWAP1 POP SWAP2 SWAP1 POP JUMP JUMPDEST DUP3 DUP2 DUP4 CALLDATACOPY PUSH1 0x0 DUP4 DUP4 ADD MSTORE POP POP POP JUMP JUMPDEST PUSH1 0x0 PUSH2 0x18B6 PUSH2 0x18B1 DUP5 PUSH2 0x1863 JUMP JUMPDEST PUSH2 0x1848 JUMP JUMPDEST SWAP1 POP DUP3 DUP2 MSTORE PUSH1 0x20 DUP2 ADD DUP5 DUP5 DUP5 ADD GT ISZERO PUSH2 0x18D2 JUMPI PUSH2 0x18D1 PUSH2 0x17E3 JUMP JUMPDEST JUMPDEST PUSH2 0x18DD DUP5 DUP3 DUP6 PUSH2 0x1894 JUMP JUMPDEST POP SWAP4 SWAP3 POP POP POP JUMP JUMPDEST PUSH1 0x0 DUP3 PUSH1 0x1F DUP4 ADD SLT PUSH2 0x18FA JUMPI PUSH2 0x18F9 PUSH2 0x17DE JUMP JUMPDEST JUMPDEST DUP2 CALLDATALOAD PUSH2 0x190A DUP5 DUP3 PUSH1 0x20 DUP7 ADD PUSH2 0x18A3 JUMP JUMPDEST SWAP2 POP POP SWAP3 SWAP2 POP POP JUMP JUMPDEST PUSH1 0x0 PUSH1 0x20 DUP3 DUP5 SUB SLT ISZERO PUSH2 0x1929 JUMPI PUSH2 0x1928 PUSH2 0x12E0 JUMP JUMPDEST JUMPDEST PUSH1 0x0 DUP3 ADD CALLDATALOAD PUSH8 0xFFFFFFFFFFFFFFFF DUP2 GT ISZERO PUSH2 0x1947 JUMPI PUSH2 0x1946 PUSH2 0x12E5 JUMP JUMPDEST JUMPDEST PUSH2 0x1953 DUP5 DUP3 DUP6 ADD PUSH2 0x18E5 JUMP JUMPDEST SWAP2 POP POP SWAP3 SWAP2 POP POP JUMP JUMPDEST PUSH1 0x0 PUSH1 0x20 DUP3 ADD SWAP1 POP PUSH2 0x1971 PUSH1 0x0 DUP4 ADD DUP5 PUSH2 0x13BE JUMP JUMPDEST SWAP3 SWAP2 POP POP JUMP JUMPDEST PUSH1 0x0 PUSH1 0x20 DUP3 ADD SWAP1 POP PUSH2 0x198C PUSH1 0x0 DUP4 ADD DUP5 PUSH2 0x13CD JUMP JUMPDEST SWAP3 SWAP2 POP POP JUMP JUMPDEST PUSH32 0x4E487B7100000000000000000000000000000000000000000000000000000000 PUSH1 0x0 MSTORE PUSH1 0x22 PUSH1 0x4 MSTORE PUSH1 0x24 PUSH1 0x0 REVERT JUMPDEST PUSH1 0x0 PUSH1 0x2 DUP3 DIV SWAP1 POP PUSH1 0x1 DUP3 AND DUP1 PUSH2 0x19D9 JUMPI PUSH1 0x7F DUP3 AND SWAP2 POP JUMPDEST PUSH1 0x20 DUP3 LT DUP2 SUB PUSH2 0x19EC JUMPI PUSH2 0x19EB PUSH2 0x1992 JUMP JUMPDEST JUMPDEST POP SWAP2 SWAP1 POP JUMP JUMPDEST PUSH32 0x4E487B7100000000000000000000000000000000000000000000000000000000 PUSH1 0x0 MSTORE PUSH1 0x32 PUSH1 0x4 MSTORE PUSH1 0x24 PUSH1 0x0 REVERT JUMPDEST PUSH1 0x0 DUP1 REVERT JUMPDEST PUSH1 0x0 DUP1 REVERT JUMPDEST PUSH1 0x0 PUSH2 0x1A3E PUSH2 0x1A39 DUP5 PUSH2 0x1863 JUMP JUMPDEST PUSH2 0x1848 JUMP JUMPDEST SWAP1 POP DUP3 DUP2 MSTORE PUSH1 0x20 DUP2 ADD DUP5 DUP5 DUP5 ADD GT ISZERO PUSH2 0x1A5A JUMPI PUSH2 0x1A59 PUSH2 0x17E3 JUMP JUMPDEST JUMPDEST PUSH2 0x1A65 DUP5 DUP3 DUP6 PUSH2 0x13F8 JUMP JUMPDEST POP SWAP4 SWAP3 POP POP POP JUMP JUMPDEST PUSH1 0x0 DUP3 PUSH1 0x1F DUP4 ADD SLT PUSH2 0x1A82 JUMPI PUSH2 0x1A81 PUSH2 0x17DE JUMP JUMPDEST JUMPDEST DUP2 MLOAD PUSH2 0x1A92 DUP5 DUP3 PUSH1 0x20 DUP7 ADD PUSH2 0x1A2B JUMP JUMPDEST SWAP2 POP POP SWAP3 SWAP2 POP POP JUMP JUMPDEST PUSH1 0x0 PUSH1 0x40 DUP3 DUP5 SUB SLT ISZERO PUSH2 0x1AB1 JUMPI PUSH2 0x1AB0 PUSH2 0x1A21 JUMP JUMPDEST JUMPDEST PUSH2 0x1ABB PUSH1 0x40 PUSH2 0x1848 JUMP JUMPDEST SWAP1 POP PUSH1 0x0 DUP3 ADD MLOAD PUSH8 0xFFFFFFFFFFFFFFFF DUP2 GT ISZERO PUSH2 0x1ADB JUMPI PUSH2 0x1ADA PUSH2 0x1A26 JUMP JUMPDEST JUMPDEST PUSH2 0x1AE7 DUP5 DUP3 DUP6 ADD PUSH2 0x1A6D JUMP JUMPDEST PUSH1 0x0 DUP4 ADD MSTORE POP PUSH1 0x20 DUP3 ADD MLOAD PUSH8 0xFFFFFFFFFFFFFFFF DUP2 GT ISZERO PUSH2 0x1B0B JUMPI PUSH2 0x1B0A PUSH2 0x1A26 JUMP JUMPDEST JUMPDEST PUSH2 0x1B17 DUP5 DUP3 DUP6 ADD PUSH2 0x1A6D JUMP JUMPDEST PUSH1 0x20 DUP4 ADD MSTORE POP SWAP3 SWAP2 POP POP JUMP JUMPDEST PUSH1 0x0 PUSH1 0x20 DUP3 DUP5 SUB SLT ISZERO PUSH2 0x1B39 JUMPI PUSH2 0x1B38 PUSH2 0x12E0 JUMP JUMPDEST JUMPDEST PUSH1 0x0 DUP3 ADD MLOAD PUSH8 0xFFFFFFFFFFFFFFFF DUP2 GT ISZERO PUSH2 0x1B57 JUMPI PUSH2 0x1B56 PUSH2 0x12E5 JUMP JUMPDEST JUMPDEST PUSH2 0x1B63 DUP5 DUP3 DUP6 ADD PUSH2 0x1A9B JUMP JUMPDEST SWAP2 POP POP SWAP3 SWAP2 POP POP JUMP JUMPDEST PUSH32 0x55534552204E4F54205245474953544552454400000000000000000000000000 PUSH1 0x0 DUP3 ADD MSTORE POP JUMP JUMPDEST PUSH1 0x0 PUSH2 0x1BA2 PUSH1 0x13 DUP4 PUSH2 0x13E7 JUMP JUMPDEST SWAP2 POP PUSH2 0x1BAD DUP3 PUSH2 0x1B6C JUMP JUMPDEST PUSH1 0x20 DUP3 ADD SWAP1 POP SWAP2 SWAP1 POP JUMP JUMPDEST PUSH1 0x0 PUSH1 0x20 DUP3 ADD SWAP1 POP DUP2 DUP2 SUB PUSH1 0x0 DUP4 ADD MSTORE PUSH2 0x1BD1 DUP2 PUSH2 0x1B95 JUMP JUMPDEST SWAP1 POP SWAP2 SWAP1 POP JUMP JUMPDEST PUSH32 0x545745455420444F4553204E4F54204558495354210000000000000000000000 PUSH1 0x0 DUP3 ADD MSTORE POP JUMP JUMPDEST PUSH1 0x0 PUSH2 0x1C0E PUSH1 0x15 DUP4 PUSH2 0x13E7 JUMP JUMPDEST SWAP2 POP PUSH2 0x1C19 DUP3 PUSH2 0x1BD8 JUMP JUMPDEST PUSH1 0x20 DUP3 ADD SWAP1 POP SWAP2 SWAP1 POP JUMP JUMPDEST PUSH1 0x0 PUSH1 0x20 DUP3 ADD SWAP1 POP DUP2 DUP2 SUB PUSH1 0x0 DUP4 ADD MSTORE PUSH2 0x1C3D DUP2 PUSH2 0x1C01 JUMP JUMPDEST SWAP1 POP SWAP2 SWAP1 POP JUMP JUMPDEST PUSH32 0x545745455420484153204E4F204C494B45532100000000000000000000000000 PUSH1 0x0 DUP3 ADD MSTORE POP JUMP JUMPDEST PUSH1 0x0 PUSH2 0x1C7A PUSH1 0x13 DUP4 PUSH2 0x13E7 JUMP JUMPDEST SWAP2 POP PUSH2 0x1C85 DUP3 PUSH2 0x1C44 JUMP JUMPDEST PUSH1 0x20 DUP3 ADD SWAP1 POP SWAP2 SWAP1 POP JUMP JUMPDEST PUSH1 0x0 PUSH1 0x20 DUP3 ADD SWAP1 POP DUP2 DUP2 SUB PUSH1 0x0 DUP4 ADD MSTORE PUSH2 0x1CA9 DUP2 PUSH2 0x1C6D JUMP JUMPDEST SWAP1 POP SWAP2 SWAP1 POP JUMP JUMPDEST PUSH32 0x4E487B7100000000000000000000000000000000000000000000000000000000 PUSH1 0x0 MSTORE PUSH1 0x11 PUSH1 0x4 MSTORE PUSH1 0x24 PUSH1 0x0 REVERT JUMPDEST PUSH1 0x0 PUSH2 0x1CEA DUP3 PUSH2 0x1348 JUMP JUMPDEST SWAP2 POP PUSH1 0x0 DUP3 SUB PUSH2 0x1CFD JUMPI PUSH2 0x1CFC PUSH2 0x1CB0 JUMP JUMPDEST JUMPDEST PUSH1 0x1 DUP3 SUB SWAP1 POP SWAP2 SWAP1 POP JUMP JUMPDEST PUSH1 0x0 PUSH1 0x80 DUP3 ADD SWAP1 POP PUSH2 0x1D1D PUSH1 0x0 DUP4 ADD DUP8 PUSH2 0x13CD JUMP JUMPDEST PUSH2 0x1D2A PUSH1 0x20 DUP4 ADD DUP7 PUSH2 0x13CD JUMP JUMPDEST PUSH2 0x1D37 PUSH1 0x40 DUP4 ADD DUP6 PUSH2 0x13BE JUMP JUMPDEST PUSH2 0x1D44 PUSH1 0x60 DUP4 ADD DUP5 PUSH2 0x13BE JUMP JUMPDEST SWAP6 SWAP5 POP POP POP POP POP JUMP JUMPDEST PUSH1 0x0 PUSH2 0x1D58 DUP3 PUSH2 0x1348 JUMP JUMPDEST SWAP2 POP PUSH32 0xFFFFFFFFFFFFFFFFFFFFFFFFFFFFFFFFFFFFFFFFFFFFFFFFFFFFFFFFFFFFFFFF DUP3 SUB PUSH2 0x1D8A JUMPI PUSH2 0x1D89 PUSH2 0x1CB0 JUMP JUMPDEST JUMPDEST PUSH1 0x1 DUP3 ADD SWAP1 POP SWAP2 SWAP1 POP JUMP JUMPDEST PUSH32 0x545745455420544F4F204C4F4E47210000000000000000000000000000000000 PUSH1 0x0 DUP3 ADD MSTORE POP JUMP JUMPDEST PUSH1 0x0 PUSH2 0x1DCB PUSH1 0xF DUP4 PUSH2 0x13E7 JUMP JUMPDEST SWAP2 POP PUSH2 0x1DD6 DUP3 PUSH2 0x1D95 JUMP JUMPDEST PUSH1 0x20 DUP3 ADD SWAP1 POP SWAP2 SWAP1 POP JUMP JUMPDEST PUSH1 0x0 PUSH1 0x20 DUP3 ADD SWAP1 POP DUP2 DUP2 SUB PUSH1 0x0 DUP4 ADD MSTORE PUSH2 0x1DFA DUP2 PUSH2 0x1DBE JUMP JUMPDEST SWAP1 POP SWAP2 SWAP1 POP JUMP JUMPDEST PUSH1 0x0 DUP2 SWAP1 POP DUP2 PUSH1 0x0 MSTORE PUSH1 0x20 PUSH1 0x0 KECCAK256 SWAP1 POP SWAP2 SWAP1 POP JUMP JUMPDEST PUSH1 0x0 PUSH1 0x20 PUSH1 0x1F DUP4 ADD DIV SWAP1 POP SWAP2 SWAP1 POP JUMP JUMPDEST PUSH1 0x0 DUP3 DUP3 SHL SWAP1 POP SWAP3 SWAP2 POP POP JUMP JUMPDEST PUSH1 0x0 PUSH1 0x8 DUP4 MUL PUSH2 0x1E63 PUSH32 0xFFFFFFFFFFFFFFFFFFFFFFFFFFFFFFFFFFFFFFFFFFFFFFFFFFFFFFFFFFFFFFFF DUP3 PUSH2 0x1E26 JUMP JUMPDEST PUSH2 0x1E6D DUP7 DUP4 PUSH2 0x1E26 JUMP JUMPDEST SWAP6 POP DUP1 NOT DUP5 AND SWAP4 POP DUP1 DUP7 AND DUP5 OR SWAP3 POP POP POP SWAP4 SWAP3 POP POP POP JUMP JUMPDEST PUSH1 0x0 DUP2 SWAP1 POP SWAP2 SWAP1 POP JUMP JUMPDEST PUSH1 0x0 PUSH2 0x1EAA PUSH2 0x1EA5 PUSH2 0x1EA0 DUP5 PUSH2 0x1348 JUMP JUMPDEST PUSH2 0x1E85 JUMP JUMPDEST PUSH2 0x1348 JUMP JUMPDEST SWAP1 POP SWAP2 SWAP1 POP JUMP JUMPDEST PUSH1 0x0 DUP2 SWAP1 POP SWAP2 SWAP1 POP JUMP JUMPDEST PUSH2 0x1EC4 DUP4 PUSH2 0x1E8F JUMP JUMPDEST PUSH2 0x1ED8 PUSH2 0x1ED0 DUP3 PUSH2 0x1EB1 JUMP JUMPDEST DUP5 DUP5 SLOAD PUSH2 0x1E33 JUMP JUMPDEST DUP3 SSTORE POP POP POP POP JUMP JUMPDEST PUSH1 0x0 SWAP1 JUMP JUMPDEST PUSH2 0x1EED PUSH2 0x1EE0 JUMP JUMPDEST PUSH2 0x1EF8 DUP2 DUP5 DUP5 PUSH2 0x1EBB JUMP JUMPDEST POP POP POP JUMP JUMPDEST JUMPDEST DUP2 DUP2 LT ISZERO PUSH2 0x1F1C JUMPI PUSH2 0x1F11 PUSH1 0x0 DUP3 PUSH2 0x1EE5 JUMP JUMPDEST PUSH1 0x1 DUP2 ADD SWAP1 POP PUSH2 0x1EFE JUMP JUMPDEST POP POP JUMP JUMPDEST PUSH1 0x1F DUP3 GT ISZERO PUSH2 0x1F61 JUMPI PUSH2 0x1F32 DUP2 PUSH2 0x1E01 JUMP JUMPDEST PUSH2 0x1F3B DUP5 PUSH2 0x1E16 JUMP JUMPDEST DUP2 ADD PUSH1 0x20 DUP6 LT ISZERO PUSH2 0x1F4A JUMPI DUP2 SWAP1 POP JUMPDEST PUSH2 0x1F5E PUSH2 0x1F56 DUP6 PUSH2 0x1E16 JUMP JUMPDEST DUP4 ADD DUP3 PUSH2 0x1EFD JUMP JUMPDEST POP POP JUMPDEST POP POP POP JUMP JUMPDEST PUSH1 0x0 DUP3 DUP3 SHR SWAP1 POP SWAP3 SWAP2 POP POP JUMP JUMPDEST PUSH1 0x0 PUSH2 0x1F84 PUSH1 0x0 NOT DUP5 PUSH1 0x8 MUL PUSH2 0x1F66 JUMP JUMPDEST NOT DUP1 DUP4 AND SWAP2 POP POP SWAP3 SWAP2 POP POP JUMP JUMPDEST PUSH1 0x0 PUSH2 0x1F9D DUP4 DUP4 PUSH2 0x1F73 JUMP JUMPDEST SWAP2 POP DUP3 PUSH1 0x2 MUL DUP3 OR SWAP1 POP SWAP3 SWAP2 POP POP JUMP JUMPDEST PUSH2 0x1FB6 DUP3 PUSH2 0x13DC JUMP JUMPDEST PUSH8 0xFFFFFFFFFFFFFFFF DUP2 GT ISZERO PUSH2 0x1FCF JUMPI PUSH2 0x1FCE PUSH2 0x17E8 JUMP JUMPDEST JUMPDEST PUSH2 0x1FD9 DUP3 SLOAD PUSH2 0x19C1 JUMP JUMPDEST PUSH2 0x1FE4 DUP3 DUP3 DUP6 PUSH2 0x1F20 JUMP JUMPDEST PUSH1 0x0 PUSH1 0x20 SWAP1 POP PUSH1 0x1F DUP4 GT PUSH1 0x1 DUP2 EQ PUSH2 0x2017 JUMPI PUSH1 0x0 DUP5 ISZERO PUSH2 0x2005 JUMPI DUP3 DUP8 ADD MLOAD SWAP1 POP JUMPDEST PUSH2 0x200F DUP6 DUP3 PUSH2 0x1F91 JUMP JUMPDEST DUP7 SSTORE POP PUSH2 0x2077 JUMP JUMPDEST PUSH1 0x1F NOT DUP5 AND PUSH2 0x2025 DUP7 PUSH2 0x1E01 JUMP JUMPDEST PUSH1 0x0 JUMPDEST DUP3 DUP2 LT ISZERO PUSH2 0x204D JUMPI DUP5 DUP10 ADD MLOAD DUP3 SSTORE PUSH1 0x1 DUP3 ADD SWAP2 POP PUSH1 0x20 DUP6 ADD SWAP5 POP PUSH1 0x20 DUP2 ADD SWAP1 POP PUSH2 0x2028 JUMP JUMPDEST DUP7 DUP4 LT ISZERO PUSH2 0x206A JUMPI DUP5 DUP10 ADD MLOAD PUSH2 0x2066 PUSH1 0x1F DUP10 AND DUP3 PUSH2 0x1F73 JUMP JUMPDEST DUP4 SSTORE POP JUMPDEST PUSH1 0x1 PUSH1 0x2 DUP9 MUL ADD DUP9 SSTORE POP POP POP JUMPDEST POP POP POP POP POP POP JUMP JUMPDEST PUSH1 0x0 PUSH1 0x80 DUP3 ADD SWAP1 POP PUSH2 0x2094 PUSH1 0x0 DUP4 ADD DUP8 PUSH2 0x13BE JUMP JUMPDEST PUSH2 0x20A1 PUSH1 0x20 DUP4 ADD DUP7 PUSH2 0x13CD JUMP JUMPDEST DUP2 DUP2 SUB PUSH1 0x40 DUP4 ADD MSTORE PUSH2 0x20B3 DUP2 DUP6 PUSH2 0x1433 JUMP JUMPDEST SWAP1 POP PUSH2 0x20C2 PUSH1 0x60 DUP4 ADD DUP5 PUSH2 0x13BE JUMP JUMPDEST SWAP6 SWAP5 POP POP POP POP POP JUMP JUMPDEST PUSH1 0x0 PUSH2 0x20D6 DUP3 PUSH2 0x1348 JUMP JUMPDEST SWAP2 POP PUSH2 0x20E1 DUP4 PUSH2 0x1348 JUMP JUMPDEST SWAP3 POP DUP3 DUP3 ADD SWAP1 POP DUP1 DUP3 GT ISZERO PUSH2 0x20F9 JUMPI PUSH2 0x20F8 PUSH2 0x1CB0 JUMP JUMPDEST JUMPDEST SWAP3 SWAP2 POP POP JUMP JUMPDEST PUSH32 0x4F776E61626C653A206E6577206F776E657220697320746865207A65726F2061 PUSH1 0x0 DUP3 ADD MSTORE PUSH32 0x6464726573730000000000000000000000000000000000000000000000000000 PUSH1 0x20 DUP3 ADD MSTORE POP JUMP JUMPDEST PUSH1 0x0 PUSH2 0x215B PUSH1 0x26 DUP4 PUSH2 0x13E7 JUMP JUMPDEST SWAP2 POP PUSH2 0x2166 DUP3 PUSH2 0x20FF JUMP JUMPDEST PUSH1 0x40 DUP3 ADD SWAP1 POP SWAP2 SWAP1 POP JUMP JUMPDEST PUSH1 0x0 PUSH1 0x20 DUP3 ADD SWAP1 POP DUP2 DUP2 SUB PUSH1 0x0 DUP4 ADD MSTORE PUSH2 0x218A DUP2 PUSH2 0x214E JUMP JUMPDEST SWAP1 POP SWAP2 SWAP1 POP JUMP JUMPDEST PUSH32 0x4F776E61626C653A2063616C6C6572206973206E6F7420746865206F776E6572 PUSH1 0x0 DUP3 ADD MSTORE POP JUMP JUMPDEST PUSH1 0x0 PUSH2 0x21C7 PUSH1 0x20 DUP4 PUSH2 0x13E7 JUMP JUMPDEST SWAP2 POP PUSH2 0x21D2 DUP3 PUSH2 0x2191 JUMP JUMPDEST PUSH1 0x20 DUP3 ADD SWAP1 POP SWAP2 SWAP1 POP JUMP JUMPDEST PUSH1 0x0 PUSH1 0x20 DUP3 ADD SWAP1 POP DUP2 DUP2 SUB PUSH1 0x0 DUP4 ADD MSTORE PUSH2 0x21F6 DUP2 PUSH2 0x21BA JUMP JUMPDEST SWAP1 POP SWAP2 SWAP1 POP JUMP INVALID LOG2 PUSH5 0x6970667358 0x22 SLT KECCAK256 0xC9 DUP10 MUL PREVRANDAO 0xD4 0xBE PUSH28 0x4CDC0F2DD14427E050FF71289C2C28F46572A596BB71BE2E3164736F PUSH13 0x63430008120033000000000000 "
				},
				"gasEstimates": {
					"creation": {
						"codeDepositCost": "1751000",
						"executionCost": "infinite",
						"totalCost": "infinite"
					},
					"external": {
						"MAX_TWEET_LENGTH()": "2521",
						"changeTweetLength(uint16)": "27082",
						"createTweet(string)": "infinite",
						"getAllTweets(address)": "infinite",
						"getTotalLikes(address)": "infinite",
						"getTweet(address,uint256)": "infinite",
						"likeTweet(address,uint256)": "infinite",
						"owner()": "2610",
						"renounceOwnership()": "30420",
						"transferOwnership(address)": "30854",
						"tweets(address,uint256)": "infinite",
						"unlikeTweet(address,uint256)": "infinite"
					}
				},
				"methodIdentifiers": {
					"MAX_TWEET_LENGTH()": "6eb10797",
					"changeTweetLength(uint16)": "58bfa4ab",
					"createTweet(string)": "7c9cd2bc",
					"getAllTweets(address)": "12e7ee1c",
					"getTotalLikes(address)": "820785cc",
					"getTweet(address,uint256)": "112f54e3",
					"likeTweet(address,uint256)": "63378216",
					"owner()": "8da5cb5b",
					"renounceOwnership()": "715018a6",
					"transferOwnership(address)": "f2fde38b",
					"tweets(address,uint256)": "05a1b4a9",
					"unlikeTweet(address,uint256)": "3d9b569f"
				}
			},
			"storageLayout": {
				"storage": [
					{
						"astId": 7,
						"contract": "contracts/X.sol:X",
						"label": "_owner",
						"offset": 0,
						"slot": "0",
						"type": "t_address"
					},
					{
						"astId": 156,
						"contract": "contracts/X.sol:X",
						"label": "MAX_TWEET_LENGTH",
						"offset": 20,
						"slot": "0",
						"type": "t_uint16"
					},
					{
						"astId": 173,
						"contract": "contracts/X.sol:X",
						"label": "tweets",
						"offset": 0,
						"slot": "1",
						"type": "t_mapping(t_address,t_array(t_struct(Tweet)167_storage)dyn_storage)"
					},
					{
						"astId": 176,
						"contract": "contracts/X.sol:X",
						"label": "profileContract",
						"offset": 0,
						"slot": "2",
						"type": "t_contract(IProfile)151"
					}
				],
				"types": {
					"t_address": {
						"encoding": "inplace",
						"label": "address",
						"numberOfBytes": "20"
					},
					"t_array(t_struct(Tweet)167_storage)dyn_storage": {
						"base": "t_struct(Tweet)167_storage",
						"encoding": "dynamic_array",
						"label": "struct X.Tweet[]",
						"numberOfBytes": "32"
					},
					"t_contract(IProfile)151": {
						"encoding": "inplace",
						"label": "contract IProfile",
						"numberOfBytes": "20"
					},
					"t_mapping(t_address,t_array(t_struct(Tweet)167_storage)dyn_storage)": {
						"encoding": "mapping",
						"key": "t_address",
						"label": "mapping(address => struct X.Tweet[])",
						"numberOfBytes": "32",
						"value": "t_array(t_struct(Tweet)167_storage)dyn_storage"
					},
					"t_string_storage": {
						"encoding": "bytes",
						"label": "string",
						"numberOfBytes": "32"
					},
					"t_struct(Tweet)167_storage": {
						"encoding": "inplace",
						"label": "struct X.Tweet",
						"members": [
							{
								"astId": 158,
								"contract": "contracts/X.sol:X",
								"label": "id",
								"offset": 0,
								"slot": "0",
								"type": "t_uint256"
							},
							{
								"astId": 160,
								"contract": "contracts/X.sol:X",
								"label": "author",
								"offset": 0,
								"slot": "1",
								"type": "t_address"
							},
							{
								"astId": 162,
								"contract": "contracts/X.sol:X",
								"label": "content",
								"offset": 0,
								"slot": "2",
								"type": "t_string_storage"
							},
							{
								"astId": 164,
								"contract": "contracts/X.sol:X",
								"label": "timestamp",
								"offset": 0,
								"slot": "3",
								"type": "t_uint256"
							},
							{
								"astId": 166,
								"contract": "contracts/X.sol:X",
								"label": "likes",
								"offset": 0,
								"slot": "4",
								"type": "t_uint256"
							}
						],
						"numberOfBytes": "160"
					},
					"t_uint16": {
						"encoding": "inplace",
						"label": "uint16",
						"numberOfBytes": "2"
					},
					"t_uint256": {
						"encoding": "inplace",
						"label": "uint256",
						"numberOfBytes": "32"
					}
				}
			},
			"userdoc": {
				"kind": "user",
				"methods": {},
				"version": 1
			}
		}
	}
}