{
	"contracts/X.sol": {
		"X": {
			"abi": [
				{
					"inputs": [],
					"stateMutability": "nonpayable",
					"type": "constructor"
				},
				{
					"inputs": [],
					"name": "MAX_TWEET_LENGTH",
					"outputs": [
						{
							"internalType": "uint16",
							"name": "",
							"type": "uint16"
						}
					],
					"stateMutability": "view",
					"type": "function"
				},
				{
					"inputs": [
						{
							"internalType": "uint16",
							"name": "newTweetLength",
							"type": "uint16"
						}
					],
					"name": "changeTweetLength",
					"outputs": [],
					"stateMutability": "nonpayable",
					"type": "function"
				},
				{
					"inputs": [
						{
							"internalType": "string",
							"name": "_tweet",
							"type": "string"
						}
					],
					"name": "createTweet",
					"outputs": [],
					"stateMutability": "nonpayable",
					"type": "function"
				},
				{
					"inputs": [
						{
							"internalType": "address",
							"name": "_owner",
							"type": "address"
						}
					],
					"name": "getAllTweets",
					"outputs": [
						{
							"components": [
								{
									"internalType": "uint256",
									"name": "id",
									"type": "uint256"
								},
								{
									"internalType": "address",
									"name": "author",
									"type": "address"
								},
								{
									"internalType": "string",
									"name": "content",
									"type": "string"
								},
								{
									"internalType": "uint256",
									"name": "timestamp",
									"type": "uint256"
								},
								{
									"internalType": "uint256",
									"name": "likes",
									"type": "uint256"
								}
							],
							"internalType": "struct X.Tweet[]",
							"name": "",
							"type": "tuple[]"
						}
					],
					"stateMutability": "view",
					"type": "function"
				},
				{
					"inputs": [
						{
							"internalType": "address",
							"name": "_owner",
							"type": "address"
						},
						{
							"internalType": "uint256",
							"name": "_i",
							"type": "uint256"
						}
					],
					"name": "getTweet",
					"outputs": [
						{
							"components": [
								{
									"internalType": "uint256",
									"name": "id",
									"type": "uint256"
								},
								{
									"internalType": "address",
									"name": "author",
									"type": "address"
								},
								{
									"internalType": "string",
									"name": "content",
									"type": "string"
								},
								{
									"internalType": "uint256",
									"name": "timestamp",
									"type": "uint256"
								},
								{
									"internalType": "uint256",
									"name": "likes",
									"type": "uint256"
								}
							],
							"internalType": "struct X.Tweet",
							"name": "",
							"type": "tuple"
						}
					],
					"stateMutability": "view",
					"type": "function"
				},
				{
					"inputs": [
						{
							"internalType": "address",
							"name": "_author",
							"type": "address"
						},
						{
							"internalType": "uint256",
							"name": "_id",
							"type": "uint256"
						}
					],
					"name": "likeTweet",
					"outputs": [],
					"stateMutability": "nonpayable",
					"type": "function"
				},
				{
					"inputs": [],
					"name": "owner",
					"outputs": [
						{
							"internalType": "address",
							"name": "",
							"type": "address"
						}
					],
					"stateMutability": "view",
					"type": "function"
				},
				{
					"inputs": [
						{
							"internalType": "address",
							"name": "",
							"type": "address"
						},
						{
							"internalType": "uint256",
							"name": "",
							"type": "uint256"
						}
					],
					"name": "tweets",
					"outputs": [
						{
							"internalType": "uint256",
							"name": "id",
							"type": "uint256"
						},
						{
							"internalType": "address",
							"name": "author",
							"type": "address"
						},
						{
							"internalType": "string",
							"name": "content",
							"type": "string"
						},
						{
							"internalType": "uint256",
							"name": "timestamp",
							"type": "uint256"
						},
						{
							"internalType": "uint256",
							"name": "likes",
							"type": "uint256"
						}
					],
					"stateMutability": "view",
					"type": "function"
				},
				{
					"inputs": [
						{
							"internalType": "address",
							"name": "_author",
							"type": "address"
						},
						{
							"internalType": "uint256",
							"name": "_id",
							"type": "uint256"
						}
					],
					"name": "unlikeTweet",
					"outputs": [],
					"stateMutability": "nonpayable",
					"type": "function"
				}
			],
			"devdoc": {
				"kind": "dev",
				"methods": {},
				"version": 1
			},
			"evm": {
				"assembly": "    /* \"contracts/X.sol\":60:1781  contract X {... */\n  mstore(0x40, 0x80)\n    /* \"contracts/X.sol\":113:116  280 */\n  0x0118\n    /* \"contracts/X.sol\":80:116  uint16 public MAX_TWEET_LENGTH = 280 */\n  0x00\n  dup1\n  0x0100\n  exp\n  dup2\n  sload\n  dup2\n  0xffff\n  mul\n  not\n  and\n  swap1\n  dup4\n  0xffff\n  and\n  mul\n  or\n  swap1\n  sstore\n  pop\n    /* \"contracts/X.sol\":353:404  constructor() {... */\n  callvalue\n  dup1\n  iszero\n  tag_1\n  jumpi\n  0x00\n  dup1\n  revert\ntag_1:\n  pop\n    /* \"contracts/X.sol\":386:396  msg.sender */\n  caller\n    /* \"contracts/X.sol\":378:383  owner */\n  0x02\n  0x00\n    /* \"contracts/X.sol\":378:396  owner = msg.sender */\n  0x0100\n  exp\n  dup2\n  sload\n  dup2\n  0xffffffffffffffffffffffffffffffffffffffff\n  mul\n  not\n  and\n  swap1\n  dup4\n  0xffffffffffffffffffffffffffffffffffffffff\n  and\n  mul\n  or\n  swap1\n  sstore\n  pop\n    /* \"contracts/X.sol\":60:1781  contract X {... */\n  dataSize(sub_0)\n  dup1\n  dataOffset(sub_0)\n  0x00\n  codecopy\n  0x00\n  return\nstop\n\nsub_0: assembly {\n        /* \"contracts/X.sol\":60:1781  contract X {... */\n      mstore(0x40, 0x80)\n      callvalue\n      dup1\n      iszero\n      tag_1\n      jumpi\n      0x00\n      dup1\n      revert\n    tag_1:\n      pop\n      jumpi(tag_2, lt(calldatasize, 0x04))\n      shr(0xe0, calldataload(0x00))\n      dup1\n      0x58bfa4ab\n      gt\n      tag_12\n      jumpi\n      dup1\n      0x58bfa4ab\n      eq\n      tag_7\n      jumpi\n      dup1\n      0x63378216\n      eq\n      tag_8\n      jumpi\n      dup1\n      0x6eb10797\n      eq\n      tag_9\n      jumpi\n      dup1\n      0x7c9cd2bc\n      eq\n      tag_10\n      jumpi\n      dup1\n      0x8da5cb5b\n      eq\n      tag_11\n      jumpi\n      jump(tag_2)\n    tag_12:\n      dup1\n      0x05a1b4a9\n      eq\n      tag_3\n      jumpi\n      dup1\n      0x112f54e3\n      eq\n      tag_4\n      jumpi\n      dup1\n      0x12e7ee1c\n      eq\n      tag_5\n      jumpi\n      dup1\n      0x3d9b569f\n      eq\n      tag_6\n      jumpi\n    tag_2:\n      0x00\n      dup1\n      revert\n        /* \"contracts/X.sol\":275:317  mapping(address => Tweet[] ) public tweets */\n    tag_3:\n      tag_13\n      0x04\n      dup1\n      calldatasize\n      sub\n      dup2\n      add\n      swap1\n      tag_14\n      swap2\n      swap1\n      tag_15\n      jump\t// in\n    tag_14:\n      tag_16\n      jump\t// in\n    tag_13:\n      mload(0x40)\n      tag_17\n      swap6\n      swap5\n      swap4\n      swap3\n      swap2\n      swap1\n      tag_18\n      jump\t// in\n    tag_17:\n      mload(0x40)\n      dup1\n      swap2\n      sub\n      swap1\n      return\n        /* \"contracts/X.sol\":1531:1653  function getTweet(address _owner, uint _i) public view returns (Tweet memory) {... */\n    tag_4:\n      tag_19\n      0x04\n      dup1\n      calldatasize\n      sub\n      dup2\n      add\n      swap1\n      tag_20\n      swap2\n      swap1\n      tag_15\n      jump\t// in\n    tag_20:\n      tag_21\n      jump\t// in\n    tag_19:\n      mload(0x40)\n      tag_22\n      swap2\n      swap1\n      tag_23\n      jump\t// in\n    tag_22:\n      mload(0x40)\n      dup1\n      swap2\n      sub\n      swap1\n      return\n        /* \"contracts/X.sol\":1661:1776  function getAllTweets(address _owner) public view returns (Tweet[] memory ){... */\n    tag_5:\n      tag_24\n      0x04\n      dup1\n      calldatasize\n      sub\n      dup2\n      add\n      swap1\n      tag_25\n      swap2\n      swap1\n      tag_26\n      jump\t// in\n    tag_25:\n      tag_27\n      jump\t// in\n    tag_24:\n      mload(0x40)\n      tag_28\n      swap2\n      swap1\n      tag_29\n      jump\t// in\n    tag_28:\n      mload(0x40)\n      dup1\n      swap2\n      sub\n      swap1\n      return\n        /* \"contracts/X.sol\":1259:1523  function unlikeTweet(address _author, uint256 _id) external{... */\n    tag_6:\n      tag_30\n      0x04\n      dup1\n      calldatasize\n      sub\n      dup2\n      add\n      swap1\n      tag_31\n      swap2\n      swap1\n      tag_15\n      jump\t// in\n    tag_31:\n      tag_32\n      jump\t// in\n    tag_30:\n      stop\n        /* \"contracts/X.sol\":526:645  function changeTweetLength(uint16 newTweetLength) public onlyOwner {... */\n    tag_7:\n      tag_33\n      0x04\n      dup1\n      calldatasize\n      sub\n      dup2\n      add\n      swap1\n      tag_34\n      swap2\n      swap1\n      tag_35\n      jump\t// in\n    tag_34:\n      tag_36\n      jump\t// in\n    tag_33:\n      stop\n        /* \"contracts/X.sol\":1070:1251  function likeTweet(address _author, uint256 _id) external{... */\n    tag_8:\n      tag_37\n      0x04\n      dup1\n      calldatasize\n      sub\n      dup2\n      add\n      swap1\n      tag_38\n      swap2\n      swap1\n      tag_15\n      jump\t// in\n    tag_38:\n      tag_39\n      jump\t// in\n    tag_37:\n      stop\n        /* \"contracts/X.sol\":80:116  uint16 public MAX_TWEET_LENGTH = 280 */\n    tag_9:\n      tag_40\n      tag_41\n      jump\t// in\n    tag_40:\n      mload(0x40)\n      tag_42\n      swap2\n      swap1\n      tag_43\n      jump\t// in\n    tag_42:\n      mload(0x40)\n      dup1\n      swap2\n      sub\n      swap1\n      return\n        /* \"contracts/X.sol\":653:1062  function createTweet(string memory _tweet) public {... */\n    tag_10:\n      tag_44\n      0x04\n      dup1\n      calldatasize\n      sub\n      dup2\n      add\n      swap1\n      tag_45\n      swap2\n      swap1\n      tag_46\n      jump\t// in\n    tag_45:\n      tag_47\n      jump\t// in\n    tag_44:\n      stop\n        /* \"contracts/X.sol\":324:344  address public owner */\n    tag_11:\n      tag_48\n      tag_49\n      jump\t// in\n    tag_48:\n      mload(0x40)\n      tag_50\n      swap2\n      swap1\n      tag_51\n      jump\t// in\n    tag_50:\n      mload(0x40)\n      dup1\n      swap2\n      sub\n      swap1\n      return\n        /* \"contracts/X.sol\":275:317  mapping(address => Tweet[] ) public tweets */\n    tag_16:\n      mstore(0x20, 0x01)\n      dup2\n      0x00\n      mstore\n      keccak256(0x00, 0x40)\n      dup2\n      dup2\n      sload\n      dup2\n      lt\n      tag_52\n      jumpi\n      0x00\n      dup1\n      revert\n    tag_52:\n      swap1\n      0x00\n      mstore\n      keccak256(0x00, 0x20)\n      swap1\n      0x05\n      mul\n      add\n      0x00\n      swap2\n      pop\n      swap2\n      pop\n      pop\n      dup1\n      0x00\n      add\n      sload\n      swap1\n      dup1\n      0x01\n      add\n      0x00\n      swap1\n      sload\n      swap1\n      0x0100\n      exp\n      swap1\n      div\n      0xffffffffffffffffffffffffffffffffffffffff\n      and\n      swap1\n      dup1\n      0x02\n      add\n      dup1\n      sload\n      tag_54\n      swap1\n      tag_55\n      jump\t// in\n    tag_54:\n      dup1\n      0x1f\n      add\n      0x20\n      dup1\n      swap2\n      div\n      mul\n      0x20\n      add\n      mload(0x40)\n      swap1\n      dup2\n      add\n      0x40\n      mstore\n      dup1\n      swap3\n      swap2\n      swap1\n      dup2\n      dup2\n      mstore\n      0x20\n      add\n      dup3\n      dup1\n      sload\n      tag_56\n      swap1\n      tag_55\n      jump\t// in\n    tag_56:\n      dup1\n      iszero\n      tag_57\n      jumpi\n      dup1\n      0x1f\n      lt\n      tag_58\n      jumpi\n      0x0100\n      dup1\n      dup4\n      sload\n      div\n      mul\n      dup4\n      mstore\n      swap2\n      0x20\n      add\n      swap2\n      jump(tag_57)\n    tag_58:\n      dup3\n      add\n      swap2\n      swap1\n      0x00\n      mstore\n      keccak256(0x00, 0x20)\n      swap1\n    tag_59:\n      dup2\n      sload\n      dup2\n      mstore\n      swap1\n      0x01\n      add\n      swap1\n      0x20\n      add\n      dup1\n      dup4\n      gt\n      tag_59\n      jumpi\n      dup3\n      swap1\n      sub\n      0x1f\n      and\n      dup3\n      add\n      swap2\n    tag_57:\n      pop\n      pop\n      pop\n      pop\n      pop\n      swap1\n      dup1\n      0x03\n      add\n      sload\n      swap1\n      dup1\n      0x04\n      add\n      sload\n      swap1\n      pop\n      dup6\n      jump\t// out\n        /* \"contracts/X.sol\":1531:1653  function getTweet(address _owner, uint _i) public view returns (Tweet memory) {... */\n    tag_21:\n        /* \"contracts/X.sol\":1595:1607  Tweet memory */\n      tag_60\n      tag_61\n      jump\t// in\n    tag_60:\n        /* \"contracts/X.sol\":1627:1633  tweets */\n      0x01\n        /* \"contracts/X.sol\":1627:1641  tweets[_owner] */\n      0x00\n        /* \"contracts/X.sol\":1634:1640  _owner */\n      dup5\n        /* \"contracts/X.sol\":1627:1641  tweets[_owner] */\n      0xffffffffffffffffffffffffffffffffffffffff\n      and\n      0xffffffffffffffffffffffffffffffffffffffff\n      and\n      dup2\n      mstore\n      0x20\n      add\n      swap1\n      dup2\n      mstore\n      0x20\n      add\n      0x00\n      keccak256\n        /* \"contracts/X.sol\":1642:1644  _i */\n      dup3\n        /* \"contracts/X.sol\":1627:1645  tweets[_owner][_i] */\n      dup2\n      sload\n      dup2\n      lt\n      tag_63\n      jumpi\n      tag_64\n      tag_65\n      jump\t// in\n    tag_64:\n    tag_63:\n      swap1\n      0x00\n      mstore\n      keccak256(0x00, 0x20)\n      swap1\n      0x05\n      mul\n      add\n        /* \"contracts/X.sol\":1620:1645  return tweets[_owner][_i] */\n      mload(0x40)\n      dup1\n      0xa0\n      add\n      0x40\n      mstore\n      swap1\n      dup2\n      0x00\n      dup3\n      add\n      sload\n      dup2\n      mstore\n      0x20\n      add\n      0x01\n      dup3\n      add\n      0x00\n      swap1\n      sload\n      swap1\n      0x0100\n      exp\n      swap1\n      div\n      0xffffffffffffffffffffffffffffffffffffffff\n      and\n      0xffffffffffffffffffffffffffffffffffffffff\n      and\n      0xffffffffffffffffffffffffffffffffffffffff\n      and\n      dup2\n      mstore\n      0x20\n      add\n      0x02\n      dup3\n      add\n      dup1\n      sload\n      tag_67\n      swap1\n      tag_55\n      jump\t// in\n    tag_67:\n      dup1\n      0x1f\n      add\n      0x20\n      dup1\n      swap2\n      div\n      mul\n      0x20\n      add\n      mload(0x40)\n      swap1\n      dup2\n      add\n      0x40\n      mstore\n      dup1\n      swap3\n      swap2\n      swap1\n      dup2\n      dup2\n      mstore\n      0x20\n      add\n      dup3\n      dup1\n      sload\n      tag_68\n      swap1\n      tag_55\n      jump\t// in\n    tag_68:\n      dup1\n      iszero\n      tag_69\n      jumpi\n      dup1\n      0x1f\n      lt\n      tag_70\n      jumpi\n      0x0100\n      dup1\n      dup4\n      sload\n      div\n      mul\n      dup4\n      mstore\n      swap2\n      0x20\n      add\n      swap2\n      jump(tag_69)\n    tag_70:\n      dup3\n      add\n      swap2\n      swap1\n      0x00\n      mstore\n      keccak256(0x00, 0x20)\n      swap1\n    tag_71:\n      dup2\n      sload\n      dup2\n      mstore\n      swap1\n      0x01\n      add\n      swap1\n      0x20\n      add\n      dup1\n      dup4\n      gt\n      tag_71\n      jumpi\n      dup3\n      swap1\n      sub\n      0x1f\n      and\n      dup3\n      add\n      swap2\n    tag_69:\n      pop\n      pop\n      pop\n      pop\n      pop\n      dup2\n      mstore\n      0x20\n      add\n      0x03\n      dup3\n      add\n      sload\n      dup2\n      mstore\n      0x20\n      add\n      0x04\n      dup3\n      add\n      sload\n      dup2\n      mstore\n      pop\n      pop\n      swap1\n      pop\n        /* \"contracts/X.sol\":1531:1653  function getTweet(address _owner, uint _i) public view returns (Tweet memory) {... */\n      swap3\n      swap2\n      pop\n      pop\n      jump\t// out\n        /* \"contracts/X.sol\":1661:1776  function getAllTweets(address _owner) public view returns (Tweet[] memory ){... */\n    tag_27:\n        /* \"contracts/X.sol\":1720:1734  Tweet[] memory */\n      0x60\n        /* \"contracts/X.sol\":1754:1760  tweets */\n      0x01\n        /* \"contracts/X.sol\":1754:1768  tweets[_owner] */\n      0x00\n        /* \"contracts/X.sol\":1761:1767  _owner */\n      dup4\n        /* \"contracts/X.sol\":1754:1768  tweets[_owner] */\n      0xffffffffffffffffffffffffffffffffffffffff\n      and\n      0xffffffffffffffffffffffffffffffffffffffff\n      and\n      dup2\n      mstore\n      0x20\n      add\n      swap1\n      dup2\n      mstore\n      0x20\n      add\n      0x00\n      keccak256\n        /* \"contracts/X.sol\":1747:1768  return tweets[_owner] */\n      dup1\n      sload\n      dup1\n      0x20\n      mul\n      0x20\n      add\n      mload(0x40)\n      swap1\n      dup2\n      add\n      0x40\n      mstore\n      dup1\n      swap3\n      swap2\n      swap1\n      dup2\n      dup2\n      mstore\n      0x20\n      add\n      0x00\n      swap1\n    tag_73:\n      dup3\n      dup3\n      lt\n      iszero\n      tag_74\n      jumpi\n      dup4\n      dup3\n      swap1\n      0x00\n      mstore\n      keccak256(0x00, 0x20)\n      swap1\n      0x05\n      mul\n      add\n      mload(0x40)\n      dup1\n      0xa0\n      add\n      0x40\n      mstore\n      swap1\n      dup2\n      0x00\n      dup3\n      add\n      sload\n      dup2\n      mstore\n      0x20\n      add\n      0x01\n      dup3\n      add\n      0x00\n      swap1\n      sload\n      swap1\n      0x0100\n      exp\n      swap1\n      div\n      0xffffffffffffffffffffffffffffffffffffffff\n      and\n      0xffffffffffffffffffffffffffffffffffffffff\n      and\n      0xffffffffffffffffffffffffffffffffffffffff\n      and\n      dup2\n      mstore\n      0x20\n      add\n      0x02\n      dup3\n      add\n      dup1\n      sload\n      tag_76\n      swap1\n      tag_55\n      jump\t// in\n    tag_76:\n      dup1\n      0x1f\n      add\n      0x20\n      dup1\n      swap2\n      div\n      mul\n      0x20\n      add\n      mload(0x40)\n      swap1\n      dup2\n      add\n      0x40\n      mstore\n      dup1\n      swap3\n      swap2\n      swap1\n      dup2\n      dup2\n      mstore\n      0x20\n      add\n      dup3\n      dup1\n      sload\n      tag_77\n      swap1\n      tag_55\n      jump\t// in\n    tag_77:\n      dup1\n      iszero\n      tag_78\n      jumpi\n      dup1\n      0x1f\n      lt\n      tag_79\n      jumpi\n      0x0100\n      dup1\n      dup4\n      sload\n      div\n      mul\n      dup4\n      mstore\n      swap2\n      0x20\n      add\n      swap2\n      jump(tag_78)\n    tag_79:\n      dup3\n      add\n      swap2\n      swap1\n      0x00\n      mstore\n      keccak256(0x00, 0x20)\n      swap1\n    tag_80:\n      dup2\n      sload\n      dup2\n      mstore\n      swap1\n      0x01\n      add\n      swap1\n      0x20\n      add\n      dup1\n      dup4\n      gt\n      tag_80\n      jumpi\n      dup3\n      swap1\n      sub\n      0x1f\n      and\n      dup3\n      add\n      swap2\n    tag_78:\n      pop\n      pop\n      pop\n      pop\n      pop\n      dup2\n      mstore\n      0x20\n      add\n      0x03\n      dup3\n      add\n      sload\n      dup2\n      mstore\n      0x20\n      add\n      0x04\n      dup3\n      add\n      sload\n      dup2\n      mstore\n      pop\n      pop\n      dup2\n      mstore\n      0x20\n      add\n      swap1\n      0x01\n      add\n      swap1\n      jump(tag_73)\n    tag_74:\n      pop\n      pop\n      pop\n      pop\n      swap1\n      pop\n        /* \"contracts/X.sol\":1661:1776  function getAllTweets(address _owner) public view returns (Tweet[] memory ){... */\n      swap2\n      swap1\n      pop\n      jump\t// out\n        /* \"contracts/X.sol\":1259:1523  function unlikeTweet(address _author, uint256 _id) external{... */\n    tag_32:\n        /* \"contracts/X.sol\":1364:1367  _id */\n      dup1\n        /* \"contracts/X.sol\":1337:1343  tweets */\n      0x01\n        /* \"contracts/X.sol\":1337:1352  tweets[_author] */\n      0x00\n        /* \"contracts/X.sol\":1344:1351  _author */\n      dup5\n        /* \"contracts/X.sol\":1337:1352  tweets[_author] */\n      0xffffffffffffffffffffffffffffffffffffffff\n      and\n      0xffffffffffffffffffffffffffffffffffffffff\n      and\n      dup2\n      mstore\n      0x20\n      add\n      swap1\n      dup2\n      mstore\n      0x20\n      add\n      0x00\n      keccak256\n        /* \"contracts/X.sol\":1353:1356  _id */\n      dup3\n        /* \"contracts/X.sol\":1337:1357  tweets[_author][_id] */\n      dup2\n      sload\n      dup2\n      lt\n      tag_82\n      jumpi\n      tag_83\n      tag_65\n      jump\t// in\n    tag_83:\n    tag_82:\n      swap1\n      0x00\n      mstore\n      keccak256(0x00, 0x20)\n      swap1\n      0x05\n      mul\n      add\n        /* \"contracts/X.sol\":1337:1360  tweets[_author][_id].id */\n      0x00\n      add\n      sload\n        /* \"contracts/X.sol\":1337:1367  tweets[_author][_id].id == _id */\n      eq\n        /* \"contracts/X.sol\":1329:1393  require(tweets[_author][_id].id == _id, \"TWEET DOES NOT EXIST!\") */\n      tag_85\n      jumpi\n      mload(0x40)\n      0x08c379a000000000000000000000000000000000000000000000000000000000\n      dup2\n      mstore\n      0x04\n      add\n      tag_86\n      swap1\n      tag_87\n      jump\t// in\n    tag_86:\n      mload(0x40)\n      dup1\n      swap2\n      sub\n      swap1\n      revert\n    tag_85:\n        /* \"contracts/X.sol\":1441:1442  0 */\n      0x00\n        /* \"contracts/X.sol\":1412:1418  tweets */\n      0x01\n        /* \"contracts/X.sol\":1412:1427  tweets[_author] */\n      0x00\n        /* \"contracts/X.sol\":1419:1426  _author */\n      dup5\n        /* \"contracts/X.sol\":1412:1427  tweets[_author] */\n      0xffffffffffffffffffffffffffffffffffffffff\n      and\n      0xffffffffffffffffffffffffffffffffffffffff\n      and\n      dup2\n      mstore\n      0x20\n      add\n      swap1\n      dup2\n      mstore\n      0x20\n      add\n      0x00\n      keccak256\n        /* \"contracts/X.sol\":1428:1431  _id */\n      dup3\n        /* \"contracts/X.sol\":1412:1432  tweets[_author][_id] */\n      dup2\n      sload\n      dup2\n      lt\n      tag_88\n      jumpi\n      tag_89\n      tag_65\n      jump\t// in\n    tag_89:\n    tag_88:\n      swap1\n      0x00\n      mstore\n      keccak256(0x00, 0x20)\n      swap1\n      0x05\n      mul\n      add\n        /* \"contracts/X.sol\":1412:1438  tweets[_author][_id].likes */\n      0x04\n      add\n      sload\n        /* \"contracts/X.sol\":1412:1442  tweets[_author][_id].likes > 0 */\n      gt\n        /* \"contracts/X.sol\":1404:1466  require(tweets[_author][_id].likes > 0, \"TWEET HAS NO LIKES!\") */\n      tag_91\n      jumpi\n      mload(0x40)\n      0x08c379a000000000000000000000000000000000000000000000000000000000\n      dup2\n      mstore\n      0x04\n      add\n      tag_92\n      swap1\n      tag_93\n      jump\t// in\n    tag_92:\n      mload(0x40)\n      dup1\n      swap2\n      sub\n      swap1\n      revert\n    tag_91:\n        /* \"contracts/X.sol\":1487:1493  tweets */\n      0x01\n        /* \"contracts/X.sol\":1487:1502  tweets[_author] */\n      0x00\n        /* \"contracts/X.sol\":1494:1501  _author */\n      dup4\n        /* \"contracts/X.sol\":1487:1502  tweets[_author] */\n      0xffffffffffffffffffffffffffffffffffffffff\n      and\n      0xffffffffffffffffffffffffffffffffffffffff\n      and\n      dup2\n      mstore\n      0x20\n      add\n      swap1\n      dup2\n      mstore\n      0x20\n      add\n      0x00\n      keccak256\n        /* \"contracts/X.sol\":1503:1506  _id */\n      dup2\n        /* \"contracts/X.sol\":1487:1507  tweets[_author][_id] */\n      dup2\n      sload\n      dup2\n      lt\n      tag_94\n      jumpi\n      tag_95\n      tag_65\n      jump\t// in\n    tag_95:\n    tag_94:\n      swap1\n      0x00\n      mstore\n      keccak256(0x00, 0x20)\n      swap1\n      0x05\n      mul\n      add\n        /* \"contracts/X.sol\":1487:1513  tweets[_author][_id].likes */\n      0x04\n      add\n      0x00\n        /* \"contracts/X.sol\":1487:1515  tweets[_author][_id].likes-- */\n      dup2\n      sload\n      dup1\n      swap3\n      swap2\n      swap1\n      tag_97\n      swap1\n      tag_98\n      jump\t// in\n    tag_97:\n      swap2\n      swap1\n      pop\n      sstore\n      pop\n        /* \"contracts/X.sol\":1259:1523  function unlikeTweet(address _author, uint256 _id) external{... */\n      pop\n      pop\n      jump\t// out\n        /* \"contracts/X.sol\":526:645  function changeTweetLength(uint16 newTweetLength) public onlyOwner {... */\n    tag_36:\n        /* \"contracts/X.sol\":466:471  owner */\n      0x02\n      0x00\n      swap1\n      sload\n      swap1\n      0x0100\n      exp\n      swap1\n      div\n      0xffffffffffffffffffffffffffffffffffffffff\n      and\n        /* \"contracts/X.sol\":452:471  msg.sender == owner */\n      0xffffffffffffffffffffffffffffffffffffffff\n      and\n        /* \"contracts/X.sol\":452:462  msg.sender */\n      caller\n        /* \"contracts/X.sol\":452:471  msg.sender == owner */\n      0xffffffffffffffffffffffffffffffffffffffff\n      and\n      eq\n        /* \"contracts/X.sol\":444:498  require(msg.sender == owner, \"YOU ARE NOT THE OWNER!\") */\n      tag_100\n      jumpi\n      mload(0x40)\n      0x08c379a000000000000000000000000000000000000000000000000000000000\n      dup2\n      mstore\n      0x04\n      add\n      tag_101\n      swap1\n      tag_102\n      jump\t// in\n    tag_101:\n      mload(0x40)\n      dup1\n      swap2\n      sub\n      swap1\n      revert\n    tag_100:\n        /* \"contracts/X.sol\":623:637  newTweetLength */\n      dup1\n        /* \"contracts/X.sol\":604:620  MAX_TWEET_LENGTH */\n      0x00\n      dup1\n        /* \"contracts/X.sol\":604:637  MAX_TWEET_LENGTH = newTweetLength */\n      0x0100\n      exp\n      dup2\n      sload\n      dup2\n      0xffff\n      mul\n      not\n      and\n      swap1\n      dup4\n      0xffff\n      and\n      mul\n      or\n      swap1\n      sstore\n      pop\n        /* \"contracts/X.sol\":526:645  function changeTweetLength(uint16 newTweetLength) public onlyOwner {... */\n      pop\n      jump\t// out\n        /* \"contracts/X.sol\":1070:1251  function likeTweet(address _author, uint256 _id) external{... */\n    tag_39:\n        /* \"contracts/X.sol\":1173:1176  _id */\n      dup1\n        /* \"contracts/X.sol\":1146:1152  tweets */\n      0x01\n        /* \"contracts/X.sol\":1146:1161  tweets[_author] */\n      0x00\n        /* \"contracts/X.sol\":1153:1160  _author */\n      dup5\n        /* \"contracts/X.sol\":1146:1161  tweets[_author] */\n      0xffffffffffffffffffffffffffffffffffffffff\n      and\n      0xffffffffffffffffffffffffffffffffffffffff\n      and\n      dup2\n      mstore\n      0x20\n      add\n      swap1\n      dup2\n      mstore\n      0x20\n      add\n      0x00\n      keccak256\n        /* \"contracts/X.sol\":1162:1165  _id */\n      dup3\n        /* \"contracts/X.sol\":1146:1166  tweets[_author][_id] */\n      dup2\n      sload\n      dup2\n      lt\n      tag_105\n      jumpi\n      tag_106\n      tag_65\n      jump\t// in\n    tag_106:\n    tag_105:\n      swap1\n      0x00\n      mstore\n      keccak256(0x00, 0x20)\n      swap1\n      0x05\n      mul\n      add\n        /* \"contracts/X.sol\":1146:1169  tweets[_author][_id].id */\n      0x00\n      add\n      sload\n        /* \"contracts/X.sol\":1146:1176  tweets[_author][_id].id == _id */\n      eq\n        /* \"contracts/X.sol\":1138:1202  require(tweets[_author][_id].id == _id, \"TWEET DOES NOT EXIST!\") */\n      tag_108\n      jumpi\n      mload(0x40)\n      0x08c379a000000000000000000000000000000000000000000000000000000000\n      dup2\n      mstore\n      0x04\n      add\n      tag_109\n      swap1\n      tag_87\n      jump\t// in\n    tag_109:\n      mload(0x40)\n      dup1\n      swap2\n      sub\n      swap1\n      revert\n    tag_108:\n        /* \"contracts/X.sol\":1215:1221  tweets */\n      0x01\n        /* \"contracts/X.sol\":1215:1230  tweets[_author] */\n      0x00\n        /* \"contracts/X.sol\":1222:1229  _author */\n      dup4\n        /* \"contracts/X.sol\":1215:1230  tweets[_author] */\n      0xffffffffffffffffffffffffffffffffffffffff\n      and\n      0xffffffffffffffffffffffffffffffffffffffff\n      and\n      dup2\n      mstore\n      0x20\n      add\n      swap1\n      dup2\n      mstore\n      0x20\n      add\n      0x00\n      keccak256\n        /* \"contracts/X.sol\":1231:1234  _id */\n      dup2\n        /* \"contracts/X.sol\":1215:1235  tweets[_author][_id] */\n      dup2\n      sload\n      dup2\n      lt\n      tag_110\n      jumpi\n      tag_111\n      tag_65\n      jump\t// in\n    tag_111:\n    tag_110:\n      swap1\n      0x00\n      mstore\n      keccak256(0x00, 0x20)\n      swap1\n      0x05\n      mul\n      add\n        /* \"contracts/X.sol\":1215:1241  tweets[_author][_id].likes */\n      0x04\n      add\n      0x00\n        /* \"contracts/X.sol\":1215:1243  tweets[_author][_id].likes++ */\n      dup2\n      sload\n      dup1\n      swap3\n      swap2\n      swap1\n      tag_113\n      swap1\n      tag_114\n      jump\t// in\n    tag_113:\n      swap2\n      swap1\n      pop\n      sstore\n      pop\n        /* \"contracts/X.sol\":1070:1251  function likeTweet(address _author, uint256 _id) external{... */\n      pop\n      pop\n      jump\t// out\n        /* \"contracts/X.sol\":80:116  uint16 public MAX_TWEET_LENGTH = 280 */\n    tag_41:\n      0x00\n      dup1\n      sload\n      swap1\n      0x0100\n      exp\n      swap1\n      div\n      0xffff\n      and\n      dup2\n      jump\t// out\n        /* \"contracts/X.sol\":653:1062  function createTweet(string memory _tweet) public {... */\n    tag_47:\n        /* \"contracts/X.sol\":746:762  MAX_TWEET_LENGTH */\n      0x00\n      dup1\n      sload\n      swap1\n      0x0100\n      exp\n      swap1\n      div\n      0xffff\n      and\n        /* \"contracts/X.sol\":722:762  bytes(_tweet).length <= MAX_TWEET_LENGTH */\n      0xffff\n      and\n        /* \"contracts/X.sol\":728:734  _tweet */\n      dup2\n        /* \"contracts/X.sol\":722:742  bytes(_tweet).length */\n      mload\n        /* \"contracts/X.sol\":722:762  bytes(_tweet).length <= MAX_TWEET_LENGTH */\n      gt\n      iszero\n        /* \"contracts/X.sol\":714:782  require(bytes(_tweet).length <= MAX_TWEET_LENGTH, \"TWEET TOO LONG!\") */\n      tag_116\n      jumpi\n      mload(0x40)\n      0x08c379a000000000000000000000000000000000000000000000000000000000\n      dup2\n      mstore\n      0x04\n      add\n      tag_117\n      swap1\n      tag_118\n      jump\t// in\n    tag_117:\n      mload(0x40)\n      dup1\n      swap2\n      sub\n      swap1\n      revert\n    tag_116:\n        /* \"contracts/X.sol\":795:816  Tweet memory newTweet */\n      0x00\n        /* \"contracts/X.sol\":819:1008  Tweet({... */\n      mload(0x40)\n      dup1\n      0xa0\n      add\n      0x40\n      mstore\n      dup1\n        /* \"contracts/X.sol\":844:850  tweets */\n      0x01\n        /* \"contracts/X.sol\":844:862  tweets[msg.sender] */\n      0x00\n        /* \"contracts/X.sol\":851:861  msg.sender */\n      caller\n        /* \"contracts/X.sol\":844:862  tweets[msg.sender] */\n      0xffffffffffffffffffffffffffffffffffffffff\n      and\n      0xffffffffffffffffffffffffffffffffffffffff\n      and\n      dup2\n      mstore\n      0x20\n      add\n      swap1\n      dup2\n      mstore\n      0x20\n      add\n      0x00\n      keccak256\n        /* \"contracts/X.sol\":844:869  tweets[msg.sender].length */\n      dup1\n      sload\n      swap1\n      pop\n        /* \"contracts/X.sol\":819:1008  Tweet({... */\n      dup2\n      mstore\n      0x20\n      add\n        /* \"contracts/X.sol\":892:902  msg.sender */\n      caller\n        /* \"contracts/X.sol\":819:1008  Tweet({... */\n      0xffffffffffffffffffffffffffffffffffffffff\n      and\n      dup2\n      mstore\n      0x20\n      add\n        /* \"contracts/X.sol\":926:932  _tweet */\n      dup4\n        /* \"contracts/X.sol\":819:1008  Tweet({... */\n      dup2\n      mstore\n      0x20\n      add\n        /* \"contracts/X.sol\":958:973  block.timestamp */\n      timestamp\n        /* \"contracts/X.sol\":819:1008  Tweet({... */\n      dup2\n      mstore\n      0x20\n      add\n        /* \"contracts/X.sol\":995:996  0 */\n      0x00\n        /* \"contracts/X.sol\":819:1008  Tweet({... */\n      dup2\n      mstore\n      pop\n        /* \"contracts/X.sol\":795:1008  Tweet memory newTweet = Tweet({... */\n      swap1\n      pop\n        /* \"contracts/X.sol\":1021:1027  tweets */\n      0x01\n        /* \"contracts/X.sol\":1021:1039  tweets[msg.sender] */\n      0x00\n        /* \"contracts/X.sol\":1028:1038  msg.sender */\n      caller\n        /* \"contracts/X.sol\":1021:1039  tweets[msg.sender] */\n      0xffffffffffffffffffffffffffffffffffffffff\n      and\n      0xffffffffffffffffffffffffffffffffffffffff\n      and\n      dup2\n      mstore\n      0x20\n      add\n      swap1\n      dup2\n      mstore\n      0x20\n      add\n      0x00\n      keccak256\n        /* \"contracts/X.sol\":1045:1053  newTweet */\n      dup2\n        /* \"contracts/X.sol\":1021:1054  tweets[msg.sender].push(newTweet) */\n      swap1\n      dup1\n      0x01\n      dup2\n      sload\n      add\n      dup1\n      dup3\n      sstore\n      dup1\n      swap2\n      pop\n      pop\n      0x01\n      swap1\n      sub\n      swap1\n      0x00\n      mstore\n      keccak256(0x00, 0x20)\n      swap1\n      0x05\n      mul\n      add\n      0x00\n      swap1\n      swap2\n      swap1\n      swap2\n      swap1\n      swap2\n      pop\n      0x00\n      dup3\n      add\n      mload\n      dup2\n      0x00\n      add\n      sstore\n      0x20\n      dup3\n      add\n      mload\n      dup2\n      0x01\n      add\n      exp(0x0100, 0x00)\n      dup2\n      sload\n      dup2\n      0xffffffffffffffffffffffffffffffffffffffff\n      mul\n      not\n      and\n      swap1\n      dup4\n      0xffffffffffffffffffffffffffffffffffffffff\n      and\n      mul\n      or\n      swap1\n      sstore\n      pop\n      0x40\n      dup3\n      add\n      mload\n      dup2\n      0x02\n      add\n      swap1\n      dup1\n      mload\n      swap1\n      0x20\n      add\n      swap1\n      tag_120\n      swap3\n      swap2\n      swap1\n      tag_121\n      jump\t// in\n    tag_120:\n      pop\n      0x60\n      dup3\n      add\n      mload\n      dup2\n      0x03\n      add\n      sstore\n      0x80\n      dup3\n      add\n      mload\n      dup2\n      0x04\n      add\n      sstore\n      pop\n      pop\n        /* \"contracts/X.sol\":703:1062  {... */\n      pop\n        /* \"contracts/X.sol\":653:1062  function createTweet(string memory _tweet) public {... */\n      pop\n      jump\t// out\n        /* \"contracts/X.sol\":324:344  address public owner */\n    tag_49:\n      0x02\n      0x00\n      swap1\n      sload\n      swap1\n      0x0100\n      exp\n      swap1\n      div\n      0xffffffffffffffffffffffffffffffffffffffff\n      and\n      dup2\n      jump\t// out\n    tag_61:\n      mload(0x40)\n      dup1\n      0xa0\n      add\n      0x40\n      mstore\n      dup1\n      0x00\n      dup2\n      mstore\n      0x20\n      add\n      and(0xffffffffffffffffffffffffffffffffffffffff, 0x00)\n      dup2\n      mstore\n      0x20\n      add\n      0x60\n      dup2\n      mstore\n      0x20\n      add\n      0x00\n      dup2\n      mstore\n      0x20\n      add\n      0x00\n      dup2\n      mstore\n      pop\n      swap1\n      jump\t// out\n    tag_121:\n      dup3\n      dup1\n      sload\n      tag_122\n      swap1\n      tag_55\n      jump\t// in\n    tag_122:\n      swap1\n      0x00\n      mstore\n      keccak256(0x00, 0x20)\n      swap1\n      0x1f\n      add\n      0x20\n      swap1\n      div\n      dup2\n      add\n      swap3\n      dup3\n      tag_124\n      jumpi\n      0x00\n      dup6\n      sstore\n      jump(tag_123)\n    tag_124:\n      dup3\n      0x1f\n      lt\n      tag_125\n      jumpi\n      dup1\n      mload\n      not(0xff)\n      and\n      dup4\n      dup1\n      add\n      or\n      dup6\n      sstore\n      jump(tag_123)\n    tag_125:\n      dup3\n      dup1\n      add\n      0x01\n      add\n      dup6\n      sstore\n      dup3\n      iszero\n      tag_123\n      jumpi\n      swap2\n      dup3\n      add\n    tag_126:\n      dup3\n      dup2\n      gt\n      iszero\n      tag_127\n      jumpi\n      dup3\n      mload\n      dup3\n      sstore\n      swap2\n      0x20\n      add\n      swap2\n      swap1\n      0x01\n      add\n      swap1\n      jump(tag_126)\n    tag_127:\n    tag_123:\n      pop\n      swap1\n      pop\n      tag_128\n      swap2\n      swap1\n      tag_129\n      jump\t// in\n    tag_128:\n      pop\n      swap1\n      jump\t// out\n    tag_129:\n    tag_130:\n      dup1\n      dup3\n      gt\n      iszero\n      tag_131\n      jumpi\n      0x00\n      dup2\n      0x00\n      swap1\n      sstore\n      pop\n      0x01\n      add\n      jump(tag_130)\n    tag_131:\n      pop\n      swap1\n      jump\t// out\n        /* \"#utility.yul\":7:82   */\n    tag_132:\n        /* \"#utility.yul\":40:46   */\n      0x00\n        /* \"#utility.yul\":73:75   */\n      0x40\n        /* \"#utility.yul\":67:76   */\n      mload\n        /* \"#utility.yul\":57:76   */\n      swap1\n      pop\n        /* \"#utility.yul\":7:82   */\n      swap1\n      jump\t// out\n        /* \"#utility.yul\":88:205   */\n    tag_133:\n        /* \"#utility.yul\":197:198   */\n      0x00\n        /* \"#utility.yul\":194:195   */\n      dup1\n        /* \"#utility.yul\":187:199   */\n      revert\n        /* \"#utility.yul\":211:328   */\n    tag_134:\n        /* \"#utility.yul\":320:321   */\n      0x00\n        /* \"#utility.yul\":317:318   */\n      dup1\n        /* \"#utility.yul\":310:322   */\n      revert\n        /* \"#utility.yul\":334:460   */\n    tag_135:\n        /* \"#utility.yul\":371:378   */\n      0x00\n        /* \"#utility.yul\":411:453   */\n      0xffffffffffffffffffffffffffffffffffffffff\n        /* \"#utility.yul\":404:409   */\n      dup3\n        /* \"#utility.yul\":400:454   */\n      and\n        /* \"#utility.yul\":389:454   */\n      swap1\n      pop\n        /* \"#utility.yul\":334:460   */\n      swap2\n      swap1\n      pop\n      jump\t// out\n        /* \"#utility.yul\":466:562   */\n    tag_136:\n        /* \"#utility.yul\":503:510   */\n      0x00\n        /* \"#utility.yul\":532:556   */\n      tag_190\n        /* \"#utility.yul\":550:555   */\n      dup3\n        /* \"#utility.yul\":532:556   */\n      tag_135\n      jump\t// in\n    tag_190:\n        /* \"#utility.yul\":521:556   */\n      swap1\n      pop\n        /* \"#utility.yul\":466:562   */\n      swap2\n      swap1\n      pop\n      jump\t// out\n        /* \"#utility.yul\":568:690   */\n    tag_137:\n        /* \"#utility.yul\":641:665   */\n      tag_192\n        /* \"#utility.yul\":659:664   */\n      dup2\n        /* \"#utility.yul\":641:665   */\n      tag_136\n      jump\t// in\n    tag_192:\n        /* \"#utility.yul\":634:639   */\n      dup2\n        /* \"#utility.yul\":631:666   */\n      eq\n        /* \"#utility.yul\":621:684   */\n      tag_193\n      jumpi\n        /* \"#utility.yul\":680:681   */\n      0x00\n        /* \"#utility.yul\":677:678   */\n      dup1\n        /* \"#utility.yul\":670:682   */\n      revert\n        /* \"#utility.yul\":621:684   */\n    tag_193:\n        /* \"#utility.yul\":568:690   */\n      pop\n      jump\t// out\n        /* \"#utility.yul\":696:835   */\n    tag_138:\n        /* \"#utility.yul\":742:747   */\n      0x00\n        /* \"#utility.yul\":780:786   */\n      dup2\n        /* \"#utility.yul\":767:787   */\n      calldataload\n        /* \"#utility.yul\":758:787   */\n      swap1\n      pop\n        /* \"#utility.yul\":796:829   */\n      tag_195\n        /* \"#utility.yul\":823:828   */\n      dup2\n        /* \"#utility.yul\":796:829   */\n      tag_137\n      jump\t// in\n    tag_195:\n        /* \"#utility.yul\":696:835   */\n      swap3\n      swap2\n      pop\n      pop\n      jump\t// out\n        /* \"#utility.yul\":841:918   */\n    tag_139:\n        /* \"#utility.yul\":878:885   */\n      0x00\n        /* \"#utility.yul\":907:912   */\n      dup2\n        /* \"#utility.yul\":896:912   */\n      swap1\n      pop\n        /* \"#utility.yul\":841:918   */\n      swap2\n      swap1\n      pop\n      jump\t// out\n        /* \"#utility.yul\":924:1046   */\n    tag_140:\n        /* \"#utility.yul\":997:1021   */\n      tag_198\n        /* \"#utility.yul\":1015:1020   */\n      dup2\n        /* \"#utility.yul\":997:1021   */\n      tag_139\n      jump\t// in\n    tag_198:\n        /* \"#utility.yul\":990:995   */\n      dup2\n        /* \"#utility.yul\":987:1022   */\n      eq\n        /* \"#utility.yul\":977:1040   */\n      tag_199\n      jumpi\n        /* \"#utility.yul\":1036:1037   */\n      0x00\n        /* \"#utility.yul\":1033:1034   */\n      dup1\n        /* \"#utility.yul\":1026:1038   */\n      revert\n        /* \"#utility.yul\":977:1040   */\n    tag_199:\n        /* \"#utility.yul\":924:1046   */\n      pop\n      jump\t// out\n        /* \"#utility.yul\":1052:1191   */\n    tag_141:\n        /* \"#utility.yul\":1098:1103   */\n      0x00\n        /* \"#utility.yul\":1136:1142   */\n      dup2\n        /* \"#utility.yul\":1123:1143   */\n      calldataload\n        /* \"#utility.yul\":1114:1143   */\n      swap1\n      pop\n        /* \"#utility.yul\":1152:1185   */\n      tag_201\n        /* \"#utility.yul\":1179:1184   */\n      dup2\n        /* \"#utility.yul\":1152:1185   */\n      tag_140\n      jump\t// in\n    tag_201:\n        /* \"#utility.yul\":1052:1191   */\n      swap3\n      swap2\n      pop\n      pop\n      jump\t// out\n        /* \"#utility.yul\":1197:1671   */\n    tag_15:\n        /* \"#utility.yul\":1265:1271   */\n      0x00\n        /* \"#utility.yul\":1273:1279   */\n      dup1\n        /* \"#utility.yul\":1322:1324   */\n      0x40\n        /* \"#utility.yul\":1310:1319   */\n      dup4\n        /* \"#utility.yul\":1301:1308   */\n      dup6\n        /* \"#utility.yul\":1297:1320   */\n      sub\n        /* \"#utility.yul\":1293:1325   */\n      slt\n        /* \"#utility.yul\":1290:1409   */\n      iszero\n      tag_203\n      jumpi\n        /* \"#utility.yul\":1328:1407   */\n      tag_204\n      tag_133\n      jump\t// in\n    tag_204:\n        /* \"#utility.yul\":1290:1409   */\n    tag_203:\n        /* \"#utility.yul\":1448:1449   */\n      0x00\n        /* \"#utility.yul\":1473:1526   */\n      tag_205\n        /* \"#utility.yul\":1518:1525   */\n      dup6\n        /* \"#utility.yul\":1509:1515   */\n      dup3\n        /* \"#utility.yul\":1498:1507   */\n      dup7\n        /* \"#utility.yul\":1494:1516   */\n      add\n        /* \"#utility.yul\":1473:1526   */\n      tag_138\n      jump\t// in\n    tag_205:\n        /* \"#utility.yul\":1463:1526   */\n      swap3\n      pop\n        /* \"#utility.yul\":1419:1536   */\n      pop\n        /* \"#utility.yul\":1575:1577   */\n      0x20\n        /* \"#utility.yul\":1601:1654   */\n      tag_206\n        /* \"#utility.yul\":1646:1653   */\n      dup6\n        /* \"#utility.yul\":1637:1643   */\n      dup3\n        /* \"#utility.yul\":1626:1635   */\n      dup7\n        /* \"#utility.yul\":1622:1644   */\n      add\n        /* \"#utility.yul\":1601:1654   */\n      tag_141\n      jump\t// in\n    tag_206:\n        /* \"#utility.yul\":1591:1654   */\n      swap2\n      pop\n        /* \"#utility.yul\":1546:1664   */\n      pop\n        /* \"#utility.yul\":1197:1671   */\n      swap3\n      pop\n      swap3\n      swap1\n      pop\n      jump\t// out\n        /* \"#utility.yul\":1677:1795   */\n    tag_142:\n        /* \"#utility.yul\":1764:1788   */\n      tag_208\n        /* \"#utility.yul\":1782:1787   */\n      dup2\n        /* \"#utility.yul\":1764:1788   */\n      tag_139\n      jump\t// in\n    tag_208:\n        /* \"#utility.yul\":1759:1762   */\n      dup3\n        /* \"#utility.yul\":1752:1789   */\n      mstore\n        /* \"#utility.yul\":1677:1795   */\n      pop\n      pop\n      jump\t// out\n        /* \"#utility.yul\":1801:1919   */\n    tag_143:\n        /* \"#utility.yul\":1888:1912   */\n      tag_210\n        /* \"#utility.yul\":1906:1911   */\n      dup2\n        /* \"#utility.yul\":1888:1912   */\n      tag_136\n      jump\t// in\n    tag_210:\n        /* \"#utility.yul\":1883:1886   */\n      dup3\n        /* \"#utility.yul\":1876:1913   */\n      mstore\n        /* \"#utility.yul\":1801:1919   */\n      pop\n      pop\n      jump\t// out\n        /* \"#utility.yul\":1925:2024   */\n    tag_144:\n        /* \"#utility.yul\":1977:1983   */\n      0x00\n        /* \"#utility.yul\":2011:2016   */\n      dup2\n        /* \"#utility.yul\":2005:2017   */\n      mload\n        /* \"#utility.yul\":1995:2017   */\n      swap1\n      pop\n        /* \"#utility.yul\":1925:2024   */\n      swap2\n      swap1\n      pop\n      jump\t// out\n        /* \"#utility.yul\":2030:2199   */\n    tag_145:\n        /* \"#utility.yul\":2114:2125   */\n      0x00\n        /* \"#utility.yul\":2148:2154   */\n      dup3\n        /* \"#utility.yul\":2143:2146   */\n      dup3\n        /* \"#utility.yul\":2136:2155   */\n      mstore\n        /* \"#utility.yul\":2188:2192   */\n      0x20\n        /* \"#utility.yul\":2183:2186   */\n      dup3\n        /* \"#utility.yul\":2179:2193   */\n      add\n        /* \"#utility.yul\":2164:2193   */\n      swap1\n      pop\n        /* \"#utility.yul\":2030:2199   */\n      swap3\n      swap2\n      pop\n      pop\n      jump\t// out\n        /* \"#utility.yul\":2205:2512   */\n    tag_146:\n        /* \"#utility.yul\":2273:2274   */\n      0x00\n        /* \"#utility.yul\":2283:2396   */\n    tag_214:\n        /* \"#utility.yul\":2297:2303   */\n      dup4\n        /* \"#utility.yul\":2294:2295   */\n      dup2\n        /* \"#utility.yul\":2291:2304   */\n      lt\n        /* \"#utility.yul\":2283:2396   */\n      iszero\n      tag_216\n      jumpi\n        /* \"#utility.yul\":2382:2383   */\n      dup1\n        /* \"#utility.yul\":2377:2380   */\n      dup3\n        /* \"#utility.yul\":2373:2384   */\n      add\n        /* \"#utility.yul\":2367:2385   */\n      mload\n        /* \"#utility.yul\":2363:2364   */\n      dup2\n        /* \"#utility.yul\":2358:2361   */\n      dup5\n        /* \"#utility.yul\":2354:2365   */\n      add\n        /* \"#utility.yul\":2347:2386   */\n      mstore\n        /* \"#utility.yul\":2319:2321   */\n      0x20\n        /* \"#utility.yul\":2316:2317   */\n      dup2\n        /* \"#utility.yul\":2312:2322   */\n      add\n        /* \"#utility.yul\":2307:2322   */\n      swap1\n      pop\n        /* \"#utility.yul\":2283:2396   */\n      jump(tag_214)\n    tag_216:\n        /* \"#utility.yul\":2414:2420   */\n      dup4\n        /* \"#utility.yul\":2411:2412   */\n      dup2\n        /* \"#utility.yul\":2408:2421   */\n      gt\n        /* \"#utility.yul\":2405:2506   */\n      iszero\n      tag_217\n      jumpi\n        /* \"#utility.yul\":2494:2495   */\n      0x00\n        /* \"#utility.yul\":2485:2491   */\n      dup5\n        /* \"#utility.yul\":2480:2483   */\n      dup5\n        /* \"#utility.yul\":2476:2492   */\n      add\n        /* \"#utility.yul\":2469:2496   */\n      mstore\n        /* \"#utility.yul\":2405:2506   */\n    tag_217:\n        /* \"#utility.yul\":2254:2512   */\n      pop\n        /* \"#utility.yul\":2205:2512   */\n      pop\n      pop\n      pop\n      jump\t// out\n        /* \"#utility.yul\":2518:2620   */\n    tag_147:\n        /* \"#utility.yul\":2559:2565   */\n      0x00\n        /* \"#utility.yul\":2610:2612   */\n      0x1f\n        /* \"#utility.yul\":2606:2613   */\n      not\n        /* \"#utility.yul\":2601:2603   */\n      0x1f\n        /* \"#utility.yul\":2594:2599   */\n      dup4\n        /* \"#utility.yul\":2590:2604   */\n      add\n        /* \"#utility.yul\":2586:2614   */\n      and\n        /* \"#utility.yul\":2576:2614   */\n      swap1\n      pop\n        /* \"#utility.yul\":2518:2620   */\n      swap2\n      swap1\n      pop\n      jump\t// out\n        /* \"#utility.yul\":2626:2990   */\n    tag_148:\n        /* \"#utility.yul\":2714:2717   */\n      0x00\n        /* \"#utility.yul\":2742:2781   */\n      tag_220\n        /* \"#utility.yul\":2775:2780   */\n      dup3\n        /* \"#utility.yul\":2742:2781   */\n      tag_144\n      jump\t// in\n    tag_220:\n        /* \"#utility.yul\":2797:2868   */\n      tag_221\n        /* \"#utility.yul\":2861:2867   */\n      dup2\n        /* \"#utility.yul\":2856:2859   */\n      dup6\n        /* \"#utility.yul\":2797:2868   */\n      tag_145\n      jump\t// in\n    tag_221:\n        /* \"#utility.yul\":2790:2868   */\n      swap4\n      pop\n        /* \"#utility.yul\":2877:2929   */\n      tag_222\n        /* \"#utility.yul\":2922:2928   */\n      dup2\n        /* \"#utility.yul\":2917:2920   */\n      dup6\n        /* \"#utility.yul\":2910:2914   */\n      0x20\n        /* \"#utility.yul\":2903:2908   */\n      dup7\n        /* \"#utility.yul\":2899:2915   */\n      add\n        /* \"#utility.yul\":2877:2929   */\n      tag_146\n      jump\t// in\n    tag_222:\n        /* \"#utility.yul\":2954:2983   */\n      tag_223\n        /* \"#utility.yul\":2976:2982   */\n      dup2\n        /* \"#utility.yul\":2954:2983   */\n      tag_147\n      jump\t// in\n    tag_223:\n        /* \"#utility.yul\":2949:2952   */\n      dup5\n        /* \"#utility.yul\":2945:2984   */\n      add\n        /* \"#utility.yul\":2938:2984   */\n      swap2\n      pop\n        /* \"#utility.yul\":2718:2990   */\n      pop\n        /* \"#utility.yul\":2626:2990   */\n      swap3\n      swap2\n      pop\n      pop\n      jump\t// out\n        /* \"#utility.yul\":2996:3751   */\n    tag_18:\n        /* \"#utility.yul\":3221:3225   */\n      0x00\n        /* \"#utility.yul\":3259:3262   */\n      0xa0\n        /* \"#utility.yul\":3248:3257   */\n      dup3\n        /* \"#utility.yul\":3244:3263   */\n      add\n        /* \"#utility.yul\":3236:3263   */\n      swap1\n      pop\n        /* \"#utility.yul\":3273:3344   */\n      tag_225\n        /* \"#utility.yul\":3341:3342   */\n      0x00\n        /* \"#utility.yul\":3330:3339   */\n      dup4\n        /* \"#utility.yul\":3326:3343   */\n      add\n        /* \"#utility.yul\":3317:3323   */\n      dup9\n        /* \"#utility.yul\":3273:3344   */\n      tag_142\n      jump\t// in\n    tag_225:\n        /* \"#utility.yul\":3354:3426   */\n      tag_226\n        /* \"#utility.yul\":3422:3424   */\n      0x20\n        /* \"#utility.yul\":3411:3420   */\n      dup4\n        /* \"#utility.yul\":3407:3425   */\n      add\n        /* \"#utility.yul\":3398:3404   */\n      dup8\n        /* \"#utility.yul\":3354:3426   */\n      tag_143\n      jump\t// in\n    tag_226:\n        /* \"#utility.yul\":3473:3482   */\n      dup2\n        /* \"#utility.yul\":3467:3471   */\n      dup2\n        /* \"#utility.yul\":3463:3483   */\n      sub\n        /* \"#utility.yul\":3458:3460   */\n      0x40\n        /* \"#utility.yul\":3447:3456   */\n      dup4\n        /* \"#utility.yul\":3443:3461   */\n      add\n        /* \"#utility.yul\":3436:3484   */\n      mstore\n        /* \"#utility.yul\":3501:3579   */\n      tag_227\n        /* \"#utility.yul\":3574:3578   */\n      dup2\n        /* \"#utility.yul\":3565:3571   */\n      dup7\n        /* \"#utility.yul\":3501:3579   */\n      tag_148\n      jump\t// in\n    tag_227:\n        /* \"#utility.yul\":3493:3579   */\n      swap1\n      pop\n        /* \"#utility.yul\":3589:3661   */\n      tag_228\n        /* \"#utility.yul\":3657:3659   */\n      0x60\n        /* \"#utility.yul\":3646:3655   */\n      dup4\n        /* \"#utility.yul\":3642:3660   */\n      add\n        /* \"#utility.yul\":3633:3639   */\n      dup6\n        /* \"#utility.yul\":3589:3661   */\n      tag_142\n      jump\t// in\n    tag_228:\n        /* \"#utility.yul\":3671:3744   */\n      tag_229\n        /* \"#utility.yul\":3739:3742   */\n      0x80\n        /* \"#utility.yul\":3728:3737   */\n      dup4\n        /* \"#utility.yul\":3724:3743   */\n      add\n        /* \"#utility.yul\":3715:3721   */\n      dup5\n        /* \"#utility.yul\":3671:3744   */\n      tag_142\n      jump\t// in\n    tag_229:\n        /* \"#utility.yul\":2996:3751   */\n      swap7\n      swap6\n      pop\n      pop\n      pop\n      pop\n      pop\n      pop\n      jump\t// out\n        /* \"#utility.yul\":3757:3865   */\n    tag_149:\n        /* \"#utility.yul\":3834:3858   */\n      tag_231\n        /* \"#utility.yul\":3852:3857   */\n      dup2\n        /* \"#utility.yul\":3834:3858   */\n      tag_139\n      jump\t// in\n    tag_231:\n        /* \"#utility.yul\":3829:3832   */\n      dup3\n        /* \"#utility.yul\":3822:3859   */\n      mstore\n        /* \"#utility.yul\":3757:3865   */\n      pop\n      pop\n      jump\t// out\n        /* \"#utility.yul\":3871:3979   */\n    tag_150:\n        /* \"#utility.yul\":3948:3972   */\n      tag_233\n        /* \"#utility.yul\":3966:3971   */\n      dup2\n        /* \"#utility.yul\":3948:3972   */\n      tag_136\n      jump\t// in\n    tag_233:\n        /* \"#utility.yul\":3943:3946   */\n      dup3\n        /* \"#utility.yul\":3936:3973   */\n      mstore\n        /* \"#utility.yul\":3871:3979   */\n      pop\n      pop\n      jump\t// out\n        /* \"#utility.yul\":3985:4144   */\n    tag_151:\n        /* \"#utility.yul\":4059:4070   */\n      0x00\n        /* \"#utility.yul\":4093:4099   */\n      dup3\n        /* \"#utility.yul\":4088:4091   */\n      dup3\n        /* \"#utility.yul\":4081:4100   */\n      mstore\n        /* \"#utility.yul\":4133:4137   */\n      0x20\n        /* \"#utility.yul\":4128:4131   */\n      dup3\n        /* \"#utility.yul\":4124:4138   */\n      add\n        /* \"#utility.yul\":4109:4138   */\n      swap1\n      pop\n        /* \"#utility.yul\":3985:4144   */\n      swap3\n      swap2\n      pop\n      pop\n      jump\t// out\n        /* \"#utility.yul\":4150:4494   */\n    tag_152:\n        /* \"#utility.yul\":4228:4231   */\n      0x00\n        /* \"#utility.yul\":4256:4295   */\n      tag_236\n        /* \"#utility.yul\":4289:4294   */\n      dup3\n        /* \"#utility.yul\":4256:4295   */\n      tag_144\n      jump\t// in\n    tag_236:\n        /* \"#utility.yul\":4311:4372   */\n      tag_237\n        /* \"#utility.yul\":4365:4371   */\n      dup2\n        /* \"#utility.yul\":4360:4363   */\n      dup6\n        /* \"#utility.yul\":4311:4372   */\n      tag_151\n      jump\t// in\n    tag_237:\n        /* \"#utility.yul\":4304:4372   */\n      swap4\n      pop\n        /* \"#utility.yul\":4381:4433   */\n      tag_238\n        /* \"#utility.yul\":4426:4432   */\n      dup2\n        /* \"#utility.yul\":4421:4424   */\n      dup6\n        /* \"#utility.yul\":4414:4418   */\n      0x20\n        /* \"#utility.yul\":4407:4412   */\n      dup7\n        /* \"#utility.yul\":4403:4419   */\n      add\n        /* \"#utility.yul\":4381:4433   */\n      tag_146\n      jump\t// in\n    tag_238:\n        /* \"#utility.yul\":4458:4487   */\n      tag_239\n        /* \"#utility.yul\":4480:4486   */\n      dup2\n        /* \"#utility.yul\":4458:4487   */\n      tag_147\n      jump\t// in\n    tag_239:\n        /* \"#utility.yul\":4453:4456   */\n      dup5\n        /* \"#utility.yul\":4449:4488   */\n      add\n        /* \"#utility.yul\":4442:4488   */\n      swap2\n      pop\n        /* \"#utility.yul\":4232:4494   */\n      pop\n        /* \"#utility.yul\":4150:4494   */\n      swap3\n      swap2\n      pop\n      pop\n      jump\t// out\n        /* \"#utility.yul\":4540:5669   */\n    tag_153:\n        /* \"#utility.yul\":4651:4654   */\n      0x00\n        /* \"#utility.yul\":4687:4691   */\n      0xa0\n        /* \"#utility.yul\":4682:4685   */\n      dup4\n        /* \"#utility.yul\":4678:4692   */\n      add\n        /* \"#utility.yul\":4772:4776   */\n      0x00\n        /* \"#utility.yul\":4765:4770   */\n      dup4\n        /* \"#utility.yul\":4761:4777   */\n      add\n        /* \"#utility.yul\":4755:4778   */\n      mload\n        /* \"#utility.yul\":4791:4854   */\n      tag_241\n        /* \"#utility.yul\":4848:4852   */\n      0x00\n        /* \"#utility.yul\":4843:4846   */\n      dup7\n        /* \"#utility.yul\":4839:4853   */\n      add\n        /* \"#utility.yul\":4825:4837   */\n      dup3\n        /* \"#utility.yul\":4791:4854   */\n      tag_149\n      jump\t// in\n    tag_241:\n        /* \"#utility.yul\":4702:4864   */\n      pop\n        /* \"#utility.yul\":4948:4952   */\n      0x20\n        /* \"#utility.yul\":4941:4946   */\n      dup4\n        /* \"#utility.yul\":4937:4953   */\n      add\n        /* \"#utility.yul\":4931:4954   */\n      mload\n        /* \"#utility.yul\":4967:5030   */\n      tag_242\n        /* \"#utility.yul\":5024:5028   */\n      0x20\n        /* \"#utility.yul\":5019:5022   */\n      dup7\n        /* \"#utility.yul\":5015:5029   */\n      add\n        /* \"#utility.yul\":5001:5013   */\n      dup3\n        /* \"#utility.yul\":4967:5030   */\n      tag_150\n      jump\t// in\n    tag_242:\n        /* \"#utility.yul\":4874:5040   */\n      pop\n        /* \"#utility.yul\":5125:5129   */\n      0x40\n        /* \"#utility.yul\":5118:5123   */\n      dup4\n        /* \"#utility.yul\":5114:5130   */\n      add\n        /* \"#utility.yul\":5108:5131   */\n      mload\n        /* \"#utility.yul\":5178:5181   */\n      dup5\n        /* \"#utility.yul\":5172:5176   */\n      dup3\n        /* \"#utility.yul\":5168:5182   */\n      sub\n        /* \"#utility.yul\":5161:5165   */\n      0x40\n        /* \"#utility.yul\":5156:5159   */\n      dup7\n        /* \"#utility.yul\":5152:5166   */\n      add\n        /* \"#utility.yul\":5145:5183   */\n      mstore\n        /* \"#utility.yul\":5204:5277   */\n      tag_243\n        /* \"#utility.yul\":5272:5276   */\n      dup3\n        /* \"#utility.yul\":5258:5270   */\n      dup3\n        /* \"#utility.yul\":5204:5277   */\n      tag_152\n      jump\t// in\n    tag_243:\n        /* \"#utility.yul\":5196:5277   */\n      swap2\n      pop\n        /* \"#utility.yul\":5050:5288   */\n      pop\n        /* \"#utility.yul\":5375:5379   */\n      0x60\n        /* \"#utility.yul\":5368:5373   */\n      dup4\n        /* \"#utility.yul\":5364:5380   */\n      add\n        /* \"#utility.yul\":5358:5381   */\n      mload\n        /* \"#utility.yul\":5394:5457   */\n      tag_244\n        /* \"#utility.yul\":5451:5455   */\n      0x60\n        /* \"#utility.yul\":5446:5449   */\n      dup7\n        /* \"#utility.yul\":5442:5456   */\n      add\n        /* \"#utility.yul\":5428:5440   */\n      dup3\n        /* \"#utility.yul\":5394:5457   */\n      tag_149\n      jump\t// in\n    tag_244:\n        /* \"#utility.yul\":5298:5467   */\n      pop\n        /* \"#utility.yul\":5550:5554   */\n      0x80\n        /* \"#utility.yul\":5543:5548   */\n      dup4\n        /* \"#utility.yul\":5539:5555   */\n      add\n        /* \"#utility.yul\":5533:5556   */\n      mload\n        /* \"#utility.yul\":5569:5632   */\n      tag_245\n        /* \"#utility.yul\":5626:5630   */\n      0x80\n        /* \"#utility.yul\":5621:5624   */\n      dup7\n        /* \"#utility.yul\":5617:5631   */\n      add\n        /* \"#utility.yul\":5603:5615   */\n      dup3\n        /* \"#utility.yul\":5569:5632   */\n      tag_149\n      jump\t// in\n    tag_245:\n        /* \"#utility.yul\":5477:5642   */\n      pop\n        /* \"#utility.yul\":5659:5663   */\n      dup1\n        /* \"#utility.yul\":5652:5663   */\n      swap2\n      pop\n        /* \"#utility.yul\":4656:5669   */\n      pop\n        /* \"#utility.yul\":4540:5669   */\n      swap3\n      swap2\n      pop\n      pop\n      jump\t// out\n        /* \"#utility.yul\":5675:6032   */\n    tag_23:\n        /* \"#utility.yul\":5810:5814   */\n      0x00\n        /* \"#utility.yul\":5848:5850   */\n      0x20\n        /* \"#utility.yul\":5837:5846   */\n      dup3\n        /* \"#utility.yul\":5833:5851   */\n      add\n        /* \"#utility.yul\":5825:5851   */\n      swap1\n      pop\n        /* \"#utility.yul\":5897:5906   */\n      dup2\n        /* \"#utility.yul\":5891:5895   */\n      dup2\n        /* \"#utility.yul\":5887:5907   */\n      sub\n        /* \"#utility.yul\":5883:5884   */\n      0x00\n        /* \"#utility.yul\":5872:5881   */\n      dup4\n        /* \"#utility.yul\":5868:5885   */\n      add\n        /* \"#utility.yul\":5861:5908   */\n      mstore\n        /* \"#utility.yul\":5925:6025   */\n      tag_247\n        /* \"#utility.yul\":6020:6024   */\n      dup2\n        /* \"#utility.yul\":6011:6017   */\n      dup5\n        /* \"#utility.yul\":5925:6025   */\n      tag_153\n      jump\t// in\n    tag_247:\n        /* \"#utility.yul\":5917:6025   */\n      swap1\n      pop\n        /* \"#utility.yul\":5675:6032   */\n      swap3\n      swap2\n      pop\n      pop\n      jump\t// out\n        /* \"#utility.yul\":6038:6367   */\n    tag_26:\n        /* \"#utility.yul\":6097:6103   */\n      0x00\n        /* \"#utility.yul\":6146:6148   */\n      0x20\n        /* \"#utility.yul\":6134:6143   */\n      dup3\n        /* \"#utility.yul\":6125:6132   */\n      dup5\n        /* \"#utility.yul\":6121:6144   */\n      sub\n        /* \"#utility.yul\":6117:6149   */\n      slt\n        /* \"#utility.yul\":6114:6233   */\n      iszero\n      tag_249\n      jumpi\n        /* \"#utility.yul\":6152:6231   */\n      tag_250\n      tag_133\n      jump\t// in\n    tag_250:\n        /* \"#utility.yul\":6114:6233   */\n    tag_249:\n        /* \"#utility.yul\":6272:6273   */\n      0x00\n        /* \"#utility.yul\":6297:6350   */\n      tag_251\n        /* \"#utility.yul\":6342:6349   */\n      dup5\n        /* \"#utility.yul\":6333:6339   */\n      dup3\n        /* \"#utility.yul\":6322:6331   */\n      dup6\n        /* \"#utility.yul\":6318:6340   */\n      add\n        /* \"#utility.yul\":6297:6350   */\n      tag_138\n      jump\t// in\n    tag_251:\n        /* \"#utility.yul\":6287:6350   */\n      swap2\n      pop\n        /* \"#utility.yul\":6243:6360   */\n      pop\n        /* \"#utility.yul\":6038:6367   */\n      swap3\n      swap2\n      pop\n      pop\n      jump\t// out\n        /* \"#utility.yul\":6373:6508   */\n    tag_154:\n        /* \"#utility.yul\":6461:6467   */\n      0x00\n        /* \"#utility.yul\":6495:6500   */\n      dup2\n        /* \"#utility.yul\":6489:6501   */\n      mload\n        /* \"#utility.yul\":6479:6501   */\n      swap1\n      pop\n        /* \"#utility.yul\":6373:6508   */\n      swap2\n      swap1\n      pop\n      jump\t// out\n        /* \"#utility.yul\":6514:6719   */\n    tag_155:\n        /* \"#utility.yul\":6634:6645   */\n      0x00\n        /* \"#utility.yul\":6668:6674   */\n      dup3\n        /* \"#utility.yul\":6663:6666   */\n      dup3\n        /* \"#utility.yul\":6656:6675   */\n      mstore\n        /* \"#utility.yul\":6708:6712   */\n      0x20\n        /* \"#utility.yul\":6703:6706   */\n      dup3\n        /* \"#utility.yul\":6699:6713   */\n      add\n        /* \"#utility.yul\":6684:6713   */\n      swap1\n      pop\n        /* \"#utility.yul\":6514:6719   */\n      swap3\n      swap2\n      pop\n      pop\n      jump\t// out\n        /* \"#utility.yul\":6725:6878   */\n    tag_156:\n        /* \"#utility.yul\":6813:6817   */\n      0x00\n        /* \"#utility.yul\":6836:6839   */\n      dup2\n        /* \"#utility.yul\":6828:6839   */\n      swap1\n      pop\n        /* \"#utility.yul\":6866:6870   */\n      0x20\n        /* \"#utility.yul\":6861:6864   */\n      dup3\n        /* \"#utility.yul\":6857:6871   */\n      add\n        /* \"#utility.yul\":6849:6871   */\n      swap1\n      pop\n        /* \"#utility.yul\":6725:6878   */\n      swap2\n      swap1\n      pop\n      jump\t// out\n        /* \"#utility.yul\":6924:8043   */\n    tag_157:\n        /* \"#utility.yul\":7025:7028   */\n      0x00\n        /* \"#utility.yul\":7061:7065   */\n      0xa0\n        /* \"#utility.yul\":7056:7059   */\n      dup4\n        /* \"#utility.yul\":7052:7066   */\n      add\n        /* \"#utility.yul\":7146:7150   */\n      0x00\n        /* \"#utility.yul\":7139:7144   */\n      dup4\n        /* \"#utility.yul\":7135:7151   */\n      add\n        /* \"#utility.yul\":7129:7152   */\n      mload\n        /* \"#utility.yul\":7165:7228   */\n      tag_256\n        /* \"#utility.yul\":7222:7226   */\n      0x00\n        /* \"#utility.yul\":7217:7220   */\n      dup7\n        /* \"#utility.yul\":7213:7227   */\n      add\n        /* \"#utility.yul\":7199:7211   */\n      dup3\n        /* \"#utility.yul\":7165:7228   */\n      tag_149\n      jump\t// in\n    tag_256:\n        /* \"#utility.yul\":7076:7238   */\n      pop\n        /* \"#utility.yul\":7322:7326   */\n      0x20\n        /* \"#utility.yul\":7315:7320   */\n      dup4\n        /* \"#utility.yul\":7311:7327   */\n      add\n        /* \"#utility.yul\":7305:7328   */\n      mload\n        /* \"#utility.yul\":7341:7404   */\n      tag_257\n        /* \"#utility.yul\":7398:7402   */\n      0x20\n        /* \"#utility.yul\":7393:7396   */\n      dup7\n        /* \"#utility.yul\":7389:7403   */\n      add\n        /* \"#utility.yul\":7375:7387   */\n      dup3\n        /* \"#utility.yul\":7341:7404   */\n      tag_150\n      jump\t// in\n    tag_257:\n        /* \"#utility.yul\":7248:7414   */\n      pop\n        /* \"#utility.yul\":7499:7503   */\n      0x40\n        /* \"#utility.yul\":7492:7497   */\n      dup4\n        /* \"#utility.yul\":7488:7504   */\n      add\n        /* \"#utility.yul\":7482:7505   */\n      mload\n        /* \"#utility.yul\":7552:7555   */\n      dup5\n        /* \"#utility.yul\":7546:7550   */\n      dup3\n        /* \"#utility.yul\":7542:7556   */\n      sub\n        /* \"#utility.yul\":7535:7539   */\n      0x40\n        /* \"#utility.yul\":7530:7533   */\n      dup7\n        /* \"#utility.yul\":7526:7540   */\n      add\n        /* \"#utility.yul\":7519:7557   */\n      mstore\n        /* \"#utility.yul\":7578:7651   */\n      tag_258\n        /* \"#utility.yul\":7646:7650   */\n      dup3\n        /* \"#utility.yul\":7632:7644   */\n      dup3\n        /* \"#utility.yul\":7578:7651   */\n      tag_152\n      jump\t// in\n    tag_258:\n        /* \"#utility.yul\":7570:7651   */\n      swap2\n      pop\n        /* \"#utility.yul\":7424:7662   */\n      pop\n        /* \"#utility.yul\":7749:7753   */\n      0x60\n        /* \"#utility.yul\":7742:7747   */\n      dup4\n        /* \"#utility.yul\":7738:7754   */\n      add\n        /* \"#utility.yul\":7732:7755   */\n      mload\n        /* \"#utility.yul\":7768:7831   */\n      tag_259\n        /* \"#utility.yul\":7825:7829   */\n      0x60\n        /* \"#utility.yul\":7820:7823   */\n      dup7\n        /* \"#utility.yul\":7816:7830   */\n      add\n        /* \"#utility.yul\":7802:7814   */\n      dup3\n        /* \"#utility.yul\":7768:7831   */\n      tag_149\n      jump\t// in\n    tag_259:\n        /* \"#utility.yul\":7672:7841   */\n      pop\n        /* \"#utility.yul\":7924:7928   */\n      0x80\n        /* \"#utility.yul\":7917:7922   */\n      dup4\n        /* \"#utility.yul\":7913:7929   */\n      add\n        /* \"#utility.yul\":7907:7930   */\n      mload\n        /* \"#utility.yul\":7943:8006   */\n      tag_260\n        /* \"#utility.yul\":8000:8004   */\n      0x80\n        /* \"#utility.yul\":7995:7998   */\n      dup7\n        /* \"#utility.yul\":7991:8005   */\n      add\n        /* \"#utility.yul\":7977:7989   */\n      dup3\n        /* \"#utility.yul\":7943:8006   */\n      tag_149\n      jump\t// in\n    tag_260:\n        /* \"#utility.yul\":7851:8016   */\n      pop\n        /* \"#utility.yul\":8033:8037   */\n      dup1\n        /* \"#utility.yul\":8026:8037   */\n      swap2\n      pop\n        /* \"#utility.yul\":7030:8043   */\n      pop\n        /* \"#utility.yul\":6924:8043   */\n      swap3\n      swap2\n      pop\n      pop\n      jump\t// out\n        /* \"#utility.yul\":8049:8289   */\n    tag_158:\n        /* \"#utility.yul\":8160:8170   */\n      0x00\n        /* \"#utility.yul\":8195:8283   */\n      tag_262\n        /* \"#utility.yul\":8279:8282   */\n      dup4\n        /* \"#utility.yul\":8271:8277   */\n      dup4\n        /* \"#utility.yul\":8195:8283   */\n      tag_157\n      jump\t// in\n    tag_262:\n        /* \"#utility.yul\":8181:8283   */\n      swap1\n      pop\n        /* \"#utility.yul\":8049:8289   */\n      swap3\n      swap2\n      pop\n      pop\n      jump\t// out\n        /* \"#utility.yul\":8295:8429   */\n    tag_159:\n        /* \"#utility.yul\":8386:8390   */\n      0x00\n        /* \"#utility.yul\":8418:8422   */\n      0x20\n        /* \"#utility.yul\":8413:8416   */\n      dup3\n        /* \"#utility.yul\":8409:8423   */\n      add\n        /* \"#utility.yul\":8401:8423   */\n      swap1\n      pop\n        /* \"#utility.yul\":8295:8429   */\n      swap2\n      swap1\n      pop\n      jump\t// out\n        /* \"#utility.yul\":8479:9558   */\n    tag_160:\n        /* \"#utility.yul\":8640:8643   */\n      0x00\n        /* \"#utility.yul\":8669:8744   */\n      tag_265\n        /* \"#utility.yul\":8738:8743   */\n      dup3\n        /* \"#utility.yul\":8669:8744   */\n      tag_154\n      jump\t// in\n    tag_265:\n        /* \"#utility.yul\":8760:8867   */\n      tag_266\n        /* \"#utility.yul\":8860:8866   */\n      dup2\n        /* \"#utility.yul\":8855:8858   */\n      dup6\n        /* \"#utility.yul\":8760:8867   */\n      tag_155\n      jump\t// in\n    tag_266:\n        /* \"#utility.yul\":8753:8867   */\n      swap4\n      pop\n        /* \"#utility.yul\":8893:8896   */\n      dup4\n        /* \"#utility.yul\":8938:8942   */\n      0x20\n        /* \"#utility.yul\":8930:8936   */\n      dup3\n        /* \"#utility.yul\":8926:8943   */\n      mul\n        /* \"#utility.yul\":8921:8924   */\n      dup6\n        /* \"#utility.yul\":8917:8944   */\n      add\n        /* \"#utility.yul\":8968:9045   */\n      tag_267\n        /* \"#utility.yul\":9039:9044   */\n      dup6\n        /* \"#utility.yul\":8968:9045   */\n      tag_156\n      jump\t// in\n    tag_267:\n        /* \"#utility.yul\":9068:9075   */\n      dup1\n        /* \"#utility.yul\":9099:9100   */\n      0x00\n        /* \"#utility.yul\":9084:9513   */\n    tag_268:\n        /* \"#utility.yul\":9109:9115   */\n      dup6\n        /* \"#utility.yul\":9106:9107   */\n      dup2\n        /* \"#utility.yul\":9103:9116   */\n      lt\n        /* \"#utility.yul\":9084:9513   */\n      iszero\n      tag_270\n      jumpi\n        /* \"#utility.yul\":9180:9189   */\n      dup5\n        /* \"#utility.yul\":9174:9178   */\n      dup5\n        /* \"#utility.yul\":9170:9190   */\n      sub\n        /* \"#utility.yul\":9165:9168   */\n      dup10\n        /* \"#utility.yul\":9158:9191   */\n      mstore\n        /* \"#utility.yul\":9231:9237   */\n      dup2\n        /* \"#utility.yul\":9225:9238   */\n      mload\n        /* \"#utility.yul\":9259:9365   */\n      tag_271\n        /* \"#utility.yul\":9360:9364   */\n      dup6\n        /* \"#utility.yul\":9345:9358   */\n      dup3\n        /* \"#utility.yul\":9259:9365   */\n      tag_158\n      jump\t// in\n    tag_271:\n        /* \"#utility.yul\":9251:9365   */\n      swap5\n      pop\n        /* \"#utility.yul\":9388:9469   */\n      tag_272\n        /* \"#utility.yul\":9462:9468   */\n      dup4\n        /* \"#utility.yul\":9388:9469   */\n      tag_159\n      jump\t// in\n    tag_272:\n        /* \"#utility.yul\":9378:9469   */\n      swap3\n      pop\n        /* \"#utility.yul\":9498:9502   */\n      0x20\n        /* \"#utility.yul\":9493:9496   */\n      dup11\n        /* \"#utility.yul\":9489:9503   */\n      add\n        /* \"#utility.yul\":9482:9503   */\n      swap10\n      pop\n        /* \"#utility.yul\":9144:9513   */\n      pop\n        /* \"#utility.yul\":9131:9132   */\n      0x01\n        /* \"#utility.yul\":9128:9129   */\n      dup2\n        /* \"#utility.yul\":9124:9133   */\n      add\n        /* \"#utility.yul\":9119:9133   */\n      swap1\n      pop\n        /* \"#utility.yul\":9084:9513   */\n      jump(tag_268)\n    tag_270:\n        /* \"#utility.yul\":9088:9102   */\n      pop\n        /* \"#utility.yul\":9529:9533   */\n      dup3\n        /* \"#utility.yul\":9522:9533   */\n      swap8\n      pop\n        /* \"#utility.yul\":9549:9552   */\n      dup8\n        /* \"#utility.yul\":9542:9552   */\n      swap6\n      pop\n        /* \"#utility.yul\":8645:9558   */\n      pop\n      pop\n      pop\n      pop\n      pop\n        /* \"#utility.yul\":8479:9558   */\n      swap3\n      swap2\n      pop\n      pop\n      jump\t// out\n        /* \"#utility.yul\":9564:10021   */\n    tag_29:\n        /* \"#utility.yul\":9749:9753   */\n      0x00\n        /* \"#utility.yul\":9787:9789   */\n      0x20\n        /* \"#utility.yul\":9776:9785   */\n      dup3\n        /* \"#utility.yul\":9772:9790   */\n      add\n        /* \"#utility.yul\":9764:9790   */\n      swap1\n      pop\n        /* \"#utility.yul\":9836:9845   */\n      dup2\n        /* \"#utility.yul\":9830:9834   */\n      dup2\n        /* \"#utility.yul\":9826:9846   */\n      sub\n        /* \"#utility.yul\":9822:9823   */\n      0x00\n        /* \"#utility.yul\":9811:9820   */\n      dup4\n        /* \"#utility.yul\":9807:9824   */\n      add\n        /* \"#utility.yul\":9800:9847   */\n      mstore\n        /* \"#utility.yul\":9864:10014   */\n      tag_274\n        /* \"#utility.yul\":10009:10013   */\n      dup2\n        /* \"#utility.yul\":10000:10006   */\n      dup5\n        /* \"#utility.yul\":9864:10014   */\n      tag_160\n      jump\t// in\n    tag_274:\n        /* \"#utility.yul\":9856:10014   */\n      swap1\n      pop\n        /* \"#utility.yul\":9564:10021   */\n      swap3\n      swap2\n      pop\n      pop\n      jump\t// out\n        /* \"#utility.yul\":10027:10116   */\n    tag_161:\n        /* \"#utility.yul\":10063:10070   */\n      0x00\n        /* \"#utility.yul\":10103:10109   */\n      0xffff\n        /* \"#utility.yul\":10096:10101   */\n      dup3\n        /* \"#utility.yul\":10092:10110   */\n      and\n        /* \"#utility.yul\":10081:10110   */\n      swap1\n      pop\n        /* \"#utility.yul\":10027:10116   */\n      swap2\n      swap1\n      pop\n      jump\t// out\n        /* \"#utility.yul\":10122:10242   */\n    tag_162:\n        /* \"#utility.yul\":10194:10217   */\n      tag_277\n        /* \"#utility.yul\":10211:10216   */\n      dup2\n        /* \"#utility.yul\":10194:10217   */\n      tag_161\n      jump\t// in\n    tag_277:\n        /* \"#utility.yul\":10187:10192   */\n      dup2\n        /* \"#utility.yul\":10184:10218   */\n      eq\n        /* \"#utility.yul\":10174:10236   */\n      tag_278\n      jumpi\n        /* \"#utility.yul\":10232:10233   */\n      0x00\n        /* \"#utility.yul\":10229:10230   */\n      dup1\n        /* \"#utility.yul\":10222:10234   */\n      revert\n        /* \"#utility.yul\":10174:10236   */\n    tag_278:\n        /* \"#utility.yul\":10122:10242   */\n      pop\n      jump\t// out\n        /* \"#utility.yul\":10248:10385   */\n    tag_163:\n        /* \"#utility.yul\":10293:10298   */\n      0x00\n        /* \"#utility.yul\":10331:10337   */\n      dup2\n        /* \"#utility.yul\":10318:10338   */\n      calldataload\n        /* \"#utility.yul\":10309:10338   */\n      swap1\n      pop\n        /* \"#utility.yul\":10347:10379   */\n      tag_280\n        /* \"#utility.yul\":10373:10378   */\n      dup2\n        /* \"#utility.yul\":10347:10379   */\n      tag_162\n      jump\t// in\n    tag_280:\n        /* \"#utility.yul\":10248:10385   */\n      swap3\n      swap2\n      pop\n      pop\n      jump\t// out\n        /* \"#utility.yul\":10391:10718   */\n    tag_35:\n        /* \"#utility.yul\":10449:10455   */\n      0x00\n        /* \"#utility.yul\":10498:10500   */\n      0x20\n        /* \"#utility.yul\":10486:10495   */\n      dup3\n        /* \"#utility.yul\":10477:10484   */\n      dup5\n        /* \"#utility.yul\":10473:10496   */\n      sub\n        /* \"#utility.yul\":10469:10501   */\n      slt\n        /* \"#utility.yul\":10466:10585   */\n      iszero\n      tag_282\n      jumpi\n        /* \"#utility.yul\":10504:10583   */\n      tag_283\n      tag_133\n      jump\t// in\n    tag_283:\n        /* \"#utility.yul\":10466:10585   */\n    tag_282:\n        /* \"#utility.yul\":10624:10625   */\n      0x00\n        /* \"#utility.yul\":10649:10701   */\n      tag_284\n        /* \"#utility.yul\":10693:10700   */\n      dup5\n        /* \"#utility.yul\":10684:10690   */\n      dup3\n        /* \"#utility.yul\":10673:10682   */\n      dup6\n        /* \"#utility.yul\":10669:10691   */\n      add\n        /* \"#utility.yul\":10649:10701   */\n      tag_163\n      jump\t// in\n    tag_284:\n        /* \"#utility.yul\":10639:10701   */\n      swap2\n      pop\n        /* \"#utility.yul\":10595:10711   */\n      pop\n        /* \"#utility.yul\":10391:10718   */\n      swap3\n      swap2\n      pop\n      pop\n      jump\t// out\n        /* \"#utility.yul\":10724:10839   */\n    tag_164:\n        /* \"#utility.yul\":10809:10832   */\n      tag_286\n        /* \"#utility.yul\":10826:10831   */\n      dup2\n        /* \"#utility.yul\":10809:10832   */\n      tag_161\n      jump\t// in\n    tag_286:\n        /* \"#utility.yul\":10804:10807   */\n      dup3\n        /* \"#utility.yul\":10797:10833   */\n      mstore\n        /* \"#utility.yul\":10724:10839   */\n      pop\n      pop\n      jump\t// out\n        /* \"#utility.yul\":10845:11063   */\n    tag_43:\n        /* \"#utility.yul\":10936:10940   */\n      0x00\n        /* \"#utility.yul\":10974:10976   */\n      0x20\n        /* \"#utility.yul\":10963:10972   */\n      dup3\n        /* \"#utility.yul\":10959:10977   */\n      add\n        /* \"#utility.yul\":10951:10977   */\n      swap1\n      pop\n        /* \"#utility.yul\":10987:11056   */\n      tag_288\n        /* \"#utility.yul\":11053:11054   */\n      0x00\n        /* \"#utility.yul\":11042:11051   */\n      dup4\n        /* \"#utility.yul\":11038:11055   */\n      add\n        /* \"#utility.yul\":11029:11035   */\n      dup5\n        /* \"#utility.yul\":10987:11056   */\n      tag_164\n      jump\t// in\n    tag_288:\n        /* \"#utility.yul\":10845:11063   */\n      swap3\n      swap2\n      pop\n      pop\n      jump\t// out\n        /* \"#utility.yul\":11069:11186   */\n    tag_165:\n        /* \"#utility.yul\":11178:11179   */\n      0x00\n        /* \"#utility.yul\":11175:11176   */\n      dup1\n        /* \"#utility.yul\":11168:11180   */\n      revert\n        /* \"#utility.yul\":11192:11309   */\n    tag_166:\n        /* \"#utility.yul\":11301:11302   */\n      0x00\n        /* \"#utility.yul\":11298:11299   */\n      dup1\n        /* \"#utility.yul\":11291:11303   */\n      revert\n        /* \"#utility.yul\":11315:11495   */\n    tag_167:\n        /* \"#utility.yul\":11363:11440   */\n      0x4e487b7100000000000000000000000000000000000000000000000000000000\n        /* \"#utility.yul\":11360:11361   */\n      0x00\n        /* \"#utility.yul\":11353:11441   */\n      mstore\n        /* \"#utility.yul\":11460:11464   */\n      0x41\n        /* \"#utility.yul\":11457:11458   */\n      0x04\n        /* \"#utility.yul\":11450:11465   */\n      mstore\n        /* \"#utility.yul\":11484:11488   */\n      0x24\n        /* \"#utility.yul\":11481:11482   */\n      0x00\n        /* \"#utility.yul\":11474:11489   */\n      revert\n        /* \"#utility.yul\":11501:11782   */\n    tag_168:\n        /* \"#utility.yul\":11584:11611   */\n      tag_293\n        /* \"#utility.yul\":11606:11610   */\n      dup3\n        /* \"#utility.yul\":11584:11611   */\n      tag_147\n      jump\t// in\n    tag_293:\n        /* \"#utility.yul\":11576:11582   */\n      dup2\n        /* \"#utility.yul\":11572:11612   */\n      add\n        /* \"#utility.yul\":11714:11720   */\n      dup2\n        /* \"#utility.yul\":11702:11712   */\n      dup2\n        /* \"#utility.yul\":11699:11721   */\n      lt\n        /* \"#utility.yul\":11678:11696   */\n      0xffffffffffffffff\n        /* \"#utility.yul\":11666:11676   */\n      dup3\n        /* \"#utility.yul\":11663:11697   */\n      gt\n        /* \"#utility.yul\":11660:11722   */\n      or\n        /* \"#utility.yul\":11657:11745   */\n      iszero\n      tag_294\n      jumpi\n        /* \"#utility.yul\":11725:11743   */\n      tag_295\n      tag_167\n      jump\t// in\n    tag_295:\n        /* \"#utility.yul\":11657:11745   */\n    tag_294:\n        /* \"#utility.yul\":11765:11775   */\n      dup1\n        /* \"#utility.yul\":11761:11763   */\n      0x40\n        /* \"#utility.yul\":11754:11776   */\n      mstore\n        /* \"#utility.yul\":11544:11782   */\n      pop\n        /* \"#utility.yul\":11501:11782   */\n      pop\n      pop\n      jump\t// out\n        /* \"#utility.yul\":11788:11917   */\n    tag_169:\n        /* \"#utility.yul\":11822:11828   */\n      0x00\n        /* \"#utility.yul\":11849:11869   */\n      tag_297\n      tag_132\n      jump\t// in\n    tag_297:\n        /* \"#utility.yul\":11839:11869   */\n      swap1\n      pop\n        /* \"#utility.yul\":11878:11911   */\n      tag_298\n        /* \"#utility.yul\":11906:11910   */\n      dup3\n        /* \"#utility.yul\":11898:11904   */\n      dup3\n        /* \"#utility.yul\":11878:11911   */\n      tag_168\n      jump\t// in\n    tag_298:\n        /* \"#utility.yul\":11788:11917   */\n      swap2\n      swap1\n      pop\n      jump\t// out\n        /* \"#utility.yul\":11923:12231   */\n    tag_170:\n        /* \"#utility.yul\":11985:11989   */\n      0x00\n        /* \"#utility.yul\":12075:12093   */\n      0xffffffffffffffff\n        /* \"#utility.yul\":12067:12073   */\n      dup3\n        /* \"#utility.yul\":12064:12094   */\n      gt\n        /* \"#utility.yul\":12061:12117   */\n      iszero\n      tag_300\n      jumpi\n        /* \"#utility.yul\":12097:12115   */\n      tag_301\n      tag_167\n      jump\t// in\n    tag_301:\n        /* \"#utility.yul\":12061:12117   */\n    tag_300:\n        /* \"#utility.yul\":12135:12164   */\n      tag_302\n        /* \"#utility.yul\":12157:12163   */\n      dup3\n        /* \"#utility.yul\":12135:12164   */\n      tag_147\n      jump\t// in\n    tag_302:\n        /* \"#utility.yul\":12127:12164   */\n      swap1\n      pop\n        /* \"#utility.yul\":12219:12223   */\n      0x20\n        /* \"#utility.yul\":12213:12217   */\n      dup2\n        /* \"#utility.yul\":12209:12224   */\n      add\n        /* \"#utility.yul\":12201:12224   */\n      swap1\n      pop\n        /* \"#utility.yul\":11923:12231   */\n      swap2\n      swap1\n      pop\n      jump\t// out\n        /* \"#utility.yul\":12237:12391   */\n    tag_171:\n        /* \"#utility.yul\":12321:12327   */\n      dup3\n        /* \"#utility.yul\":12316:12319   */\n      dup2\n        /* \"#utility.yul\":12311:12314   */\n      dup4\n        /* \"#utility.yul\":12298:12328   */\n      calldatacopy\n        /* \"#utility.yul\":12383:12384   */\n      0x00\n        /* \"#utility.yul\":12374:12380   */\n      dup4\n        /* \"#utility.yul\":12369:12372   */\n      dup4\n        /* \"#utility.yul\":12365:12381   */\n      add\n        /* \"#utility.yul\":12358:12385   */\n      mstore\n        /* \"#utility.yul\":12237:12391   */\n      pop\n      pop\n      pop\n      jump\t// out\n        /* \"#utility.yul\":12397:12809   */\n    tag_172:\n        /* \"#utility.yul\":12475:12480   */\n      0x00\n        /* \"#utility.yul\":12500:12566   */\n      tag_305\n        /* \"#utility.yul\":12516:12565   */\n      tag_306\n        /* \"#utility.yul\":12558:12564   */\n      dup5\n        /* \"#utility.yul\":12516:12565   */\n      tag_170\n      jump\t// in\n    tag_306:\n        /* \"#utility.yul\":12500:12566   */\n      tag_169\n      jump\t// in\n    tag_305:\n        /* \"#utility.yul\":12491:12566   */\n      swap1\n      pop\n        /* \"#utility.yul\":12589:12595   */\n      dup3\n        /* \"#utility.yul\":12582:12587   */\n      dup2\n        /* \"#utility.yul\":12575:12596   */\n      mstore\n        /* \"#utility.yul\":12627:12631   */\n      0x20\n        /* \"#utility.yul\":12620:12625   */\n      dup2\n        /* \"#utility.yul\":12616:12632   */\n      add\n        /* \"#utility.yul\":12665:12668   */\n      dup5\n        /* \"#utility.yul\":12656:12662   */\n      dup5\n        /* \"#utility.yul\":12651:12654   */\n      dup5\n        /* \"#utility.yul\":12647:12663   */\n      add\n        /* \"#utility.yul\":12644:12669   */\n      gt\n        /* \"#utility.yul\":12641:12753   */\n      iszero\n      tag_307\n      jumpi\n        /* \"#utility.yul\":12672:12751   */\n      tag_308\n      tag_166\n      jump\t// in\n    tag_308:\n        /* \"#utility.yul\":12641:12753   */\n    tag_307:\n        /* \"#utility.yul\":12762:12803   */\n      tag_309\n        /* \"#utility.yul\":12796:12802   */\n      dup5\n        /* \"#utility.yul\":12791:12794   */\n      dup3\n        /* \"#utility.yul\":12786:12789   */\n      dup6\n        /* \"#utility.yul\":12762:12803   */\n      tag_171\n      jump\t// in\n    tag_309:\n        /* \"#utility.yul\":12481:12809   */\n      pop\n        /* \"#utility.yul\":12397:12809   */\n      swap4\n      swap3\n      pop\n      pop\n      pop\n      jump\t// out\n        /* \"#utility.yul\":12829:13169   */\n    tag_173:\n        /* \"#utility.yul\":12885:12890   */\n      0x00\n        /* \"#utility.yul\":12934:12937   */\n      dup3\n        /* \"#utility.yul\":12927:12931   */\n      0x1f\n        /* \"#utility.yul\":12919:12925   */\n      dup4\n        /* \"#utility.yul\":12915:12932   */\n      add\n        /* \"#utility.yul\":12911:12938   */\n      slt\n        /* \"#utility.yul\":12901:13023   */\n      tag_311\n      jumpi\n        /* \"#utility.yul\":12942:13021   */\n      tag_312\n      tag_165\n      jump\t// in\n    tag_312:\n        /* \"#utility.yul\":12901:13023   */\n    tag_311:\n        /* \"#utility.yul\":13059:13065   */\n      dup2\n        /* \"#utility.yul\":13046:13066   */\n      calldataload\n        /* \"#utility.yul\":13084:13163   */\n      tag_313\n        /* \"#utility.yul\":13159:13162   */\n      dup5\n        /* \"#utility.yul\":13151:13157   */\n      dup3\n        /* \"#utility.yul\":13144:13148   */\n      0x20\n        /* \"#utility.yul\":13136:13142   */\n      dup7\n        /* \"#utility.yul\":13132:13149   */\n      add\n        /* \"#utility.yul\":13084:13163   */\n      tag_172\n      jump\t// in\n    tag_313:\n        /* \"#utility.yul\":13075:13163   */\n      swap2\n      pop\n        /* \"#utility.yul\":12891:13169   */\n      pop\n        /* \"#utility.yul\":12829:13169   */\n      swap3\n      swap2\n      pop\n      pop\n      jump\t// out\n        /* \"#utility.yul\":13175:13684   */\n    tag_46:\n        /* \"#utility.yul\":13244:13250   */\n      0x00\n        /* \"#utility.yul\":13293:13295   */\n      0x20\n        /* \"#utility.yul\":13281:13290   */\n      dup3\n        /* \"#utility.yul\":13272:13279   */\n      dup5\n        /* \"#utility.yul\":13268:13291   */\n      sub\n        /* \"#utility.yul\":13264:13296   */\n      slt\n        /* \"#utility.yul\":13261:13380   */\n      iszero\n      tag_315\n      jumpi\n        /* \"#utility.yul\":13299:13378   */\n      tag_316\n      tag_133\n      jump\t// in\n    tag_316:\n        /* \"#utility.yul\":13261:13380   */\n    tag_315:\n        /* \"#utility.yul\":13447:13448   */\n      0x00\n        /* \"#utility.yul\":13436:13445   */\n      dup3\n        /* \"#utility.yul\":13432:13449   */\n      add\n        /* \"#utility.yul\":13419:13450   */\n      calldataload\n        /* \"#utility.yul\":13477:13495   */\n      0xffffffffffffffff\n        /* \"#utility.yul\":13469:13475   */\n      dup2\n        /* \"#utility.yul\":13466:13496   */\n      gt\n        /* \"#utility.yul\":13463:13580   */\n      iszero\n      tag_317\n      jumpi\n        /* \"#utility.yul\":13499:13578   */\n      tag_318\n      tag_134\n      jump\t// in\n    tag_318:\n        /* \"#utility.yul\":13463:13580   */\n    tag_317:\n        /* \"#utility.yul\":13604:13667   */\n      tag_319\n        /* \"#utility.yul\":13659:13666   */\n      dup5\n        /* \"#utility.yul\":13650:13656   */\n      dup3\n        /* \"#utility.yul\":13639:13648   */\n      dup6\n        /* \"#utility.yul\":13635:13657   */\n      add\n        /* \"#utility.yul\":13604:13667   */\n      tag_173\n      jump\t// in\n    tag_319:\n        /* \"#utility.yul\":13594:13667   */\n      swap2\n      pop\n        /* \"#utility.yul\":13390:13677   */\n      pop\n        /* \"#utility.yul\":13175:13684   */\n      swap3\n      swap2\n      pop\n      pop\n      jump\t// out\n        /* \"#utility.yul\":13690:13912   */\n    tag_51:\n        /* \"#utility.yul\":13783:13787   */\n      0x00\n        /* \"#utility.yul\":13821:13823   */\n      0x20\n        /* \"#utility.yul\":13810:13819   */\n      dup3\n        /* \"#utility.yul\":13806:13824   */\n      add\n        /* \"#utility.yul\":13798:13824   */\n      swap1\n      pop\n        /* \"#utility.yul\":13834:13905   */\n      tag_321\n        /* \"#utility.yul\":13902:13903   */\n      0x00\n        /* \"#utility.yul\":13891:13900   */\n      dup4\n        /* \"#utility.yul\":13887:13904   */\n      add\n        /* \"#utility.yul\":13878:13884   */\n      dup5\n        /* \"#utility.yul\":13834:13905   */\n      tag_143\n      jump\t// in\n    tag_321:\n        /* \"#utility.yul\":13690:13912   */\n      swap3\n      swap2\n      pop\n      pop\n      jump\t// out\n        /* \"#utility.yul\":13918:14098   */\n    tag_174:\n        /* \"#utility.yul\":13966:14043   */\n      0x4e487b7100000000000000000000000000000000000000000000000000000000\n        /* \"#utility.yul\":13963:13964   */\n      0x00\n        /* \"#utility.yul\":13956:14044   */\n      mstore\n        /* \"#utility.yul\":14063:14067   */\n      0x22\n        /* \"#utility.yul\":14060:14061   */\n      0x04\n        /* \"#utility.yul\":14053:14068   */\n      mstore\n        /* \"#utility.yul\":14087:14091   */\n      0x24\n        /* \"#utility.yul\":14084:14085   */\n      0x00\n        /* \"#utility.yul\":14077:14092   */\n      revert\n        /* \"#utility.yul\":14104:14424   */\n    tag_55:\n        /* \"#utility.yul\":14148:14154   */\n      0x00\n        /* \"#utility.yul\":14185:14186   */\n      0x02\n        /* \"#utility.yul\":14179:14183   */\n      dup3\n        /* \"#utility.yul\":14175:14187   */\n      div\n        /* \"#utility.yul\":14165:14187   */\n      swap1\n      pop\n        /* \"#utility.yul\":14232:14233   */\n      0x01\n        /* \"#utility.yul\":14226:14230   */\n      dup3\n        /* \"#utility.yul\":14222:14234   */\n      and\n        /* \"#utility.yul\":14253:14271   */\n      dup1\n        /* \"#utility.yul\":14243:14324   */\n      tag_324\n      jumpi\n        /* \"#utility.yul\":14309:14313   */\n      0x7f\n        /* \"#utility.yul\":14301:14307   */\n      dup3\n        /* \"#utility.yul\":14297:14314   */\n      and\n        /* \"#utility.yul\":14287:14314   */\n      swap2\n      pop\n        /* \"#utility.yul\":14243:14324   */\n    tag_324:\n        /* \"#utility.yul\":14371:14373   */\n      0x20\n        /* \"#utility.yul\":14363:14369   */\n      dup3\n        /* \"#utility.yul\":14360:14374   */\n      lt\n        /* \"#utility.yul\":14340:14358   */\n      dup2\n        /* \"#utility.yul\":14337:14375   */\n      eq\n        /* \"#utility.yul\":14334:14418   */\n      iszero\n      tag_325\n      jumpi\n        /* \"#utility.yul\":14390:14408   */\n      tag_326\n      tag_174\n      jump\t// in\n    tag_326:\n        /* \"#utility.yul\":14334:14418   */\n    tag_325:\n        /* \"#utility.yul\":14155:14424   */\n      pop\n        /* \"#utility.yul\":14104:14424   */\n      swap2\n      swap1\n      pop\n      jump\t// out\n        /* \"#utility.yul\":14430:14610   */\n    tag_65:\n        /* \"#utility.yul\":14478:14555   */\n      0x4e487b7100000000000000000000000000000000000000000000000000000000\n        /* \"#utility.yul\":14475:14476   */\n      0x00\n        /* \"#utility.yul\":14468:14556   */\n      mstore\n        /* \"#utility.yul\":14575:14579   */\n      0x32\n        /* \"#utility.yul\":14572:14573   */\n      0x04\n        /* \"#utility.yul\":14565:14580   */\n      mstore\n        /* \"#utility.yul\":14599:14603   */\n      0x24\n        /* \"#utility.yul\":14596:14597   */\n      0x00\n        /* \"#utility.yul\":14589:14604   */\n      revert\n        /* \"#utility.yul\":14616:14787   */\n    tag_175:\n        /* \"#utility.yul\":14756:14779   */\n      0x545745455420444f4553204e4f54204558495354210000000000000000000000\n        /* \"#utility.yul\":14752:14753   */\n      0x00\n        /* \"#utility.yul\":14744:14750   */\n      dup3\n        /* \"#utility.yul\":14740:14754   */\n      add\n        /* \"#utility.yul\":14733:14780   */\n      mstore\n        /* \"#utility.yul\":14616:14787   */\n      pop\n      jump\t// out\n        /* \"#utility.yul\":14793:15159   */\n    tag_176:\n        /* \"#utility.yul\":14935:14938   */\n      0x00\n        /* \"#utility.yul\":14956:15023   */\n      tag_330\n        /* \"#utility.yul\":15020:15022   */\n      0x15\n        /* \"#utility.yul\":15015:15018   */\n      dup4\n        /* \"#utility.yul\":14956:15023   */\n      tag_145\n      jump\t// in\n    tag_330:\n        /* \"#utility.yul\":14949:15023   */\n      swap2\n      pop\n        /* \"#utility.yul\":15032:15125   */\n      tag_331\n        /* \"#utility.yul\":15121:15124   */\n      dup3\n        /* \"#utility.yul\":15032:15125   */\n      tag_175\n      jump\t// in\n    tag_331:\n        /* \"#utility.yul\":15150:15152   */\n      0x20\n        /* \"#utility.yul\":15145:15148   */\n      dup3\n        /* \"#utility.yul\":15141:15153   */\n      add\n        /* \"#utility.yul\":15134:15153   */\n      swap1\n      pop\n        /* \"#utility.yul\":14793:15159   */\n      swap2\n      swap1\n      pop\n      jump\t// out\n        /* \"#utility.yul\":15165:15584   */\n    tag_87:\n        /* \"#utility.yul\":15331:15335   */\n      0x00\n        /* \"#utility.yul\":15369:15371   */\n      0x20\n        /* \"#utility.yul\":15358:15367   */\n      dup3\n        /* \"#utility.yul\":15354:15372   */\n      add\n        /* \"#utility.yul\":15346:15372   */\n      swap1\n      pop\n        /* \"#utility.yul\":15418:15427   */\n      dup2\n        /* \"#utility.yul\":15412:15416   */\n      dup2\n        /* \"#utility.yul\":15408:15428   */\n      sub\n        /* \"#utility.yul\":15404:15405   */\n      0x00\n        /* \"#utility.yul\":15393:15402   */\n      dup4\n        /* \"#utility.yul\":15389:15406   */\n      add\n        /* \"#utility.yul\":15382:15429   */\n      mstore\n        /* \"#utility.yul\":15446:15577   */\n      tag_333\n        /* \"#utility.yul\":15572:15576   */\n      dup2\n        /* \"#utility.yul\":15446:15577   */\n      tag_176\n      jump\t// in\n    tag_333:\n        /* \"#utility.yul\":15438:15577   */\n      swap1\n      pop\n        /* \"#utility.yul\":15165:15584   */\n      swap2\n      swap1\n      pop\n      jump\t// out\n        /* \"#utility.yul\":15590:15759   */\n    tag_177:\n        /* \"#utility.yul\":15730:15751   */\n      0x545745455420484153204e4f204c494b45532100000000000000000000000000\n        /* \"#utility.yul\":15726:15727   */\n      0x00\n        /* \"#utility.yul\":15718:15724   */\n      dup3\n        /* \"#utility.yul\":15714:15728   */\n      add\n        /* \"#utility.yul\":15707:15752   */\n      mstore\n        /* \"#utility.yul\":15590:15759   */\n      pop\n      jump\t// out\n        /* \"#utility.yul\":15765:16131   */\n    tag_178:\n        /* \"#utility.yul\":15907:15910   */\n      0x00\n        /* \"#utility.yul\":15928:15995   */\n      tag_336\n        /* \"#utility.yul\":15992:15994   */\n      0x13\n        /* \"#utility.yul\":15987:15990   */\n      dup4\n        /* \"#utility.yul\":15928:15995   */\n      tag_145\n      jump\t// in\n    tag_336:\n        /* \"#utility.yul\":15921:15995   */\n      swap2\n      pop\n        /* \"#utility.yul\":16004:16097   */\n      tag_337\n        /* \"#utility.yul\":16093:16096   */\n      dup3\n        /* \"#utility.yul\":16004:16097   */\n      tag_177\n      jump\t// in\n    tag_337:\n        /* \"#utility.yul\":16122:16124   */\n      0x20\n        /* \"#utility.yul\":16117:16120   */\n      dup3\n        /* \"#utility.yul\":16113:16125   */\n      add\n        /* \"#utility.yul\":16106:16125   */\n      swap1\n      pop\n        /* \"#utility.yul\":15765:16131   */\n      swap2\n      swap1\n      pop\n      jump\t// out\n        /* \"#utility.yul\":16137:16556   */\n    tag_93:\n        /* \"#utility.yul\":16303:16307   */\n      0x00\n        /* \"#utility.yul\":16341:16343   */\n      0x20\n        /* \"#utility.yul\":16330:16339   */\n      dup3\n        /* \"#utility.yul\":16326:16344   */\n      add\n        /* \"#utility.yul\":16318:16344   */\n      swap1\n      pop\n        /* \"#utility.yul\":16390:16399   */\n      dup2\n        /* \"#utility.yul\":16384:16388   */\n      dup2\n        /* \"#utility.yul\":16380:16400   */\n      sub\n        /* \"#utility.yul\":16376:16377   */\n      0x00\n        /* \"#utility.yul\":16365:16374   */\n      dup4\n        /* \"#utility.yul\":16361:16378   */\n      add\n        /* \"#utility.yul\":16354:16401   */\n      mstore\n        /* \"#utility.yul\":16418:16549   */\n      tag_339\n        /* \"#utility.yul\":16544:16548   */\n      dup2\n        /* \"#utility.yul\":16418:16549   */\n      tag_178\n      jump\t// in\n    tag_339:\n        /* \"#utility.yul\":16410:16549   */\n      swap1\n      pop\n        /* \"#utility.yul\":16137:16556   */\n      swap2\n      swap1\n      pop\n      jump\t// out\n        /* \"#utility.yul\":16562:16742   */\n    tag_179:\n        /* \"#utility.yul\":16610:16687   */\n      0x4e487b7100000000000000000000000000000000000000000000000000000000\n        /* \"#utility.yul\":16607:16608   */\n      0x00\n        /* \"#utility.yul\":16600:16688   */\n      mstore\n        /* \"#utility.yul\":16707:16711   */\n      0x11\n        /* \"#utility.yul\":16704:16705   */\n      0x04\n        /* \"#utility.yul\":16697:16712   */\n      mstore\n        /* \"#utility.yul\":16731:16735   */\n      0x24\n        /* \"#utility.yul\":16728:16729   */\n      0x00\n        /* \"#utility.yul\":16721:16736   */\n      revert\n        /* \"#utility.yul\":16748:16919   */\n    tag_98:\n        /* \"#utility.yul\":16787:16790   */\n      0x00\n        /* \"#utility.yul\":16810:16834   */\n      tag_342\n        /* \"#utility.yul\":16828:16833   */\n      dup3\n        /* \"#utility.yul\":16810:16834   */\n      tag_139\n      jump\t// in\n    tag_342:\n        /* \"#utility.yul\":16801:16834   */\n      swap2\n      pop\n        /* \"#utility.yul\":16856:16860   */\n      0x00\n        /* \"#utility.yul\":16849:16854   */\n      dup3\n        /* \"#utility.yul\":16846:16861   */\n      eq\n        /* \"#utility.yul\":16843:16884   */\n      iszero\n      tag_343\n      jumpi\n        /* \"#utility.yul\":16864:16882   */\n      tag_344\n      tag_179\n      jump\t// in\n    tag_344:\n        /* \"#utility.yul\":16843:16884   */\n    tag_343:\n        /* \"#utility.yul\":16911:16912   */\n      0x01\n        /* \"#utility.yul\":16904:16909   */\n      dup3\n        /* \"#utility.yul\":16900:16913   */\n      sub\n        /* \"#utility.yul\":16893:16913   */\n      swap1\n      pop\n        /* \"#utility.yul\":16748:16919   */\n      swap2\n      swap1\n      pop\n      jump\t// out\n        /* \"#utility.yul\":16925:17097   */\n    tag_180:\n        /* \"#utility.yul\":17065:17089   */\n      0x594f5520415245204e4f5420544845204f574e45522100000000000000000000\n        /* \"#utility.yul\":17061:17062   */\n      0x00\n        /* \"#utility.yul\":17053:17059   */\n      dup3\n        /* \"#utility.yul\":17049:17063   */\n      add\n        /* \"#utility.yul\":17042:17090   */\n      mstore\n        /* \"#utility.yul\":16925:17097   */\n      pop\n      jump\t// out\n        /* \"#utility.yul\":17103:17469   */\n    tag_181:\n        /* \"#utility.yul\":17245:17248   */\n      0x00\n        /* \"#utility.yul\":17266:17333   */\n      tag_347\n        /* \"#utility.yul\":17330:17332   */\n      0x16\n        /* \"#utility.yul\":17325:17328   */\n      dup4\n        /* \"#utility.yul\":17266:17333   */\n      tag_145\n      jump\t// in\n    tag_347:\n        /* \"#utility.yul\":17259:17333   */\n      swap2\n      pop\n        /* \"#utility.yul\":17342:17435   */\n      tag_348\n        /* \"#utility.yul\":17431:17434   */\n      dup3\n        /* \"#utility.yul\":17342:17435   */\n      tag_180\n      jump\t// in\n    tag_348:\n        /* \"#utility.yul\":17460:17462   */\n      0x20\n        /* \"#utility.yul\":17455:17458   */\n      dup3\n        /* \"#utility.yul\":17451:17463   */\n      add\n        /* \"#utility.yul\":17444:17463   */\n      swap1\n      pop\n        /* \"#utility.yul\":17103:17469   */\n      swap2\n      swap1\n      pop\n      jump\t// out\n        /* \"#utility.yul\":17475:17894   */\n    tag_102:\n        /* \"#utility.yul\":17641:17645   */\n      0x00\n        /* \"#utility.yul\":17679:17681   */\n      0x20\n        /* \"#utility.yul\":17668:17677   */\n      dup3\n        /* \"#utility.yul\":17664:17682   */\n      add\n        /* \"#utility.yul\":17656:17682   */\n      swap1\n      pop\n        /* \"#utility.yul\":17728:17737   */\n      dup2\n        /* \"#utility.yul\":17722:17726   */\n      dup2\n        /* \"#utility.yul\":17718:17738   */\n      sub\n        /* \"#utility.yul\":17714:17715   */\n      0x00\n        /* \"#utility.yul\":17703:17712   */\n      dup4\n        /* \"#utility.yul\":17699:17716   */\n      add\n        /* \"#utility.yul\":17692:17739   */\n      mstore\n        /* \"#utility.yul\":17756:17887   */\n      tag_350\n        /* \"#utility.yul\":17882:17886   */\n      dup2\n        /* \"#utility.yul\":17756:17887   */\n      tag_181\n      jump\t// in\n    tag_350:\n        /* \"#utility.yul\":17748:17887   */\n      swap1\n      pop\n        /* \"#utility.yul\":17475:17894   */\n      swap2\n      swap1\n      pop\n      jump\t// out\n        /* \"#utility.yul\":17900:18133   */\n    tag_114:\n        /* \"#utility.yul\":17939:17942   */\n      0x00\n        /* \"#utility.yul\":17962:17986   */\n      tag_352\n        /* \"#utility.yul\":17980:17985   */\n      dup3\n        /* \"#utility.yul\":17962:17986   */\n      tag_139\n      jump\t// in\n    tag_352:\n        /* \"#utility.yul\":17953:17986   */\n      swap2\n      pop\n        /* \"#utility.yul\":18008:18074   */\n      0xffffffffffffffffffffffffffffffffffffffffffffffffffffffffffffffff\n        /* \"#utility.yul\":18001:18006   */\n      dup3\n        /* \"#utility.yul\":17998:18075   */\n      eq\n        /* \"#utility.yul\":17995:18098   */\n      iszero\n      tag_353\n      jumpi\n        /* \"#utility.yul\":18078:18096   */\n      tag_354\n      tag_179\n      jump\t// in\n    tag_354:\n        /* \"#utility.yul\":17995:18098   */\n    tag_353:\n        /* \"#utility.yul\":18125:18126   */\n      0x01\n        /* \"#utility.yul\":18118:18123   */\n      dup3\n        /* \"#utility.yul\":18114:18127   */\n      add\n        /* \"#utility.yul\":18107:18127   */\n      swap1\n      pop\n        /* \"#utility.yul\":17900:18133   */\n      swap2\n      swap1\n      pop\n      jump\t// out\n        /* \"#utility.yul\":18139:18304   */\n    tag_182:\n        /* \"#utility.yul\":18279:18296   */\n      0x545745455420544f4f204c4f4e47210000000000000000000000000000000000\n        /* \"#utility.yul\":18275:18276   */\n      0x00\n        /* \"#utility.yul\":18267:18273   */\n      dup3\n        /* \"#utility.yul\":18263:18277   */\n      add\n        /* \"#utility.yul\":18256:18297   */\n      mstore\n        /* \"#utility.yul\":18139:18304   */\n      pop\n      jump\t// out\n        /* \"#utility.yul\":18310:18676   */\n    tag_183:\n        /* \"#utility.yul\":18452:18455   */\n      0x00\n        /* \"#utility.yul\":18473:18540   */\n      tag_357\n        /* \"#utility.yul\":18537:18539   */\n      0x0f\n        /* \"#utility.yul\":18532:18535   */\n      dup4\n        /* \"#utility.yul\":18473:18540   */\n      tag_145\n      jump\t// in\n    tag_357:\n        /* \"#utility.yul\":18466:18540   */\n      swap2\n      pop\n        /* \"#utility.yul\":18549:18642   */\n      tag_358\n        /* \"#utility.yul\":18638:18641   */\n      dup3\n        /* \"#utility.yul\":18549:18642   */\n      tag_182\n      jump\t// in\n    tag_358:\n        /* \"#utility.yul\":18667:18669   */\n      0x20\n        /* \"#utility.yul\":18662:18665   */\n      dup3\n        /* \"#utility.yul\":18658:18670   */\n      add\n        /* \"#utility.yul\":18651:18670   */\n      swap1\n      pop\n        /* \"#utility.yul\":18310:18676   */\n      swap2\n      swap1\n      pop\n      jump\t// out\n        /* \"#utility.yul\":18682:19101   */\n    tag_118:\n        /* \"#utility.yul\":18848:18852   */\n      0x00\n        /* \"#utility.yul\":18886:18888   */\n      0x20\n        /* \"#utility.yul\":18875:18884   */\n      dup3\n        /* \"#utility.yul\":18871:18889   */\n      add\n        /* \"#utility.yul\":18863:18889   */\n      swap1\n      pop\n        /* \"#utility.yul\":18935:18944   */\n      dup2\n        /* \"#utility.yul\":18929:18933   */\n      dup2\n        /* \"#utility.yul\":18925:18945   */\n      sub\n        /* \"#utility.yul\":18921:18922   */\n      0x00\n        /* \"#utility.yul\":18910:18919   */\n      dup4\n        /* \"#utility.yul\":18906:18923   */\n      add\n        /* \"#utility.yul\":18899:18946   */\n      mstore\n        /* \"#utility.yul\":18963:19094   */\n      tag_360\n        /* \"#utility.yul\":19089:19093   */\n      dup2\n        /* \"#utility.yul\":18963:19094   */\n      tag_183\n      jump\t// in\n    tag_360:\n        /* \"#utility.yul\":18955:19094   */\n      swap1\n      pop\n        /* \"#utility.yul\":18682:19101   */\n      swap2\n      swap1\n      pop\n      jump\t// out\n\n    auxdata: 0xa26469706673582212207cf8817ee3525799459b05efba8c52413d2d04eaf288d70f2228ea25e4292b7e64736f6c63430008090033\n}\n",
				"bytecode": {
					"linkReferences": {},
					"object": "60806040526101186000806101000a81548161ffff021916908361ffff16021790555034801561002e57600080fd5b5033600260006101000a81548173ffffffffffffffffffffffffffffffffffffffff021916908373ffffffffffffffffffffffffffffffffffffffff1602179055506116388061007f6000396000f3fe608060405234801561001057600080fd5b50600436106100935760003560e01c806358bfa4ab1161006657806358bfa4ab1461014857806363378216146101645780636eb10797146101805780637c9cd2bc1461019e5780638da5cb5b146101ba57610093565b806305a1b4a914610098578063112f54e3146100cc57806312e7ee1c146100fc5780633d9b569f1461012c575b600080fd5b6100b260048036038101906100ad9190610d1e565b6101d8565b6040516100c3959493929190610e15565b60405180910390f35b6100e660048036038101906100e19190610d1e565b6102d3565b6040516100f39190610f4d565b60405180910390f35b61011660048036038101906101119190610f6f565b610453565b60405161012391906110d4565b60405180910390f35b61014660048036038101906101419190610d1e565b6105f7565b005b610162600480360381019061015d9190611130565b6107bc565b005b61017e60048036038101906101799190610d1e565b61086b565b005b61018861098b565b604051610195919061116c565b60405180910390f35b6101b860048036038101906101b391906112bc565b61099d565b005b6101c2610b68565b6040516101cf9190611305565b60405180910390f35b600160205281600052604060002081815481106101f457600080fd5b9060005260206000209060050201600091509150508060000154908060010160009054906101000a900473ffffffffffffffffffffffffffffffffffffffff16908060020180546102449061134f565b80601f01602080910402602001604051908101604052809291908181526020018280546102709061134f565b80156102bd5780601f10610292576101008083540402835291602001916102bd565b820191906000526020600020905b8154815290600101906020018083116102a057829003601f168201915b5050505050908060030154908060040154905085565b6102db610b8e565b600160008473ffffffffffffffffffffffffffffffffffffffff1673ffffffffffffffffffffffffffffffffffffffff168152602001908152602001600020828154811061032c5761032b611381565b5b90600052602060002090600502016040518060a0016040529081600082015481526020016001820160009054906101000a900473ffffffffffffffffffffffffffffffffffffffff1673ffffffffffffffffffffffffffffffffffffffff1673ffffffffffffffffffffffffffffffffffffffff1681526020016002820180546103b59061134f565b80601f01602080910402602001604051908101604052809291908181526020018280546103e19061134f565b801561042e5780601f106104035761010080835404028352916020019161042e565b820191906000526020600020905b81548152906001019060200180831161041157829003601f168201915b5050505050815260200160038201548152602001600482015481525050905092915050565b6060600160008373ffffffffffffffffffffffffffffffffffffffff1673ffffffffffffffffffffffffffffffffffffffff168152602001908152602001600020805480602002602001604051908101604052809291908181526020016000905b828210156105ec57838290600052602060002090600502016040518060a0016040529081600082015481526020016001820160009054906101000a900473ffffffffffffffffffffffffffffffffffffffff1673ffffffffffffffffffffffffffffffffffffffff1673ffffffffffffffffffffffffffffffffffffffff1681526020016002820180546105479061134f565b80601f01602080910402602001604051908101604052809291908181526020018280546105739061134f565b80156105c05780601f10610595576101008083540402835291602001916105c0565b820191906000526020600020905b8154815290600101906020018083116105a357829003601f168201915b5050505050815260200160038201548152602001600482015481525050815260200190600101906104b4565b505050509050919050565b80600160008473ffffffffffffffffffffffffffffffffffffffff1673ffffffffffffffffffffffffffffffffffffffff168152602001908152602001600020828154811061064957610648611381565b5b9060005260206000209060050201600001541461069b576040517f08c379a0000000000000000000000000000000000000000000000000000000008152600401610692906113fc565b60405180910390fd5b6000600160008473ffffffffffffffffffffffffffffffffffffffff1673ffffffffffffffffffffffffffffffffffffffff16815260200190815260200160002082815481106106ee576106ed611381565b5b90600052602060002090600502016004015411610740576040517f08c379a000000000000000000000000000000000000000000000000000000000815260040161073790611468565b60405180910390fd5b600160008373ffffffffffffffffffffffffffffffffffffffff1673ffffffffffffffffffffffffffffffffffffffff168152602001908152602001600020818154811061079157610790611381565b5b906000526020600020906005020160040160008154809291906107b3906114b7565b91905055505050565b600260009054906101000a900473ffffffffffffffffffffffffffffffffffffffff1673ffffffffffffffffffffffffffffffffffffffff163373ffffffffffffffffffffffffffffffffffffffff161461084c576040517f08c379a00000000000000000000000000000000000000000000000000000000081526004016108439061152d565b60405180910390fd5b806000806101000a81548161ffff021916908361ffff16021790555050565b80600160008473ffffffffffffffffffffffffffffffffffffffff1673ffffffffffffffffffffffffffffffffffffffff16815260200190815260200160002082815481106108bd576108bc611381565b5b9060005260206000209060050201600001541461090f576040517f08c379a0000000000000000000000000000000000000000000000000000000008152600401610906906113fc565b60405180910390fd5b600160008373ffffffffffffffffffffffffffffffffffffffff1673ffffffffffffffffffffffffffffffffffffffff16815260200190815260200160002081815481106109605761095f611381565b5b906000526020600020906005020160040160008154809291906109829061154d565b91905055505050565b60008054906101000a900461ffff1681565b60008054906101000a900461ffff1661ffff16815111156109f3576040517f08c379a00000000000000000000000000000000000000000000000000000000081526004016109ea906115e2565b60405180910390fd5b60006040518060a00160405280600160003373ffffffffffffffffffffffffffffffffffffffff1673ffffffffffffffffffffffffffffffffffffffff1681526020019081526020016000208054905081526020013373ffffffffffffffffffffffffffffffffffffffff16815260200183815260200142815260200160008152509050600160003373ffffffffffffffffffffffffffffffffffffffff1673ffffffffffffffffffffffffffffffffffffffff1681526020019081526020016000208190806001815401808255809150506001900390600052602060002090600502016000909190919091506000820151816000015560208201518160010160006101000a81548173ffffffffffffffffffffffffffffffffffffffff021916908373ffffffffffffffffffffffffffffffffffffffff1602179055506040820151816002019080519060200190610b4d929190610bd3565b50606082015181600301556080820151816004015550505050565b600260009054906101000a900473ffffffffffffffffffffffffffffffffffffffff1681565b6040518060a0016040528060008152602001600073ffffffffffffffffffffffffffffffffffffffff1681526020016060815260200160008152602001600081525090565b828054610bdf9061134f565b90600052602060002090601f016020900481019282610c015760008555610c48565b82601f10610c1a57805160ff1916838001178555610c48565b82800160010185558215610c48579182015b82811115610c47578251825591602001919060010190610c2c565b5b509050610c559190610c59565b5090565b5b80821115610c72576000816000905550600101610c5a565b5090565b6000604051905090565b600080fd5b600080fd5b600073ffffffffffffffffffffffffffffffffffffffff82169050919050565b6000610cb582610c8a565b9050919050565b610cc581610caa565b8114610cd057600080fd5b50565b600081359050610ce281610cbc565b92915050565b6000819050919050565b610cfb81610ce8565b8114610d0657600080fd5b50565b600081359050610d1881610cf2565b92915050565b60008060408385031215610d3557610d34610c80565b5b6000610d4385828601610cd3565b9250506020610d5485828601610d09565b9150509250929050565b610d6781610ce8565b82525050565b610d7681610caa565b82525050565b600081519050919050565b600082825260208201905092915050565b60005b83811015610db6578082015181840152602081019050610d9b565b83811115610dc5576000848401525b50505050565b6000601f19601f8301169050919050565b6000610de782610d7c565b610df18185610d87565b9350610e01818560208601610d98565b610e0a81610dcb565b840191505092915050565b600060a082019050610e2a6000830188610d5e565b610e376020830187610d6d565b8181036040830152610e498186610ddc565b9050610e586060830185610d5e565b610e656080830184610d5e565b9695505050505050565b610e7881610ce8565b82525050565b610e8781610caa565b82525050565b600082825260208201905092915050565b6000610ea982610d7c565b610eb38185610e8d565b9350610ec3818560208601610d98565b610ecc81610dcb565b840191505092915050565b600060a083016000830151610eef6000860182610e6f565b506020830151610f026020860182610e7e565b5060408301518482036040860152610f1a8282610e9e565b9150506060830151610f2f6060860182610e6f565b506080830151610f426080860182610e6f565b508091505092915050565b60006020820190508181036000830152610f678184610ed7565b905092915050565b600060208284031215610f8557610f84610c80565b5b6000610f9384828501610cd3565b91505092915050565b600081519050919050565b600082825260208201905092915050565b6000819050602082019050919050565b600060a083016000830151610fe06000860182610e6f565b506020830151610ff36020860182610e7e565b506040830151848203604086015261100b8282610e9e565b91505060608301516110206060860182610e6f565b5060808301516110336080860182610e6f565b508091505092915050565b600061104a8383610fc8565b905092915050565b6000602082019050919050565b600061106a82610f9c565b6110748185610fa7565b93508360208202850161108685610fb8565b8060005b858110156110c257848403895281516110a3858261103e565b94506110ae83611052565b925060208a0199505060018101905061108a565b50829750879550505050505092915050565b600060208201905081810360008301526110ee818461105f565b905092915050565b600061ffff82169050919050565b61110d816110f6565b811461111857600080fd5b50565b60008135905061112a81611104565b92915050565b60006020828403121561114657611145610c80565b5b60006111548482850161111b565b91505092915050565b611166816110f6565b82525050565b6000602082019050611181600083018461115d565b92915050565b600080fd5b600080fd5b7f4e487b7100000000000000000000000000000000000000000000000000000000600052604160045260246000fd5b6111c982610dcb565b810181811067ffffffffffffffff821117156111e8576111e7611191565b5b80604052505050565b60006111fb610c76565b905061120782826111c0565b919050565b600067ffffffffffffffff82111561122757611226611191565b5b61123082610dcb565b9050602081019050919050565b82818337600083830152505050565b600061125f61125a8461120c565b6111f1565b90508281526020810184848401111561127b5761127a61118c565b5b61128684828561123d565b509392505050565b600082601f8301126112a3576112a2611187565b5b81356112b384826020860161124c565b91505092915050565b6000602082840312156112d2576112d1610c80565b5b600082013567ffffffffffffffff8111156112f0576112ef610c85565b5b6112fc8482850161128e565b91505092915050565b600060208201905061131a6000830184610d6d565b92915050565b7f4e487b7100000000000000000000000000000000000000000000000000000000600052602260045260246000fd5b6000600282049050600182168061136757607f821691505b6020821081141561137b5761137a611320565b5b50919050565b7f4e487b7100000000000000000000000000000000000000000000000000000000600052603260045260246000fd5b7f545745455420444f4553204e4f54204558495354210000000000000000000000600082015250565b60006113e6601583610d87565b91506113f1826113b0565b602082019050919050565b60006020820190508181036000830152611415816113d9565b9050919050565b7f545745455420484153204e4f204c494b45532100000000000000000000000000600082015250565b6000611452601383610d87565b915061145d8261141c565b602082019050919050565b6000602082019050818103600083015261148181611445565b9050919050565b7f4e487b7100000000000000000000000000000000000000000000000000000000600052601160045260246000fd5b60006114c282610ce8565b915060008214156114d6576114d5611488565b5b600182039050919050565b7f594f5520415245204e4f5420544845204f574e45522100000000000000000000600082015250565b6000611517601683610d87565b9150611522826114e1565b602082019050919050565b600060208201905081810360008301526115468161150a565b9050919050565b600061155882610ce8565b91507fffffffffffffffffffffffffffffffffffffffffffffffffffffffffffffffff82141561158b5761158a611488565b5b600182019050919050565b7f545745455420544f4f204c4f4e47210000000000000000000000000000000000600082015250565b60006115cc600f83610d87565b91506115d782611596565b602082019050919050565b600060208201905081810360008301526115fb816115bf565b905091905056fea26469706673582212207cf8817ee3525799459b05efba8c52413d2d04eaf288d70f2228ea25e4292b7e64736f6c63430008090033",
					"opcodes": "PUSH1 0x80 PUSH1 0x40 MSTORE PUSH2 0x118 PUSH1 0x0 DUP1 PUSH2 0x100 EXP DUP2 SLOAD DUP2 PUSH2 0xFFFF MUL NOT AND SWAP1 DUP4 PUSH2 0xFFFF AND MUL OR SWAP1 SSTORE POP CALLVALUE DUP1 ISZERO PUSH2 0x2E JUMPI PUSH1 0x0 DUP1 REVERT JUMPDEST POP CALLER PUSH1 0x2 PUSH1 0x0 PUSH2 0x100 EXP DUP2 SLOAD DUP2 PUSH20 0xFFFFFFFFFFFFFFFFFFFFFFFFFFFFFFFFFFFFFFFF MUL NOT AND SWAP1 DUP4 PUSH20 0xFFFFFFFFFFFFFFFFFFFFFFFFFFFFFFFFFFFFFFFF AND MUL OR SWAP1 SSTORE POP PUSH2 0x1638 DUP1 PUSH2 0x7F PUSH1 0x0 CODECOPY PUSH1 0x0 RETURN INVALID PUSH1 0x80 PUSH1 0x40 MSTORE CALLVALUE DUP1 ISZERO PUSH2 0x10 JUMPI PUSH1 0x0 DUP1 REVERT JUMPDEST POP PUSH1 0x4 CALLDATASIZE LT PUSH2 0x93 JUMPI PUSH1 0x0 CALLDATALOAD PUSH1 0xE0 SHR DUP1 PUSH4 0x58BFA4AB GT PUSH2 0x66 JUMPI DUP1 PUSH4 0x58BFA4AB EQ PUSH2 0x148 JUMPI DUP1 PUSH4 0x63378216 EQ PUSH2 0x164 JUMPI DUP1 PUSH4 0x6EB10797 EQ PUSH2 0x180 JUMPI DUP1 PUSH4 0x7C9CD2BC EQ PUSH2 0x19E JUMPI DUP1 PUSH4 0x8DA5CB5B EQ PUSH2 0x1BA JUMPI PUSH2 0x93 JUMP JUMPDEST DUP1 PUSH4 0x5A1B4A9 EQ PUSH2 0x98 JUMPI DUP1 PUSH4 0x112F54E3 EQ PUSH2 0xCC JUMPI DUP1 PUSH4 0x12E7EE1C EQ PUSH2 0xFC JUMPI DUP1 PUSH4 0x3D9B569F EQ PUSH2 0x12C JUMPI JUMPDEST PUSH1 0x0 DUP1 REVERT JUMPDEST PUSH2 0xB2 PUSH1 0x4 DUP1 CALLDATASIZE SUB DUP2 ADD SWAP1 PUSH2 0xAD SWAP2 SWAP1 PUSH2 0xD1E JUMP JUMPDEST PUSH2 0x1D8 JUMP JUMPDEST PUSH1 0x40 MLOAD PUSH2 0xC3 SWAP6 SWAP5 SWAP4 SWAP3 SWAP2 SWAP1 PUSH2 0xE15 JUMP JUMPDEST PUSH1 0x40 MLOAD DUP1 SWAP2 SUB SWAP1 RETURN JUMPDEST PUSH2 0xE6 PUSH1 0x4 DUP1 CALLDATASIZE SUB DUP2 ADD SWAP1 PUSH2 0xE1 SWAP2 SWAP1 PUSH2 0xD1E JUMP JUMPDEST PUSH2 0x2D3 JUMP JUMPDEST PUSH1 0x40 MLOAD PUSH2 0xF3 SWAP2 SWAP1 PUSH2 0xF4D JUMP JUMPDEST PUSH1 0x40 MLOAD DUP1 SWAP2 SUB SWAP1 RETURN JUMPDEST PUSH2 0x116 PUSH1 0x4 DUP1 CALLDATASIZE SUB DUP2 ADD SWAP1 PUSH2 0x111 SWAP2 SWAP1 PUSH2 0xF6F JUMP JUMPDEST PUSH2 0x453 JUMP JUMPDEST PUSH1 0x40 MLOAD PUSH2 0x123 SWAP2 SWAP1 PUSH2 0x10D4 JUMP JUMPDEST PUSH1 0x40 MLOAD DUP1 SWAP2 SUB SWAP1 RETURN JUMPDEST PUSH2 0x146 PUSH1 0x4 DUP1 CALLDATASIZE SUB DUP2 ADD SWAP1 PUSH2 0x141 SWAP2 SWAP1 PUSH2 0xD1E JUMP JUMPDEST PUSH2 0x5F7 JUMP JUMPDEST STOP JUMPDEST PUSH2 0x162 PUSH1 0x4 DUP1 CALLDATASIZE SUB DUP2 ADD SWAP1 PUSH2 0x15D SWAP2 SWAP1 PUSH2 0x1130 JUMP JUMPDEST PUSH2 0x7BC JUMP JUMPDEST STOP JUMPDEST PUSH2 0x17E PUSH1 0x4 DUP1 CALLDATASIZE SUB DUP2 ADD SWAP1 PUSH2 0x179 SWAP2 SWAP1 PUSH2 0xD1E JUMP JUMPDEST PUSH2 0x86B JUMP JUMPDEST STOP JUMPDEST PUSH2 0x188 PUSH2 0x98B JUMP JUMPDEST PUSH1 0x40 MLOAD PUSH2 0x195 SWAP2 SWAP1 PUSH2 0x116C JUMP JUMPDEST PUSH1 0x40 MLOAD DUP1 SWAP2 SUB SWAP1 RETURN JUMPDEST PUSH2 0x1B8 PUSH1 0x4 DUP1 CALLDATASIZE SUB DUP2 ADD SWAP1 PUSH2 0x1B3 SWAP2 SWAP1 PUSH2 0x12BC JUMP JUMPDEST PUSH2 0x99D JUMP JUMPDEST STOP JUMPDEST PUSH2 0x1C2 PUSH2 0xB68 JUMP JUMPDEST PUSH1 0x40 MLOAD PUSH2 0x1CF SWAP2 SWAP1 PUSH2 0x1305 JUMP JUMPDEST PUSH1 0x40 MLOAD DUP1 SWAP2 SUB SWAP1 RETURN JUMPDEST PUSH1 0x1 PUSH1 0x20 MSTORE DUP2 PUSH1 0x0 MSTORE PUSH1 0x40 PUSH1 0x0 KECCAK256 DUP2 DUP2 SLOAD DUP2 LT PUSH2 0x1F4 JUMPI PUSH1 0x0 DUP1 REVERT JUMPDEST SWAP1 PUSH1 0x0 MSTORE PUSH1 0x20 PUSH1 0x0 KECCAK256 SWAP1 PUSH1 0x5 MUL ADD PUSH1 0x0 SWAP2 POP SWAP2 POP POP DUP1 PUSH1 0x0 ADD SLOAD SWAP1 DUP1 PUSH1 0x1 ADD PUSH1 0x0 SWAP1 SLOAD SWAP1 PUSH2 0x100 EXP SWAP1 DIV PUSH20 0xFFFFFFFFFFFFFFFFFFFFFFFFFFFFFFFFFFFFFFFF AND SWAP1 DUP1 PUSH1 0x2 ADD DUP1 SLOAD PUSH2 0x244 SWAP1 PUSH2 0x134F JUMP JUMPDEST DUP1 PUSH1 0x1F ADD PUSH1 0x20 DUP1 SWAP2 DIV MUL PUSH1 0x20 ADD PUSH1 0x40 MLOAD SWAP1 DUP2 ADD PUSH1 0x40 MSTORE DUP1 SWAP3 SWAP2 SWAP1 DUP2 DUP2 MSTORE PUSH1 0x20 ADD DUP3 DUP1 SLOAD PUSH2 0x270 SWAP1 PUSH2 0x134F JUMP JUMPDEST DUP1 ISZERO PUSH2 0x2BD JUMPI DUP1 PUSH1 0x1F LT PUSH2 0x292 JUMPI PUSH2 0x100 DUP1 DUP4 SLOAD DIV MUL DUP4 MSTORE SWAP2 PUSH1 0x20 ADD SWAP2 PUSH2 0x2BD JUMP JUMPDEST DUP3 ADD SWAP2 SWAP1 PUSH1 0x0 MSTORE PUSH1 0x20 PUSH1 0x0 KECCAK256 SWAP1 JUMPDEST DUP2 SLOAD DUP2 MSTORE SWAP1 PUSH1 0x1 ADD SWAP1 PUSH1 0x20 ADD DUP1 DUP4 GT PUSH2 0x2A0 JUMPI DUP3 SWAP1 SUB PUSH1 0x1F AND DUP3 ADD SWAP2 JUMPDEST POP POP POP POP POP SWAP1 DUP1 PUSH1 0x3 ADD SLOAD SWAP1 DUP1 PUSH1 0x4 ADD SLOAD SWAP1 POP DUP6 JUMP JUMPDEST PUSH2 0x2DB PUSH2 0xB8E JUMP JUMPDEST PUSH1 0x1 PUSH1 0x0 DUP5 PUSH20 0xFFFFFFFFFFFFFFFFFFFFFFFFFFFFFFFFFFFFFFFF AND PUSH20 0xFFFFFFFFFFFFFFFFFFFFFFFFFFFFFFFFFFFFFFFF AND DUP2 MSTORE PUSH1 0x20 ADD SWAP1 DUP2 MSTORE PUSH1 0x20 ADD PUSH1 0x0 KECCAK256 DUP3 DUP2 SLOAD DUP2 LT PUSH2 0x32C JUMPI PUSH2 0x32B PUSH2 0x1381 JUMP JUMPDEST JUMPDEST SWAP1 PUSH1 0x0 MSTORE PUSH1 0x20 PUSH1 0x0 KECCAK256 SWAP1 PUSH1 0x5 MUL ADD PUSH1 0x40 MLOAD DUP1 PUSH1 0xA0 ADD PUSH1 0x40 MSTORE SWAP1 DUP2 PUSH1 0x0 DUP3 ADD SLOAD DUP2 MSTORE PUSH1 0x20 ADD PUSH1 0x1 DUP3 ADD PUSH1 0x0 SWAP1 SLOAD SWAP1 PUSH2 0x100 EXP SWAP1 DIV PUSH20 0xFFFFFFFFFFFFFFFFFFFFFFFFFFFFFFFFFFFFFFFF AND PUSH20 0xFFFFFFFFFFFFFFFFFFFFFFFFFFFFFFFFFFFFFFFF AND PUSH20 0xFFFFFFFFFFFFFFFFFFFFFFFFFFFFFFFFFFFFFFFF AND DUP2 MSTORE PUSH1 0x20 ADD PUSH1 0x2 DUP3 ADD DUP1 SLOAD PUSH2 0x3B5 SWAP1 PUSH2 0x134F JUMP JUMPDEST DUP1 PUSH1 0x1F ADD PUSH1 0x20 DUP1 SWAP2 DIV MUL PUSH1 0x20 ADD PUSH1 0x40 MLOAD SWAP1 DUP2 ADD PUSH1 0x40 MSTORE DUP1 SWAP3 SWAP2 SWAP1 DUP2 DUP2 MSTORE PUSH1 0x20 ADD DUP3 DUP1 SLOAD PUSH2 0x3E1 SWAP1 PUSH2 0x134F JUMP JUMPDEST DUP1 ISZERO PUSH2 0x42E JUMPI DUP1 PUSH1 0x1F LT PUSH2 0x403 JUMPI PUSH2 0x100 DUP1 DUP4 SLOAD DIV MUL DUP4 MSTORE SWAP2 PUSH1 0x20 ADD SWAP2 PUSH2 0x42E JUMP JUMPDEST DUP3 ADD SWAP2 SWAP1 PUSH1 0x0 MSTORE PUSH1 0x20 PUSH1 0x0 KECCAK256 SWAP1 JUMPDEST DUP2 SLOAD DUP2 MSTORE SWAP1 PUSH1 0x1 ADD SWAP1 PUSH1 0x20 ADD DUP1 DUP4 GT PUSH2 0x411 JUMPI DUP3 SWAP1 SUB PUSH1 0x1F AND DUP3 ADD SWAP2 JUMPDEST POP POP POP POP POP DUP2 MSTORE PUSH1 0x20 ADD PUSH1 0x3 DUP3 ADD SLOAD DUP2 MSTORE PUSH1 0x20 ADD PUSH1 0x4 DUP3 ADD SLOAD DUP2 MSTORE POP POP SWAP1 POP SWAP3 SWAP2 POP POP JUMP JUMPDEST PUSH1 0x60 PUSH1 0x1 PUSH1 0x0 DUP4 PUSH20 0xFFFFFFFFFFFFFFFFFFFFFFFFFFFFFFFFFFFFFFFF AND PUSH20 0xFFFFFFFFFFFFFFFFFFFFFFFFFFFFFFFFFFFFFFFF AND DUP2 MSTORE PUSH1 0x20 ADD SWAP1 DUP2 MSTORE PUSH1 0x20 ADD PUSH1 0x0 KECCAK256 DUP1 SLOAD DUP1 PUSH1 0x20 MUL PUSH1 0x20 ADD PUSH1 0x40 MLOAD SWAP1 DUP2 ADD PUSH1 0x40 MSTORE DUP1 SWAP3 SWAP2 SWAP1 DUP2 DUP2 MSTORE PUSH1 0x20 ADD PUSH1 0x0 SWAP1 JUMPDEST DUP3 DUP3 LT ISZERO PUSH2 0x5EC JUMPI DUP4 DUP3 SWAP1 PUSH1 0x0 MSTORE PUSH1 0x20 PUSH1 0x0 KECCAK256 SWAP1 PUSH1 0x5 MUL ADD PUSH1 0x40 MLOAD DUP1 PUSH1 0xA0 ADD PUSH1 0x40 MSTORE SWAP1 DUP2 PUSH1 0x0 DUP3 ADD SLOAD DUP2 MSTORE PUSH1 0x20 ADD PUSH1 0x1 DUP3 ADD PUSH1 0x0 SWAP1 SLOAD SWAP1 PUSH2 0x100 EXP SWAP1 DIV PUSH20 0xFFFFFFFFFFFFFFFFFFFFFFFFFFFFFFFFFFFFFFFF AND PUSH20 0xFFFFFFFFFFFFFFFFFFFFFFFFFFFFFFFFFFFFFFFF AND PUSH20 0xFFFFFFFFFFFFFFFFFFFFFFFFFFFFFFFFFFFFFFFF AND DUP2 MSTORE PUSH1 0x20 ADD PUSH1 0x2 DUP3 ADD DUP1 SLOAD PUSH2 0x547 SWAP1 PUSH2 0x134F JUMP JUMPDEST DUP1 PUSH1 0x1F ADD PUSH1 0x20 DUP1 SWAP2 DIV MUL PUSH1 0x20 ADD PUSH1 0x40 MLOAD SWAP1 DUP2 ADD PUSH1 0x40 MSTORE DUP1 SWAP3 SWAP2 SWAP1 DUP2 DUP2 MSTORE PUSH1 0x20 ADD DUP3 DUP1 SLOAD PUSH2 0x573 SWAP1 PUSH2 0x134F JUMP JUMPDEST DUP1 ISZERO PUSH2 0x5C0 JUMPI DUP1 PUSH1 0x1F LT PUSH2 0x595 JUMPI PUSH2 0x100 DUP1 DUP4 SLOAD DIV MUL DUP4 MSTORE SWAP2 PUSH1 0x20 ADD SWAP2 PUSH2 0x5C0 JUMP JUMPDEST DUP3 ADD SWAP2 SWAP1 PUSH1 0x0 MSTORE PUSH1 0x20 PUSH1 0x0 KECCAK256 SWAP1 JUMPDEST DUP2 SLOAD DUP2 MSTORE SWAP1 PUSH1 0x1 ADD SWAP1 PUSH1 0x20 ADD DUP1 DUP4 GT PUSH2 0x5A3 JUMPI DUP3 SWAP1 SUB PUSH1 0x1F AND DUP3 ADD SWAP2 JUMPDEST POP POP POP POP POP DUP2 MSTORE PUSH1 0x20 ADD PUSH1 0x3 DUP3 ADD SLOAD DUP2 MSTORE PUSH1 0x20 ADD PUSH1 0x4 DUP3 ADD SLOAD DUP2 MSTORE POP POP DUP2 MSTORE PUSH1 0x20 ADD SWAP1 PUSH1 0x1 ADD SWAP1 PUSH2 0x4B4 JUMP JUMPDEST POP POP POP POP SWAP1 POP SWAP2 SWAP1 POP JUMP JUMPDEST DUP1 PUSH1 0x1 PUSH1 0x0 DUP5 PUSH20 0xFFFFFFFFFFFFFFFFFFFFFFFFFFFFFFFFFFFFFFFF AND PUSH20 0xFFFFFFFFFFFFFFFFFFFFFFFFFFFFFFFFFFFFFFFF AND DUP2 MSTORE PUSH1 0x20 ADD SWAP1 DUP2 MSTORE PUSH1 0x20 ADD PUSH1 0x0 KECCAK256 DUP3 DUP2 SLOAD DUP2 LT PUSH2 0x649 JUMPI PUSH2 0x648 PUSH2 0x1381 JUMP JUMPDEST JUMPDEST SWAP1 PUSH1 0x0 MSTORE PUSH1 0x20 PUSH1 0x0 KECCAK256 SWAP1 PUSH1 0x5 MUL ADD PUSH1 0x0 ADD SLOAD EQ PUSH2 0x69B JUMPI PUSH1 0x40 MLOAD PUSH32 0x8C379A000000000000000000000000000000000000000000000000000000000 DUP2 MSTORE PUSH1 0x4 ADD PUSH2 0x692 SWAP1 PUSH2 0x13FC JUMP JUMPDEST PUSH1 0x40 MLOAD DUP1 SWAP2 SUB SWAP1 REVERT JUMPDEST PUSH1 0x0 PUSH1 0x1 PUSH1 0x0 DUP5 PUSH20 0xFFFFFFFFFFFFFFFFFFFFFFFFFFFFFFFFFFFFFFFF AND PUSH20 0xFFFFFFFFFFFFFFFFFFFFFFFFFFFFFFFFFFFFFFFF AND DUP2 MSTORE PUSH1 0x20 ADD SWAP1 DUP2 MSTORE PUSH1 0x20 ADD PUSH1 0x0 KECCAK256 DUP3 DUP2 SLOAD DUP2 LT PUSH2 0x6EE JUMPI PUSH2 0x6ED PUSH2 0x1381 JUMP JUMPDEST JUMPDEST SWAP1 PUSH1 0x0 MSTORE PUSH1 0x20 PUSH1 0x0 KECCAK256 SWAP1 PUSH1 0x5 MUL ADD PUSH1 0x4 ADD SLOAD GT PUSH2 0x740 JUMPI PUSH1 0x40 MLOAD PUSH32 0x8C379A000000000000000000000000000000000000000000000000000000000 DUP2 MSTORE PUSH1 0x4 ADD PUSH2 0x737 SWAP1 PUSH2 0x1468 JUMP JUMPDEST PUSH1 0x40 MLOAD DUP1 SWAP2 SUB SWAP1 REVERT JUMPDEST PUSH1 0x1 PUSH1 0x0 DUP4 PUSH20 0xFFFFFFFFFFFFFFFFFFFFFFFFFFFFFFFFFFFFFFFF AND PUSH20 0xFFFFFFFFFFFFFFFFFFFFFFFFFFFFFFFFFFFFFFFF AND DUP2 MSTORE PUSH1 0x20 ADD SWAP1 DUP2 MSTORE PUSH1 0x20 ADD PUSH1 0x0 KECCAK256 DUP2 DUP2 SLOAD DUP2 LT PUSH2 0x791 JUMPI PUSH2 0x790 PUSH2 0x1381 JUMP JUMPDEST JUMPDEST SWAP1 PUSH1 0x0 MSTORE PUSH1 0x20 PUSH1 0x0 KECCAK256 SWAP1 PUSH1 0x5 MUL ADD PUSH1 0x4 ADD PUSH1 0x0 DUP2 SLOAD DUP1 SWAP3 SWAP2 SWAP1 PUSH2 0x7B3 SWAP1 PUSH2 0x14B7 JUMP JUMPDEST SWAP2 SWAP1 POP SSTORE POP POP POP JUMP JUMPDEST PUSH1 0x2 PUSH1 0x0 SWAP1 SLOAD SWAP1 PUSH2 0x100 EXP SWAP1 DIV PUSH20 0xFFFFFFFFFFFFFFFFFFFFFFFFFFFFFFFFFFFFFFFF AND PUSH20 0xFFFFFFFFFFFFFFFFFFFFFFFFFFFFFFFFFFFFFFFF AND CALLER PUSH20 0xFFFFFFFFFFFFFFFFFFFFFFFFFFFFFFFFFFFFFFFF AND EQ PUSH2 0x84C JUMPI PUSH1 0x40 MLOAD PUSH32 0x8C379A000000000000000000000000000000000000000000000000000000000 DUP2 MSTORE PUSH1 0x4 ADD PUSH2 0x843 SWAP1 PUSH2 0x152D JUMP JUMPDEST PUSH1 0x40 MLOAD DUP1 SWAP2 SUB SWAP1 REVERT JUMPDEST DUP1 PUSH1 0x0 DUP1 PUSH2 0x100 EXP DUP2 SLOAD DUP2 PUSH2 0xFFFF MUL NOT AND SWAP1 DUP4 PUSH2 0xFFFF AND MUL OR SWAP1 SSTORE POP POP JUMP JUMPDEST DUP1 PUSH1 0x1 PUSH1 0x0 DUP5 PUSH20 0xFFFFFFFFFFFFFFFFFFFFFFFFFFFFFFFFFFFFFFFF AND PUSH20 0xFFFFFFFFFFFFFFFFFFFFFFFFFFFFFFFFFFFFFFFF AND DUP2 MSTORE PUSH1 0x20 ADD SWAP1 DUP2 MSTORE PUSH1 0x20 ADD PUSH1 0x0 KECCAK256 DUP3 DUP2 SLOAD DUP2 LT PUSH2 0x8BD JUMPI PUSH2 0x8BC PUSH2 0x1381 JUMP JUMPDEST JUMPDEST SWAP1 PUSH1 0x0 MSTORE PUSH1 0x20 PUSH1 0x0 KECCAK256 SWAP1 PUSH1 0x5 MUL ADD PUSH1 0x0 ADD SLOAD EQ PUSH2 0x90F JUMPI PUSH1 0x40 MLOAD PUSH32 0x8C379A000000000000000000000000000000000000000000000000000000000 DUP2 MSTORE PUSH1 0x4 ADD PUSH2 0x906 SWAP1 PUSH2 0x13FC JUMP JUMPDEST PUSH1 0x40 MLOAD DUP1 SWAP2 SUB SWAP1 REVERT JUMPDEST PUSH1 0x1 PUSH1 0x0 DUP4 PUSH20 0xFFFFFFFFFFFFFFFFFFFFFFFFFFFFFFFFFFFFFFFF AND PUSH20 0xFFFFFFFFFFFFFFFFFFFFFFFFFFFFFFFFFFFFFFFF AND DUP2 MSTORE PUSH1 0x20 ADD SWAP1 DUP2 MSTORE PUSH1 0x20 ADD PUSH1 0x0 KECCAK256 DUP2 DUP2 SLOAD DUP2 LT PUSH2 0x960 JUMPI PUSH2 0x95F PUSH2 0x1381 JUMP JUMPDEST JUMPDEST SWAP1 PUSH1 0x0 MSTORE PUSH1 0x20 PUSH1 0x0 KECCAK256 SWAP1 PUSH1 0x5 MUL ADD PUSH1 0x4 ADD PUSH1 0x0 DUP2 SLOAD DUP1 SWAP3 SWAP2 SWAP1 PUSH2 0x982 SWAP1 PUSH2 0x154D JUMP JUMPDEST SWAP2 SWAP1 POP SSTORE POP POP POP JUMP JUMPDEST PUSH1 0x0 DUP1 SLOAD SWAP1 PUSH2 0x100 EXP SWAP1 DIV PUSH2 0xFFFF AND DUP2 JUMP JUMPDEST PUSH1 0x0 DUP1 SLOAD SWAP1 PUSH2 0x100 EXP SWAP1 DIV PUSH2 0xFFFF AND PUSH2 0xFFFF AND DUP2 MLOAD GT ISZERO PUSH2 0x9F3 JUMPI PUSH1 0x40 MLOAD PUSH32 0x8C379A000000000000000000000000000000000000000000000000000000000 DUP2 MSTORE PUSH1 0x4 ADD PUSH2 0x9EA SWAP1 PUSH2 0x15E2 JUMP JUMPDEST PUSH1 0x40 MLOAD DUP1 SWAP2 SUB SWAP1 REVERT JUMPDEST PUSH1 0x0 PUSH1 0x40 MLOAD DUP1 PUSH1 0xA0 ADD PUSH1 0x40 MSTORE DUP1 PUSH1 0x1 PUSH1 0x0 CALLER PUSH20 0xFFFFFFFFFFFFFFFFFFFFFFFFFFFFFFFFFFFFFFFF AND PUSH20 0xFFFFFFFFFFFFFFFFFFFFFFFFFFFFFFFFFFFFFFFF AND DUP2 MSTORE PUSH1 0x20 ADD SWAP1 DUP2 MSTORE PUSH1 0x20 ADD PUSH1 0x0 KECCAK256 DUP1 SLOAD SWAP1 POP DUP2 MSTORE PUSH1 0x20 ADD CALLER PUSH20 0xFFFFFFFFFFFFFFFFFFFFFFFFFFFFFFFFFFFFFFFF AND DUP2 MSTORE PUSH1 0x20 ADD DUP4 DUP2 MSTORE PUSH1 0x20 ADD TIMESTAMP DUP2 MSTORE PUSH1 0x20 ADD PUSH1 0x0 DUP2 MSTORE POP SWAP1 POP PUSH1 0x1 PUSH1 0x0 CALLER PUSH20 0xFFFFFFFFFFFFFFFFFFFFFFFFFFFFFFFFFFFFFFFF AND PUSH20 0xFFFFFFFFFFFFFFFFFFFFFFFFFFFFFFFFFFFFFFFF AND DUP2 MSTORE PUSH1 0x20 ADD SWAP1 DUP2 MSTORE PUSH1 0x20 ADD PUSH1 0x0 KECCAK256 DUP2 SWAP1 DUP1 PUSH1 0x1 DUP2 SLOAD ADD DUP1 DUP3 SSTORE DUP1 SWAP2 POP POP PUSH1 0x1 SWAP1 SUB SWAP1 PUSH1 0x0 MSTORE PUSH1 0x20 PUSH1 0x0 KECCAK256 SWAP1 PUSH1 0x5 MUL ADD PUSH1 0x0 SWAP1 SWAP2 SWAP1 SWAP2 SWAP1 SWAP2 POP PUSH1 0x0 DUP3 ADD MLOAD DUP2 PUSH1 0x0 ADD SSTORE PUSH1 0x20 DUP3 ADD MLOAD DUP2 PUSH1 0x1 ADD PUSH1 0x0 PUSH2 0x100 EXP DUP2 SLOAD DUP2 PUSH20 0xFFFFFFFFFFFFFFFFFFFFFFFFFFFFFFFFFFFFFFFF MUL NOT AND SWAP1 DUP4 PUSH20 0xFFFFFFFFFFFFFFFFFFFFFFFFFFFFFFFFFFFFFFFF AND MUL OR SWAP1 SSTORE POP PUSH1 0x40 DUP3 ADD MLOAD DUP2 PUSH1 0x2 ADD SWAP1 DUP1 MLOAD SWAP1 PUSH1 0x20 ADD SWAP1 PUSH2 0xB4D SWAP3 SWAP2 SWAP1 PUSH2 0xBD3 JUMP JUMPDEST POP PUSH1 0x60 DUP3 ADD MLOAD DUP2 PUSH1 0x3 ADD SSTORE PUSH1 0x80 DUP3 ADD MLOAD DUP2 PUSH1 0x4 ADD SSTORE POP POP POP POP JUMP JUMPDEST PUSH1 0x2 PUSH1 0x0 SWAP1 SLOAD SWAP1 PUSH2 0x100 EXP SWAP1 DIV PUSH20 0xFFFFFFFFFFFFFFFFFFFFFFFFFFFFFFFFFFFFFFFF AND DUP2 JUMP JUMPDEST PUSH1 0x40 MLOAD DUP1 PUSH1 0xA0 ADD PUSH1 0x40 MSTORE DUP1 PUSH1 0x0 DUP2 MSTORE PUSH1 0x20 ADD PUSH1 0x0 PUSH20 0xFFFFFFFFFFFFFFFFFFFFFFFFFFFFFFFFFFFFFFFF AND DUP2 MSTORE PUSH1 0x20 ADD PUSH1 0x60 DUP2 MSTORE PUSH1 0x20 ADD PUSH1 0x0 DUP2 MSTORE PUSH1 0x20 ADD PUSH1 0x0 DUP2 MSTORE POP SWAP1 JUMP JUMPDEST DUP3 DUP1 SLOAD PUSH2 0xBDF SWAP1 PUSH2 0x134F JUMP JUMPDEST SWAP1 PUSH1 0x0 MSTORE PUSH1 0x20 PUSH1 0x0 KECCAK256 SWAP1 PUSH1 0x1F ADD PUSH1 0x20 SWAP1 DIV DUP2 ADD SWAP3 DUP3 PUSH2 0xC01 JUMPI PUSH1 0x0 DUP6 SSTORE PUSH2 0xC48 JUMP JUMPDEST DUP3 PUSH1 0x1F LT PUSH2 0xC1A JUMPI DUP1 MLOAD PUSH1 0xFF NOT AND DUP4 DUP1 ADD OR DUP6 SSTORE PUSH2 0xC48 JUMP JUMPDEST DUP3 DUP1 ADD PUSH1 0x1 ADD DUP6 SSTORE DUP3 ISZERO PUSH2 0xC48 JUMPI SWAP2 DUP3 ADD JUMPDEST DUP3 DUP2 GT ISZERO PUSH2 0xC47 JUMPI DUP3 MLOAD DUP3 SSTORE SWAP2 PUSH1 0x20 ADD SWAP2 SWAP1 PUSH1 0x1 ADD SWAP1 PUSH2 0xC2C JUMP JUMPDEST JUMPDEST POP SWAP1 POP PUSH2 0xC55 SWAP2 SWAP1 PUSH2 0xC59 JUMP JUMPDEST POP SWAP1 JUMP JUMPDEST JUMPDEST DUP1 DUP3 GT ISZERO PUSH2 0xC72 JUMPI PUSH1 0x0 DUP2 PUSH1 0x0 SWAP1 SSTORE POP PUSH1 0x1 ADD PUSH2 0xC5A JUMP JUMPDEST POP SWAP1 JUMP JUMPDEST PUSH1 0x0 PUSH1 0x40 MLOAD SWAP1 POP SWAP1 JUMP JUMPDEST PUSH1 0x0 DUP1 REVERT JUMPDEST PUSH1 0x0 DUP1 REVERT JUMPDEST PUSH1 0x0 PUSH20 0xFFFFFFFFFFFFFFFFFFFFFFFFFFFFFFFFFFFFFFFF DUP3 AND SWAP1 POP SWAP2 SWAP1 POP JUMP JUMPDEST PUSH1 0x0 PUSH2 0xCB5 DUP3 PUSH2 0xC8A JUMP JUMPDEST SWAP1 POP SWAP2 SWAP1 POP JUMP JUMPDEST PUSH2 0xCC5 DUP2 PUSH2 0xCAA JUMP JUMPDEST DUP2 EQ PUSH2 0xCD0 JUMPI PUSH1 0x0 DUP1 REVERT JUMPDEST POP JUMP JUMPDEST PUSH1 0x0 DUP2 CALLDATALOAD SWAP1 POP PUSH2 0xCE2 DUP2 PUSH2 0xCBC JUMP JUMPDEST SWAP3 SWAP2 POP POP JUMP JUMPDEST PUSH1 0x0 DUP2 SWAP1 POP SWAP2 SWAP1 POP JUMP JUMPDEST PUSH2 0xCFB DUP2 PUSH2 0xCE8 JUMP JUMPDEST DUP2 EQ PUSH2 0xD06 JUMPI PUSH1 0x0 DUP1 REVERT JUMPDEST POP JUMP JUMPDEST PUSH1 0x0 DUP2 CALLDATALOAD SWAP1 POP PUSH2 0xD18 DUP2 PUSH2 0xCF2 JUMP JUMPDEST SWAP3 SWAP2 POP POP JUMP JUMPDEST PUSH1 0x0 DUP1 PUSH1 0x40 DUP4 DUP6 SUB SLT ISZERO PUSH2 0xD35 JUMPI PUSH2 0xD34 PUSH2 0xC80 JUMP JUMPDEST JUMPDEST PUSH1 0x0 PUSH2 0xD43 DUP6 DUP3 DUP7 ADD PUSH2 0xCD3 JUMP JUMPDEST SWAP3 POP POP PUSH1 0x20 PUSH2 0xD54 DUP6 DUP3 DUP7 ADD PUSH2 0xD09 JUMP JUMPDEST SWAP2 POP POP SWAP3 POP SWAP3 SWAP1 POP JUMP JUMPDEST PUSH2 0xD67 DUP2 PUSH2 0xCE8 JUMP JUMPDEST DUP3 MSTORE POP POP JUMP JUMPDEST PUSH2 0xD76 DUP2 PUSH2 0xCAA JUMP JUMPDEST DUP3 MSTORE POP POP JUMP JUMPDEST PUSH1 0x0 DUP2 MLOAD SWAP1 POP SWAP2 SWAP1 POP JUMP JUMPDEST PUSH1 0x0 DUP3 DUP3 MSTORE PUSH1 0x20 DUP3 ADD SWAP1 POP SWAP3 SWAP2 POP POP JUMP JUMPDEST PUSH1 0x0 JUMPDEST DUP4 DUP2 LT ISZERO PUSH2 0xDB6 JUMPI DUP1 DUP3 ADD MLOAD DUP2 DUP5 ADD MSTORE PUSH1 0x20 DUP2 ADD SWAP1 POP PUSH2 0xD9B JUMP JUMPDEST DUP4 DUP2 GT ISZERO PUSH2 0xDC5 JUMPI PUSH1 0x0 DUP5 DUP5 ADD MSTORE JUMPDEST POP POP POP POP JUMP JUMPDEST PUSH1 0x0 PUSH1 0x1F NOT PUSH1 0x1F DUP4 ADD AND SWAP1 POP SWAP2 SWAP1 POP JUMP JUMPDEST PUSH1 0x0 PUSH2 0xDE7 DUP3 PUSH2 0xD7C JUMP JUMPDEST PUSH2 0xDF1 DUP2 DUP6 PUSH2 0xD87 JUMP JUMPDEST SWAP4 POP PUSH2 0xE01 DUP2 DUP6 PUSH1 0x20 DUP7 ADD PUSH2 0xD98 JUMP JUMPDEST PUSH2 0xE0A DUP2 PUSH2 0xDCB JUMP JUMPDEST DUP5 ADD SWAP2 POP POP SWAP3 SWAP2 POP POP JUMP JUMPDEST PUSH1 0x0 PUSH1 0xA0 DUP3 ADD SWAP1 POP PUSH2 0xE2A PUSH1 0x0 DUP4 ADD DUP9 PUSH2 0xD5E JUMP JUMPDEST PUSH2 0xE37 PUSH1 0x20 DUP4 ADD DUP8 PUSH2 0xD6D JUMP JUMPDEST DUP2 DUP2 SUB PUSH1 0x40 DUP4 ADD MSTORE PUSH2 0xE49 DUP2 DUP7 PUSH2 0xDDC JUMP JUMPDEST SWAP1 POP PUSH2 0xE58 PUSH1 0x60 DUP4 ADD DUP6 PUSH2 0xD5E JUMP JUMPDEST PUSH2 0xE65 PUSH1 0x80 DUP4 ADD DUP5 PUSH2 0xD5E JUMP JUMPDEST SWAP7 SWAP6 POP POP POP POP POP POP JUMP JUMPDEST PUSH2 0xE78 DUP2 PUSH2 0xCE8 JUMP JUMPDEST DUP3 MSTORE POP POP JUMP JUMPDEST PUSH2 0xE87 DUP2 PUSH2 0xCAA JUMP JUMPDEST DUP3 MSTORE POP POP JUMP JUMPDEST PUSH1 0x0 DUP3 DUP3 MSTORE PUSH1 0x20 DUP3 ADD SWAP1 POP SWAP3 SWAP2 POP POP JUMP JUMPDEST PUSH1 0x0 PUSH2 0xEA9 DUP3 PUSH2 0xD7C JUMP JUMPDEST PUSH2 0xEB3 DUP2 DUP6 PUSH2 0xE8D JUMP JUMPDEST SWAP4 POP PUSH2 0xEC3 DUP2 DUP6 PUSH1 0x20 DUP7 ADD PUSH2 0xD98 JUMP JUMPDEST PUSH2 0xECC DUP2 PUSH2 0xDCB JUMP JUMPDEST DUP5 ADD SWAP2 POP POP SWAP3 SWAP2 POP POP JUMP JUMPDEST PUSH1 0x0 PUSH1 0xA0 DUP4 ADD PUSH1 0x0 DUP4 ADD MLOAD PUSH2 0xEEF PUSH1 0x0 DUP7 ADD DUP3 PUSH2 0xE6F JUMP JUMPDEST POP PUSH1 0x20 DUP4 ADD MLOAD PUSH2 0xF02 PUSH1 0x20 DUP7 ADD DUP3 PUSH2 0xE7E JUMP JUMPDEST POP PUSH1 0x40 DUP4 ADD MLOAD DUP5 DUP3 SUB PUSH1 0x40 DUP7 ADD MSTORE PUSH2 0xF1A DUP3 DUP3 PUSH2 0xE9E JUMP JUMPDEST SWAP2 POP POP PUSH1 0x60 DUP4 ADD MLOAD PUSH2 0xF2F PUSH1 0x60 DUP7 ADD DUP3 PUSH2 0xE6F JUMP JUMPDEST POP PUSH1 0x80 DUP4 ADD MLOAD PUSH2 0xF42 PUSH1 0x80 DUP7 ADD DUP3 PUSH2 0xE6F JUMP JUMPDEST POP DUP1 SWAP2 POP POP SWAP3 SWAP2 POP POP JUMP JUMPDEST PUSH1 0x0 PUSH1 0x20 DUP3 ADD SWAP1 POP DUP2 DUP2 SUB PUSH1 0x0 DUP4 ADD MSTORE PUSH2 0xF67 DUP2 DUP5 PUSH2 0xED7 JUMP JUMPDEST SWAP1 POP SWAP3 SWAP2 POP POP JUMP JUMPDEST PUSH1 0x0 PUSH1 0x20 DUP3 DUP5 SUB SLT ISZERO PUSH2 0xF85 JUMPI PUSH2 0xF84 PUSH2 0xC80 JUMP JUMPDEST JUMPDEST PUSH1 0x0 PUSH2 0xF93 DUP5 DUP3 DUP6 ADD PUSH2 0xCD3 JUMP JUMPDEST SWAP2 POP POP SWAP3 SWAP2 POP POP JUMP JUMPDEST PUSH1 0x0 DUP2 MLOAD SWAP1 POP SWAP2 SWAP1 POP JUMP JUMPDEST PUSH1 0x0 DUP3 DUP3 MSTORE PUSH1 0x20 DUP3 ADD SWAP1 POP SWAP3 SWAP2 POP POP JUMP JUMPDEST PUSH1 0x0 DUP2 SWAP1 POP PUSH1 0x20 DUP3 ADD SWAP1 POP SWAP2 SWAP1 POP JUMP JUMPDEST PUSH1 0x0 PUSH1 0xA0 DUP4 ADD PUSH1 0x0 DUP4 ADD MLOAD PUSH2 0xFE0 PUSH1 0x0 DUP7 ADD DUP3 PUSH2 0xE6F JUMP JUMPDEST POP PUSH1 0x20 DUP4 ADD MLOAD PUSH2 0xFF3 PUSH1 0x20 DUP7 ADD DUP3 PUSH2 0xE7E JUMP JUMPDEST POP PUSH1 0x40 DUP4 ADD MLOAD DUP5 DUP3 SUB PUSH1 0x40 DUP7 ADD MSTORE PUSH2 0x100B DUP3 DUP3 PUSH2 0xE9E JUMP JUMPDEST SWAP2 POP POP PUSH1 0x60 DUP4 ADD MLOAD PUSH2 0x1020 PUSH1 0x60 DUP7 ADD DUP3 PUSH2 0xE6F JUMP JUMPDEST POP PUSH1 0x80 DUP4 ADD MLOAD PUSH2 0x1033 PUSH1 0x80 DUP7 ADD DUP3 PUSH2 0xE6F JUMP JUMPDEST POP DUP1 SWAP2 POP POP SWAP3 SWAP2 POP POP JUMP JUMPDEST PUSH1 0x0 PUSH2 0x104A DUP4 DUP4 PUSH2 0xFC8 JUMP JUMPDEST SWAP1 POP SWAP3 SWAP2 POP POP JUMP JUMPDEST PUSH1 0x0 PUSH1 0x20 DUP3 ADD SWAP1 POP SWAP2 SWAP1 POP JUMP JUMPDEST PUSH1 0x0 PUSH2 0x106A DUP3 PUSH2 0xF9C JUMP JUMPDEST PUSH2 0x1074 DUP2 DUP6 PUSH2 0xFA7 JUMP JUMPDEST SWAP4 POP DUP4 PUSH1 0x20 DUP3 MUL DUP6 ADD PUSH2 0x1086 DUP6 PUSH2 0xFB8 JUMP JUMPDEST DUP1 PUSH1 0x0 JUMPDEST DUP6 DUP2 LT ISZERO PUSH2 0x10C2 JUMPI DUP5 DUP5 SUB DUP10 MSTORE DUP2 MLOAD PUSH2 0x10A3 DUP6 DUP3 PUSH2 0x103E JUMP JUMPDEST SWAP5 POP PUSH2 0x10AE DUP4 PUSH2 0x1052 JUMP JUMPDEST SWAP3 POP PUSH1 0x20 DUP11 ADD SWAP10 POP POP PUSH1 0x1 DUP2 ADD SWAP1 POP PUSH2 0x108A JUMP JUMPDEST POP DUP3 SWAP8 POP DUP8 SWAP6 POP POP POP POP POP POP SWAP3 SWAP2 POP POP JUMP JUMPDEST PUSH1 0x0 PUSH1 0x20 DUP3 ADD SWAP1 POP DUP2 DUP2 SUB PUSH1 0x0 DUP4 ADD MSTORE PUSH2 0x10EE DUP2 DUP5 PUSH2 0x105F JUMP JUMPDEST SWAP1 POP SWAP3 SWAP2 POP POP JUMP JUMPDEST PUSH1 0x0 PUSH2 0xFFFF DUP3 AND SWAP1 POP SWAP2 SWAP1 POP JUMP JUMPDEST PUSH2 0x110D DUP2 PUSH2 0x10F6 JUMP JUMPDEST DUP2 EQ PUSH2 0x1118 JUMPI PUSH1 0x0 DUP1 REVERT JUMPDEST POP JUMP JUMPDEST PUSH1 0x0 DUP2 CALLDATALOAD SWAP1 POP PUSH2 0x112A DUP2 PUSH2 0x1104 JUMP JUMPDEST SWAP3 SWAP2 POP POP JUMP JUMPDEST PUSH1 0x0 PUSH1 0x20 DUP3 DUP5 SUB SLT ISZERO PUSH2 0x1146 JUMPI PUSH2 0x1145 PUSH2 0xC80 JUMP JUMPDEST JUMPDEST PUSH1 0x0 PUSH2 0x1154 DUP5 DUP3 DUP6 ADD PUSH2 0x111B JUMP JUMPDEST SWAP2 POP POP SWAP3 SWAP2 POP POP JUMP JUMPDEST PUSH2 0x1166 DUP2 PUSH2 0x10F6 JUMP JUMPDEST DUP3 MSTORE POP POP JUMP JUMPDEST PUSH1 0x0 PUSH1 0x20 DUP3 ADD SWAP1 POP PUSH2 0x1181 PUSH1 0x0 DUP4 ADD DUP5 PUSH2 0x115D JUMP JUMPDEST SWAP3 SWAP2 POP POP JUMP JUMPDEST PUSH1 0x0 DUP1 REVERT JUMPDEST PUSH1 0x0 DUP1 REVERT JUMPDEST PUSH32 0x4E487B7100000000000000000000000000000000000000000000000000000000 PUSH1 0x0 MSTORE PUSH1 0x41 PUSH1 0x4 MSTORE PUSH1 0x24 PUSH1 0x0 REVERT JUMPDEST PUSH2 0x11C9 DUP3 PUSH2 0xDCB JUMP JUMPDEST DUP2 ADD DUP2 DUP2 LT PUSH8 0xFFFFFFFFFFFFFFFF DUP3 GT OR ISZERO PUSH2 0x11E8 JUMPI PUSH2 0x11E7 PUSH2 0x1191 JUMP JUMPDEST JUMPDEST DUP1 PUSH1 0x40 MSTORE POP POP POP JUMP JUMPDEST PUSH1 0x0 PUSH2 0x11FB PUSH2 0xC76 JUMP JUMPDEST SWAP1 POP PUSH2 0x1207 DUP3 DUP3 PUSH2 0x11C0 JUMP JUMPDEST SWAP2 SWAP1 POP JUMP JUMPDEST PUSH1 0x0 PUSH8 0xFFFFFFFFFFFFFFFF DUP3 GT ISZERO PUSH2 0x1227 JUMPI PUSH2 0x1226 PUSH2 0x1191 JUMP JUMPDEST JUMPDEST PUSH2 0x1230 DUP3 PUSH2 0xDCB JUMP JUMPDEST SWAP1 POP PUSH1 0x20 DUP2 ADD SWAP1 POP SWAP2 SWAP1 POP JUMP JUMPDEST DUP3 DUP2 DUP4 CALLDATACOPY PUSH1 0x0 DUP4 DUP4 ADD MSTORE POP POP POP JUMP JUMPDEST PUSH1 0x0 PUSH2 0x125F PUSH2 0x125A DUP5 PUSH2 0x120C JUMP JUMPDEST PUSH2 0x11F1 JUMP JUMPDEST SWAP1 POP DUP3 DUP2 MSTORE PUSH1 0x20 DUP2 ADD DUP5 DUP5 DUP5 ADD GT ISZERO PUSH2 0x127B JUMPI PUSH2 0x127A PUSH2 0x118C JUMP JUMPDEST JUMPDEST PUSH2 0x1286 DUP5 DUP3 DUP6 PUSH2 0x123D JUMP JUMPDEST POP SWAP4 SWAP3 POP POP POP JUMP JUMPDEST PUSH1 0x0 DUP3 PUSH1 0x1F DUP4 ADD SLT PUSH2 0x12A3 JUMPI PUSH2 0x12A2 PUSH2 0x1187 JUMP JUMPDEST JUMPDEST DUP2 CALLDATALOAD PUSH2 0x12B3 DUP5 DUP3 PUSH1 0x20 DUP7 ADD PUSH2 0x124C JUMP JUMPDEST SWAP2 POP POP SWAP3 SWAP2 POP POP JUMP JUMPDEST PUSH1 0x0 PUSH1 0x20 DUP3 DUP5 SUB SLT ISZERO PUSH2 0x12D2 JUMPI PUSH2 0x12D1 PUSH2 0xC80 JUMP JUMPDEST JUMPDEST PUSH1 0x0 DUP3 ADD CALLDATALOAD PUSH8 0xFFFFFFFFFFFFFFFF DUP2 GT ISZERO PUSH2 0x12F0 JUMPI PUSH2 0x12EF PUSH2 0xC85 JUMP JUMPDEST JUMPDEST PUSH2 0x12FC DUP5 DUP3 DUP6 ADD PUSH2 0x128E JUMP JUMPDEST SWAP2 POP POP SWAP3 SWAP2 POP POP JUMP JUMPDEST PUSH1 0x0 PUSH1 0x20 DUP3 ADD SWAP1 POP PUSH2 0x131A PUSH1 0x0 DUP4 ADD DUP5 PUSH2 0xD6D JUMP JUMPDEST SWAP3 SWAP2 POP POP JUMP JUMPDEST PUSH32 0x4E487B7100000000000000000000000000000000000000000000000000000000 PUSH1 0x0 MSTORE PUSH1 0x22 PUSH1 0x4 MSTORE PUSH1 0x24 PUSH1 0x0 REVERT JUMPDEST PUSH1 0x0 PUSH1 0x2 DUP3 DIV SWAP1 POP PUSH1 0x1 DUP3 AND DUP1 PUSH2 0x1367 JUMPI PUSH1 0x7F DUP3 AND SWAP2 POP JUMPDEST PUSH1 0x20 DUP3 LT DUP2 EQ ISZERO PUSH2 0x137B JUMPI PUSH2 0x137A PUSH2 0x1320 JUMP JUMPDEST JUMPDEST POP SWAP2 SWAP1 POP JUMP JUMPDEST PUSH32 0x4E487B7100000000000000000000000000000000000000000000000000000000 PUSH1 0x0 MSTORE PUSH1 0x32 PUSH1 0x4 MSTORE PUSH1 0x24 PUSH1 0x0 REVERT JUMPDEST PUSH32 0x545745455420444F4553204E4F54204558495354210000000000000000000000 PUSH1 0x0 DUP3 ADD MSTORE POP JUMP JUMPDEST PUSH1 0x0 PUSH2 0x13E6 PUSH1 0x15 DUP4 PUSH2 0xD87 JUMP JUMPDEST SWAP2 POP PUSH2 0x13F1 DUP3 PUSH2 0x13B0 JUMP JUMPDEST PUSH1 0x20 DUP3 ADD SWAP1 POP SWAP2 SWAP1 POP JUMP JUMPDEST PUSH1 0x0 PUSH1 0x20 DUP3 ADD SWAP1 POP DUP2 DUP2 SUB PUSH1 0x0 DUP4 ADD MSTORE PUSH2 0x1415 DUP2 PUSH2 0x13D9 JUMP JUMPDEST SWAP1 POP SWAP2 SWAP1 POP JUMP JUMPDEST PUSH32 0x545745455420484153204E4F204C494B45532100000000000000000000000000 PUSH1 0x0 DUP3 ADD MSTORE POP JUMP JUMPDEST PUSH1 0x0 PUSH2 0x1452 PUSH1 0x13 DUP4 PUSH2 0xD87 JUMP JUMPDEST SWAP2 POP PUSH2 0x145D DUP3 PUSH2 0x141C JUMP JUMPDEST PUSH1 0x20 DUP3 ADD SWAP1 POP SWAP2 SWAP1 POP JUMP JUMPDEST PUSH1 0x0 PUSH1 0x20 DUP3 ADD SWAP1 POP DUP2 DUP2 SUB PUSH1 0x0 DUP4 ADD MSTORE PUSH2 0x1481 DUP2 PUSH2 0x1445 JUMP JUMPDEST SWAP1 POP SWAP2 SWAP1 POP JUMP JUMPDEST PUSH32 0x4E487B7100000000000000000000000000000000000000000000000000000000 PUSH1 0x0 MSTORE PUSH1 0x11 PUSH1 0x4 MSTORE PUSH1 0x24 PUSH1 0x0 REVERT JUMPDEST PUSH1 0x0 PUSH2 0x14C2 DUP3 PUSH2 0xCE8 JUMP JUMPDEST SWAP2 POP PUSH1 0x0 DUP3 EQ ISZERO PUSH2 0x14D6 JUMPI PUSH2 0x14D5 PUSH2 0x1488 JUMP JUMPDEST JUMPDEST PUSH1 0x1 DUP3 SUB SWAP1 POP SWAP2 SWAP1 POP JUMP JUMPDEST PUSH32 0x594F5520415245204E4F5420544845204F574E45522100000000000000000000 PUSH1 0x0 DUP3 ADD MSTORE POP JUMP JUMPDEST PUSH1 0x0 PUSH2 0x1517 PUSH1 0x16 DUP4 PUSH2 0xD87 JUMP JUMPDEST SWAP2 POP PUSH2 0x1522 DUP3 PUSH2 0x14E1 JUMP JUMPDEST PUSH1 0x20 DUP3 ADD SWAP1 POP SWAP2 SWAP1 POP JUMP JUMPDEST PUSH1 0x0 PUSH1 0x20 DUP3 ADD SWAP1 POP DUP2 DUP2 SUB PUSH1 0x0 DUP4 ADD MSTORE PUSH2 0x1546 DUP2 PUSH2 0x150A JUMP JUMPDEST SWAP1 POP SWAP2 SWAP1 POP JUMP JUMPDEST PUSH1 0x0 PUSH2 0x1558 DUP3 PUSH2 0xCE8 JUMP JUMPDEST SWAP2 POP PUSH32 0xFFFFFFFFFFFFFFFFFFFFFFFFFFFFFFFFFFFFFFFFFFFFFFFFFFFFFFFFFFFFFFFF DUP3 EQ ISZERO PUSH2 0x158B JUMPI PUSH2 0x158A PUSH2 0x1488 JUMP JUMPDEST JUMPDEST PUSH1 0x1 DUP3 ADD SWAP1 POP SWAP2 SWAP1 POP JUMP JUMPDEST PUSH32 0x545745455420544F4F204C4F4E47210000000000000000000000000000000000 PUSH1 0x0 DUP3 ADD MSTORE POP JUMP JUMPDEST PUSH1 0x0 PUSH2 0x15CC PUSH1 0xF DUP4 PUSH2 0xD87 JUMP JUMPDEST SWAP2 POP PUSH2 0x15D7 DUP3 PUSH2 0x1596 JUMP JUMPDEST PUSH1 0x20 DUP3 ADD SWAP1 POP SWAP2 SWAP1 POP JUMP JUMPDEST PUSH1 0x0 PUSH1 0x20 DUP3 ADD SWAP1 POP DUP2 DUP2 SUB PUSH1 0x0 DUP4 ADD MSTORE PUSH2 0x15FB DUP2 PUSH2 0x15BF JUMP JUMPDEST SWAP1 POP SWAP2 SWAP1 POP JUMP INVALID LOG2 PUSH5 0x6970667358 0x22 SLT KECCAK256 PUSH29 0xF8817EE3525799459B05EFBA8C52413D2D04EAF288D70F2228EA25E429 0x2B PUSH31 0x64736F6C634300080900330000000000000000000000000000000000000000 "
				},
				"gasEstimates": {
					"creation": {
						"codeDepositCost": "1137600",
						"executionCost": "49713",
						"totalCost": "1187313"
					},
					"external": {
						"MAX_TWEET_LENGTH()": "2512",
						"changeTweetLength(uint16)": "26849",
						"createTweet(string)": "infinite",
						"getAllTweets(address)": "infinite",
						"getTweet(address,uint256)": "infinite",
						"likeTweet(address,uint256)": "infinite",
						"owner()": "2602",
						"tweets(address,uint256)": "infinite",
						"unlikeTweet(address,uint256)": "infinite"
					}
				},
				"methodIdentifiers": {
					"MAX_TWEET_LENGTH()": "6eb10797",
					"changeTweetLength(uint16)": "58bfa4ab",
					"createTweet(string)": "7c9cd2bc",
					"getAllTweets(address)": "12e7ee1c",
					"getTweet(address,uint256)": "112f54e3",
					"likeTweet(address,uint256)": "63378216",
					"owner()": "8da5cb5b",
					"tweets(address,uint256)": "05a1b4a9",
					"unlikeTweet(address,uint256)": "3d9b569f"
				}
			},
			"storageLayout": {
				"storage": [
					{
						"astId": 4,
						"contract": "contracts/X.sol:X",
						"label": "MAX_TWEET_LENGTH",
						"offset": 0,
						"slot": "0",
						"type": "t_uint16"
					},
					{
						"astId": 21,
						"contract": "contracts/X.sol:X",
						"label": "tweets",
						"offset": 0,
						"slot": "1",
						"type": "t_mapping(t_address,t_array(t_struct(Tweet)15_storage)dyn_storage)"
					},
					{
						"astId": 23,
						"contract": "contracts/X.sol:X",
						"label": "owner",
						"offset": 0,
						"slot": "2",
						"type": "t_address"
					}
				],
				"types": {
					"t_address": {
						"encoding": "inplace",
						"label": "address",
						"numberOfBytes": "20"
					},
					"t_array(t_struct(Tweet)15_storage)dyn_storage": {
						"base": "t_struct(Tweet)15_storage",
						"encoding": "dynamic_array",
						"label": "struct X.Tweet[]",
						"numberOfBytes": "32"
					},
					"t_mapping(t_address,t_array(t_struct(Tweet)15_storage)dyn_storage)": {
						"encoding": "mapping",
						"key": "t_address",
						"label": "mapping(address => struct X.Tweet[])",
						"numberOfBytes": "32",
						"value": "t_array(t_struct(Tweet)15_storage)dyn_storage"
					},
					"t_string_storage": {
						"encoding": "bytes",
						"label": "string",
						"numberOfBytes": "32"
					},
					"t_struct(Tweet)15_storage": {
						"encoding": "inplace",
						"label": "struct X.Tweet",
						"members": [
							{
								"astId": 6,
								"contract": "contracts/X.sol:X",
								"label": "id",
								"offset": 0,
								"slot": "0",
								"type": "t_uint256"
							},
							{
								"astId": 8,
								"contract": "contracts/X.sol:X",
								"label": "author",
								"offset": 0,
								"slot": "1",
								"type": "t_address"
							},
							{
								"astId": 10,
								"contract": "contracts/X.sol:X",
								"label": "content",
								"offset": 0,
								"slot": "2",
								"type": "t_string_storage"
							},
							{
								"astId": 12,
								"contract": "contracts/X.sol:X",
								"label": "timestamp",
								"offset": 0,
								"slot": "3",
								"type": "t_uint256"
							},
							{
								"astId": 14,
								"contract": "contracts/X.sol:X",
								"label": "likes",
								"offset": 0,
								"slot": "4",
								"type": "t_uint256"
							}
						],
						"numberOfBytes": "160"
					},
					"t_uint16": {
						"encoding": "inplace",
						"label": "uint16",
						"numberOfBytes": "2"
					},
					"t_uint256": {
						"encoding": "inplace",
						"label": "uint256",
						"numberOfBytes": "32"
					}
				}
			},
			"userdoc": {
				"kind": "user",
				"methods": {},
				"version": 1
			}
		}
	}
}